{
	"contracts/AuctionCreator.sol": {
		"AuctionCreator": {
			"abi": [
				{
					"inputs": [],
					"stateMutability": "nonpayable",
					"type": "constructor"
				},
				{
					"inputs": [
						{
							"internalType": "uint256",
							"name": "",
							"type": "uint256"
						}
					],
					"name": "auctions",
					"outputs": [
						{
							"internalType": "contract Auction",
							"name": "",
							"type": "address"
						}
					],
					"stateMutability": "view",
					"type": "function"
				},
				{
					"inputs": [],
					"name": "deployAuction",
					"outputs": [],
					"stateMutability": "nonpayable",
					"type": "function"
				},
				{
					"inputs": [],
					"name": "ownerCreator",
					"outputs": [
						{
							"internalType": "address",
							"name": "",
							"type": "address"
						}
					],
					"stateMutability": "view",
					"type": "function"
				}
			],
			"devdoc": {
				"kind": "dev",
				"methods": {},
				"version": 1
			},
			"evm": {
				"assembly": "    /* \"contracts/AuctionCreator.sol\":95:394  contract AuctionCreator{... */\n  mstore(0x40, 0x80)\n    /* \"contracts/AuctionCreator.sol\":190:245  constructor(){... */\n  callvalue\n  dup1\n  iszero\n  tag_1\n  jumpi\n  0x00\n  dup1\n  revert\ntag_1:\n  pop\n    /* \"contracts/AuctionCreator.sol\":228:238  msg.sender */\n  caller\n    /* \"contracts/AuctionCreator.sol\":213:225  ownerCreator */\n  0x00\n  dup1\n    /* \"contracts/AuctionCreator.sol\":213:238  ownerCreator = msg.sender */\n  0x0100\n  exp\n  dup2\n  sload\n  dup2\n  0xffffffffffffffffffffffffffffffffffffffff\n  mul\n  not\n  and\n  swap1\n  dup4\n  0xffffffffffffffffffffffffffffffffffffffff\n  and\n  mul\n  or\n  swap1\n  sstore\n  pop\n    /* \"contracts/AuctionCreator.sol\":95:394  contract AuctionCreator{... */\n  dataSize(sub_0)\n  dup1\n  dataOffset(sub_0)\n  0x00\n  codecopy\n  0x00\n  return\nstop\n\nsub_0: assembly {\n        /* \"contracts/AuctionCreator.sol\":95:394  contract AuctionCreator{... */\n      mstore(0x40, 0x80)\n      callvalue\n      dup1\n      iszero\n      tag_1\n      jumpi\n      0x00\n      dup1\n      revert\n    tag_1:\n      pop\n      jumpi(tag_2, lt(calldatasize, 0x04))\n      shr(0xe0, calldataload(0x00))\n      dup1\n      0x571a26a0\n      eq\n      tag_3\n      jumpi\n      dup1\n      0x773c9546\n      eq\n      tag_4\n      jumpi\n      dup1\n      0x94fa4198\n      eq\n      tag_5\n      jumpi\n    tag_2:\n      0x00\n      dup1\n      revert\n        /* \"contracts/AuctionCreator.sol\":158:183  Auction[] public auctions */\n    tag_3:\n      tag_6\n      0x04\n      dup1\n      calldatasize\n      sub\n      dup2\n      add\n      swap1\n      tag_7\n      swap2\n      swap1\n      tag_8\n      jump\t// in\n    tag_7:\n      tag_9\n      jump\t// in\n    tag_6:\n      mload(0x40)\n      tag_10\n      swap2\n      swap1\n      tag_11\n      jump\t// in\n    tag_10:\n      mload(0x40)\n      dup1\n      swap2\n      sub\n      swap1\n      return\n        /* \"contracts/AuctionCreator.sol\":251:392  function deployAuction() public{... */\n    tag_4:\n      tag_12\n      tag_13\n      jump\t// in\n    tag_12:\n      stop\n        /* \"contracts/AuctionCreator.sol\":125:152  address public ownerCreator */\n    tag_5:\n      tag_14\n      tag_15\n      jump\t// in\n    tag_14:\n      mload(0x40)\n      tag_16\n      swap2\n      swap1\n      tag_17\n      jump\t// in\n    tag_16:\n      mload(0x40)\n      dup1\n      swap2\n      sub\n      swap1\n      return\n        /* \"contracts/AuctionCreator.sol\":158:183  Auction[] public auctions */\n    tag_9:\n      0x01\n      dup2\n      dup2\n      sload\n      dup2\n      lt\n      tag_18\n      jumpi\n      0x00\n      dup1\n      revert\n    tag_18:\n      swap1\n      0x00\n      mstore\n      keccak256(0x00, 0x20)\n      add\n      0x00\n      swap2\n      pop\n      sload\n      swap1\n      0x0100\n      exp\n      swap1\n      div\n      0xffffffffffffffffffffffffffffffffffffffff\n      and\n      dup2\n      jump\t// out\n        /* \"contracts/AuctionCreator.sol\":251:392  function deployAuction() public{... */\n    tag_13:\n        /* \"contracts/AuctionCreator.sol\":292:317  Auction newAuctionAddress */\n      0x00\n        /* \"contracts/AuctionCreator.sol\":332:342  msg.sender */\n      caller\n        /* \"contracts/AuctionCreator.sol\":320:343  new Auction(msg.sender) */\n      mload(0x40)\n      tag_21\n      swap1\n      tag_22\n      jump\t// in\n    tag_21:\n      tag_23\n      swap2\n      swap1\n      tag_17\n      jump\t// in\n    tag_23:\n      mload(0x40)\n      dup1\n      swap2\n      sub\n      swap1\n      0x00\n      create\n      dup1\n      iszero\n      dup1\n      iszero\n      tag_24\n      jumpi\n      returndatasize\n      0x00\n      dup1\n      returndatacopy\n      revert(0x00, returndatasize)\n    tag_24:\n      pop\n        /* \"contracts/AuctionCreator.sol\":292:343  Auction newAuctionAddress = new Auction(msg.sender) */\n      swap1\n      pop\n        /* \"contracts/AuctionCreator.sol\":353:361  auctions */\n      0x01\n        /* \"contracts/AuctionCreator.sol\":367:384  newAuctionAddress */\n      dup2\n        /* \"contracts/AuctionCreator.sol\":353:385  auctions.push(newAuctionAddress) */\n      swap1\n      dup1\n      0x01\n      dup2\n      sload\n      add\n      dup1\n      dup3\n      sstore\n      dup1\n      swap2\n      pop\n      pop\n      0x01\n      swap1\n      sub\n      swap1\n      0x00\n      mstore\n      keccak256(0x00, 0x20)\n      add\n      0x00\n      swap1\n      swap2\n      swap1\n      swap2\n      swap1\n      swap2\n      0x0100\n      exp\n      dup2\n      sload\n      dup2\n      0xffffffffffffffffffffffffffffffffffffffff\n      mul\n      not\n      and\n      swap1\n      dup4\n      0xffffffffffffffffffffffffffffffffffffffff\n      and\n      mul\n      or\n      swap1\n      sstore\n      pop\n        /* \"contracts/AuctionCreator.sol\":282:392  {... */\n      pop\n        /* \"contracts/AuctionCreator.sol\":251:392  function deployAuction() public{... */\n      jump\t// out\n        /* \"contracts/AuctionCreator.sol\":125:152  address public ownerCreator */\n    tag_15:\n      0x00\n      dup1\n      sload\n      swap1\n      0x0100\n      exp\n      swap1\n      div\n      0xffffffffffffffffffffffffffffffffffffffff\n      and\n      dup2\n      jump\t// out\n    tag_22:\n      dataSize(sub_0)\n      dup1\n      dataOffset(sub_0)\n      dup4\n      codecopy\n      add\n      swap1\n      jump\t// out\n        /* \"#utility.yul\":7:146   */\n    tag_27:\n        /* \"#utility.yul\":53:58   */\n      0x00\n        /* \"#utility.yul\":91:97   */\n      dup2\n        /* \"#utility.yul\":78:98   */\n      calldataload\n        /* \"#utility.yul\":69:98   */\n      swap1\n      pop\n        /* \"#utility.yul\":107:140   */\n      tag_29\n        /* \"#utility.yul\":134:139   */\n      dup2\n        /* \"#utility.yul\":107:140   */\n      tag_30\n      jump\t// in\n    tag_29:\n        /* \"#utility.yul\":7:146   */\n      swap3\n      swap2\n      pop\n      pop\n      jump\t// out\n        /* \"#utility.yul\":152:481   */\n    tag_8:\n        /* \"#utility.yul\":211:217   */\n      0x00\n        /* \"#utility.yul\":260:262   */\n      0x20\n        /* \"#utility.yul\":248:257   */\n      dup3\n        /* \"#utility.yul\":239:246   */\n      dup5\n        /* \"#utility.yul\":235:258   */\n      sub\n        /* \"#utility.yul\":231:263   */\n      slt\n        /* \"#utility.yul\":228:347   */\n      iszero\n      tag_32\n      jumpi\n        /* \"#utility.yul\":266:345   */\n      tag_33\n      tag_34\n      jump\t// in\n    tag_33:\n        /* \"#utility.yul\":228:347   */\n    tag_32:\n        /* \"#utility.yul\":386:387   */\n      0x00\n        /* \"#utility.yul\":411:464   */\n      tag_35\n        /* \"#utility.yul\":456:463   */\n      dup5\n        /* \"#utility.yul\":447:453   */\n      dup3\n        /* \"#utility.yul\":436:445   */\n      dup6\n        /* \"#utility.yul\":432:454   */\n      add\n        /* \"#utility.yul\":411:464   */\n      tag_27\n      jump\t// in\n    tag_35:\n        /* \"#utility.yul\":401:464   */\n      swap2\n      pop\n        /* \"#utility.yul\":357:474   */\n      pop\n        /* \"#utility.yul\":152:481   */\n      swap3\n      swap2\n      pop\n      pop\n      jump\t// out\n        /* \"#utility.yul\":487:605   */\n    tag_36:\n        /* \"#utility.yul\":574:598   */\n      tag_38\n        /* \"#utility.yul\":592:597   */\n      dup2\n        /* \"#utility.yul\":574:598   */\n      tag_39\n      jump\t// in\n    tag_38:\n        /* \"#utility.yul\":569:572   */\n      dup3\n        /* \"#utility.yul\":562:599   */\n      mstore\n        /* \"#utility.yul\":487:605   */\n      pop\n      pop\n      jump\t// out\n        /* \"#utility.yul\":611:772   */\n    tag_40:\n        /* \"#utility.yul\":713:765   */\n      tag_42\n        /* \"#utility.yul\":759:764   */\n      dup2\n        /* \"#utility.yul\":713:765   */\n      tag_43\n      jump\t// in\n    tag_42:\n        /* \"#utility.yul\":708:711   */\n      dup3\n        /* \"#utility.yul\":701:766   */\n      mstore\n        /* \"#utility.yul\":611:772   */\n      pop\n      pop\n      jump\t// out\n        /* \"#utility.yul\":778:1000   */\n    tag_17:\n        /* \"#utility.yul\":871:875   */\n      0x00\n        /* \"#utility.yul\":909:911   */\n      0x20\n        /* \"#utility.yul\":898:907   */\n      dup3\n        /* \"#utility.yul\":894:912   */\n      add\n        /* \"#utility.yul\":886:912   */\n      swap1\n      pop\n        /* \"#utility.yul\":922:993   */\n      tag_45\n        /* \"#utility.yul\":990:991   */\n      0x00\n        /* \"#utility.yul\":979:988   */\n      dup4\n        /* \"#utility.yul\":975:992   */\n      add\n        /* \"#utility.yul\":966:972   */\n      dup5\n        /* \"#utility.yul\":922:993   */\n      tag_36\n      jump\t// in\n    tag_45:\n        /* \"#utility.yul\":778:1000   */\n      swap3\n      swap2\n      pop\n      pop\n      jump\t// out\n        /* \"#utility.yul\":1006:1258   */\n    tag_11:\n        /* \"#utility.yul\":1114:1118   */\n      0x00\n        /* \"#utility.yul\":1152:1154   */\n      0x20\n        /* \"#utility.yul\":1141:1150   */\n      dup3\n        /* \"#utility.yul\":1137:1155   */\n      add\n        /* \"#utility.yul\":1129:1155   */\n      swap1\n      pop\n        /* \"#utility.yul\":1165:1251   */\n      tag_47\n        /* \"#utility.yul\":1248:1249   */\n      0x00\n        /* \"#utility.yul\":1237:1246   */\n      dup4\n        /* \"#utility.yul\":1233:1250   */\n      add\n        /* \"#utility.yul\":1224:1230   */\n      dup5\n        /* \"#utility.yul\":1165:1251   */\n      tag_40\n      jump\t// in\n    tag_47:\n        /* \"#utility.yul\":1006:1258   */\n      swap3\n      swap2\n      pop\n      pop\n      jump\t// out\n        /* \"#utility.yul\":1345:1441   */\n    tag_39:\n        /* \"#utility.yul\":1382:1389   */\n      0x00\n        /* \"#utility.yul\":1411:1435   */\n      tag_51\n        /* \"#utility.yul\":1429:1434   */\n      dup3\n        /* \"#utility.yul\":1411:1435   */\n      tag_52\n      jump\t// in\n    tag_51:\n        /* \"#utility.yul\":1400:1435   */\n      swap1\n      pop\n        /* \"#utility.yul\":1345:1441   */\n      swap2\n      swap1\n      pop\n      jump\t// out\n        /* \"#utility.yul\":1447:1573   */\n    tag_52:\n        /* \"#utility.yul\":1484:1491   */\n      0x00\n        /* \"#utility.yul\":1524:1566   */\n      0xffffffffffffffffffffffffffffffffffffffff\n        /* \"#utility.yul\":1517:1522   */\n      dup3\n        /* \"#utility.yul\":1513:1567   */\n      and\n        /* \"#utility.yul\":1502:1567   */\n      swap1\n      pop\n        /* \"#utility.yul\":1447:1573   */\n      swap2\n      swap1\n      pop\n      jump\t// out\n        /* \"#utility.yul\":1579:1656   */\n    tag_54:\n        /* \"#utility.yul\":1616:1623   */\n      0x00\n        /* \"#utility.yul\":1645:1650   */\n      dup2\n        /* \"#utility.yul\":1634:1650   */\n      swap1\n      pop\n        /* \"#utility.yul\":1579:1656   */\n      swap2\n      swap1\n      pop\n      jump\t// out\n        /* \"#utility.yul\":1662:1803   */\n    tag_43:\n        /* \"#utility.yul\":1727:1736   */\n      0x00\n        /* \"#utility.yul\":1760:1797   */\n      tag_57\n        /* \"#utility.yul\":1791:1796   */\n      dup3\n        /* \"#utility.yul\":1760:1797   */\n      tag_58\n      jump\t// in\n    tag_57:\n        /* \"#utility.yul\":1747:1797   */\n      swap1\n      pop\n        /* \"#utility.yul\":1662:1803   */\n      swap2\n      swap1\n      pop\n      jump\t// out\n        /* \"#utility.yul\":1809:1935   */\n    tag_58:\n        /* \"#utility.yul\":1859:1868   */\n      0x00\n        /* \"#utility.yul\":1892:1929   */\n      tag_60\n        /* \"#utility.yul\":1923:1928   */\n      dup3\n        /* \"#utility.yul\":1892:1929   */\n      tag_61\n      jump\t// in\n    tag_60:\n        /* \"#utility.yul\":1879:1929   */\n      swap1\n      pop\n        /* \"#utility.yul\":1809:1935   */\n      swap2\n      swap1\n      pop\n      jump\t// out\n        /* \"#utility.yul\":1941:2054   */\n    tag_61:\n        /* \"#utility.yul\":1991:2000   */\n      0x00\n        /* \"#utility.yul\":2024:2048   */\n      tag_63\n        /* \"#utility.yul\":2042:2047   */\n      dup3\n        /* \"#utility.yul\":2024:2048   */\n      tag_52\n      jump\t// in\n    tag_63:\n        /* \"#utility.yul\":2011:2048   */\n      swap1\n      pop\n        /* \"#utility.yul\":1941:2054   */\n      swap2\n      swap1\n      pop\n      jump\t// out\n        /* \"#utility.yul\":2183:2300   */\n    tag_34:\n        /* \"#utility.yul\":2292:2293   */\n      0x00\n        /* \"#utility.yul\":2289:2290   */\n      dup1\n        /* \"#utility.yul\":2282:2294   */\n      revert\n        /* \"#utility.yul\":2306:2428   */\n    tag_30:\n        /* \"#utility.yul\":2379:2403   */\n      tag_68\n        /* \"#utility.yul\":2397:2402   */\n      dup2\n        /* \"#utility.yul\":2379:2403   */\n      tag_54\n      jump\t// in\n    tag_68:\n        /* \"#utility.yul\":2372:2377   */\n      dup2\n        /* \"#utility.yul\":2369:2404   */\n      eq\n        /* \"#utility.yul\":2359:2422   */\n      tag_69\n      jumpi\n        /* \"#utility.yul\":2418:2419   */\n      0x00\n        /* \"#utility.yul\":2415:2416   */\n      dup1\n        /* \"#utility.yul\":2408:2420   */\n      revert\n        /* \"#utility.yul\":2359:2422   */\n    tag_69:\n        /* \"#utility.yul\":2306:2428   */\n      pop\n      jump\t// out\n    stop\n\n    sub_0: assembly {\n            /* \"contracts/Auction.sol\":70:4494  contract Auction{... */\n          mstore(0x40, 0x80)\n            /* \"contracts/Auction.sol\":585:929  constructor(address _eoa){... */\n          callvalue\n          dup1\n          iszero\n          tag_1\n          jumpi\n          0x00\n          dup1\n          revert\n        tag_1:\n          pop\n          mload(0x40)\n          sub(codesize, bytecodeSize)\n          dup1\n          bytecodeSize\n          dup4\n          codecopy\n          dup2\n          dup2\n          add\n          0x40\n          mstore\n          dup2\n          add\n          swap1\n          tag_2\n          swap2\n          swap1\n          tag_3\n          jump\t// in\n        tag_2:\n            /* \"contracts/Auction.sol\":636:640  _eoa */\n          dup1\n            /* \"contracts/Auction.sol\":620:625  owner */\n          0x00\n          dup1\n            /* \"contracts/Auction.sol\":620:641  owner = payable(_eoa) */\n          0x0100\n          exp\n          dup2\n          sload\n          dup2\n          0xffffffffffffffffffffffffffffffffffffffff\n          mul\n          not\n          and\n          swap1\n          dup4\n          0xffffffffffffffffffffffffffffffffffffffff\n          and\n          mul\n          or\n          swap1\n          sstore\n          pop\n            /* \"contracts/Auction.sol\":705:718  State.Running */\n          0x01\n            /* \"contracts/Auction.sol\":690:702  auctionState */\n          0x04\n          0x00\n            /* \"contracts/Auction.sol\":690:718  auctionState = State.Running */\n          0x0100\n          exp\n          dup2\n          sload\n          dup2\n          0xff\n          mul\n          not\n          and\n          swap1\n          dup4\n          0x03\n          dup2\n          gt\n          iszero\n          tag_6\n          jumpi\n          tag_7\n          tag_8\n          jump\t// in\n        tag_7:\n        tag_6:\n          mul\n          or\n          swap1\n          sstore\n          pop\n            /* \"contracts/Auction.sol\":741:753  block.number */\n          number\n            /* \"contracts/Auction.sol\":728:738  startBlock */\n          0x01\n            /* \"contracts/Auction.sol\":728:753  startBlock = block.number */\n          dup2\n          swap1\n          sstore\n          pop\n            /* \"contracts/Auction.sol\":859:864  40320 */\n          0x9d80\n            /* \"contracts/Auction.sol\":846:856  startBlock */\n          sload(0x01)\n            /* \"contracts/Auction.sol\":846:864  startBlock + 40320 */\n          tag_9\n          swap2\n          swap1\n          tag_10\n          jump\t// in\n        tag_9:\n            /* \"contracts/Auction.sol\":835:843  endBlock */\n          0x02\n            /* \"contracts/Auction.sol\":835:864  endBlock = startBlock + 40320 */\n          dup2\n          swap1\n          sstore\n          pop\n            /* \"contracts/Auction.sol\":874:887  ipfhHash = \"\" */\n          mload(0x40)\n          dup1\n          0x20\n          add\n          0x40\n          mstore\n          dup1\n          0x00\n          dup2\n          mstore\n          pop\n            /* \"contracts/Auction.sol\":874:882  ipfhHash */\n          0x03\n            /* \"contracts/Auction.sol\":874:887  ipfhHash = \"\" */\n          swap1\n          dup1\n          mload\n          swap1\n          0x20\n          add\n          swap1\n          tag_11\n          swap3\n          swap2\n          swap1\n          tag_12\n          jump\t// in\n        tag_11:\n          pop\n            /* \"contracts/Auction.sol\":912:922  0.01 ether */\n          0x2386f26fc10000\n            /* \"contracts/Auction.sol\":897:909  bidIncrement */\n          0x08\n            /* \"contracts/Auction.sol\":897:922  bidIncrement = 0.01 ether */\n          dup2\n          swap1\n          sstore\n          pop\n            /* \"contracts/Auction.sol\":585:929  constructor(address _eoa){... */\n          pop\n            /* \"contracts/Auction.sol\":70:4494  contract Auction{... */\n          jump(tag_13)\n        tag_12:\n          dup3\n          dup1\n          sload\n          tag_14\n          swap1\n          tag_15\n          jump\t// in\n        tag_14:\n          swap1\n          0x00\n          mstore\n          keccak256(0x00, 0x20)\n          swap1\n          0x1f\n          add\n          0x20\n          swap1\n          div\n          dup2\n          add\n          swap3\n          dup3\n          tag_17\n          jumpi\n          0x00\n          dup6\n          sstore\n          jump(tag_16)\n        tag_17:\n          dup3\n          0x1f\n          lt\n          tag_18\n          jumpi\n          dup1\n          mload\n          not(0xff)\n          and\n          dup4\n          dup1\n          add\n          or\n          dup6\n          sstore\n          jump(tag_16)\n        tag_18:\n          dup3\n          dup1\n          add\n          0x01\n          add\n          dup6\n          sstore\n          dup3\n          iszero\n          tag_16\n          jumpi\n          swap2\n          dup3\n          add\n        tag_19:\n          dup3\n          dup2\n          gt\n          iszero\n          tag_20\n          jumpi\n          dup3\n          mload\n          dup3\n          sstore\n          swap2\n          0x20\n          add\n          swap2\n          swap1\n          0x01\n          add\n          swap1\n          jump(tag_19)\n        tag_20:\n        tag_16:\n          pop\n          swap1\n          pop\n          tag_21\n          swap2\n          swap1\n          tag_22\n          jump\t// in\n        tag_21:\n          pop\n          swap1\n          jump\t// out\n        tag_22:\n        tag_23:\n          dup1\n          dup3\n          gt\n          iszero\n          tag_24\n          jumpi\n          0x00\n          dup2\n          0x00\n          swap1\n          sstore\n          pop\n          0x01\n          add\n          jump(tag_23)\n        tag_24:\n          pop\n          swap1\n          jump\t// out\n            /* \"#utility.yul\":7:150   */\n        tag_26:\n            /* \"#utility.yul\":64:69   */\n          0x00\n            /* \"#utility.yul\":95:101   */\n          dup2\n            /* \"#utility.yul\":89:102   */\n          mload\n            /* \"#utility.yul\":80:102   */\n          swap1\n          pop\n            /* \"#utility.yul\":111:144   */\n          tag_28\n            /* \"#utility.yul\":138:143   */\n          dup2\n            /* \"#utility.yul\":111:144   */\n          tag_29\n          jump\t// in\n        tag_28:\n            /* \"#utility.yul\":7:150   */\n          swap3\n          swap2\n          pop\n          pop\n          jump\t// out\n            /* \"#utility.yul\":156:507   */\n        tag_3:\n            /* \"#utility.yul\":226:232   */\n          0x00\n            /* \"#utility.yul\":275:277   */\n          0x20\n            /* \"#utility.yul\":263:272   */\n          dup3\n            /* \"#utility.yul\":254:261   */\n          dup5\n            /* \"#utility.yul\":250:273   */\n          sub\n            /* \"#utility.yul\":246:278   */\n          slt\n            /* \"#utility.yul\":243:362   */\n          iszero\n          tag_31\n          jumpi\n            /* \"#utility.yul\":281:360   */\n          tag_32\n          tag_33\n          jump\t// in\n        tag_32:\n            /* \"#utility.yul\":243:362   */\n        tag_31:\n            /* \"#utility.yul\":401:402   */\n          0x00\n            /* \"#utility.yul\":426:490   */\n          tag_34\n            /* \"#utility.yul\":482:489   */\n          dup5\n            /* \"#utility.yul\":473:479   */\n          dup3\n            /* \"#utility.yul\":462:471   */\n          dup6\n            /* \"#utility.yul\":458:480   */\n          add\n            /* \"#utility.yul\":426:490   */\n          tag_26\n          jump\t// in\n        tag_34:\n            /* \"#utility.yul\":416:490   */\n          swap2\n          pop\n            /* \"#utility.yul\":372:500   */\n          pop\n            /* \"#utility.yul\":156:507   */\n          swap3\n          swap2\n          pop\n          pop\n          jump\t// out\n            /* \"#utility.yul\":594:899   */\n        tag_10:\n            /* \"#utility.yul\":634:637   */\n          0x00\n            /* \"#utility.yul\":653:673   */\n          tag_38\n            /* \"#utility.yul\":671:672   */\n          dup3\n            /* \"#utility.yul\":653:673   */\n          tag_39\n          jump\t// in\n        tag_38:\n            /* \"#utility.yul\":648:673   */\n          swap2\n          pop\n            /* \"#utility.yul\":687:707   */\n          tag_40\n            /* \"#utility.yul\":705:706   */\n          dup4\n            /* \"#utility.yul\":687:707   */\n          tag_39\n          jump\t// in\n        tag_40:\n            /* \"#utility.yul\":682:707   */\n          swap3\n          pop\n            /* \"#utility.yul\":841:842   */\n          dup3\n            /* \"#utility.yul\":773:839   */\n          0xffffffffffffffffffffffffffffffffffffffffffffffffffffffffffffffff\n            /* \"#utility.yul\":769:843   */\n          sub\n            /* \"#utility.yul\":766:767   */\n          dup3\n            /* \"#utility.yul\":763:844   */\n          gt\n            /* \"#utility.yul\":760:867   */\n          iszero\n          tag_41\n          jumpi\n            /* \"#utility.yul\":847:865   */\n          tag_42\n          tag_43\n          jump\t// in\n        tag_42:\n            /* \"#utility.yul\":760:867   */\n        tag_41:\n            /* \"#utility.yul\":891:892   */\n          dup3\n            /* \"#utility.yul\":888:889   */\n          dup3\n            /* \"#utility.yul\":884:893   */\n          add\n            /* \"#utility.yul\":877:893   */\n          swap1\n          pop\n            /* \"#utility.yul\":594:899   */\n          swap3\n          swap2\n          pop\n          pop\n          jump\t// out\n            /* \"#utility.yul\":905:1001   */\n        tag_44:\n            /* \"#utility.yul\":942:949   */\n          0x00\n            /* \"#utility.yul\":971:995   */\n          tag_46\n            /* \"#utility.yul\":989:994   */\n          dup3\n            /* \"#utility.yul\":971:995   */\n          tag_47\n          jump\t// in\n        tag_46:\n            /* \"#utility.yul\":960:995   */\n          swap1\n          pop\n            /* \"#utility.yul\":905:1001   */\n          swap2\n          swap1\n          pop\n          jump\t// out\n            /* \"#utility.yul\":1007:1133   */\n        tag_47:\n            /* \"#utility.yul\":1044:1051   */\n          0x00\n            /* \"#utility.yul\":1084:1126   */\n          0xffffffffffffffffffffffffffffffffffffffff\n            /* \"#utility.yul\":1077:1082   */\n          dup3\n            /* \"#utility.yul\":1073:1127   */\n          and\n            /* \"#utility.yul\":1062:1127   */\n          swap1\n          pop\n            /* \"#utility.yul\":1007:1133   */\n          swap2\n          swap1\n          pop\n          jump\t// out\n            /* \"#utility.yul\":1139:1216   */\n        tag_39:\n            /* \"#utility.yul\":1176:1183   */\n          0x00\n            /* \"#utility.yul\":1205:1210   */\n          dup2\n            /* \"#utility.yul\":1194:1210   */\n          swap1\n          pop\n            /* \"#utility.yul\":1139:1216   */\n          swap2\n          swap1\n          pop\n          jump\t// out\n            /* \"#utility.yul\":1222:1542   */\n        tag_15:\n            /* \"#utility.yul\":1266:1272   */\n          0x00\n            /* \"#utility.yul\":1303:1304   */\n          0x02\n            /* \"#utility.yul\":1297:1301   */\n          dup3\n            /* \"#utility.yul\":1293:1305   */\n          div\n            /* \"#utility.yul\":1283:1305   */\n          swap1\n          pop\n            /* \"#utility.yul\":1350:1351   */\n          0x01\n            /* \"#utility.yul\":1344:1348   */\n          dup3\n            /* \"#utility.yul\":1340:1352   */\n          and\n            /* \"#utility.yul\":1371:1389   */\n          dup1\n            /* \"#utility.yul\":1361:1442   */\n          tag_51\n          jumpi\n            /* \"#utility.yul\":1427:1431   */\n          0x7f\n            /* \"#utility.yul\":1419:1425   */\n          dup3\n            /* \"#utility.yul\":1415:1432   */\n          and\n            /* \"#utility.yul\":1405:1432   */\n          swap2\n          pop\n            /* \"#utility.yul\":1361:1442   */\n        tag_51:\n            /* \"#utility.yul\":1489:1491   */\n          0x20\n            /* \"#utility.yul\":1481:1487   */\n          dup3\n            /* \"#utility.yul\":1478:1492   */\n          lt\n            /* \"#utility.yul\":1458:1476   */\n          dup2\n            /* \"#utility.yul\":1455:1493   */\n          eq\n            /* \"#utility.yul\":1452:1536   */\n          iszero\n          tag_52\n          jumpi\n            /* \"#utility.yul\":1508:1526   */\n          tag_53\n          tag_54\n          jump\t// in\n        tag_53:\n            /* \"#utility.yul\":1452:1536   */\n        tag_52:\n            /* \"#utility.yul\":1273:1542   */\n          pop\n            /* \"#utility.yul\":1222:1542   */\n          swap2\n          swap1\n          pop\n          jump\t// out\n            /* \"#utility.yul\":1548:1728   */\n        tag_43:\n            /* \"#utility.yul\":1596:1673   */\n          0x4e487b7100000000000000000000000000000000000000000000000000000000\n            /* \"#utility.yul\":1593:1594   */\n          0x00\n            /* \"#utility.yul\":1586:1674   */\n          mstore\n            /* \"#utility.yul\":1693:1697   */\n          0x11\n            /* \"#utility.yul\":1690:1691   */\n          0x04\n            /* \"#utility.yul\":1683:1698   */\n          mstore\n            /* \"#utility.yul\":1717:1721   */\n          0x24\n            /* \"#utility.yul\":1714:1715   */\n          0x00\n            /* \"#utility.yul\":1707:1722   */\n          revert\n            /* \"#utility.yul\":1734:1914   */\n        tag_8:\n            /* \"#utility.yul\":1782:1859   */\n          0x4e487b7100000000000000000000000000000000000000000000000000000000\n            /* \"#utility.yul\":1779:1780   */\n          0x00\n            /* \"#utility.yul\":1772:1860   */\n          mstore\n            /* \"#utility.yul\":1879:1883   */\n          0x21\n            /* \"#utility.yul\":1876:1877   */\n          0x04\n            /* \"#utility.yul\":1869:1884   */\n          mstore\n            /* \"#utility.yul\":1903:1907   */\n          0x24\n            /* \"#utility.yul\":1900:1901   */\n          0x00\n            /* \"#utility.yul\":1893:1908   */\n          revert\n            /* \"#utility.yul\":1920:2100   */\n        tag_54:\n            /* \"#utility.yul\":1968:2045   */\n          0x4e487b7100000000000000000000000000000000000000000000000000000000\n            /* \"#utility.yul\":1965:1966   */\n          0x00\n            /* \"#utility.yul\":1958:2046   */\n          mstore\n            /* \"#utility.yul\":2065:2069   */\n          0x22\n            /* \"#utility.yul\":2062:2063   */\n          0x04\n            /* \"#utility.yul\":2055:2070   */\n          mstore\n            /* \"#utility.yul\":2089:2093   */\n          0x24\n            /* \"#utility.yul\":2086:2087   */\n          0x00\n            /* \"#utility.yul\":2079:2094   */\n          revert\n            /* \"#utility.yul\":2229:2346   */\n        tag_33:\n            /* \"#utility.yul\":2338:2339   */\n          0x00\n            /* \"#utility.yul\":2335:2336   */\n          dup1\n            /* \"#utility.yul\":2328:2340   */\n          revert\n            /* \"#utility.yul\":2352:2474   */\n        tag_29:\n            /* \"#utility.yul\":2425:2449   */\n          tag_62\n            /* \"#utility.yul\":2443:2448   */\n          dup2\n            /* \"#utility.yul\":2425:2449   */\n          tag_44\n          jump\t// in\n        tag_62:\n            /* \"#utility.yul\":2418:2423   */\n          dup2\n            /* \"#utility.yul\":2415:2450   */\n          eq\n            /* \"#utility.yul\":2405:2468   */\n          tag_63\n          jumpi\n            /* \"#utility.yul\":2464:2465   */\n          0x00\n            /* \"#utility.yul\":2461:2462   */\n          dup1\n            /* \"#utility.yul\":2454:2466   */\n          revert\n            /* \"#utility.yul\":2405:2468   */\n        tag_63:\n            /* \"#utility.yul\":2352:2474   */\n          pop\n          jump\t// out\n            /* \"contracts/Auction.sol\":70:4494  contract Auction{... */\n        tag_13:\n          dataSize(sub_0)\n          dup1\n          dataOffset(sub_0)\n          0x00\n          codecopy\n          0x00\n          return\n        stop\n\n        sub_0: assembly {\n                /* \"contracts/Auction.sol\":70:4494  contract Auction{... */\n              mstore(0x40, 0x80)\n              jumpi(tag_1, lt(calldatasize, 0x04))\n              shr(0xe0, calldataload(0x00))\n              dup1\n              0x7fb45099\n              gt\n              tag_13\n              jumpi\n              dup1\n              0x7fb45099\n              eq\n              tag_7\n              jumpi\n              dup1\n              0x8da5cb5b\n              eq\n              tag_8\n              jumpi\n              dup1\n              0x8fa8b790\n              eq\n              tag_9\n              jumpi\n              dup1\n              0x91f90157\n              eq\n              tag_10\n              jumpi\n              dup1\n              0xecfc7ecc\n              eq\n              tag_11\n              jumpi\n              dup1\n              0xf5b56c56\n              eq\n              tag_12\n              jumpi\n              jump(tag_1)\n            tag_13:\n              dup1\n              0x083c6323\n              eq\n              tag_2\n              jumpi\n              dup1\n              0x48cd4cb1\n              eq\n              tag_3\n              jumpi\n              dup1\n              0x4ec4d531\n              eq\n              tag_4\n              jumpi\n              dup1\n              0x5228733f\n              eq\n              tag_5\n              jumpi\n              dup1\n              0x62ea82db\n              eq\n              tag_6\n              jumpi\n            tag_1:\n              0x00\n              dup1\n              revert\n                /* \"contracts/Auction.sol\":200:220  uint public endBlock */\n            tag_2:\n              callvalue\n              dup1\n              iszero\n              tag_14\n              jumpi\n              0x00\n              dup1\n              revert\n            tag_14:\n              pop\n              tag_15\n              tag_16\n              jump\t// in\n            tag_15:\n              mload(0x40)\n              tag_17\n              swap2\n              swap1\n              tag_18\n              jump\t// in\n            tag_17:\n              mload(0x40)\n              dup1\n              swap2\n              sub\n              swap1\n              return\n                /* \"contracts/Auction.sol\":172:194  uint public startBlock */\n            tag_3:\n              callvalue\n              dup1\n              iszero\n              tag_19\n              jumpi\n              0x00\n              dup1\n              revert\n            tag_19:\n              pop\n              tag_20\n              tag_21\n              jump\t// in\n            tag_20:\n              mload(0x40)\n              tag_22\n              swap2\n              swap1\n              tag_18\n              jump\t// in\n            tag_22:\n              mload(0x40)\n              dup1\n              swap2\n              sub\n              swap1\n              return\n                /* \"contracts/Auction.sol\":297:319  string public ipfhHash */\n            tag_4:\n              callvalue\n              dup1\n              iszero\n              tag_23\n              jumpi\n              0x00\n              dup1\n              revert\n            tag_23:\n              pop\n              tag_24\n              tag_25\n              jump\t// in\n            tag_24:\n              mload(0x40)\n              tag_26\n              swap2\n              swap1\n              tag_27\n              jump\t// in\n            tag_26:\n              mload(0x40)\n              dup1\n              swap2\n              sub\n              swap1\n              return\n                /* \"contracts/Auction.sol\":2717:4492  function finaliseAuction() public {... */\n            tag_5:\n              callvalue\n              dup1\n              iszero\n              tag_28\n              jumpi\n              0x00\n              dup1\n              revert\n            tag_28:\n              pop\n              tag_29\n              tag_30\n              jump\t// in\n            tag_29:\n              stop\n                /* \"contracts/Auction.sol\":520:554  mapping(address=>uint) public bids */\n            tag_6:\n              callvalue\n              dup1\n              iszero\n              tag_31\n              jumpi\n              0x00\n              dup1\n              revert\n            tag_31:\n              pop\n              tag_32\n              0x04\n              dup1\n              calldatasize\n              sub\n              dup2\n              add\n              swap1\n              tag_33\n              swap2\n              swap1\n              tag_34\n              jump\t// in\n            tag_33:\n              tag_35\n              jump\t// in\n            tag_32:\n              mload(0x40)\n              tag_36\n              swap2\n              swap1\n              tag_18\n              jump\t// in\n            tag_36:\n              mload(0x40)\n              dup1\n              swap2\n              sub\n              swap1\n              return\n                /* \"contracts/Auction.sol\":410:435  State public auctionState */\n            tag_7:\n              callvalue\n              dup1\n              iszero\n              tag_37\n              jumpi\n              0x00\n              dup1\n              revert\n            tag_37:\n              pop\n              tag_38\n              tag_39\n              jump\t// in\n            tag_38:\n              mload(0x40)\n              tag_40\n              swap2\n              swap1\n              tag_41\n              jump\t// in\n            tag_40:\n              mload(0x40)\n              dup1\n              swap2\n              sub\n              swap1\n              return\n                /* \"contracts/Auction.sol\":92:120  address payable public owner */\n            tag_8:\n              callvalue\n              dup1\n              iszero\n              tag_42\n              jumpi\n              0x00\n              dup1\n              revert\n            tag_42:\n              pop\n              tag_43\n              tag_44\n              jump\t// in\n            tag_43:\n              mload(0x40)\n              tag_45\n              swap2\n              swap1\n              tag_46\n              jump\t// in\n            tag_45:\n              mload(0x40)\n              dup1\n              swap2\n              sub\n              swap1\n              return\n                /* \"contracts/Auction.sol\":2623:2711  function cancelAuction() public onlyOwner{... */\n            tag_9:\n              callvalue\n              dup1\n              iszero\n              tag_47\n              jumpi\n              0x00\n              dup1\n              revert\n            tag_47:\n              pop\n              tag_48\n              tag_49\n              jump\t// in\n            tag_48:\n              stop\n                /* \"contracts/Auction.sol\":477:513  address payable public highestBidder */\n            tag_10:\n              callvalue\n              dup1\n              iszero\n              tag_50\n              jumpi\n              0x00\n              dup1\n              revert\n            tag_50:\n              pop\n              tag_51\n              tag_52\n              jump\t// in\n            tag_51:\n              mload(0x40)\n              tag_53\n              swap2\n              swap1\n              tag_46\n              jump\t// in\n            tag_53:\n              mload(0x40)\n              dup1\n              swap2\n              sub\n              swap1\n              return\n                /* \"contracts/Auction.sol\":1442:2617  function placeBid() public payable notOwner afterStart beforeEnd {... */\n            tag_11:\n              tag_54\n              tag_55\n              jump\t// in\n            tag_54:\n              stop\n                /* \"contracts/Auction.sol\":442:471  uint public highestBindingBid */\n            tag_12:\n              callvalue\n              dup1\n              iszero\n              tag_56\n              jumpi\n              0x00\n              dup1\n              revert\n            tag_56:\n              pop\n              tag_57\n              tag_58\n              jump\t// in\n            tag_57:\n              mload(0x40)\n              tag_59\n              swap2\n              swap1\n              tag_18\n              jump\t// in\n            tag_59:\n              mload(0x40)\n              dup1\n              swap2\n              sub\n              swap1\n              return\n                /* \"contracts/Auction.sol\":200:220  uint public endBlock */\n            tag_16:\n              sload(0x02)\n              dup2\n              jump\t// out\n                /* \"contracts/Auction.sol\":172:194  uint public startBlock */\n            tag_21:\n              sload(0x01)\n              dup2\n              jump\t// out\n                /* \"contracts/Auction.sol\":297:319  string public ipfhHash */\n            tag_25:\n              0x03\n              dup1\n              sload\n              tag_60\n              swap1\n              tag_61\n              jump\t// in\n            tag_60:\n              dup1\n              0x1f\n              add\n              0x20\n              dup1\n              swap2\n              div\n              mul\n              0x20\n              add\n              mload(0x40)\n              swap1\n              dup2\n              add\n              0x40\n              mstore\n              dup1\n              swap3\n              swap2\n              swap1\n              dup2\n              dup2\n              mstore\n              0x20\n              add\n              dup3\n              dup1\n              sload\n              tag_62\n              swap1\n              tag_61\n              jump\t// in\n            tag_62:\n              dup1\n              iszero\n              tag_63\n              jumpi\n              dup1\n              0x1f\n              lt\n              tag_64\n              jumpi\n              0x0100\n              dup1\n              dup4\n              sload\n              div\n              mul\n              dup4\n              mstore\n              swap2\n              0x20\n              add\n              swap2\n              jump(tag_63)\n            tag_64:\n              dup3\n              add\n              swap2\n              swap1\n              0x00\n              mstore\n              keccak256(0x00, 0x20)\n              swap1\n            tag_65:\n              dup2\n              sload\n              dup2\n              mstore\n              swap1\n              0x01\n              add\n              swap1\n              0x20\n              add\n              dup1\n              dup4\n              gt\n              tag_65\n              jumpi\n              dup3\n              swap1\n              sub\n              0x1f\n              and\n              dup3\n              add\n              swap2\n            tag_63:\n              pop\n              pop\n              pop\n              pop\n              pop\n              dup2\n              jump\t// out\n                /* \"contracts/Auction.sol\":2717:4492  function finaliseAuction() public {... */\n            tag_30:\n                /* \"contracts/Auction.sol\":2786:2801  State.Cancelled */\n              0x03\n                /* \"contracts/Auction.sol\":2770:2801  auctionState == State.Cancelled */\n              dup1\n              dup2\n              gt\n              iszero\n              tag_67\n              jumpi\n              tag_68\n              tag_69\n              jump\t// in\n            tag_68:\n            tag_67:\n                /* \"contracts/Auction.sol\":2770:2782  auctionState */\n              0x04\n              0x00\n              swap1\n              sload\n              swap1\n              0x0100\n              exp\n              swap1\n              div\n              0xff\n              and\n                /* \"contracts/Auction.sol\":2770:2801  auctionState == State.Cancelled */\n              0x03\n              dup2\n              gt\n              iszero\n              tag_70\n              jumpi\n              tag_71\n              tag_69\n              jump\t// in\n            tag_71:\n            tag_70:\n              eq\n                /* \"contracts/Auction.sol\":2770:2832  auctionState == State.Cancelled || auctionState == State.Ended */\n              dup1\n              tag_72\n              jumpi\n              pop\n                /* \"contracts/Auction.sol\":2821:2832  State.Ended */\n              0x02\n                /* \"contracts/Auction.sol\":2805:2832  auctionState == State.Ended */\n              0x03\n              dup2\n              gt\n              iszero\n              tag_73\n              jumpi\n              tag_74\n              tag_69\n              jump\t// in\n            tag_74:\n            tag_73:\n                /* \"contracts/Auction.sol\":2805:2817  auctionState */\n              0x04\n              0x00\n              swap1\n              sload\n              swap1\n              0x0100\n              exp\n              swap1\n              div\n              0xff\n              and\n                /* \"contracts/Auction.sol\":2805:2832  auctionState == State.Ended */\n              0x03\n              dup2\n              gt\n              iszero\n              tag_75\n              jumpi\n              tag_76\n              tag_69\n              jump\t// in\n            tag_76:\n            tag_75:\n              eq\n                /* \"contracts/Auction.sol\":2770:2832  auctionState == State.Cancelled || auctionState == State.Ended */\n            tag_72:\n                /* \"contracts/Auction.sol\":2761:2833  require (auctionState == State.Cancelled || auctionState == State.Ended) */\n              tag_77\n              jumpi\n              0x00\n              dup1\n              revert\n            tag_77:\n                /* \"contracts/Auction.sol\":2866:2871  owner */\n              0x00\n              dup1\n              sload\n              swap1\n              0x0100\n              exp\n              swap1\n              div\n              0xffffffffffffffffffffffffffffffffffffffff\n              and\n                /* \"contracts/Auction.sol\":2852:2871  msg.sender == owner */\n              0xffffffffffffffffffffffffffffffffffffffff\n              and\n                /* \"contracts/Auction.sol\":2852:2862  msg.sender */\n              caller\n                /* \"contracts/Auction.sol\":2852:2871  msg.sender == owner */\n              0xffffffffffffffffffffffffffffffffffffffff\n              and\n              eq\n                /* \"contracts/Auction.sol\":2852:2896  msg.sender == owner && highestBindingBid > 0 */\n              dup1\n              iszero\n              tag_78\n              jumpi\n              pop\n                /* \"contracts/Auction.sol\":2895:2896  0 */\n              0x00\n                /* \"contracts/Auction.sol\":2875:2892  highestBindingBid */\n              sload(0x05)\n                /* \"contracts/Auction.sol\":2875:2896  highestBindingBid > 0 */\n              gt\n                /* \"contracts/Auction.sol\":2852:2896  msg.sender == owner && highestBindingBid > 0 */\n            tag_78:\n                /* \"contracts/Auction.sol\":2852:2920  msg.sender == owner && highestBindingBid > 0 || bids[msg.sender] > 0 */\n              dup1\n              tag_79\n              jumpi\n              pop\n                /* \"contracts/Auction.sol\":2919:2920  0 */\n              0x00\n                /* \"contracts/Auction.sol\":2900:2904  bids */\n              0x07\n                /* \"contracts/Auction.sol\":2900:2916  bids[msg.sender] */\n              0x00\n                /* \"contracts/Auction.sol\":2905:2915  msg.sender */\n              caller\n                /* \"contracts/Auction.sol\":2900:2916  bids[msg.sender] */\n              0xffffffffffffffffffffffffffffffffffffffff\n              and\n              0xffffffffffffffffffffffffffffffffffffffff\n              and\n              dup2\n              mstore\n              0x20\n              add\n              swap1\n              dup2\n              mstore\n              0x20\n              add\n              0x00\n              keccak256\n              sload\n                /* \"contracts/Auction.sol\":2900:2920  bids[msg.sender] > 0 */\n              gt\n                /* \"contracts/Auction.sol\":2852:2920  msg.sender == owner && highestBindingBid > 0 || bids[msg.sender] > 0 */\n            tag_79:\n                /* \"contracts/Auction.sol\":2843:2921  require (msg.sender == owner && highestBindingBid > 0 || bids[msg.sender] > 0) */\n              tag_80\n              jumpi\n              0x00\n              dup1\n              revert\n            tag_80:\n                /* \"contracts/Auction.sol\":2932:2957  address payable recipient */\n              0x00\n                /* \"contracts/Auction.sol\":2968:2978  msg.sender */\n              caller\n                /* \"contracts/Auction.sol\":2932:2979  address payable recipient = payable(msg.sender) */\n              swap1\n              pop\n                /* \"contracts/Auction.sol\":2989:2999  uint value */\n              0x00\n                /* \"contracts/Auction.sol\":3121:3136  State.Cancelled */\n              0x03\n                /* \"contracts/Auction.sol\":3105:3136  auctionState == State.Cancelled */\n              dup1\n              dup2\n              gt\n              iszero\n              tag_81\n              jumpi\n              tag_82\n              tag_69\n              jump\t// in\n            tag_82:\n            tag_81:\n                /* \"contracts/Auction.sol\":3105:3117  auctionState */\n              0x04\n              0x00\n              swap1\n              sload\n              swap1\n              0x0100\n              exp\n              swap1\n              div\n              0xff\n              and\n                /* \"contracts/Auction.sol\":3105:3136  auctionState == State.Cancelled */\n              0x03\n              dup2\n              gt\n              iszero\n              tag_83\n              jumpi\n              tag_84\n              tag_69\n              jump\t// in\n            tag_84:\n            tag_83:\n              eq\n                /* \"contracts/Auction.sol\":3101:4327  if (auctionState == State.Cancelled){... */\n              iszero\n              tag_85\n              jumpi\n                /* \"contracts/Auction.sol\":3159:3163  bids */\n              0x07\n                /* \"contracts/Auction.sol\":3159:3175  bids[msg.sender] */\n              0x00\n                /* \"contracts/Auction.sol\":3164:3174  msg.sender */\n              caller\n                /* \"contracts/Auction.sol\":3159:3175  bids[msg.sender] */\n              0xffffffffffffffffffffffffffffffffffffffff\n              and\n              0xffffffffffffffffffffffffffffffffffffffff\n              and\n              dup2\n              mstore\n              0x20\n              add\n              swap1\n              dup2\n              mstore\n              0x20\n              add\n              0x00\n              keccak256\n              sload\n                /* \"contracts/Auction.sol\":3151:3175  value = bids[msg.sender] */\n              swap1\n              pop\n                /* \"contracts/Auction.sol\":3101:4327  if (auctionState == State.Cancelled){... */\n              jump(tag_86)\n            tag_85:\n                /* \"contracts/Auction.sol\":3355:3360  owner */\n              0x00\n              dup1\n              sload\n              swap1\n              0x0100\n              exp\n              swap1\n              div\n              0xffffffffffffffffffffffffffffffffffffffff\n              and\n                /* \"contracts/Auction.sol\":3341:3360  msg.sender == owner */\n              0xffffffffffffffffffffffffffffffffffffffff\n              and\n                /* \"contracts/Auction.sol\":3341:3351  msg.sender */\n              caller\n                /* \"contracts/Auction.sol\":3341:3360  msg.sender == owner */\n              0xffffffffffffffffffffffffffffffffffffffff\n              and\n              eq\n                /* \"contracts/Auction.sol\":3337:4317  if (msg.sender == owner){... */\n              iszero\n              tag_87\n              jumpi\n                /* \"contracts/Auction.sol\":3387:3404  highestBindingBid */\n              sload(0x05)\n                /* \"contracts/Auction.sol\":3379:3404  value = highestBindingBid */\n              swap1\n              pop\n                /* \"contracts/Auction.sol\":3638:3651  uint newValue */\n              0x00\n                /* \"contracts/Auction.sol\":3676:3693  highestBindingBid */\n              sload(0x05)\n                /* \"contracts/Auction.sol\":3654:3658  bids */\n              0x07\n                /* \"contracts/Auction.sol\":3654:3673  bids[highestBidder] */\n              0x00\n                /* \"contracts/Auction.sol\":3659:3672  highestBidder */\n              0x06\n              0x00\n              swap1\n              sload\n              swap1\n              0x0100\n              exp\n              swap1\n              div\n              0xffffffffffffffffffffffffffffffffffffffff\n              and\n                /* \"contracts/Auction.sol\":3654:3673  bids[highestBidder] */\n              0xffffffffffffffffffffffffffffffffffffffff\n              and\n              0xffffffffffffffffffffffffffffffffffffffff\n              and\n              dup2\n              mstore\n              0x20\n              add\n              swap1\n              dup2\n              mstore\n              0x20\n              add\n              0x00\n              keccak256\n              sload\n                /* \"contracts/Auction.sol\":3654:3693  bids[highestBidder] - highestBindingBid */\n              tag_88\n              swap2\n              swap1\n              tag_89\n              jump\t// in\n            tag_88:\n                /* \"contracts/Auction.sol\":3638:3693  uint newValue = bids[highestBidder] - highestBindingBid */\n              swap1\n              pop\n                /* \"contracts/Auction.sol\":3733:3741  newValue */\n              dup1\n                /* \"contracts/Auction.sol\":3711:3715  bids */\n              0x07\n                /* \"contracts/Auction.sol\":3711:3730  bids[highestBidder] */\n              0x00\n                /* \"contracts/Auction.sol\":3716:3729  highestBidder */\n              0x06\n              0x00\n              swap1\n              sload\n              swap1\n              0x0100\n              exp\n              swap1\n              div\n              0xffffffffffffffffffffffffffffffffffffffff\n              and\n                /* \"contracts/Auction.sol\":3711:3730  bids[highestBidder] */\n              0xffffffffffffffffffffffffffffffffffffffff\n              and\n              0xffffffffffffffffffffffffffffffffffffffff\n              and\n              dup2\n              mstore\n              0x20\n              add\n              swap1\n              dup2\n              mstore\n              0x20\n              add\n              0x00\n              keccak256\n                /* \"contracts/Auction.sol\":3711:3741  bids[highestBidder] = newValue */\n              dup2\n              swap1\n              sstore\n              pop\n                /* \"contracts/Auction.sol\":3779:3780  0 */\n              0x00\n                /* \"contracts/Auction.sol\":3759:3776  highestBindingBid */\n              0x05\n                /* \"contracts/Auction.sol\":3759:3780  highestBindingBid = 0 */\n              dup2\n              swap1\n              sstore\n              pop\n                /* \"contracts/Auction.sol\":3361:3795  {... */\n              pop\n                /* \"contracts/Auction.sol\":3337:4317  if (msg.sender == owner){... */\n              jump(tag_90)\n            tag_87:\n                /* \"contracts/Auction.sol\":3819:3832  highestBidder */\n              0x06\n              0x00\n              swap1\n              sload\n              swap1\n              0x0100\n              exp\n              swap1\n              div\n              0xffffffffffffffffffffffffffffffffffffffff\n              and\n                /* \"contracts/Auction.sol\":3805:3832  msg.sender == highestBidder */\n              0xffffffffffffffffffffffffffffffffffffffff\n              and\n                /* \"contracts/Auction.sol\":3805:3815  msg.sender */\n              caller\n                /* \"contracts/Auction.sol\":3805:3832  msg.sender == highestBidder */\n              0xffffffffffffffffffffffffffffffffffffffff\n              and\n              eq\n                /* \"contracts/Auction.sol\":3801:4317  if (msg.sender == highestBidder){ // i... */\n              iszero\n              tag_91\n              jumpi\n                /* \"contracts/Auction.sol\":4122:4139  highestBindingBid */\n              sload(0x05)\n                /* \"contracts/Auction.sol\":4103:4107  bids */\n              0x07\n                /* \"contracts/Auction.sol\":4103:4119  bids[msg.sender] */\n              0x00\n                /* \"contracts/Auction.sol\":4108:4118  msg.sender */\n              caller\n                /* \"contracts/Auction.sol\":4103:4119  bids[msg.sender] */\n              0xffffffffffffffffffffffffffffffffffffffff\n              and\n              0xffffffffffffffffffffffffffffffffffffffff\n              and\n              dup2\n              mstore\n              0x20\n              add\n              swap1\n              dup2\n              mstore\n              0x20\n              add\n              0x00\n              keccak256\n              sload\n                /* \"contracts/Auction.sol\":4103:4139  bids[msg.sender] - highestBindingBid */\n              tag_92\n              swap2\n              swap1\n              tag_89\n              jump\t// in\n            tag_92:\n                /* \"contracts/Auction.sol\":4095:4139  value = bids[msg.sender] - highestBindingBid */\n              swap1\n              pop\n                /* \"contracts/Auction.sol\":3801:4317  if (msg.sender == highestBidder){ // i... */\n              jump(tag_93)\n            tag_91:\n                /* \"contracts/Auction.sol\":4286:4290  bids */\n              0x07\n                /* \"contracts/Auction.sol\":4286:4302  bids[msg.sender] */\n              0x00\n                /* \"contracts/Auction.sol\":4291:4301  msg.sender */\n              caller\n                /* \"contracts/Auction.sol\":4286:4302  bids[msg.sender] */\n              0xffffffffffffffffffffffffffffffffffffffff\n              and\n              0xffffffffffffffffffffffffffffffffffffffff\n              and\n              dup2\n              mstore\n              0x20\n              add\n              swap1\n              dup2\n              mstore\n              0x20\n              add\n              0x00\n              keccak256\n              sload\n                /* \"contracts/Auction.sol\":4278:4302  value = bids[msg.sender] */\n              swap1\n              pop\n                /* \"contracts/Auction.sol\":3801:4317  if (msg.sender == highestBidder){ // i... */\n            tag_93:\n                /* \"contracts/Auction.sol\":3337:4317  if (msg.sender == owner){... */\n            tag_90:\n                /* \"contracts/Auction.sol\":3101:4327  if (auctionState == State.Cancelled){... */\n            tag_86:\n                /* \"contracts/Auction.sol\":4360:4369  recipient */\n              dup2\n                /* \"contracts/Auction.sol\":4360:4378  recipient.transfer */\n              0xffffffffffffffffffffffffffffffffffffffff\n              and\n                /* \"contracts/Auction.sol\":4360:4385  recipient.transfer(value) */\n              0x08fc\n                /* \"contracts/Auction.sol\":4379:4384  value */\n              dup3\n                /* \"contracts/Auction.sol\":4360:4385  recipient.transfer(value) */\n              swap1\n              dup2\n              iszero\n              mul\n              swap1\n              mload(0x40)\n              0x00\n              mload(0x40)\n              dup1\n              dup4\n              sub\n              dup2\n              dup6\n              dup9\n              dup9\n              call\n              swap4\n              pop\n              pop\n              pop\n              pop\n              iszero\n              dup1\n              iszero\n              tag_95\n              jumpi\n              returndatasize\n              0x00\n              dup1\n              returndatacopy\n              revert(0x00, returndatasize)\n            tag_95:\n              pop\n                /* \"contracts/Auction.sol\":4484:4485  0 */\n              0x00\n                /* \"contracts/Auction.sol\":4465:4469  bids */\n              0x07\n                /* \"contracts/Auction.sol\":4465:4481  bids[msg.sender] */\n              0x00\n                /* \"contracts/Auction.sol\":4470:4480  msg.sender */\n              caller\n                /* \"contracts/Auction.sol\":4465:4481  bids[msg.sender] */\n              0xffffffffffffffffffffffffffffffffffffffff\n              and\n              0xffffffffffffffffffffffffffffffffffffffff\n              and\n              dup2\n              mstore\n              0x20\n              add\n              swap1\n              dup2\n              mstore\n              0x20\n              add\n              0x00\n              keccak256\n                /* \"contracts/Auction.sol\":4465:4485  bids[msg.sender] = 0 */\n              dup2\n              swap1\n              sstore\n              pop\n                /* \"contracts/Auction.sol\":2751:4492  {... */\n              pop\n              pop\n                /* \"contracts/Auction.sol\":2717:4492  function finaliseAuction() public {... */\n              jump\t// out\n                /* \"contracts/Auction.sol\":520:554  mapping(address=>uint) public bids */\n            tag_35:\n              mstore(0x20, 0x07)\n              dup1\n              0x00\n              mstore\n              keccak256(0x00, 0x40)\n              0x00\n              swap2\n              pop\n              swap1\n              pop\n              sload\n              dup2\n              jump\t// out\n                /* \"contracts/Auction.sol\":410:435  State public auctionState */\n            tag_39:\n              0x04\n              0x00\n              swap1\n              sload\n              swap1\n              0x0100\n              exp\n              swap1\n              div\n              0xff\n              and\n              dup2\n              jump\t// out\n                /* \"contracts/Auction.sol\":92:120  address payable public owner */\n            tag_44:\n              0x00\n              dup1\n              sload\n              swap1\n              0x0100\n              exp\n              swap1\n              div\n              0xffffffffffffffffffffffffffffffffffffffff\n              and\n              dup2\n              jump\t// out\n                /* \"contracts/Auction.sol\":2623:2711  function cancelAuction() public onlyOwner{... */\n            tag_49:\n                /* \"contracts/Auction.sol\":987:992  owner */\n              0x00\n              dup1\n              sload\n              swap1\n              0x0100\n              exp\n              swap1\n              div\n              0xffffffffffffffffffffffffffffffffffffffff\n              and\n                /* \"contracts/Auction.sol\":973:992  msg.sender == owner */\n              0xffffffffffffffffffffffffffffffffffffffff\n              and\n                /* \"contracts/Auction.sol\":973:983  msg.sender */\n              caller\n                /* \"contracts/Auction.sol\":973:992  msg.sender == owner */\n              0xffffffffffffffffffffffffffffffffffffffff\n              and\n              eq\n                /* \"contracts/Auction.sol\":965:993  require(msg.sender == owner) */\n              tag_97\n              jumpi\n              0x00\n              dup1\n              revert\n            tag_97:\n                /* \"contracts/Auction.sol\":2689:2704  State.Cancelled */\n              0x03\n                /* \"contracts/Auction.sol\":2674:2686  auctionState */\n              0x04\n              0x00\n                /* \"contracts/Auction.sol\":2674:2704  auctionState = State.Cancelled */\n              0x0100\n              exp\n              dup2\n              sload\n              dup2\n              0xff\n              mul\n              not\n              and\n              swap1\n              dup4\n              0x03\n              dup2\n              gt\n              iszero\n              tag_99\n              jumpi\n              tag_100\n              tag_69\n              jump\t// in\n            tag_100:\n            tag_99:\n              mul\n              or\n              swap1\n              sstore\n              pop\n                /* \"contracts/Auction.sol\":2623:2711  function cancelAuction() public onlyOwner{... */\n              jump\t// out\n                /* \"contracts/Auction.sol\":477:513  address payable public highestBidder */\n            tag_52:\n              0x06\n              0x00\n              swap1\n              sload\n              swap1\n              0x0100\n              exp\n              swap1\n              div\n              0xffffffffffffffffffffffffffffffffffffffff\n              and\n              dup2\n              jump\t// out\n                /* \"contracts/Auction.sol\":1442:2617  function placeBid() public payable notOwner afterStart beforeEnd {... */\n            tag_55:\n                /* \"contracts/Auction.sol\":1068:1073  owner */\n              0x00\n              dup1\n              sload\n              swap1\n              0x0100\n              exp\n              swap1\n              div\n              0xffffffffffffffffffffffffffffffffffffffff\n              and\n                /* \"contracts/Auction.sol\":1054:1073  msg.sender != owner */\n              0xffffffffffffffffffffffffffffffffffffffff\n              and\n                /* \"contracts/Auction.sol\":1054:1064  msg.sender */\n              caller\n                /* \"contracts/Auction.sol\":1054:1073  msg.sender != owner */\n              0xffffffffffffffffffffffffffffffffffffffff\n              and\n              eq\n              iszero\n                /* \"contracts/Auction.sol\":1046:1074  require(msg.sender != owner) */\n              tag_102\n              jumpi\n              0x00\n              dup1\n              revert\n            tag_102:\n                /* \"contracts/Auction.sol\":1153:1163  startBlock */\n              sload(0x01)\n                /* \"contracts/Auction.sol\":1137:1149  block.number */\n              number\n                /* \"contracts/Auction.sol\":1137:1163  block.number >= startBlock */\n              lt\n              iszero\n                /* \"contracts/Auction.sol\":1129:1164  require(block.number >= startBlock) */\n              tag_104\n              jumpi\n              0x00\n              dup1\n              revert\n            tag_104:\n                /* \"contracts/Auction.sol\":1242:1250  endBlock */\n              sload(0x02)\n                /* \"contracts/Auction.sol\":1226:1238  block.number */\n              number\n                /* \"contracts/Auction.sol\":1226:1250  block.number <= endBlock */\n              gt\n              iszero\n                /* \"contracts/Auction.sol\":1218:1251  require(block.number <= endBlock) */\n              tag_106\n              jumpi\n              0x00\n              dup1\n              revert\n            tag_106:\n                /* \"contracts/Auction.sol\":1581:1594  State.Running */\n              0x01\n                /* \"contracts/Auction.sol\":1565:1594  auctionState == State.Running */\n              0x03\n              dup2\n              gt\n              iszero\n              tag_108\n              jumpi\n              tag_109\n              tag_69\n              jump\t// in\n            tag_109:\n            tag_108:\n                /* \"contracts/Auction.sol\":1565:1577  auctionState */\n              0x04\n              0x00\n              swap1\n              sload\n              swap1\n              0x0100\n              exp\n              swap1\n              div\n              0xff\n              and\n                /* \"contracts/Auction.sol\":1565:1594  auctionState == State.Running */\n              0x03\n              dup2\n              gt\n              iszero\n              tag_110\n              jumpi\n              tag_111\n              tag_69\n              jump\t// in\n            tag_111:\n            tag_110:\n              eq\n                /* \"contracts/Auction.sol\":1557:1595  require(auctionState == State.Running) */\n              tag_112\n              jumpi\n              0x00\n              dup1\n              revert\n            tag_112:\n                /* \"contracts/Auction.sol\":1689:1701  bidIncrement */\n              sload(0x08)\n                /* \"contracts/Auction.sol\":1676:1685  msg.value */\n              callvalue\n                /* \"contracts/Auction.sol\":1676:1701  msg.value >= bidIncrement */\n              lt\n              iszero\n                /* \"contracts/Auction.sol\":1668:1702  require(msg.value >= bidIncrement) */\n              tag_113\n              jumpi\n              0x00\n              dup1\n              revert\n            tag_113:\n                /* \"contracts/Auction.sol\":1766:1781  uint currentBid */\n              0x00\n                /* \"contracts/Auction.sol\":1812:1821  msg.value */\n              callvalue\n                /* \"contracts/Auction.sol\":1784:1788  bids */\n              0x07\n                /* \"contracts/Auction.sol\":1784:1809  bids[payable(msg.sender)] */\n              0x00\n                /* \"contracts/Auction.sol\":1797:1807  msg.sender */\n              caller\n                /* \"contracts/Auction.sol\":1784:1809  bids[payable(msg.sender)] */\n              0xffffffffffffffffffffffffffffffffffffffff\n              and\n              0xffffffffffffffffffffffffffffffffffffffff\n              and\n              dup2\n              mstore\n              0x20\n              add\n              swap1\n              dup2\n              mstore\n              0x20\n              add\n              0x00\n              keccak256\n              sload\n                /* \"contracts/Auction.sol\":1784:1821  bids[payable(msg.sender)] + msg.value */\n              tag_114\n              swap2\n              swap1\n              tag_115\n              jump\t// in\n            tag_114:\n                /* \"contracts/Auction.sol\":1766:1821  uint currentBid = bids[payable(msg.sender)] + msg.value */\n              swap1\n              pop\n                /* \"contracts/Auction.sol\":1920:1937  highestBindingBid */\n              sload(0x05)\n                /* \"contracts/Auction.sol\":1907:1917  currentBid */\n              dup2\n                /* \"contracts/Auction.sol\":1907:1937  currentBid > highestBindingBid */\n              gt\n                /* \"contracts/Auction.sol\":1899:1938  require(currentBid > highestBindingBid) */\n              tag_116\n              jumpi\n              0x00\n              dup1\n              revert\n            tag_116:\n                /* \"contracts/Auction.sol\":2026:2036  currentBid */\n              dup1\n                /* \"contracts/Auction.sol\":1998:2002  bids */\n              0x07\n                /* \"contracts/Auction.sol\":1998:2023  bids[payable(msg.sender)] */\n              0x00\n                /* \"contracts/Auction.sol\":2011:2021  msg.sender */\n              caller\n                /* \"contracts/Auction.sol\":1998:2023  bids[payable(msg.sender)] */\n              0xffffffffffffffffffffffffffffffffffffffff\n              and\n              0xffffffffffffffffffffffffffffffffffffffff\n              and\n              dup2\n              mstore\n              0x20\n              add\n              swap1\n              dup2\n              mstore\n              0x20\n              add\n              0x00\n              keccak256\n                /* \"contracts/Auction.sol\":1998:2036  bids[payable(msg.sender)] = currentBid */\n              dup2\n              swap1\n              sstore\n              pop\n                /* \"contracts/Auction.sol\":2213:2217  bids */\n              0x07\n                /* \"contracts/Auction.sol\":2213:2232  bids[highestBidder] */\n              0x00\n                /* \"contracts/Auction.sol\":2218:2231  highestBidder */\n              0x06\n              0x00\n              swap1\n              sload\n              swap1\n              0x0100\n              exp\n              swap1\n              div\n              0xffffffffffffffffffffffffffffffffffffffff\n              and\n                /* \"contracts/Auction.sol\":2213:2232  bids[highestBidder] */\n              0xffffffffffffffffffffffffffffffffffffffff\n              and\n              0xffffffffffffffffffffffffffffffffffffffff\n              and\n              dup2\n              mstore\n              0x20\n              add\n              swap1\n              dup2\n              mstore\n              0x20\n              add\n              0x00\n              keccak256\n              sload\n                /* \"contracts/Auction.sol\":2199:2209  currentBid */\n              dup2\n                /* \"contracts/Auction.sol\":2199:2232  currentBid <= bids[highestBidder] */\n              gt\n                /* \"contracts/Auction.sol\":2195:2611  if (currentBid <= bids[highestBidder]){... */\n              tag_117\n              jumpi\n                /* \"contracts/Auction.sol\":2267:2318  min(currentBid + bidIncrement, bids[highestBidder]) */\n              tag_118\n                /* \"contracts/Auction.sol\":2284:2296  bidIncrement */\n              sload(0x08)\n                /* \"contracts/Auction.sol\":2271:2281  currentBid */\n              dup3\n                /* \"contracts/Auction.sol\":2271:2296  currentBid + bidIncrement */\n              tag_119\n              swap2\n              swap1\n              tag_115\n              jump\t// in\n            tag_119:\n                /* \"contracts/Auction.sol\":2298:2302  bids */\n              0x07\n                /* \"contracts/Auction.sol\":2298:2317  bids[highestBidder] */\n              0x00\n                /* \"contracts/Auction.sol\":2303:2316  highestBidder */\n              0x06\n              0x00\n              swap1\n              sload\n              swap1\n              0x0100\n              exp\n              swap1\n              div\n              0xffffffffffffffffffffffffffffffffffffffff\n              and\n                /* \"contracts/Auction.sol\":2298:2317  bids[highestBidder] */\n              0xffffffffffffffffffffffffffffffffffffffff\n              and\n              0xffffffffffffffffffffffffffffffffffffffff\n              and\n              dup2\n              mstore\n              0x20\n              add\n              swap1\n              dup2\n              mstore\n              0x20\n              add\n              0x00\n              keccak256\n              sload\n                /* \"contracts/Auction.sol\":2267:2270  min */\n              tag_120\n                /* \"contracts/Auction.sol\":2267:2318  min(currentBid + bidIncrement, bids[highestBidder]) */\n              jump\t// in\n            tag_118:\n                /* \"contracts/Auction.sol\":2247:2264  highestBindingBid */\n              0x05\n                /* \"contracts/Auction.sol\":2247:2318  highestBindingBid = min(currentBid + bidIncrement, bids[highestBidder]) */\n              dup2\n              swap1\n              sstore\n              pop\n                /* \"contracts/Auction.sol\":2195:2611  if (currentBid <= bids[highestBidder]){... */\n              jump(tag_121)\n            tag_117:\n                /* \"contracts/Auction.sol\":2446:2497  min(bids[highestBidder] + bidIncrement, currentBid) */\n              tag_122\n                /* \"contracts/Auction.sol\":2472:2484  bidIncrement */\n              sload(0x08)\n                /* \"contracts/Auction.sol\":2450:2454  bids */\n              0x07\n                /* \"contracts/Auction.sol\":2450:2469  bids[highestBidder] */\n              0x00\n                /* \"contracts/Auction.sol\":2455:2468  highestBidder */\n              0x06\n              0x00\n              swap1\n              sload\n              swap1\n              0x0100\n              exp\n              swap1\n              div\n              0xffffffffffffffffffffffffffffffffffffffff\n              and\n                /* \"contracts/Auction.sol\":2450:2469  bids[highestBidder] */\n              0xffffffffffffffffffffffffffffffffffffffff\n              and\n              0xffffffffffffffffffffffffffffffffffffffff\n              and\n              dup2\n              mstore\n              0x20\n              add\n              swap1\n              dup2\n              mstore\n              0x20\n              add\n              0x00\n              keccak256\n              sload\n                /* \"contracts/Auction.sol\":2450:2484  bids[highestBidder] + bidIncrement */\n              tag_123\n              swap2\n              swap1\n              tag_115\n              jump\t// in\n            tag_123:\n                /* \"contracts/Auction.sol\":2486:2496  currentBid */\n              dup3\n                /* \"contracts/Auction.sol\":2446:2449  min */\n              tag_120\n                /* \"contracts/Auction.sol\":2446:2497  min(bids[highestBidder] + bidIncrement, currentBid) */\n              jump\t// in\n            tag_122:\n                /* \"contracts/Auction.sol\":2426:2443  highestBindingBid */\n              0x05\n                /* \"contracts/Auction.sol\":2426:2497  highestBindingBid = min(bids[highestBidder] + bidIncrement, currentBid) */\n              dup2\n              swap1\n              sstore\n              pop\n                /* \"contracts/Auction.sol\":2589:2599  msg.sender */\n              caller\n                /* \"contracts/Auction.sol\":2565:2578  highestBidder */\n              0x06\n              0x00\n                /* \"contracts/Auction.sol\":2565:2600  highestBidder = payable(msg.sender) */\n              0x0100\n              exp\n              dup2\n              sload\n              dup2\n              0xffffffffffffffffffffffffffffffffffffffff\n              mul\n              not\n              and\n              swap1\n              dup4\n              0xffffffffffffffffffffffffffffffffffffffff\n              and\n              mul\n              or\n              swap1\n              sstore\n              pop\n                /* \"contracts/Auction.sol\":2195:2611  if (currentBid <= bids[highestBidder]){... */\n            tag_121:\n                /* \"contracts/Auction.sol\":1507:2617  {... */\n              pop\n                /* \"contracts/Auction.sol\":1442:2617  function placeBid() public payable notOwner afterStart beforeEnd {... */\n              jump\t// out\n                /* \"contracts/Auction.sol\":442:471  uint public highestBindingBid */\n            tag_58:\n              sload(0x05)\n              dup2\n              jump\t// out\n                /* \"contracts/Auction.sol\":1275:1436  function min(uint a, uint b) internal pure returns(uint){... */\n            tag_120:\n                /* \"contracts/Auction.sol\":1326:1330  uint */\n              0x00\n                /* \"contracts/Auction.sol\":1349:1350  b */\n              dup2\n                /* \"contracts/Auction.sol\":1345:1346  a */\n              dup4\n                /* \"contracts/Auction.sol\":1345:1350  a<= b */\n              gt\n                /* \"contracts/Auction.sol\":1341:1430  if (a<= b){... */\n              tag_125\n              jumpi\n                /* \"contracts/Auction.sol\":1372:1373  a */\n              dup3\n                /* \"contracts/Auction.sol\":1365:1373  return a */\n              swap1\n              pop\n              jump(tag_124)\n                /* \"contracts/Auction.sol\":1341:1430  if (a<= b){... */\n            tag_125:\n                /* \"contracts/Auction.sol\":1418:1419  b */\n              dup2\n                /* \"contracts/Auction.sol\":1411:1419  return b */\n              swap1\n              pop\n                /* \"contracts/Auction.sol\":1275:1436  function min(uint a, uint b) internal pure returns(uint){... */\n            tag_124:\n              swap3\n              swap2\n              pop\n              pop\n              jump\t// out\n                /* \"#utility.yul\":7:146   */\n            tag_128:\n                /* \"#utility.yul\":53:58   */\n              0x00\n                /* \"#utility.yul\":91:97   */\n              dup2\n                /* \"#utility.yul\":78:98   */\n              calldataload\n                /* \"#utility.yul\":69:98   */\n              swap1\n              pop\n                /* \"#utility.yul\":107:140   */\n              tag_130\n                /* \"#utility.yul\":134:139   */\n              dup2\n                /* \"#utility.yul\":107:140   */\n              tag_131\n              jump\t// in\n            tag_130:\n                /* \"#utility.yul\":7:146   */\n              swap3\n              swap2\n              pop\n              pop\n              jump\t// out\n                /* \"#utility.yul\":152:481   */\n            tag_34:\n                /* \"#utility.yul\":211:217   */\n              0x00\n                /* \"#utility.yul\":260:262   */\n              0x20\n                /* \"#utility.yul\":248:257   */\n              dup3\n                /* \"#utility.yul\":239:246   */\n              dup5\n                /* \"#utility.yul\":235:258   */\n              sub\n                /* \"#utility.yul\":231:263   */\n              slt\n                /* \"#utility.yul\":228:347   */\n              iszero\n              tag_133\n              jumpi\n                /* \"#utility.yul\":266:345   */\n              tag_134\n              tag_135\n              jump\t// in\n            tag_134:\n                /* \"#utility.yul\":228:347   */\n            tag_133:\n                /* \"#utility.yul\":386:387   */\n              0x00\n                /* \"#utility.yul\":411:464   */\n              tag_136\n                /* \"#utility.yul\":456:463   */\n              dup5\n                /* \"#utility.yul\":447:453   */\n              dup3\n                /* \"#utility.yul\":436:445   */\n              dup6\n                /* \"#utility.yul\":432:454   */\n              add\n                /* \"#utility.yul\":411:464   */\n              tag_128\n              jump\t// in\n            tag_136:\n                /* \"#utility.yul\":401:464   */\n              swap2\n              pop\n                /* \"#utility.yul\":357:474   */\n              pop\n                /* \"#utility.yul\":152:481   */\n              swap3\n              swap2\n              pop\n              pop\n              jump\t// out\n                /* \"#utility.yul\":487:629   */\n            tag_137:\n                /* \"#utility.yul\":590:622   */\n              tag_139\n                /* \"#utility.yul\":616:621   */\n              dup2\n                /* \"#utility.yul\":590:622   */\n              tag_140\n              jump\t// in\n            tag_139:\n                /* \"#utility.yul\":585:588   */\n              dup3\n                /* \"#utility.yul\":578:623   */\n              mstore\n                /* \"#utility.yul\":487:629   */\n              pop\n              pop\n              jump\t// out\n                /* \"#utility.yul\":635:778   */\n            tag_141:\n                /* \"#utility.yul\":728:771   */\n              tag_143\n                /* \"#utility.yul\":765:770   */\n              dup2\n                /* \"#utility.yul\":728:771   */\n              tag_144\n              jump\t// in\n            tag_143:\n                /* \"#utility.yul\":723:726   */\n              dup3\n                /* \"#utility.yul\":716:772   */\n              mstore\n                /* \"#utility.yul\":635:778   */\n              pop\n              pop\n              jump\t// out\n                /* \"#utility.yul\":784:1148   */\n            tag_145:\n                /* \"#utility.yul\":872:875   */\n              0x00\n                /* \"#utility.yul\":900:939   */\n              tag_147\n                /* \"#utility.yul\":933:938   */\n              dup3\n                /* \"#utility.yul\":900:939   */\n              tag_148\n              jump\t// in\n            tag_147:\n                /* \"#utility.yul\":955:1026   */\n              tag_149\n                /* \"#utility.yul\":1019:1025   */\n              dup2\n                /* \"#utility.yul\":1014:1017   */\n              dup6\n                /* \"#utility.yul\":955:1026   */\n              tag_150\n              jump\t// in\n            tag_149:\n                /* \"#utility.yul\":948:1026   */\n              swap4\n              pop\n                /* \"#utility.yul\":1035:1087   */\n              tag_151\n                /* \"#utility.yul\":1080:1086   */\n              dup2\n                /* \"#utility.yul\":1075:1078   */\n              dup6\n                /* \"#utility.yul\":1068:1072   */\n              0x20\n                /* \"#utility.yul\":1061:1066   */\n              dup7\n                /* \"#utility.yul\":1057:1073   */\n              add\n                /* \"#utility.yul\":1035:1087   */\n              tag_152\n              jump\t// in\n            tag_151:\n                /* \"#utility.yul\":1112:1141   */\n              tag_153\n                /* \"#utility.yul\":1134:1140   */\n              dup2\n                /* \"#utility.yul\":1112:1141   */\n              tag_154\n              jump\t// in\n            tag_153:\n                /* \"#utility.yul\":1107:1110   */\n              dup5\n                /* \"#utility.yul\":1103:1142   */\n              add\n                /* \"#utility.yul\":1096:1142   */\n              swap2\n              pop\n                /* \"#utility.yul\":876:1148   */\n              pop\n                /* \"#utility.yul\":784:1148   */\n              swap3\n              swap2\n              pop\n              pop\n              jump\t// out\n                /* \"#utility.yul\":1154:1272   */\n            tag_155:\n                /* \"#utility.yul\":1241:1265   */\n              tag_157\n                /* \"#utility.yul\":1259:1264   */\n              dup2\n                /* \"#utility.yul\":1241:1265   */\n              tag_158\n              jump\t// in\n            tag_157:\n                /* \"#utility.yul\":1236:1239   */\n              dup3\n                /* \"#utility.yul\":1229:1266   */\n              mstore\n                /* \"#utility.yul\":1154:1272   */\n              pop\n              pop\n              jump\t// out\n                /* \"#utility.yul\":1278:1532   */\n            tag_46:\n                /* \"#utility.yul\":1387:1391   */\n              0x00\n                /* \"#utility.yul\":1425:1427   */\n              0x20\n                /* \"#utility.yul\":1414:1423   */\n              dup3\n                /* \"#utility.yul\":1410:1428   */\n              add\n                /* \"#utility.yul\":1402:1428   */\n              swap1\n              pop\n                /* \"#utility.yul\":1438:1525   */\n              tag_160\n                /* \"#utility.yul\":1522:1523   */\n              0x00\n                /* \"#utility.yul\":1511:1520   */\n              dup4\n                /* \"#utility.yul\":1507:1524   */\n              add\n                /* \"#utility.yul\":1498:1504   */\n              dup5\n                /* \"#utility.yul\":1438:1525   */\n              tag_137\n              jump\t// in\n            tag_160:\n                /* \"#utility.yul\":1278:1532   */\n              swap3\n              swap2\n              pop\n              pop\n              jump\t// out\n                /* \"#utility.yul\":1538:1772   */\n            tag_41:\n                /* \"#utility.yul\":1637:1641   */\n              0x00\n                /* \"#utility.yul\":1675:1677   */\n              0x20\n                /* \"#utility.yul\":1664:1673   */\n              dup3\n                /* \"#utility.yul\":1660:1678   */\n              add\n                /* \"#utility.yul\":1652:1678   */\n              swap1\n              pop\n                /* \"#utility.yul\":1688:1765   */\n              tag_162\n                /* \"#utility.yul\":1762:1763   */\n              0x00\n                /* \"#utility.yul\":1751:1760   */\n              dup4\n                /* \"#utility.yul\":1747:1764   */\n              add\n                /* \"#utility.yul\":1738:1744   */\n              dup5\n                /* \"#utility.yul\":1688:1765   */\n              tag_141\n              jump\t// in\n            tag_162:\n                /* \"#utility.yul\":1538:1772   */\n              swap3\n              swap2\n              pop\n              pop\n              jump\t// out\n                /* \"#utility.yul\":1778:2091   */\n            tag_27:\n                /* \"#utility.yul\":1891:1895   */\n              0x00\n                /* \"#utility.yul\":1929:1931   */\n              0x20\n                /* \"#utility.yul\":1918:1927   */\n              dup3\n                /* \"#utility.yul\":1914:1932   */\n              add\n                /* \"#utility.yul\":1906:1932   */\n              swap1\n              pop\n                /* \"#utility.yul\":1978:1987   */\n              dup2\n                /* \"#utility.yul\":1972:1976   */\n              dup2\n                /* \"#utility.yul\":1968:1988   */\n              sub\n                /* \"#utility.yul\":1964:1965   */\n              0x00\n                /* \"#utility.yul\":1953:1962   */\n              dup4\n                /* \"#utility.yul\":1949:1966   */\n              add\n                /* \"#utility.yul\":1942:1989   */\n              mstore\n                /* \"#utility.yul\":2006:2084   */\n              tag_164\n                /* \"#utility.yul\":2079:2083   */\n              dup2\n                /* \"#utility.yul\":2070:2076   */\n              dup5\n                /* \"#utility.yul\":2006:2084   */\n              tag_145\n              jump\t// in\n            tag_164:\n                /* \"#utility.yul\":1998:2084   */\n              swap1\n              pop\n                /* \"#utility.yul\":1778:2091   */\n              swap3\n              swap2\n              pop\n              pop\n              jump\t// out\n                /* \"#utility.yul\":2097:2319   */\n            tag_18:\n                /* \"#utility.yul\":2190:2194   */\n              0x00\n                /* \"#utility.yul\":2228:2230   */\n              0x20\n                /* \"#utility.yul\":2217:2226   */\n              dup3\n                /* \"#utility.yul\":2213:2231   */\n              add\n                /* \"#utility.yul\":2205:2231   */\n              swap1\n              pop\n                /* \"#utility.yul\":2241:2312   */\n              tag_166\n                /* \"#utility.yul\":2309:2310   */\n              0x00\n                /* \"#utility.yul\":2298:2307   */\n              dup4\n                /* \"#utility.yul\":2294:2311   */\n              add\n                /* \"#utility.yul\":2285:2291   */\n              dup5\n                /* \"#utility.yul\":2241:2312   */\n              tag_155\n              jump\t// in\n            tag_166:\n                /* \"#utility.yul\":2097:2319   */\n              swap3\n              swap2\n              pop\n              pop\n              jump\t// out\n                /* \"#utility.yul\":2406:2505   */\n            tag_148:\n                /* \"#utility.yul\":2458:2464   */\n              0x00\n                /* \"#utility.yul\":2492:2497   */\n              dup2\n                /* \"#utility.yul\":2486:2498   */\n              mload\n                /* \"#utility.yul\":2476:2498   */\n              swap1\n              pop\n                /* \"#utility.yul\":2406:2505   */\n              swap2\n              swap1\n              pop\n              jump\t// out\n                /* \"#utility.yul\":2511:2680   */\n            tag_150:\n                /* \"#utility.yul\":2595:2606   */\n              0x00\n                /* \"#utility.yul\":2629:2635   */\n              dup3\n                /* \"#utility.yul\":2624:2627   */\n              dup3\n                /* \"#utility.yul\":2617:2636   */\n              mstore\n                /* \"#utility.yul\":2669:2673   */\n              0x20\n                /* \"#utility.yul\":2664:2667   */\n              dup3\n                /* \"#utility.yul\":2660:2674   */\n              add\n                /* \"#utility.yul\":2645:2674   */\n              swap1\n              pop\n                /* \"#utility.yul\":2511:2680   */\n              swap3\n              swap2\n              pop\n              pop\n              jump\t// out\n                /* \"#utility.yul\":2686:2991   */\n            tag_115:\n                /* \"#utility.yul\":2726:2729   */\n              0x00\n                /* \"#utility.yul\":2745:2765   */\n              tag_172\n                /* \"#utility.yul\":2763:2764   */\n              dup3\n                /* \"#utility.yul\":2745:2765   */\n              tag_158\n              jump\t// in\n            tag_172:\n                /* \"#utility.yul\":2740:2765   */\n              swap2\n              pop\n                /* \"#utility.yul\":2779:2799   */\n              tag_173\n                /* \"#utility.yul\":2797:2798   */\n              dup4\n                /* \"#utility.yul\":2779:2799   */\n              tag_158\n              jump\t// in\n            tag_173:\n                /* \"#utility.yul\":2774:2799   */\n              swap3\n              pop\n                /* \"#utility.yul\":2933:2934   */\n              dup3\n                /* \"#utility.yul\":2865:2931   */\n              0xffffffffffffffffffffffffffffffffffffffffffffffffffffffffffffffff\n                /* \"#utility.yul\":2861:2935   */\n              sub\n                /* \"#utility.yul\":2858:2859   */\n              dup3\n                /* \"#utility.yul\":2855:2936   */\n              gt\n                /* \"#utility.yul\":2852:2959   */\n              iszero\n              tag_174\n              jumpi\n                /* \"#utility.yul\":2939:2957   */\n              tag_175\n              tag_176\n              jump\t// in\n            tag_175:\n                /* \"#utility.yul\":2852:2959   */\n            tag_174:\n                /* \"#utility.yul\":2983:2984   */\n              dup3\n                /* \"#utility.yul\":2980:2981   */\n              dup3\n                /* \"#utility.yul\":2976:2985   */\n              add\n                /* \"#utility.yul\":2969:2985   */\n              swap1\n              pop\n                /* \"#utility.yul\":2686:2991   */\n              swap3\n              swap2\n              pop\n              pop\n              jump\t// out\n                /* \"#utility.yul\":2997:3188   */\n            tag_89:\n                /* \"#utility.yul\":3037:3041   */\n              0x00\n                /* \"#utility.yul\":3057:3077   */\n              tag_178\n                /* \"#utility.yul\":3075:3076   */\n              dup3\n                /* \"#utility.yul\":3057:3077   */\n              tag_158\n              jump\t// in\n            tag_178:\n                /* \"#utility.yul\":3052:3077   */\n              swap2\n              pop\n                /* \"#utility.yul\":3091:3111   */\n              tag_179\n                /* \"#utility.yul\":3109:3110   */\n              dup4\n                /* \"#utility.yul\":3091:3111   */\n              tag_158\n              jump\t// in\n            tag_179:\n                /* \"#utility.yul\":3086:3111   */\n              swap3\n              pop\n                /* \"#utility.yul\":3130:3131   */\n              dup3\n                /* \"#utility.yul\":3127:3128   */\n              dup3\n                /* \"#utility.yul\":3124:3132   */\n              lt\n                /* \"#utility.yul\":3121:3155   */\n              iszero\n              tag_180\n              jumpi\n                /* \"#utility.yul\":3135:3153   */\n              tag_181\n              tag_176\n              jump\t// in\n            tag_181:\n                /* \"#utility.yul\":3121:3155   */\n            tag_180:\n                /* \"#utility.yul\":3180:3181   */\n              dup3\n                /* \"#utility.yul\":3177:3178   */\n              dup3\n                /* \"#utility.yul\":3173:3182   */\n              sub\n                /* \"#utility.yul\":3165:3182   */\n              swap1\n              pop\n                /* \"#utility.yul\":2997:3188   */\n              swap3\n              swap2\n              pop\n              pop\n              jump\t// out\n                /* \"#utility.yul\":3194:3290   */\n            tag_182:\n                /* \"#utility.yul\":3231:3238   */\n              0x00\n                /* \"#utility.yul\":3260:3284   */\n              tag_184\n                /* \"#utility.yul\":3278:3283   */\n              dup3\n                /* \"#utility.yul\":3260:3284   */\n              tag_185\n              jump\t// in\n            tag_184:\n                /* \"#utility.yul\":3249:3284   */\n              swap1\n              pop\n                /* \"#utility.yul\":3194:3290   */\n              swap2\n              swap1\n              pop\n              jump\t// out\n                /* \"#utility.yul\":3296:3400   */\n            tag_140:\n                /* \"#utility.yul\":3341:3348   */\n              0x00\n                /* \"#utility.yul\":3370:3394   */\n              tag_187\n                /* \"#utility.yul\":3388:3393   */\n              dup3\n                /* \"#utility.yul\":3370:3394   */\n              tag_185\n              jump\t// in\n            tag_187:\n                /* \"#utility.yul\":3359:3394   */\n              swap1\n              pop\n                /* \"#utility.yul\":3296:3400   */\n              swap2\n              swap1\n              pop\n              jump\t// out\n                /* \"#utility.yul\":3406:3533   */\n            tag_188:\n                /* \"#utility.yul\":3451:3458   */\n              0x00\n                /* \"#utility.yul\":3480:3485   */\n              dup2\n                /* \"#utility.yul\":3469:3485   */\n              swap1\n              pop\n                /* \"#utility.yul\":3486:3527   */\n              tag_190\n                /* \"#utility.yul\":3521:3526   */\n              dup3\n                /* \"#utility.yul\":3486:3527   */\n              tag_191\n              jump\t// in\n            tag_190:\n                /* \"#utility.yul\":3406:3533   */\n              swap2\n              swap1\n              pop\n              jump\t// out\n                /* \"#utility.yul\":3539:3665   */\n            tag_185:\n                /* \"#utility.yul\":3576:3583   */\n              0x00\n                /* \"#utility.yul\":3616:3658   */\n              0xffffffffffffffffffffffffffffffffffffffff\n                /* \"#utility.yul\":3609:3614   */\n              dup3\n                /* \"#utility.yul\":3605:3659   */\n              and\n                /* \"#utility.yul\":3594:3659   */\n              swap1\n              pop\n                /* \"#utility.yul\":3539:3665   */\n              swap2\n              swap1\n              pop\n              jump\t// out\n                /* \"#utility.yul\":3671:3748   */\n            tag_158:\n                /* \"#utility.yul\":3708:3715   */\n              0x00\n                /* \"#utility.yul\":3737:3742   */\n              dup2\n                /* \"#utility.yul\":3726:3742   */\n              swap1\n              pop\n                /* \"#utility.yul\":3671:3748   */\n              swap2\n              swap1\n              pop\n              jump\t// out\n                /* \"#utility.yul\":3754:3881   */\n            tag_144:\n                /* \"#utility.yul\":3810:3819   */\n              0x00\n                /* \"#utility.yul\":3843:3875   */\n              tag_195\n                /* \"#utility.yul\":3869:3874   */\n              dup3\n                /* \"#utility.yul\":3843:3875   */\n              tag_188\n              jump\t// in\n            tag_195:\n                /* \"#utility.yul\":3830:3875   */\n              swap1\n              pop\n                /* \"#utility.yul\":3754:3881   */\n              swap2\n              swap1\n              pop\n              jump\t// out\n                /* \"#utility.yul\":3887:4194   */\n            tag_152:\n                /* \"#utility.yul\":3955:3956   */\n              0x00\n                /* \"#utility.yul\":3965:4078   */\n            tag_197:\n                /* \"#utility.yul\":3979:3985   */\n              dup4\n                /* \"#utility.yul\":3976:3977   */\n              dup2\n                /* \"#utility.yul\":3973:3986   */\n              lt\n                /* \"#utility.yul\":3965:4078   */\n              iszero\n              tag_199\n              jumpi\n                /* \"#utility.yul\":4064:4065   */\n              dup1\n                /* \"#utility.yul\":4059:4062   */\n              dup3\n                /* \"#utility.yul\":4055:4066   */\n              add\n                /* \"#utility.yul\":4049:4067   */\n              mload\n                /* \"#utility.yul\":4045:4046   */\n              dup2\n                /* \"#utility.yul\":4040:4043   */\n              dup5\n                /* \"#utility.yul\":4036:4047   */\n              add\n                /* \"#utility.yul\":4029:4068   */\n              mstore\n                /* \"#utility.yul\":4001:4003   */\n              0x20\n                /* \"#utility.yul\":3998:3999   */\n              dup2\n                /* \"#utility.yul\":3994:4004   */\n              add\n                /* \"#utility.yul\":3989:4004   */\n              swap1\n              pop\n                /* \"#utility.yul\":3965:4078   */\n              jump(tag_197)\n            tag_199:\n                /* \"#utility.yul\":4096:4102   */\n              dup4\n                /* \"#utility.yul\":4093:4094   */\n              dup2\n                /* \"#utility.yul\":4090:4103   */\n              gt\n                /* \"#utility.yul\":4087:4188   */\n              iszero\n              tag_200\n              jumpi\n                /* \"#utility.yul\":4176:4177   */\n              0x00\n                /* \"#utility.yul\":4167:4173   */\n              dup5\n                /* \"#utility.yul\":4162:4165   */\n              dup5\n                /* \"#utility.yul\":4158:4174   */\n              add\n                /* \"#utility.yul\":4151:4178   */\n              mstore\n                /* \"#utility.yul\":4087:4188   */\n            tag_200:\n                /* \"#utility.yul\":3936:4194   */\n              pop\n                /* \"#utility.yul\":3887:4194   */\n              pop\n              pop\n              pop\n              jump\t// out\n                /* \"#utility.yul\":4200:4520   */\n            tag_61:\n                /* \"#utility.yul\":4244:4250   */\n              0x00\n                /* \"#utility.yul\":4281:4282   */\n              0x02\n                /* \"#utility.yul\":4275:4279   */\n              dup3\n                /* \"#utility.yul\":4271:4283   */\n              div\n                /* \"#utility.yul\":4261:4283   */\n              swap1\n              pop\n                /* \"#utility.yul\":4328:4329   */\n              0x01\n                /* \"#utility.yul\":4322:4326   */\n              dup3\n                /* \"#utility.yul\":4318:4330   */\n              and\n                /* \"#utility.yul\":4349:4367   */\n              dup1\n                /* \"#utility.yul\":4339:4420   */\n              tag_202\n              jumpi\n                /* \"#utility.yul\":4405:4409   */\n              0x7f\n                /* \"#utility.yul\":4397:4403   */\n              dup3\n                /* \"#utility.yul\":4393:4410   */\n              and\n                /* \"#utility.yul\":4383:4410   */\n              swap2\n              pop\n                /* \"#utility.yul\":4339:4420   */\n            tag_202:\n                /* \"#utility.yul\":4467:4469   */\n              0x20\n                /* \"#utility.yul\":4459:4465   */\n              dup3\n                /* \"#utility.yul\":4456:4470   */\n              lt\n                /* \"#utility.yul\":4436:4454   */\n              dup2\n                /* \"#utility.yul\":4433:4471   */\n              eq\n                /* \"#utility.yul\":4430:4514   */\n              iszero\n              tag_203\n              jumpi\n                /* \"#utility.yul\":4486:4504   */\n              tag_204\n              tag_205\n              jump\t// in\n            tag_204:\n                /* \"#utility.yul\":4430:4514   */\n            tag_203:\n                /* \"#utility.yul\":4251:4520   */\n              pop\n                /* \"#utility.yul\":4200:4520   */\n              swap2\n              swap1\n              pop\n              jump\t// out\n                /* \"#utility.yul\":4526:4706   */\n            tag_176:\n                /* \"#utility.yul\":4574:4651   */\n              0x4e487b7100000000000000000000000000000000000000000000000000000000\n                /* \"#utility.yul\":4571:4572   */\n              0x00\n                /* \"#utility.yul\":4564:4652   */\n              mstore\n                /* \"#utility.yul\":4671:4675   */\n              0x11\n                /* \"#utility.yul\":4668:4669   */\n              0x04\n                /* \"#utility.yul\":4661:4676   */\n              mstore\n                /* \"#utility.yul\":4695:4699   */\n              0x24\n                /* \"#utility.yul\":4692:4693   */\n              0x00\n                /* \"#utility.yul\":4685:4700   */\n              revert\n                /* \"#utility.yul\":4712:4892   */\n            tag_69:\n                /* \"#utility.yul\":4760:4837   */\n              0x4e487b7100000000000000000000000000000000000000000000000000000000\n                /* \"#utility.yul\":4757:4758   */\n              0x00\n                /* \"#utility.yul\":4750:4838   */\n              mstore\n                /* \"#utility.yul\":4857:4861   */\n              0x21\n                /* \"#utility.yul\":4854:4855   */\n              0x04\n                /* \"#utility.yul\":4847:4862   */\n              mstore\n                /* \"#utility.yul\":4881:4885   */\n              0x24\n                /* \"#utility.yul\":4878:4879   */\n              0x00\n                /* \"#utility.yul\":4871:4886   */\n              revert\n                /* \"#utility.yul\":4898:5078   */\n            tag_205:\n                /* \"#utility.yul\":4946:5023   */\n              0x4e487b7100000000000000000000000000000000000000000000000000000000\n                /* \"#utility.yul\":4943:4944   */\n              0x00\n                /* \"#utility.yul\":4936:5024   */\n              mstore\n                /* \"#utility.yul\":5043:5047   */\n              0x22\n                /* \"#utility.yul\":5040:5041   */\n              0x04\n                /* \"#utility.yul\":5033:5048   */\n              mstore\n                /* \"#utility.yul\":5067:5071   */\n              0x24\n                /* \"#utility.yul\":5064:5065   */\n              0x00\n                /* \"#utility.yul\":5057:5072   */\n              revert\n                /* \"#utility.yul\":5207:5324   */\n            tag_135:\n                /* \"#utility.yul\":5316:5317   */\n              0x00\n                /* \"#utility.yul\":5313:5314   */\n              dup1\n                /* \"#utility.yul\":5306:5318   */\n              revert\n                /* \"#utility.yul\":5330:5432   */\n            tag_154:\n                /* \"#utility.yul\":5371:5377   */\n              0x00\n                /* \"#utility.yul\":5422:5424   */\n              0x1f\n                /* \"#utility.yul\":5418:5425   */\n              not\n                /* \"#utility.yul\":5413:5415   */\n              0x1f\n                /* \"#utility.yul\":5406:5411   */\n              dup4\n                /* \"#utility.yul\":5402:5416   */\n              add\n                /* \"#utility.yul\":5398:5426   */\n              and\n                /* \"#utility.yul\":5388:5426   */\n              swap1\n              pop\n                /* \"#utility.yul\":5330:5432   */\n              swap2\n              swap1\n              pop\n              jump\t// out\n                /* \"#utility.yul\":5438:5551   */\n            tag_191:\n                /* \"#utility.yul\":5519:5520   */\n              0x04\n                /* \"#utility.yul\":5512:5517   */\n              dup2\n                /* \"#utility.yul\":5509:5521   */\n              lt\n                /* \"#utility.yul\":5499:5545   */\n              tag_214\n              jumpi\n                /* \"#utility.yul\":5525:5543   */\n              tag_215\n              tag_69\n              jump\t// in\n            tag_215:\n                /* \"#utility.yul\":5499:5545   */\n            tag_214:\n                /* \"#utility.yul\":5438:5551   */\n              pop\n              jump\t// out\n                /* \"#utility.yul\":5557:5679   */\n            tag_131:\n                /* \"#utility.yul\":5630:5654   */\n              tag_217\n                /* \"#utility.yul\":5648:5653   */\n              dup2\n                /* \"#utility.yul\":5630:5654   */\n              tag_182\n              jump\t// in\n            tag_217:\n                /* \"#utility.yul\":5623:5628   */\n              dup2\n                /* \"#utility.yul\":5620:5655   */\n              eq\n                /* \"#utility.yul\":5610:5673   */\n              tag_218\n              jumpi\n                /* \"#utility.yul\":5669:5670   */\n              0x00\n                /* \"#utility.yul\":5666:5667   */\n              dup1\n                /* \"#utility.yul\":5659:5671   */\n              revert\n                /* \"#utility.yul\":5610:5673   */\n            tag_218:\n                /* \"#utility.yul\":5557:5679   */\n              pop\n              jump\t// out\n\n            auxdata: 0xa264697066735822122050d9735a0d87c16a9d4a1d5d78f0253d25d96904406ebb92e87543e42ecf969e64736f6c63430008070033\n        }\n    }\n\n    auxdata: 0xa2646970667358221220456497ce45d51c05febeef443dd0a680b893ac31b17a2507cf50b79667e696ea64736f6c63430008070033\n}\n",
				"bytecode": {
					"linkReferences": {},
					"object": "608060405234801561001057600080fd5b50336000806101000a81548173ffffffffffffffffffffffffffffffffffffffff021916908373ffffffffffffffffffffffffffffffffffffffff1602179055506115ac806100606000396000f3fe608060405234801561001057600080fd5b50600436106100415760003560e01c8063571a26a014610046578063773c95461461007657806394fa419814610080575b600080fd5b610060600480360381019061005b91906101c1565b61009e565b60405161006d9190610227565b60405180910390f35b61007e6100dd565b005b61008861017b565b604051610095919061020c565b60405180910390f35b600181815481106100ae57600080fd5b906000526020600020016000915054906101000a900473ffffffffffffffffffffffffffffffffffffffff1681565b6000336040516100ec9061019f565b6100f6919061020c565b604051809103906000f080158015610112573d6000803e3d6000fd5b5090506001819080600181540180825580915050600190039060005260206000200160009091909190916101000a81548173ffffffffffffffffffffffffffffffffffffffff021916908373ffffffffffffffffffffffffffffffffffffffff16021790555050565b60008054906101000a900473ffffffffffffffffffffffffffffffffffffffff1681565b6112a6806102d183390190565b6000813590506101bb816102b9565b92915050565b6000602082840312156101d7576101d66102b4565b5b60006101e5848285016101ac565b91505092915050565b6101f781610242565b82525050565b6102068161027e565b82525050565b600060208201905061022160008301846101ee565b92915050565b600060208201905061023c60008301846101fd565b92915050565b600061024d82610254565b9050919050565b600073ffffffffffffffffffffffffffffffffffffffff82169050919050565b6000819050919050565b600061028982610290565b9050919050565b600061029b826102a2565b9050919050565b60006102ad82610254565b9050919050565b600080fd5b6102c281610274565b81146102cd57600080fd5b5056fe60806040523480156200001157600080fd5b50604051620012a6380380620012a68339818101604052810190620000379190620001c8565b806000806101000a81548173ffffffffffffffffffffffffffffffffffffffff021916908373ffffffffffffffffffffffffffffffffffffffff1602179055506001600460006101000a81548160ff02191690836003811115620000a0576200009f620002fa565b5b021790555043600181905550619d80600154620000be9190620001fa565b6002819055506040518060200160405280600081525060039080519060200190620000eb92919062000101565b50662386f26fc100006008819055505062000377565b8280546200010f9062000295565b90600052602060002090601f0160209004810192826200013357600085556200017f565b82601f106200014e57805160ff19168380011785556200017f565b828001600101855582156200017f579182015b828111156200017e57825182559160200191906001019062000161565b5b5090506200018e919062000192565b5090565b5b80821115620001ad57600081600090555060010162000193565b5090565b600081519050620001c2816200035d565b92915050565b600060208284031215620001e157620001e062000358565b5b6000620001f184828501620001b1565b91505092915050565b600062000207826200028b565b915062000214836200028b565b9250827fffffffffffffffffffffffffffffffffffffffffffffffffffffffffffffffff038211156200024c576200024b620002cb565b5b828201905092915050565b600062000264826200026b565b9050919050565b600073ffffffffffffffffffffffffffffffffffffffff82169050919050565b6000819050919050565b60006002820490506001821680620002ae57607f821691505b60208210811415620002c557620002c462000329565b5b50919050565b7f4e487b7100000000000000000000000000000000000000000000000000000000600052601160045260246000fd5b7f4e487b7100000000000000000000000000000000000000000000000000000000600052602160045260246000fd5b7f4e487b7100000000000000000000000000000000000000000000000000000000600052602260045260246000fd5b600080fd5b620003688162000257565b81146200037457600080fd5b50565b610f1f80620003876000396000f3fe60806040526004361061009c5760003560e01c80637fb45099116100645780637fb45099146101765780638da5cb5b146101a15780638fa8b790146101cc57806391f90157146101e3578063ecfc7ecc1461020e578063f5b56c56146102185761009c565b8063083c6323146100a157806348cd4cb1146100cc5780634ec4d531146100f75780635228733f1461012257806362ea82db14610139575b600080fd5b3480156100ad57600080fd5b506100b6610243565b6040516100c39190610c82565b60405180910390f35b3480156100d857600080fd5b506100e1610249565b6040516100ee9190610c82565b60405180910390f35b34801561010357600080fd5b5061010c61024f565b6040516101199190610c60565b60405180910390f35b34801561012e57600080fd5b506101376102dd565b005b34801561014557600080fd5b50610160600480360381019061015b9190610b97565b610752565b60405161016d9190610c82565b60405180910390f35b34801561018257600080fd5b5061018b61076a565b6040516101989190610c45565b60405180910390f35b3480156101ad57600080fd5b506101b661077d565b6040516101c39190610c2a565b60405180910390f35b3480156101d857600080fd5b506101e16107a1565b005b3480156101ef57600080fd5b506101f8610826565b6040516102059190610c2a565b60405180910390f35b61021661084c565b005b34801561022457600080fd5b5061022d610b61565b60405161023a9190610c82565b60405180910390f35b60025481565b60015481565b6003805461025c90610de9565b80601f016020809104026020016040519081016040528092919081815260200182805461028890610de9565b80156102d55780601f106102aa576101008083540402835291602001916102d5565b820191906000526020600020905b8154815290600101906020018083116102b857829003601f168201915b505050505081565b6003808111156102f0576102ef610e4a565b5b600460009054906101000a900460ff16600381111561031257610311610e4a565b5b148061035157506002600381111561032d5761032c610e4a565b5b600460009054906101000a900460ff16600381111561034f5761034e610e4a565b5b145b61035a57600080fd5b60008054906101000a900473ffffffffffffffffffffffffffffffffffffffff1673ffffffffffffffffffffffffffffffffffffffff163373ffffffffffffffffffffffffffffffffffffffff161480156103b757506000600554115b8061040157506000600760003373ffffffffffffffffffffffffffffffffffffffff1673ffffffffffffffffffffffffffffffffffffffff16815260200190815260200160002054115b61040a57600080fd5b6000339050600060038081111561042457610423610e4a565b5b600460009054906101000a900460ff16600381111561044657610445610e4a565b5b141561049357600760003373ffffffffffffffffffffffffffffffffffffffff1673ffffffffffffffffffffffffffffffffffffffff1681526020019081526020016000205490506106c2565b60008054906101000a900473ffffffffffffffffffffffffffffffffffffffff1673ffffffffffffffffffffffffffffffffffffffff163373ffffffffffffffffffffffffffffffffffffffff1614156105d3576005549050600060055460076000600660009054906101000a900473ffffffffffffffffffffffffffffffffffffffff1673ffffffffffffffffffffffffffffffffffffffff1673ffffffffffffffffffffffffffffffffffffffff1681526020019081526020016000205461055d9190610d0f565b90508060076000600660009054906101000a900473ffffffffffffffffffffffffffffffffffffffff1673ffffffffffffffffffffffffffffffffffffffff1673ffffffffffffffffffffffffffffffffffffffff168152602001908152602001600020819055506000600581905550506106c1565b600660009054906101000a900473ffffffffffffffffffffffffffffffffffffffff1673ffffffffffffffffffffffffffffffffffffffff163373ffffffffffffffffffffffffffffffffffffffff16141561067d57600554600760003373ffffffffffffffffffffffffffffffffffffffff1673ffffffffffffffffffffffffffffffffffffffff168152602001908152602001600020546106769190610d0f565b90506106c0565b600760003373ffffffffffffffffffffffffffffffffffffffff1673ffffffffffffffffffffffffffffffffffffffff1681526020019081526020016000205490505b5b5b8173ffffffffffffffffffffffffffffffffffffffff166108fc829081150290604051600060405180830381858888f19350505050158015610708573d6000803e3d6000fd5b506000600760003373ffffffffffffffffffffffffffffffffffffffff1673ffffffffffffffffffffffffffffffffffffffff168152602001908152602001600020819055505050565b60076020528060005260406000206000915090505481565b600460009054906101000a900460ff1681565b60008054906101000a900473ffffffffffffffffffffffffffffffffffffffff1681565b60008054906101000a900473ffffffffffffffffffffffffffffffffffffffff1673ffffffffffffffffffffffffffffffffffffffff163373ffffffffffffffffffffffffffffffffffffffff16146107f957600080fd5b6003600460006101000a81548160ff0219169083600381111561081f5761081e610e4a565b5b0217905550565b600660009054906101000a900473ffffffffffffffffffffffffffffffffffffffff1681565b60008054906101000a900473ffffffffffffffffffffffffffffffffffffffff1673ffffffffffffffffffffffffffffffffffffffff163373ffffffffffffffffffffffffffffffffffffffff1614156108a557600080fd5b6001544310156108b457600080fd5b6002544311156108c357600080fd5b600160038111156108d7576108d6610e4a565b5b600460009054906101000a900460ff1660038111156108f9576108f8610e4a565b5b1461090357600080fd5b60085434101561091257600080fd5b600034600760003373ffffffffffffffffffffffffffffffffffffffff1673ffffffffffffffffffffffffffffffffffffffff1681526020019081526020016000205461095f9190610cb9565b9050600554811161096f57600080fd5b80600760003373ffffffffffffffffffffffffffffffffffffffff1673ffffffffffffffffffffffffffffffffffffffff1681526020019081526020016000208190555060076000600660009054906101000a900473ffffffffffffffffffffffffffffffffffffffff1673ffffffffffffffffffffffffffffffffffffffff1673ffffffffffffffffffffffffffffffffffffffff168152602001908152602001600020548111610a9e57610a9360085482610a2c9190610cb9565b60076000600660009054906101000a900473ffffffffffffffffffffffffffffffffffffffff1673ffffffffffffffffffffffffffffffffffffffff1673ffffffffffffffffffffffffffffffffffffffff16815260200190815260200160002054610b67565b600581905550610b5e565b610b1660085460076000600660009054906101000a900473ffffffffffffffffffffffffffffffffffffffff1673ffffffffffffffffffffffffffffffffffffffff1673ffffffffffffffffffffffffffffffffffffffff16815260200190815260200160002054610b109190610cb9565b82610b67565b60058190555033600660006101000a81548173ffffffffffffffffffffffffffffffffffffffff021916908373ffffffffffffffffffffffffffffffffffffffff1602179055505b50565b60055481565b6000818311610b7857829050610b7c565b8190505b92915050565b600081359050610b9181610ed2565b92915050565b600060208284031215610bad57610bac610ea8565b5b6000610bbb84828501610b82565b91505092915050565b610bcd81610d55565b82525050565b610bdc81610da4565b82525050565b6000610bed82610c9d565b610bf78185610ca8565b9350610c07818560208601610db6565b610c1081610ead565b840191505092915050565b610c2481610d9a565b82525050565b6000602082019050610c3f6000830184610bc4565b92915050565b6000602082019050610c5a6000830184610bd3565b92915050565b60006020820190508181036000830152610c7a8184610be2565b905092915050565b6000602082019050610c976000830184610c1b565b92915050565b600081519050919050565b600082825260208201905092915050565b6000610cc482610d9a565b9150610ccf83610d9a565b9250827fffffffffffffffffffffffffffffffffffffffffffffffffffffffffffffffff03821115610d0457610d03610e1b565b5b828201905092915050565b6000610d1a82610d9a565b9150610d2583610d9a565b925082821015610d3857610d37610e1b565b5b828203905092915050565b6000610d4e82610d7a565b9050919050565b6000610d6082610d7a565b9050919050565b6000819050610d7582610ebe565b919050565b600073ffffffffffffffffffffffffffffffffffffffff82169050919050565b6000819050919050565b6000610daf82610d67565b9050919050565b60005b83811015610dd4578082015181840152602081019050610db9565b83811115610de3576000848401525b50505050565b60006002820490506001821680610e0157607f821691505b60208210811415610e1557610e14610e79565b5b50919050565b7f4e487b7100000000000000000000000000000000000000000000000000000000600052601160045260246000fd5b7f4e487b7100000000000000000000000000000000000000000000000000000000600052602160045260246000fd5b7f4e487b7100000000000000000000000000000000000000000000000000000000600052602260045260246000fd5b600080fd5b6000601f19601f8301169050919050565b60048110610ecf57610ece610e4a565b5b50565b610edb81610d43565b8114610ee657600080fd5b5056fea264697066735822122050d9735a0d87c16a9d4a1d5d78f0253d25d96904406ebb92e87543e42ecf969e64736f6c63430008070033a2646970667358221220456497ce45d51c05febeef443dd0a680b893ac31b17a2507cf50b79667e696ea64736f6c63430008070033",
					"opcodes": "PUSH1 0x80 PUSH1 0x40 MSTORE CALLVALUE DUP1 ISZERO PUSH2 0x10 JUMPI PUSH1 0x0 DUP1 REVERT JUMPDEST POP CALLER PUSH1 0x0 DUP1 PUSH2 0x100 EXP DUP2 SLOAD DUP2 PUSH20 0xFFFFFFFFFFFFFFFFFFFFFFFFFFFFFFFFFFFFFFFF MUL NOT AND SWAP1 DUP4 PUSH20 0xFFFFFFFFFFFFFFFFFFFFFFFFFFFFFFFFFFFFFFFF AND MUL OR SWAP1 SSTORE POP PUSH2 0x15AC DUP1 PUSH2 0x60 PUSH1 0x0 CODECOPY PUSH1 0x0 RETURN INVALID PUSH1 0x80 PUSH1 0x40 MSTORE CALLVALUE DUP1 ISZERO PUSH2 0x10 JUMPI PUSH1 0x0 DUP1 REVERT JUMPDEST POP PUSH1 0x4 CALLDATASIZE LT PUSH2 0x41 JUMPI PUSH1 0x0 CALLDATALOAD PUSH1 0xE0 SHR DUP1 PUSH4 0x571A26A0 EQ PUSH2 0x46 JUMPI DUP1 PUSH4 0x773C9546 EQ PUSH2 0x76 JUMPI DUP1 PUSH4 0x94FA4198 EQ PUSH2 0x80 JUMPI JUMPDEST PUSH1 0x0 DUP1 REVERT JUMPDEST PUSH2 0x60 PUSH1 0x4 DUP1 CALLDATASIZE SUB DUP2 ADD SWAP1 PUSH2 0x5B SWAP2 SWAP1 PUSH2 0x1C1 JUMP JUMPDEST PUSH2 0x9E JUMP JUMPDEST PUSH1 0x40 MLOAD PUSH2 0x6D SWAP2 SWAP1 PUSH2 0x227 JUMP JUMPDEST PUSH1 0x40 MLOAD DUP1 SWAP2 SUB SWAP1 RETURN JUMPDEST PUSH2 0x7E PUSH2 0xDD JUMP JUMPDEST STOP JUMPDEST PUSH2 0x88 PUSH2 0x17B JUMP JUMPDEST PUSH1 0x40 MLOAD PUSH2 0x95 SWAP2 SWAP1 PUSH2 0x20C JUMP JUMPDEST PUSH1 0x40 MLOAD DUP1 SWAP2 SUB SWAP1 RETURN JUMPDEST PUSH1 0x1 DUP2 DUP2 SLOAD DUP2 LT PUSH2 0xAE JUMPI PUSH1 0x0 DUP1 REVERT JUMPDEST SWAP1 PUSH1 0x0 MSTORE PUSH1 0x20 PUSH1 0x0 KECCAK256 ADD PUSH1 0x0 SWAP2 POP SLOAD SWAP1 PUSH2 0x100 EXP SWAP1 DIV PUSH20 0xFFFFFFFFFFFFFFFFFFFFFFFFFFFFFFFFFFFFFFFF AND DUP2 JUMP JUMPDEST PUSH1 0x0 CALLER PUSH1 0x40 MLOAD PUSH2 0xEC SWAP1 PUSH2 0x19F JUMP JUMPDEST PUSH2 0xF6 SWAP2 SWAP1 PUSH2 0x20C JUMP JUMPDEST PUSH1 0x40 MLOAD DUP1 SWAP2 SUB SWAP1 PUSH1 0x0 CREATE DUP1 ISZERO DUP1 ISZERO PUSH2 0x112 JUMPI RETURNDATASIZE PUSH1 0x0 DUP1 RETURNDATACOPY RETURNDATASIZE PUSH1 0x0 REVERT JUMPDEST POP SWAP1 POP PUSH1 0x1 DUP2 SWAP1 DUP1 PUSH1 0x1 DUP2 SLOAD ADD DUP1 DUP3 SSTORE DUP1 SWAP2 POP POP PUSH1 0x1 SWAP1 SUB SWAP1 PUSH1 0x0 MSTORE PUSH1 0x20 PUSH1 0x0 KECCAK256 ADD PUSH1 0x0 SWAP1 SWAP2 SWAP1 SWAP2 SWAP1 SWAP2 PUSH2 0x100 EXP DUP2 SLOAD DUP2 PUSH20 0xFFFFFFFFFFFFFFFFFFFFFFFFFFFFFFFFFFFFFFFF MUL NOT AND SWAP1 DUP4 PUSH20 0xFFFFFFFFFFFFFFFFFFFFFFFFFFFFFFFFFFFFFFFF AND MUL OR SWAP1 SSTORE POP POP JUMP JUMPDEST PUSH1 0x0 DUP1 SLOAD SWAP1 PUSH2 0x100 EXP SWAP1 DIV PUSH20 0xFFFFFFFFFFFFFFFFFFFFFFFFFFFFFFFFFFFFFFFF AND DUP2 JUMP JUMPDEST PUSH2 0x12A6 DUP1 PUSH2 0x2D1 DUP4 CODECOPY ADD SWAP1 JUMP JUMPDEST PUSH1 0x0 DUP2 CALLDATALOAD SWAP1 POP PUSH2 0x1BB DUP2 PUSH2 0x2B9 JUMP JUMPDEST SWAP3 SWAP2 POP POP JUMP JUMPDEST PUSH1 0x0 PUSH1 0x20 DUP3 DUP5 SUB SLT ISZERO PUSH2 0x1D7 JUMPI PUSH2 0x1D6 PUSH2 0x2B4 JUMP JUMPDEST JUMPDEST PUSH1 0x0 PUSH2 0x1E5 DUP5 DUP3 DUP6 ADD PUSH2 0x1AC JUMP JUMPDEST SWAP2 POP POP SWAP3 SWAP2 POP POP JUMP JUMPDEST PUSH2 0x1F7 DUP2 PUSH2 0x242 JUMP JUMPDEST DUP3 MSTORE POP POP JUMP JUMPDEST PUSH2 0x206 DUP2 PUSH2 0x27E JUMP JUMPDEST DUP3 MSTORE POP POP JUMP JUMPDEST PUSH1 0x0 PUSH1 0x20 DUP3 ADD SWAP1 POP PUSH2 0x221 PUSH1 0x0 DUP4 ADD DUP5 PUSH2 0x1EE JUMP JUMPDEST SWAP3 SWAP2 POP POP JUMP JUMPDEST PUSH1 0x0 PUSH1 0x20 DUP3 ADD SWAP1 POP PUSH2 0x23C PUSH1 0x0 DUP4 ADD DUP5 PUSH2 0x1FD JUMP JUMPDEST SWAP3 SWAP2 POP POP JUMP JUMPDEST PUSH1 0x0 PUSH2 0x24D DUP3 PUSH2 0x254 JUMP JUMPDEST SWAP1 POP SWAP2 SWAP1 POP JUMP JUMPDEST PUSH1 0x0 PUSH20 0xFFFFFFFFFFFFFFFFFFFFFFFFFFFFFFFFFFFFFFFF DUP3 AND SWAP1 POP SWAP2 SWAP1 POP JUMP JUMPDEST PUSH1 0x0 DUP2 SWAP1 POP SWAP2 SWAP1 POP JUMP JUMPDEST PUSH1 0x0 PUSH2 0x289 DUP3 PUSH2 0x290 JUMP JUMPDEST SWAP1 POP SWAP2 SWAP1 POP JUMP JUMPDEST PUSH1 0x0 PUSH2 0x29B DUP3 PUSH2 0x2A2 JUMP JUMPDEST SWAP1 POP SWAP2 SWAP1 POP JUMP JUMPDEST PUSH1 0x0 PUSH2 0x2AD DUP3 PUSH2 0x254 JUMP JUMPDEST SWAP1 POP SWAP2 SWAP1 POP JUMP JUMPDEST PUSH1 0x0 DUP1 REVERT JUMPDEST PUSH2 0x2C2 DUP2 PUSH2 0x274 JUMP JUMPDEST DUP2 EQ PUSH2 0x2CD JUMPI PUSH1 0x0 DUP1 REVERT JUMPDEST POP JUMP INVALID PUSH1 0x80 PUSH1 0x40 MSTORE CALLVALUE DUP1 ISZERO PUSH3 0x11 JUMPI PUSH1 0x0 DUP1 REVERT JUMPDEST POP PUSH1 0x40 MLOAD PUSH3 0x12A6 CODESIZE SUB DUP1 PUSH3 0x12A6 DUP4 CODECOPY DUP2 DUP2 ADD PUSH1 0x40 MSTORE DUP2 ADD SWAP1 PUSH3 0x37 SWAP2 SWAP1 PUSH3 0x1C8 JUMP JUMPDEST DUP1 PUSH1 0x0 DUP1 PUSH2 0x100 EXP DUP2 SLOAD DUP2 PUSH20 0xFFFFFFFFFFFFFFFFFFFFFFFFFFFFFFFFFFFFFFFF MUL NOT AND SWAP1 DUP4 PUSH20 0xFFFFFFFFFFFFFFFFFFFFFFFFFFFFFFFFFFFFFFFF AND MUL OR SWAP1 SSTORE POP PUSH1 0x1 PUSH1 0x4 PUSH1 0x0 PUSH2 0x100 EXP DUP2 SLOAD DUP2 PUSH1 0xFF MUL NOT AND SWAP1 DUP4 PUSH1 0x3 DUP2 GT ISZERO PUSH3 0xA0 JUMPI PUSH3 0x9F PUSH3 0x2FA JUMP JUMPDEST JUMPDEST MUL OR SWAP1 SSTORE POP NUMBER PUSH1 0x1 DUP2 SWAP1 SSTORE POP PUSH2 0x9D80 PUSH1 0x1 SLOAD PUSH3 0xBE SWAP2 SWAP1 PUSH3 0x1FA JUMP JUMPDEST PUSH1 0x2 DUP2 SWAP1 SSTORE POP PUSH1 0x40 MLOAD DUP1 PUSH1 0x20 ADD PUSH1 0x40 MSTORE DUP1 PUSH1 0x0 DUP2 MSTORE POP PUSH1 0x3 SWAP1 DUP1 MLOAD SWAP1 PUSH1 0x20 ADD SWAP1 PUSH3 0xEB SWAP3 SWAP2 SWAP1 PUSH3 0x101 JUMP JUMPDEST POP PUSH7 0x2386F26FC10000 PUSH1 0x8 DUP2 SWAP1 SSTORE POP POP PUSH3 0x377 JUMP JUMPDEST DUP3 DUP1 SLOAD PUSH3 0x10F SWAP1 PUSH3 0x295 JUMP JUMPDEST SWAP1 PUSH1 0x0 MSTORE PUSH1 0x20 PUSH1 0x0 KECCAK256 SWAP1 PUSH1 0x1F ADD PUSH1 0x20 SWAP1 DIV DUP2 ADD SWAP3 DUP3 PUSH3 0x133 JUMPI PUSH1 0x0 DUP6 SSTORE PUSH3 0x17F JUMP JUMPDEST DUP3 PUSH1 0x1F LT PUSH3 0x14E JUMPI DUP1 MLOAD PUSH1 0xFF NOT AND DUP4 DUP1 ADD OR DUP6 SSTORE PUSH3 0x17F JUMP JUMPDEST DUP3 DUP1 ADD PUSH1 0x1 ADD DUP6 SSTORE DUP3 ISZERO PUSH3 0x17F JUMPI SWAP2 DUP3 ADD JUMPDEST DUP3 DUP2 GT ISZERO PUSH3 0x17E JUMPI DUP3 MLOAD DUP3 SSTORE SWAP2 PUSH1 0x20 ADD SWAP2 SWAP1 PUSH1 0x1 ADD SWAP1 PUSH3 0x161 JUMP JUMPDEST JUMPDEST POP SWAP1 POP PUSH3 0x18E SWAP2 SWAP1 PUSH3 0x192 JUMP JUMPDEST POP SWAP1 JUMP JUMPDEST JUMPDEST DUP1 DUP3 GT ISZERO PUSH3 0x1AD JUMPI PUSH1 0x0 DUP2 PUSH1 0x0 SWAP1 SSTORE POP PUSH1 0x1 ADD PUSH3 0x193 JUMP JUMPDEST POP SWAP1 JUMP JUMPDEST PUSH1 0x0 DUP2 MLOAD SWAP1 POP PUSH3 0x1C2 DUP2 PUSH3 0x35D JUMP JUMPDEST SWAP3 SWAP2 POP POP JUMP JUMPDEST PUSH1 0x0 PUSH1 0x20 DUP3 DUP5 SUB SLT ISZERO PUSH3 0x1E1 JUMPI PUSH3 0x1E0 PUSH3 0x358 JUMP JUMPDEST JUMPDEST PUSH1 0x0 PUSH3 0x1F1 DUP5 DUP3 DUP6 ADD PUSH3 0x1B1 JUMP JUMPDEST SWAP2 POP POP SWAP3 SWAP2 POP POP JUMP JUMPDEST PUSH1 0x0 PUSH3 0x207 DUP3 PUSH3 0x28B JUMP JUMPDEST SWAP2 POP PUSH3 0x214 DUP4 PUSH3 0x28B JUMP JUMPDEST SWAP3 POP DUP3 PUSH32 0xFFFFFFFFFFFFFFFFFFFFFFFFFFFFFFFFFFFFFFFFFFFFFFFFFFFFFFFFFFFFFFFF SUB DUP3 GT ISZERO PUSH3 0x24C JUMPI PUSH3 0x24B PUSH3 0x2CB JUMP JUMPDEST JUMPDEST DUP3 DUP3 ADD SWAP1 POP SWAP3 SWAP2 POP POP JUMP JUMPDEST PUSH1 0x0 PUSH3 0x264 DUP3 PUSH3 0x26B JUMP JUMPDEST SWAP1 POP SWAP2 SWAP1 POP JUMP JUMPDEST PUSH1 0x0 PUSH20 0xFFFFFFFFFFFFFFFFFFFFFFFFFFFFFFFFFFFFFFFF DUP3 AND SWAP1 POP SWAP2 SWAP1 POP JUMP JUMPDEST PUSH1 0x0 DUP2 SWAP1 POP SWAP2 SWAP1 POP JUMP JUMPDEST PUSH1 0x0 PUSH1 0x2 DUP3 DIV SWAP1 POP PUSH1 0x1 DUP3 AND DUP1 PUSH3 0x2AE JUMPI PUSH1 0x7F DUP3 AND SWAP2 POP JUMPDEST PUSH1 0x20 DUP3 LT DUP2 EQ ISZERO PUSH3 0x2C5 JUMPI PUSH3 0x2C4 PUSH3 0x329 JUMP JUMPDEST JUMPDEST POP SWAP2 SWAP1 POP JUMP JUMPDEST PUSH32 0x4E487B7100000000000000000000000000000000000000000000000000000000 PUSH1 0x0 MSTORE PUSH1 0x11 PUSH1 0x4 MSTORE PUSH1 0x24 PUSH1 0x0 REVERT JUMPDEST PUSH32 0x4E487B7100000000000000000000000000000000000000000000000000000000 PUSH1 0x0 MSTORE PUSH1 0x21 PUSH1 0x4 MSTORE PUSH1 0x24 PUSH1 0x0 REVERT JUMPDEST PUSH32 0x4E487B7100000000000000000000000000000000000000000000000000000000 PUSH1 0x0 MSTORE PUSH1 0x22 PUSH1 0x4 MSTORE PUSH1 0x24 PUSH1 0x0 REVERT JUMPDEST PUSH1 0x0 DUP1 REVERT JUMPDEST PUSH3 0x368 DUP2 PUSH3 0x257 JUMP JUMPDEST DUP2 EQ PUSH3 0x374 JUMPI PUSH1 0x0 DUP1 REVERT JUMPDEST POP JUMP JUMPDEST PUSH2 0xF1F DUP1 PUSH3 0x387 PUSH1 0x0 CODECOPY PUSH1 0x0 RETURN INVALID PUSH1 0x80 PUSH1 0x40 MSTORE PUSH1 0x4 CALLDATASIZE LT PUSH2 0x9C JUMPI PUSH1 0x0 CALLDATALOAD PUSH1 0xE0 SHR DUP1 PUSH4 0x7FB45099 GT PUSH2 0x64 JUMPI DUP1 PUSH4 0x7FB45099 EQ PUSH2 0x176 JUMPI DUP1 PUSH4 0x8DA5CB5B EQ PUSH2 0x1A1 JUMPI DUP1 PUSH4 0x8FA8B790 EQ PUSH2 0x1CC JUMPI DUP1 PUSH4 0x91F90157 EQ PUSH2 0x1E3 JUMPI DUP1 PUSH4 0xECFC7ECC EQ PUSH2 0x20E JUMPI DUP1 PUSH4 0xF5B56C56 EQ PUSH2 0x218 JUMPI PUSH2 0x9C JUMP JUMPDEST DUP1 PUSH4 0x83C6323 EQ PUSH2 0xA1 JUMPI DUP1 PUSH4 0x48CD4CB1 EQ PUSH2 0xCC JUMPI DUP1 PUSH4 0x4EC4D531 EQ PUSH2 0xF7 JUMPI DUP1 PUSH4 0x5228733F EQ PUSH2 0x122 JUMPI DUP1 PUSH4 0x62EA82DB EQ PUSH2 0x139 JUMPI JUMPDEST PUSH1 0x0 DUP1 REVERT JUMPDEST CALLVALUE DUP1 ISZERO PUSH2 0xAD JUMPI PUSH1 0x0 DUP1 REVERT JUMPDEST POP PUSH2 0xB6 PUSH2 0x243 JUMP JUMPDEST PUSH1 0x40 MLOAD PUSH2 0xC3 SWAP2 SWAP1 PUSH2 0xC82 JUMP JUMPDEST PUSH1 0x40 MLOAD DUP1 SWAP2 SUB SWAP1 RETURN JUMPDEST CALLVALUE DUP1 ISZERO PUSH2 0xD8 JUMPI PUSH1 0x0 DUP1 REVERT JUMPDEST POP PUSH2 0xE1 PUSH2 0x249 JUMP JUMPDEST PUSH1 0x40 MLOAD PUSH2 0xEE SWAP2 SWAP1 PUSH2 0xC82 JUMP JUMPDEST PUSH1 0x40 MLOAD DUP1 SWAP2 SUB SWAP1 RETURN JUMPDEST CALLVALUE DUP1 ISZERO PUSH2 0x103 JUMPI PUSH1 0x0 DUP1 REVERT JUMPDEST POP PUSH2 0x10C PUSH2 0x24F JUMP JUMPDEST PUSH1 0x40 MLOAD PUSH2 0x119 SWAP2 SWAP1 PUSH2 0xC60 JUMP JUMPDEST PUSH1 0x40 MLOAD DUP1 SWAP2 SUB SWAP1 RETURN JUMPDEST CALLVALUE DUP1 ISZERO PUSH2 0x12E JUMPI PUSH1 0x0 DUP1 REVERT JUMPDEST POP PUSH2 0x137 PUSH2 0x2DD JUMP JUMPDEST STOP JUMPDEST CALLVALUE DUP1 ISZERO PUSH2 0x145 JUMPI PUSH1 0x0 DUP1 REVERT JUMPDEST POP PUSH2 0x160 PUSH1 0x4 DUP1 CALLDATASIZE SUB DUP2 ADD SWAP1 PUSH2 0x15B SWAP2 SWAP1 PUSH2 0xB97 JUMP JUMPDEST PUSH2 0x752 JUMP JUMPDEST PUSH1 0x40 MLOAD PUSH2 0x16D SWAP2 SWAP1 PUSH2 0xC82 JUMP JUMPDEST PUSH1 0x40 MLOAD DUP1 SWAP2 SUB SWAP1 RETURN JUMPDEST CALLVALUE DUP1 ISZERO PUSH2 0x182 JUMPI PUSH1 0x0 DUP1 REVERT JUMPDEST POP PUSH2 0x18B PUSH2 0x76A JUMP JUMPDEST PUSH1 0x40 MLOAD PUSH2 0x198 SWAP2 SWAP1 PUSH2 0xC45 JUMP JUMPDEST PUSH1 0x40 MLOAD DUP1 SWAP2 SUB SWAP1 RETURN JUMPDEST CALLVALUE DUP1 ISZERO PUSH2 0x1AD JUMPI PUSH1 0x0 DUP1 REVERT JUMPDEST POP PUSH2 0x1B6 PUSH2 0x77D JUMP JUMPDEST PUSH1 0x40 MLOAD PUSH2 0x1C3 SWAP2 SWAP1 PUSH2 0xC2A JUMP JUMPDEST PUSH1 0x40 MLOAD DUP1 SWAP2 SUB SWAP1 RETURN JUMPDEST CALLVALUE DUP1 ISZERO PUSH2 0x1D8 JUMPI PUSH1 0x0 DUP1 REVERT JUMPDEST POP PUSH2 0x1E1 PUSH2 0x7A1 JUMP JUMPDEST STOP JUMPDEST CALLVALUE DUP1 ISZERO PUSH2 0x1EF JUMPI PUSH1 0x0 DUP1 REVERT JUMPDEST POP PUSH2 0x1F8 PUSH2 0x826 JUMP JUMPDEST PUSH1 0x40 MLOAD PUSH2 0x205 SWAP2 SWAP1 PUSH2 0xC2A JUMP JUMPDEST PUSH1 0x40 MLOAD DUP1 SWAP2 SUB SWAP1 RETURN JUMPDEST PUSH2 0x216 PUSH2 0x84C JUMP JUMPDEST STOP JUMPDEST CALLVALUE DUP1 ISZERO PUSH2 0x224 JUMPI PUSH1 0x0 DUP1 REVERT JUMPDEST POP PUSH2 0x22D PUSH2 0xB61 JUMP JUMPDEST PUSH1 0x40 MLOAD PUSH2 0x23A SWAP2 SWAP1 PUSH2 0xC82 JUMP JUMPDEST PUSH1 0x40 MLOAD DUP1 SWAP2 SUB SWAP1 RETURN JUMPDEST PUSH1 0x2 SLOAD DUP2 JUMP JUMPDEST PUSH1 0x1 SLOAD DUP2 JUMP JUMPDEST PUSH1 0x3 DUP1 SLOAD PUSH2 0x25C SWAP1 PUSH2 0xDE9 JUMP JUMPDEST DUP1 PUSH1 0x1F ADD PUSH1 0x20 DUP1 SWAP2 DIV MUL PUSH1 0x20 ADD PUSH1 0x40 MLOAD SWAP1 DUP2 ADD PUSH1 0x40 MSTORE DUP1 SWAP3 SWAP2 SWAP1 DUP2 DUP2 MSTORE PUSH1 0x20 ADD DUP3 DUP1 SLOAD PUSH2 0x288 SWAP1 PUSH2 0xDE9 JUMP JUMPDEST DUP1 ISZERO PUSH2 0x2D5 JUMPI DUP1 PUSH1 0x1F LT PUSH2 0x2AA JUMPI PUSH2 0x100 DUP1 DUP4 SLOAD DIV MUL DUP4 MSTORE SWAP2 PUSH1 0x20 ADD SWAP2 PUSH2 0x2D5 JUMP JUMPDEST DUP3 ADD SWAP2 SWAP1 PUSH1 0x0 MSTORE PUSH1 0x20 PUSH1 0x0 KECCAK256 SWAP1 JUMPDEST DUP2 SLOAD DUP2 MSTORE SWAP1 PUSH1 0x1 ADD SWAP1 PUSH1 0x20 ADD DUP1 DUP4 GT PUSH2 0x2B8 JUMPI DUP3 SWAP1 SUB PUSH1 0x1F AND DUP3 ADD SWAP2 JUMPDEST POP POP POP POP POP DUP2 JUMP JUMPDEST PUSH1 0x3 DUP1 DUP2 GT ISZERO PUSH2 0x2F0 JUMPI PUSH2 0x2EF PUSH2 0xE4A JUMP JUMPDEST JUMPDEST PUSH1 0x4 PUSH1 0x0 SWAP1 SLOAD SWAP1 PUSH2 0x100 EXP SWAP1 DIV PUSH1 0xFF AND PUSH1 0x3 DUP2 GT ISZERO PUSH2 0x312 JUMPI PUSH2 0x311 PUSH2 0xE4A JUMP JUMPDEST JUMPDEST EQ DUP1 PUSH2 0x351 JUMPI POP PUSH1 0x2 PUSH1 0x3 DUP2 GT ISZERO PUSH2 0x32D JUMPI PUSH2 0x32C PUSH2 0xE4A JUMP JUMPDEST JUMPDEST PUSH1 0x4 PUSH1 0x0 SWAP1 SLOAD SWAP1 PUSH2 0x100 EXP SWAP1 DIV PUSH1 0xFF AND PUSH1 0x3 DUP2 GT ISZERO PUSH2 0x34F JUMPI PUSH2 0x34E PUSH2 0xE4A JUMP JUMPDEST JUMPDEST EQ JUMPDEST PUSH2 0x35A JUMPI PUSH1 0x0 DUP1 REVERT JUMPDEST PUSH1 0x0 DUP1 SLOAD SWAP1 PUSH2 0x100 EXP SWAP1 DIV PUSH20 0xFFFFFFFFFFFFFFFFFFFFFFFFFFFFFFFFFFFFFFFF AND PUSH20 0xFFFFFFFFFFFFFFFFFFFFFFFFFFFFFFFFFFFFFFFF AND CALLER PUSH20 0xFFFFFFFFFFFFFFFFFFFFFFFFFFFFFFFFFFFFFFFF AND EQ DUP1 ISZERO PUSH2 0x3B7 JUMPI POP PUSH1 0x0 PUSH1 0x5 SLOAD GT JUMPDEST DUP1 PUSH2 0x401 JUMPI POP PUSH1 0x0 PUSH1 0x7 PUSH1 0x0 CALLER PUSH20 0xFFFFFFFFFFFFFFFFFFFFFFFFFFFFFFFFFFFFFFFF AND PUSH20 0xFFFFFFFFFFFFFFFFFFFFFFFFFFFFFFFFFFFFFFFF AND DUP2 MSTORE PUSH1 0x20 ADD SWAP1 DUP2 MSTORE PUSH1 0x20 ADD PUSH1 0x0 KECCAK256 SLOAD GT JUMPDEST PUSH2 0x40A JUMPI PUSH1 0x0 DUP1 REVERT JUMPDEST PUSH1 0x0 CALLER SWAP1 POP PUSH1 0x0 PUSH1 0x3 DUP1 DUP2 GT ISZERO PUSH2 0x424 JUMPI PUSH2 0x423 PUSH2 0xE4A JUMP JUMPDEST JUMPDEST PUSH1 0x4 PUSH1 0x0 SWAP1 SLOAD SWAP1 PUSH2 0x100 EXP SWAP1 DIV PUSH1 0xFF AND PUSH1 0x3 DUP2 GT ISZERO PUSH2 0x446 JUMPI PUSH2 0x445 PUSH2 0xE4A JUMP JUMPDEST JUMPDEST EQ ISZERO PUSH2 0x493 JUMPI PUSH1 0x7 PUSH1 0x0 CALLER PUSH20 0xFFFFFFFFFFFFFFFFFFFFFFFFFFFFFFFFFFFFFFFF AND PUSH20 0xFFFFFFFFFFFFFFFFFFFFFFFFFFFFFFFFFFFFFFFF AND DUP2 MSTORE PUSH1 0x20 ADD SWAP1 DUP2 MSTORE PUSH1 0x20 ADD PUSH1 0x0 KECCAK256 SLOAD SWAP1 POP PUSH2 0x6C2 JUMP JUMPDEST PUSH1 0x0 DUP1 SLOAD SWAP1 PUSH2 0x100 EXP SWAP1 DIV PUSH20 0xFFFFFFFFFFFFFFFFFFFFFFFFFFFFFFFFFFFFFFFF AND PUSH20 0xFFFFFFFFFFFFFFFFFFFFFFFFFFFFFFFFFFFFFFFF AND CALLER PUSH20 0xFFFFFFFFFFFFFFFFFFFFFFFFFFFFFFFFFFFFFFFF AND EQ ISZERO PUSH2 0x5D3 JUMPI PUSH1 0x5 SLOAD SWAP1 POP PUSH1 0x0 PUSH1 0x5 SLOAD PUSH1 0x7 PUSH1 0x0 PUSH1 0x6 PUSH1 0x0 SWAP1 SLOAD SWAP1 PUSH2 0x100 EXP SWAP1 DIV PUSH20 0xFFFFFFFFFFFFFFFFFFFFFFFFFFFFFFFFFFFFFFFF AND PUSH20 0xFFFFFFFFFFFFFFFFFFFFFFFFFFFFFFFFFFFFFFFF AND PUSH20 0xFFFFFFFFFFFFFFFFFFFFFFFFFFFFFFFFFFFFFFFF AND DUP2 MSTORE PUSH1 0x20 ADD SWAP1 DUP2 MSTORE PUSH1 0x20 ADD PUSH1 0x0 KECCAK256 SLOAD PUSH2 0x55D SWAP2 SWAP1 PUSH2 0xD0F JUMP JUMPDEST SWAP1 POP DUP1 PUSH1 0x7 PUSH1 0x0 PUSH1 0x6 PUSH1 0x0 SWAP1 SLOAD SWAP1 PUSH2 0x100 EXP SWAP1 DIV PUSH20 0xFFFFFFFFFFFFFFFFFFFFFFFFFFFFFFFFFFFFFFFF AND PUSH20 0xFFFFFFFFFFFFFFFFFFFFFFFFFFFFFFFFFFFFFFFF AND PUSH20 0xFFFFFFFFFFFFFFFFFFFFFFFFFFFFFFFFFFFFFFFF AND DUP2 MSTORE PUSH1 0x20 ADD SWAP1 DUP2 MSTORE PUSH1 0x20 ADD PUSH1 0x0 KECCAK256 DUP2 SWAP1 SSTORE POP PUSH1 0x0 PUSH1 0x5 DUP2 SWAP1 SSTORE POP POP PUSH2 0x6C1 JUMP JUMPDEST PUSH1 0x6 PUSH1 0x0 SWAP1 SLOAD SWAP1 PUSH2 0x100 EXP SWAP1 DIV PUSH20 0xFFFFFFFFFFFFFFFFFFFFFFFFFFFFFFFFFFFFFFFF AND PUSH20 0xFFFFFFFFFFFFFFFFFFFFFFFFFFFFFFFFFFFFFFFF AND CALLER PUSH20 0xFFFFFFFFFFFFFFFFFFFFFFFFFFFFFFFFFFFFFFFF AND EQ ISZERO PUSH2 0x67D JUMPI PUSH1 0x5 SLOAD PUSH1 0x7 PUSH1 0x0 CALLER PUSH20 0xFFFFFFFFFFFFFFFFFFFFFFFFFFFFFFFFFFFFFFFF AND PUSH20 0xFFFFFFFFFFFFFFFFFFFFFFFFFFFFFFFFFFFFFFFF AND DUP2 MSTORE PUSH1 0x20 ADD SWAP1 DUP2 MSTORE PUSH1 0x20 ADD PUSH1 0x0 KECCAK256 SLOAD PUSH2 0x676 SWAP2 SWAP1 PUSH2 0xD0F JUMP JUMPDEST SWAP1 POP PUSH2 0x6C0 JUMP JUMPDEST PUSH1 0x7 PUSH1 0x0 CALLER PUSH20 0xFFFFFFFFFFFFFFFFFFFFFFFFFFFFFFFFFFFFFFFF AND PUSH20 0xFFFFFFFFFFFFFFFFFFFFFFFFFFFFFFFFFFFFFFFF AND DUP2 MSTORE PUSH1 0x20 ADD SWAP1 DUP2 MSTORE PUSH1 0x20 ADD PUSH1 0x0 KECCAK256 SLOAD SWAP1 POP JUMPDEST JUMPDEST JUMPDEST DUP2 PUSH20 0xFFFFFFFFFFFFFFFFFFFFFFFFFFFFFFFFFFFFFFFF AND PUSH2 0x8FC DUP3 SWAP1 DUP2 ISZERO MUL SWAP1 PUSH1 0x40 MLOAD PUSH1 0x0 PUSH1 0x40 MLOAD DUP1 DUP4 SUB DUP2 DUP6 DUP9 DUP9 CALL SWAP4 POP POP POP POP ISZERO DUP1 ISZERO PUSH2 0x708 JUMPI RETURNDATASIZE PUSH1 0x0 DUP1 RETURNDATACOPY RETURNDATASIZE PUSH1 0x0 REVERT JUMPDEST POP PUSH1 0x0 PUSH1 0x7 PUSH1 0x0 CALLER PUSH20 0xFFFFFFFFFFFFFFFFFFFFFFFFFFFFFFFFFFFFFFFF AND PUSH20 0xFFFFFFFFFFFFFFFFFFFFFFFFFFFFFFFFFFFFFFFF AND DUP2 MSTORE PUSH1 0x20 ADD SWAP1 DUP2 MSTORE PUSH1 0x20 ADD PUSH1 0x0 KECCAK256 DUP2 SWAP1 SSTORE POP POP POP JUMP JUMPDEST PUSH1 0x7 PUSH1 0x20 MSTORE DUP1 PUSH1 0x0 MSTORE PUSH1 0x40 PUSH1 0x0 KECCAK256 PUSH1 0x0 SWAP2 POP SWAP1 POP SLOAD DUP2 JUMP JUMPDEST PUSH1 0x4 PUSH1 0x0 SWAP1 SLOAD SWAP1 PUSH2 0x100 EXP SWAP1 DIV PUSH1 0xFF AND DUP2 JUMP JUMPDEST PUSH1 0x0 DUP1 SLOAD SWAP1 PUSH2 0x100 EXP SWAP1 DIV PUSH20 0xFFFFFFFFFFFFFFFFFFFFFFFFFFFFFFFFFFFFFFFF AND DUP2 JUMP JUMPDEST PUSH1 0x0 DUP1 SLOAD SWAP1 PUSH2 0x100 EXP SWAP1 DIV PUSH20 0xFFFFFFFFFFFFFFFFFFFFFFFFFFFFFFFFFFFFFFFF AND PUSH20 0xFFFFFFFFFFFFFFFFFFFFFFFFFFFFFFFFFFFFFFFF AND CALLER PUSH20 0xFFFFFFFFFFFFFFFFFFFFFFFFFFFFFFFFFFFFFFFF AND EQ PUSH2 0x7F9 JUMPI PUSH1 0x0 DUP1 REVERT JUMPDEST PUSH1 0x3 PUSH1 0x4 PUSH1 0x0 PUSH2 0x100 EXP DUP2 SLOAD DUP2 PUSH1 0xFF MUL NOT AND SWAP1 DUP4 PUSH1 0x3 DUP2 GT ISZERO PUSH2 0x81F JUMPI PUSH2 0x81E PUSH2 0xE4A JUMP JUMPDEST JUMPDEST MUL OR SWAP1 SSTORE POP JUMP JUMPDEST PUSH1 0x6 PUSH1 0x0 SWAP1 SLOAD SWAP1 PUSH2 0x100 EXP SWAP1 DIV PUSH20 0xFFFFFFFFFFFFFFFFFFFFFFFFFFFFFFFFFFFFFFFF AND DUP2 JUMP JUMPDEST PUSH1 0x0 DUP1 SLOAD SWAP1 PUSH2 0x100 EXP SWAP1 DIV PUSH20 0xFFFFFFFFFFFFFFFFFFFFFFFFFFFFFFFFFFFFFFFF AND PUSH20 0xFFFFFFFFFFFFFFFFFFFFFFFFFFFFFFFFFFFFFFFF AND CALLER PUSH20 0xFFFFFFFFFFFFFFFFFFFFFFFFFFFFFFFFFFFFFFFF AND EQ ISZERO PUSH2 0x8A5 JUMPI PUSH1 0x0 DUP1 REVERT JUMPDEST PUSH1 0x1 SLOAD NUMBER LT ISZERO PUSH2 0x8B4 JUMPI PUSH1 0x0 DUP1 REVERT JUMPDEST PUSH1 0x2 SLOAD NUMBER GT ISZERO PUSH2 0x8C3 JUMPI PUSH1 0x0 DUP1 REVERT JUMPDEST PUSH1 0x1 PUSH1 0x3 DUP2 GT ISZERO PUSH2 0x8D7 JUMPI PUSH2 0x8D6 PUSH2 0xE4A JUMP JUMPDEST JUMPDEST PUSH1 0x4 PUSH1 0x0 SWAP1 SLOAD SWAP1 PUSH2 0x100 EXP SWAP1 DIV PUSH1 0xFF AND PUSH1 0x3 DUP2 GT ISZERO PUSH2 0x8F9 JUMPI PUSH2 0x8F8 PUSH2 0xE4A JUMP JUMPDEST JUMPDEST EQ PUSH2 0x903 JUMPI PUSH1 0x0 DUP1 REVERT JUMPDEST PUSH1 0x8 SLOAD CALLVALUE LT ISZERO PUSH2 0x912 JUMPI PUSH1 0x0 DUP1 REVERT JUMPDEST PUSH1 0x0 CALLVALUE PUSH1 0x7 PUSH1 0x0 CALLER PUSH20 0xFFFFFFFFFFFFFFFFFFFFFFFFFFFFFFFFFFFFFFFF AND PUSH20 0xFFFFFFFFFFFFFFFFFFFFFFFFFFFFFFFFFFFFFFFF AND DUP2 MSTORE PUSH1 0x20 ADD SWAP1 DUP2 MSTORE PUSH1 0x20 ADD PUSH1 0x0 KECCAK256 SLOAD PUSH2 0x95F SWAP2 SWAP1 PUSH2 0xCB9 JUMP JUMPDEST SWAP1 POP PUSH1 0x5 SLOAD DUP2 GT PUSH2 0x96F JUMPI PUSH1 0x0 DUP1 REVERT JUMPDEST DUP1 PUSH1 0x7 PUSH1 0x0 CALLER PUSH20 0xFFFFFFFFFFFFFFFFFFFFFFFFFFFFFFFFFFFFFFFF AND PUSH20 0xFFFFFFFFFFFFFFFFFFFFFFFFFFFFFFFFFFFFFFFF AND DUP2 MSTORE PUSH1 0x20 ADD SWAP1 DUP2 MSTORE PUSH1 0x20 ADD PUSH1 0x0 KECCAK256 DUP2 SWAP1 SSTORE POP PUSH1 0x7 PUSH1 0x0 PUSH1 0x6 PUSH1 0x0 SWAP1 SLOAD SWAP1 PUSH2 0x100 EXP SWAP1 DIV PUSH20 0xFFFFFFFFFFFFFFFFFFFFFFFFFFFFFFFFFFFFFFFF AND PUSH20 0xFFFFFFFFFFFFFFFFFFFFFFFFFFFFFFFFFFFFFFFF AND PUSH20 0xFFFFFFFFFFFFFFFFFFFFFFFFFFFFFFFFFFFFFFFF AND DUP2 MSTORE PUSH1 0x20 ADD SWAP1 DUP2 MSTORE PUSH1 0x20 ADD PUSH1 0x0 KECCAK256 SLOAD DUP2 GT PUSH2 0xA9E JUMPI PUSH2 0xA93 PUSH1 0x8 SLOAD DUP3 PUSH2 0xA2C SWAP2 SWAP1 PUSH2 0xCB9 JUMP JUMPDEST PUSH1 0x7 PUSH1 0x0 PUSH1 0x6 PUSH1 0x0 SWAP1 SLOAD SWAP1 PUSH2 0x100 EXP SWAP1 DIV PUSH20 0xFFFFFFFFFFFFFFFFFFFFFFFFFFFFFFFFFFFFFFFF AND PUSH20 0xFFFFFFFFFFFFFFFFFFFFFFFFFFFFFFFFFFFFFFFF AND PUSH20 0xFFFFFFFFFFFFFFFFFFFFFFFFFFFFFFFFFFFFFFFF AND DUP2 MSTORE PUSH1 0x20 ADD SWAP1 DUP2 MSTORE PUSH1 0x20 ADD PUSH1 0x0 KECCAK256 SLOAD PUSH2 0xB67 JUMP JUMPDEST PUSH1 0x5 DUP2 SWAP1 SSTORE POP PUSH2 0xB5E JUMP JUMPDEST PUSH2 0xB16 PUSH1 0x8 SLOAD PUSH1 0x7 PUSH1 0x0 PUSH1 0x6 PUSH1 0x0 SWAP1 SLOAD SWAP1 PUSH2 0x100 EXP SWAP1 DIV PUSH20 0xFFFFFFFFFFFFFFFFFFFFFFFFFFFFFFFFFFFFFFFF AND PUSH20 0xFFFFFFFFFFFFFFFFFFFFFFFFFFFFFFFFFFFFFFFF AND PUSH20 0xFFFFFFFFFFFFFFFFFFFFFFFFFFFFFFFFFFFFFFFF AND DUP2 MSTORE PUSH1 0x20 ADD SWAP1 DUP2 MSTORE PUSH1 0x20 ADD PUSH1 0x0 KECCAK256 SLOAD PUSH2 0xB10 SWAP2 SWAP1 PUSH2 0xCB9 JUMP JUMPDEST DUP3 PUSH2 0xB67 JUMP JUMPDEST PUSH1 0x5 DUP2 SWAP1 SSTORE POP CALLER PUSH1 0x6 PUSH1 0x0 PUSH2 0x100 EXP DUP2 SLOAD DUP2 PUSH20 0xFFFFFFFFFFFFFFFFFFFFFFFFFFFFFFFFFFFFFFFF MUL NOT AND SWAP1 DUP4 PUSH20 0xFFFFFFFFFFFFFFFFFFFFFFFFFFFFFFFFFFFFFFFF AND MUL OR SWAP1 SSTORE POP JUMPDEST POP JUMP JUMPDEST PUSH1 0x5 SLOAD DUP2 JUMP JUMPDEST PUSH1 0x0 DUP2 DUP4 GT PUSH2 0xB78 JUMPI DUP3 SWAP1 POP PUSH2 0xB7C JUMP JUMPDEST DUP2 SWAP1 POP JUMPDEST SWAP3 SWAP2 POP POP JUMP JUMPDEST PUSH1 0x0 DUP2 CALLDATALOAD SWAP1 POP PUSH2 0xB91 DUP2 PUSH2 0xED2 JUMP JUMPDEST SWAP3 SWAP2 POP POP JUMP JUMPDEST PUSH1 0x0 PUSH1 0x20 DUP3 DUP5 SUB SLT ISZERO PUSH2 0xBAD JUMPI PUSH2 0xBAC PUSH2 0xEA8 JUMP JUMPDEST JUMPDEST PUSH1 0x0 PUSH2 0xBBB DUP5 DUP3 DUP6 ADD PUSH2 0xB82 JUMP JUMPDEST SWAP2 POP POP SWAP3 SWAP2 POP POP JUMP JUMPDEST PUSH2 0xBCD DUP2 PUSH2 0xD55 JUMP JUMPDEST DUP3 MSTORE POP POP JUMP JUMPDEST PUSH2 0xBDC DUP2 PUSH2 0xDA4 JUMP JUMPDEST DUP3 MSTORE POP POP JUMP JUMPDEST PUSH1 0x0 PUSH2 0xBED DUP3 PUSH2 0xC9D JUMP JUMPDEST PUSH2 0xBF7 DUP2 DUP6 PUSH2 0xCA8 JUMP JUMPDEST SWAP4 POP PUSH2 0xC07 DUP2 DUP6 PUSH1 0x20 DUP7 ADD PUSH2 0xDB6 JUMP JUMPDEST PUSH2 0xC10 DUP2 PUSH2 0xEAD JUMP JUMPDEST DUP5 ADD SWAP2 POP POP SWAP3 SWAP2 POP POP JUMP JUMPDEST PUSH2 0xC24 DUP2 PUSH2 0xD9A JUMP JUMPDEST DUP3 MSTORE POP POP JUMP JUMPDEST PUSH1 0x0 PUSH1 0x20 DUP3 ADD SWAP1 POP PUSH2 0xC3F PUSH1 0x0 DUP4 ADD DUP5 PUSH2 0xBC4 JUMP JUMPDEST SWAP3 SWAP2 POP POP JUMP JUMPDEST PUSH1 0x0 PUSH1 0x20 DUP3 ADD SWAP1 POP PUSH2 0xC5A PUSH1 0x0 DUP4 ADD DUP5 PUSH2 0xBD3 JUMP JUMPDEST SWAP3 SWAP2 POP POP JUMP JUMPDEST PUSH1 0x0 PUSH1 0x20 DUP3 ADD SWAP1 POP DUP2 DUP2 SUB PUSH1 0x0 DUP4 ADD MSTORE PUSH2 0xC7A DUP2 DUP5 PUSH2 0xBE2 JUMP JUMPDEST SWAP1 POP SWAP3 SWAP2 POP POP JUMP JUMPDEST PUSH1 0x0 PUSH1 0x20 DUP3 ADD SWAP1 POP PUSH2 0xC97 PUSH1 0x0 DUP4 ADD DUP5 PUSH2 0xC1B JUMP JUMPDEST SWAP3 SWAP2 POP POP JUMP JUMPDEST PUSH1 0x0 DUP2 MLOAD SWAP1 POP SWAP2 SWAP1 POP JUMP JUMPDEST PUSH1 0x0 DUP3 DUP3 MSTORE PUSH1 0x20 DUP3 ADD SWAP1 POP SWAP3 SWAP2 POP POP JUMP JUMPDEST PUSH1 0x0 PUSH2 0xCC4 DUP3 PUSH2 0xD9A JUMP JUMPDEST SWAP2 POP PUSH2 0xCCF DUP4 PUSH2 0xD9A JUMP JUMPDEST SWAP3 POP DUP3 PUSH32 0xFFFFFFFFFFFFFFFFFFFFFFFFFFFFFFFFFFFFFFFFFFFFFFFFFFFFFFFFFFFFFFFF SUB DUP3 GT ISZERO PUSH2 0xD04 JUMPI PUSH2 0xD03 PUSH2 0xE1B JUMP JUMPDEST JUMPDEST DUP3 DUP3 ADD SWAP1 POP SWAP3 SWAP2 POP POP JUMP JUMPDEST PUSH1 0x0 PUSH2 0xD1A DUP3 PUSH2 0xD9A JUMP JUMPDEST SWAP2 POP PUSH2 0xD25 DUP4 PUSH2 0xD9A JUMP JUMPDEST SWAP3 POP DUP3 DUP3 LT ISZERO PUSH2 0xD38 JUMPI PUSH2 0xD37 PUSH2 0xE1B JUMP JUMPDEST JUMPDEST DUP3 DUP3 SUB SWAP1 POP SWAP3 SWAP2 POP POP JUMP JUMPDEST PUSH1 0x0 PUSH2 0xD4E DUP3 PUSH2 0xD7A JUMP JUMPDEST SWAP1 POP SWAP2 SWAP1 POP JUMP JUMPDEST PUSH1 0x0 PUSH2 0xD60 DUP3 PUSH2 0xD7A JUMP JUMPDEST SWAP1 POP SWAP2 SWAP1 POP JUMP JUMPDEST PUSH1 0x0 DUP2 SWAP1 POP PUSH2 0xD75 DUP3 PUSH2 0xEBE JUMP JUMPDEST SWAP2 SWAP1 POP JUMP JUMPDEST PUSH1 0x0 PUSH20 0xFFFFFFFFFFFFFFFFFFFFFFFFFFFFFFFFFFFFFFFF DUP3 AND SWAP1 POP SWAP2 SWAP1 POP JUMP JUMPDEST PUSH1 0x0 DUP2 SWAP1 POP SWAP2 SWAP1 POP JUMP JUMPDEST PUSH1 0x0 PUSH2 0xDAF DUP3 PUSH2 0xD67 JUMP JUMPDEST SWAP1 POP SWAP2 SWAP1 POP JUMP JUMPDEST PUSH1 0x0 JUMPDEST DUP4 DUP2 LT ISZERO PUSH2 0xDD4 JUMPI DUP1 DUP3 ADD MLOAD DUP2 DUP5 ADD MSTORE PUSH1 0x20 DUP2 ADD SWAP1 POP PUSH2 0xDB9 JUMP JUMPDEST DUP4 DUP2 GT ISZERO PUSH2 0xDE3 JUMPI PUSH1 0x0 DUP5 DUP5 ADD MSTORE JUMPDEST POP POP POP POP JUMP JUMPDEST PUSH1 0x0 PUSH1 0x2 DUP3 DIV SWAP1 POP PUSH1 0x1 DUP3 AND DUP1 PUSH2 0xE01 JUMPI PUSH1 0x7F DUP3 AND SWAP2 POP JUMPDEST PUSH1 0x20 DUP3 LT DUP2 EQ ISZERO PUSH2 0xE15 JUMPI PUSH2 0xE14 PUSH2 0xE79 JUMP JUMPDEST JUMPDEST POP SWAP2 SWAP1 POP JUMP JUMPDEST PUSH32 0x4E487B7100000000000000000000000000000000000000000000000000000000 PUSH1 0x0 MSTORE PUSH1 0x11 PUSH1 0x4 MSTORE PUSH1 0x24 PUSH1 0x0 REVERT JUMPDEST PUSH32 0x4E487B7100000000000000000000000000000000000000000000000000000000 PUSH1 0x0 MSTORE PUSH1 0x21 PUSH1 0x4 MSTORE PUSH1 0x24 PUSH1 0x0 REVERT JUMPDEST PUSH32 0x4E487B7100000000000000000000000000000000000000000000000000000000 PUSH1 0x0 MSTORE PUSH1 0x22 PUSH1 0x4 MSTORE PUSH1 0x24 PUSH1 0x0 REVERT JUMPDEST PUSH1 0x0 DUP1 REVERT JUMPDEST PUSH1 0x0 PUSH1 0x1F NOT PUSH1 0x1F DUP4 ADD AND SWAP1 POP SWAP2 SWAP1 POP JUMP JUMPDEST PUSH1 0x4 DUP2 LT PUSH2 0xECF JUMPI PUSH2 0xECE PUSH2 0xE4A JUMP JUMPDEST JUMPDEST POP JUMP JUMPDEST PUSH2 0xEDB DUP2 PUSH2 0xD43 JUMP JUMPDEST DUP2 EQ PUSH2 0xEE6 JUMPI PUSH1 0x0 DUP1 REVERT JUMPDEST POP JUMP INVALID LOG2 PUSH5 0x6970667358 0x22 SLT KECCAK256 POP 0xD9 PUSH20 0x5A0D87C16A9D4A1D5D78F0253D25D96904406EBB SWAP3 0xE8 PUSH22 0x43E42ECF969E64736F6C63430008070033A264697066 PUSH20 0x58221220456497CE45D51C05FEBEEF443DD0A680 0xB8 SWAP4 0xAC BALANCE 0xB1 PUSH27 0x2507CF50B79667E696EA64736F6C63430008070033000000000000 "
				},
				"gasEstimates": {
					"creation": {
						"codeDepositCost": "1109600",
						"executionCost": "25420",
						"totalCost": "1135020"
					},
					"external": {
						"auctions(uint256)": "5020",
						"deployAuction()": "infinite",
						"ownerCreator()": "2533"
					}
				},
				"methodIdentifiers": {
					"auctions(uint256)": "571a26a0",
					"deployAuction()": "773c9546",
					"ownerCreator()": "94fa4198"
				}
			},
			"storageLayout": {
				"storage": [
					{
						"astId": 359,
						"contract": "contracts/AuctionCreator.sol:AuctionCreator",
						"label": "ownerCreator",
						"offset": 0,
						"slot": "0",
						"type": "t_address"
					},
					{
						"astId": 363,
						"contract": "contracts/AuctionCreator.sol:AuctionCreator",
						"label": "auctions",
						"offset": 0,
						"slot": "1",
						"type": "t_array(t_contract(Auction)354)dyn_storage"
					}
				],
				"types": {
					"t_address": {
						"encoding": "inplace",
						"label": "address",
						"numberOfBytes": "20"
					},
					"t_array(t_contract(Auction)354)dyn_storage": {
						"base": "t_contract(Auction)354",
						"encoding": "dynamic_array",
						"label": "contract Auction[]",
						"numberOfBytes": "32"
					},
					"t_contract(Auction)354": {
						"encoding": "inplace",
						"label": "contract Auction",
						"numberOfBytes": "20"
					}
				}
			},
			"userdoc": {
				"kind": "user",
				"methods": {},
				"version": 1
			}
		}
	}
}