{
	"contracts/Auction.sol": {
		"Auction": {
			"abi": [
				{
					"inputs": [],
					"name": "endblock",
					"outputs": [
						{
							"internalType": "uint256",
							"name": "",
							"type": "uint256"
						}
					],
					"stateMutability": "view",
					"type": "function"
				},
				{
					"inputs": [],
					"name": "ipfhHash",
					"outputs": [
						{
							"internalType": "string",
							"name": "",
							"type": "string"
						}
					],
					"stateMutability": "view",
					"type": "function"
				},
				{
					"inputs": [],
					"name": "owner",
					"outputs": [
						{
							"internalType": "address payable",
							"name": "",
							"type": "address"
						}
					],
					"stateMutability": "view",
					"type": "function"
				},
				{
					"inputs": [],
					"name": "startBlock",
					"outputs": [
						{
							"internalType": "uint256",
							"name": "",
							"type": "uint256"
						}
					],
					"stateMutability": "view",
					"type": "function"
				}
			],
			"devdoc": {
				"kind": "dev",
				"methods": {},
				"version": 1
			},
			"evm": {
				"assembly": "    /* \"contracts/Auction.sol\":70:335  contract Auction{... */\n  mstore(0x40, 0x80)\n  callvalue\n  dup1\n  iszero\n  tag_1\n  jumpi\n  0x00\n  dup1\n  revert\ntag_1:\n  pop\n  dataSize(sub_0)\n  dup1\n  dataOffset(sub_0)\n  0x00\n  codecopy\n  0x00\n  return\nstop\n\nsub_0: assembly {\n        /* \"contracts/Auction.sol\":70:335  contract Auction{... */\n      mstore(0x40, 0x80)\n      callvalue\n      dup1\n      iszero\n      tag_1\n      jumpi\n      0x00\n      dup1\n      revert\n    tag_1:\n      pop\n      jumpi(tag_2, lt(calldatasize, 0x04))\n      shr(0xe0, calldataload(0x00))\n      dup1\n      0x48cd4cb1\n      eq\n      tag_3\n      jumpi\n      dup1\n      0x4ec4d531\n      eq\n      tag_4\n      jumpi\n      dup1\n      0x868375c4\n      eq\n      tag_5\n      jumpi\n      dup1\n      0x8da5cb5b\n      eq\n      tag_6\n      jumpi\n    tag_2:\n      0x00\n      dup1\n      revert\n        /* \"contracts/Auction.sol\":126:148  uint public startBlock */\n    tag_3:\n      tag_7\n      tag_8\n      jump\t// in\n    tag_7:\n      mload(0x40)\n      tag_9\n      swap2\n      swap1\n      tag_10\n      jump\t// in\n    tag_9:\n      mload(0x40)\n      dup1\n      swap2\n      sub\n      swap1\n      return\n        /* \"contracts/Auction.sol\":251:273  string public ipfhHash */\n    tag_4:\n      tag_11\n      tag_12\n      jump\t// in\n    tag_11:\n      mload(0x40)\n      tag_13\n      swap2\n      swap1\n      tag_14\n      jump\t// in\n    tag_13:\n      mload(0x40)\n      dup1\n      swap2\n      sub\n      swap1\n      return\n        /* \"contracts/Auction.sol\":154:174  uint public endblock */\n    tag_5:\n      tag_15\n      tag_16\n      jump\t// in\n    tag_15:\n      mload(0x40)\n      tag_17\n      swap2\n      swap1\n      tag_10\n      jump\t// in\n    tag_17:\n      mload(0x40)\n      dup1\n      swap2\n      sub\n      swap1\n      return\n        /* \"contracts/Auction.sol\":92:120  address payable public owner */\n    tag_6:\n      tag_18\n      tag_19\n      jump\t// in\n    tag_18:\n      mload(0x40)\n      tag_20\n      swap2\n      swap1\n      tag_21\n      jump\t// in\n    tag_20:\n      mload(0x40)\n      dup1\n      swap2\n      sub\n      swap1\n      return\n        /* \"contracts/Auction.sol\":126:148  uint public startBlock */\n    tag_8:\n      sload(0x01)\n      dup2\n      jump\t// out\n        /* \"contracts/Auction.sol\":251:273  string public ipfhHash */\n    tag_12:\n      0x03\n      dup1\n      sload\n      tag_22\n      swap1\n      tag_23\n      jump\t// in\n    tag_22:\n      dup1\n      0x1f\n      add\n      0x20\n      dup1\n      swap2\n      div\n      mul\n      0x20\n      add\n      mload(0x40)\n      swap1\n      dup2\n      add\n      0x40\n      mstore\n      dup1\n      swap3\n      swap2\n      swap1\n      dup2\n      dup2\n      mstore\n      0x20\n      add\n      dup3\n      dup1\n      sload\n      tag_24\n      swap1\n      tag_23\n      jump\t// in\n    tag_24:\n      dup1\n      iszero\n      tag_25\n      jumpi\n      dup1\n      0x1f\n      lt\n      tag_26\n      jumpi\n      0x0100\n      dup1\n      dup4\n      sload\n      div\n      mul\n      dup4\n      mstore\n      swap2\n      0x20\n      add\n      swap2\n      jump(tag_25)\n    tag_26:\n      dup3\n      add\n      swap2\n      swap1\n      0x00\n      mstore\n      keccak256(0x00, 0x20)\n      swap1\n    tag_27:\n      dup2\n      sload\n      dup2\n      mstore\n      swap1\n      0x01\n      add\n      swap1\n      0x20\n      add\n      dup1\n      dup4\n      gt\n      tag_27\n      jumpi\n      dup3\n      swap1\n      sub\n      0x1f\n      and\n      dup3\n      add\n      swap2\n    tag_25:\n      pop\n      pop\n      pop\n      pop\n      pop\n      dup2\n      jump\t// out\n        /* \"contracts/Auction.sol\":154:174  uint public endblock */\n    tag_16:\n      sload(0x02)\n      dup2\n      jump\t// out\n        /* \"contracts/Auction.sol\":92:120  address payable public owner */\n    tag_19:\n      0x00\n      dup1\n      sload\n      swap1\n      0x0100\n      exp\n      swap1\n      div\n      0xffffffffffffffffffffffffffffffffffffffff\n      and\n      dup2\n      jump\t// out\n        /* \"#utility.yul\":7:149   */\n    tag_29:\n        /* \"#utility.yul\":110:142   */\n      tag_31\n        /* \"#utility.yul\":136:141   */\n      dup2\n        /* \"#utility.yul\":110:142   */\n      tag_32\n      jump\t// in\n    tag_31:\n        /* \"#utility.yul\":105:108   */\n      dup3\n        /* \"#utility.yul\":98:143   */\n      mstore\n        /* \"#utility.yul\":7:149   */\n      pop\n      pop\n      jump\t// out\n        /* \"#utility.yul\":155:519   */\n    tag_33:\n        /* \"#utility.yul\":243:246   */\n      0x00\n        /* \"#utility.yul\":271:310   */\n      tag_35\n        /* \"#utility.yul\":304:309   */\n      dup3\n        /* \"#utility.yul\":271:310   */\n      tag_36\n      jump\t// in\n    tag_35:\n        /* \"#utility.yul\":326:397   */\n      tag_37\n        /* \"#utility.yul\":390:396   */\n      dup2\n        /* \"#utility.yul\":385:388   */\n      dup6\n        /* \"#utility.yul\":326:397   */\n      tag_38\n      jump\t// in\n    tag_37:\n        /* \"#utility.yul\":319:397   */\n      swap4\n      pop\n        /* \"#utility.yul\":406:458   */\n      tag_39\n        /* \"#utility.yul\":451:457   */\n      dup2\n        /* \"#utility.yul\":446:449   */\n      dup6\n        /* \"#utility.yul\":439:443   */\n      0x20\n        /* \"#utility.yul\":432:437   */\n      dup7\n        /* \"#utility.yul\":428:444   */\n      add\n        /* \"#utility.yul\":406:458   */\n      tag_40\n      jump\t// in\n    tag_39:\n        /* \"#utility.yul\":483:512   */\n      tag_41\n        /* \"#utility.yul\":505:511   */\n      dup2\n        /* \"#utility.yul\":483:512   */\n      tag_42\n      jump\t// in\n    tag_41:\n        /* \"#utility.yul\":478:481   */\n      dup5\n        /* \"#utility.yul\":474:513   */\n      add\n        /* \"#utility.yul\":467:513   */\n      swap2\n      pop\n        /* \"#utility.yul\":247:519   */\n      pop\n        /* \"#utility.yul\":155:519   */\n      swap3\n      swap2\n      pop\n      pop\n      jump\t// out\n        /* \"#utility.yul\":525:643   */\n    tag_43:\n        /* \"#utility.yul\":612:636   */\n      tag_45\n        /* \"#utility.yul\":630:635   */\n      dup2\n        /* \"#utility.yul\":612:636   */\n      tag_46\n      jump\t// in\n    tag_45:\n        /* \"#utility.yul\":607:610   */\n      dup3\n        /* \"#utility.yul\":600:637   */\n      mstore\n        /* \"#utility.yul\":525:643   */\n      pop\n      pop\n      jump\t// out\n        /* \"#utility.yul\":649:903   */\n    tag_21:\n        /* \"#utility.yul\":758:762   */\n      0x00\n        /* \"#utility.yul\":796:798   */\n      0x20\n        /* \"#utility.yul\":785:794   */\n      dup3\n        /* \"#utility.yul\":781:799   */\n      add\n        /* \"#utility.yul\":773:799   */\n      swap1\n      pop\n        /* \"#utility.yul\":809:896   */\n      tag_48\n        /* \"#utility.yul\":893:894   */\n      0x00\n        /* \"#utility.yul\":882:891   */\n      dup4\n        /* \"#utility.yul\":878:895   */\n      add\n        /* \"#utility.yul\":869:875   */\n      dup5\n        /* \"#utility.yul\":809:896   */\n      tag_29\n      jump\t// in\n    tag_48:\n        /* \"#utility.yul\":649:903   */\n      swap3\n      swap2\n      pop\n      pop\n      jump\t// out\n        /* \"#utility.yul\":909:1222   */\n    tag_14:\n        /* \"#utility.yul\":1022:1026   */\n      0x00\n        /* \"#utility.yul\":1060:1062   */\n      0x20\n        /* \"#utility.yul\":1049:1058   */\n      dup3\n        /* \"#utility.yul\":1045:1063   */\n      add\n        /* \"#utility.yul\":1037:1063   */\n      swap1\n      pop\n        /* \"#utility.yul\":1109:1118   */\n      dup2\n        /* \"#utility.yul\":1103:1107   */\n      dup2\n        /* \"#utility.yul\":1099:1119   */\n      sub\n        /* \"#utility.yul\":1095:1096   */\n      0x00\n        /* \"#utility.yul\":1084:1093   */\n      dup4\n        /* \"#utility.yul\":1080:1097   */\n      add\n        /* \"#utility.yul\":1073:1120   */\n      mstore\n        /* \"#utility.yul\":1137:1215   */\n      tag_50\n        /* \"#utility.yul\":1210:1214   */\n      dup2\n        /* \"#utility.yul\":1201:1207   */\n      dup5\n        /* \"#utility.yul\":1137:1215   */\n      tag_33\n      jump\t// in\n    tag_50:\n        /* \"#utility.yul\":1129:1215   */\n      swap1\n      pop\n        /* \"#utility.yul\":909:1222   */\n      swap3\n      swap2\n      pop\n      pop\n      jump\t// out\n        /* \"#utility.yul\":1228:1450   */\n    tag_10:\n        /* \"#utility.yul\":1321:1325   */\n      0x00\n        /* \"#utility.yul\":1359:1361   */\n      0x20\n        /* \"#utility.yul\":1348:1357   */\n      dup3\n        /* \"#utility.yul\":1344:1362   */\n      add\n        /* \"#utility.yul\":1336:1362   */\n      swap1\n      pop\n        /* \"#utility.yul\":1372:1443   */\n      tag_52\n        /* \"#utility.yul\":1440:1441   */\n      0x00\n        /* \"#utility.yul\":1429:1438   */\n      dup4\n        /* \"#utility.yul\":1425:1442   */\n      add\n        /* \"#utility.yul\":1416:1422   */\n      dup5\n        /* \"#utility.yul\":1372:1443   */\n      tag_43\n      jump\t// in\n    tag_52:\n        /* \"#utility.yul\":1228:1450   */\n      swap3\n      swap2\n      pop\n      pop\n      jump\t// out\n        /* \"#utility.yul\":1456:1555   */\n    tag_36:\n        /* \"#utility.yul\":1508:1514   */\n      0x00\n        /* \"#utility.yul\":1542:1547   */\n      dup2\n        /* \"#utility.yul\":1536:1548   */\n      mload\n        /* \"#utility.yul\":1526:1548   */\n      swap1\n      pop\n        /* \"#utility.yul\":1456:1555   */\n      swap2\n      swap1\n      pop\n      jump\t// out\n        /* \"#utility.yul\":1561:1730   */\n    tag_38:\n        /* \"#utility.yul\":1645:1656   */\n      0x00\n        /* \"#utility.yul\":1679:1685   */\n      dup3\n        /* \"#utility.yul\":1674:1677   */\n      dup3\n        /* \"#utility.yul\":1667:1686   */\n      mstore\n        /* \"#utility.yul\":1719:1723   */\n      0x20\n        /* \"#utility.yul\":1714:1717   */\n      dup3\n        /* \"#utility.yul\":1710:1724   */\n      add\n        /* \"#utility.yul\":1695:1724   */\n      swap1\n      pop\n        /* \"#utility.yul\":1561:1730   */\n      swap3\n      swap2\n      pop\n      pop\n      jump\t// out\n        /* \"#utility.yul\":1736:1840   */\n    tag_32:\n        /* \"#utility.yul\":1781:1788   */\n      0x00\n        /* \"#utility.yul\":1810:1834   */\n      tag_56\n        /* \"#utility.yul\":1828:1833   */\n      dup3\n        /* \"#utility.yul\":1810:1834   */\n      tag_57\n      jump\t// in\n    tag_56:\n        /* \"#utility.yul\":1799:1834   */\n      swap1\n      pop\n        /* \"#utility.yul\":1736:1840   */\n      swap2\n      swap1\n      pop\n      jump\t// out\n        /* \"#utility.yul\":1846:1972   */\n    tag_57:\n        /* \"#utility.yul\":1883:1890   */\n      0x00\n        /* \"#utility.yul\":1923:1965   */\n      0xffffffffffffffffffffffffffffffffffffffff\n        /* \"#utility.yul\":1916:1921   */\n      dup3\n        /* \"#utility.yul\":1912:1966   */\n      and\n        /* \"#utility.yul\":1901:1966   */\n      swap1\n      pop\n        /* \"#utility.yul\":1846:1972   */\n      swap2\n      swap1\n      pop\n      jump\t// out\n        /* \"#utility.yul\":1978:2055   */\n    tag_46:\n        /* \"#utility.yul\":2015:2022   */\n      0x00\n        /* \"#utility.yul\":2044:2049   */\n      dup2\n        /* \"#utility.yul\":2033:2049   */\n      swap1\n      pop\n        /* \"#utility.yul\":1978:2055   */\n      swap2\n      swap1\n      pop\n      jump\t// out\n        /* \"#utility.yul\":2061:2368   */\n    tag_40:\n        /* \"#utility.yul\":2129:2130   */\n      0x00\n        /* \"#utility.yul\":2139:2252   */\n    tag_61:\n        /* \"#utility.yul\":2153:2159   */\n      dup4\n        /* \"#utility.yul\":2150:2151   */\n      dup2\n        /* \"#utility.yul\":2147:2160   */\n      lt\n        /* \"#utility.yul\":2139:2252   */\n      iszero\n      tag_63\n      jumpi\n        /* \"#utility.yul\":2238:2239   */\n      dup1\n        /* \"#utility.yul\":2233:2236   */\n      dup3\n        /* \"#utility.yul\":2229:2240   */\n      add\n        /* \"#utility.yul\":2223:2241   */\n      mload\n        /* \"#utility.yul\":2219:2220   */\n      dup2\n        /* \"#utility.yul\":2214:2217   */\n      dup5\n        /* \"#utility.yul\":2210:2221   */\n      add\n        /* \"#utility.yul\":2203:2242   */\n      mstore\n        /* \"#utility.yul\":2175:2177   */\n      0x20\n        /* \"#utility.yul\":2172:2173   */\n      dup2\n        /* \"#utility.yul\":2168:2178   */\n      add\n        /* \"#utility.yul\":2163:2178   */\n      swap1\n      pop\n        /* \"#utility.yul\":2139:2252   */\n      jump(tag_61)\n    tag_63:\n        /* \"#utility.yul\":2270:2276   */\n      dup4\n        /* \"#utility.yul\":2267:2268   */\n      dup2\n        /* \"#utility.yul\":2264:2277   */\n      gt\n        /* \"#utility.yul\":2261:2362   */\n      iszero\n      tag_64\n      jumpi\n        /* \"#utility.yul\":2350:2351   */\n      0x00\n        /* \"#utility.yul\":2341:2347   */\n      dup5\n        /* \"#utility.yul\":2336:2339   */\n      dup5\n        /* \"#utility.yul\":2332:2348   */\n      add\n        /* \"#utility.yul\":2325:2352   */\n      mstore\n        /* \"#utility.yul\":2261:2362   */\n    tag_64:\n        /* \"#utility.yul\":2110:2368   */\n      pop\n        /* \"#utility.yul\":2061:2368   */\n      pop\n      pop\n      pop\n      jump\t// out\n        /* \"#utility.yul\":2374:2694   */\n    tag_23:\n        /* \"#utility.yul\":2418:2424   */\n      0x00\n        /* \"#utility.yul\":2455:2456   */\n      0x02\n        /* \"#utility.yul\":2449:2453   */\n      dup3\n        /* \"#utility.yul\":2445:2457   */\n      div\n        /* \"#utility.yul\":2435:2457   */\n      swap1\n      pop\n        /* \"#utility.yul\":2502:2503   */\n      0x01\n        /* \"#utility.yul\":2496:2500   */\n      dup3\n        /* \"#utility.yul\":2492:2504   */\n      and\n        /* \"#utility.yul\":2523:2541   */\n      dup1\n        /* \"#utility.yul\":2513:2594   */\n      tag_66\n      jumpi\n        /* \"#utility.yul\":2579:2583   */\n      0x7f\n        /* \"#utility.yul\":2571:2577   */\n      dup3\n        /* \"#utility.yul\":2567:2584   */\n      and\n        /* \"#utility.yul\":2557:2584   */\n      swap2\n      pop\n        /* \"#utility.yul\":2513:2594   */\n    tag_66:\n        /* \"#utility.yul\":2641:2643   */\n      0x20\n        /* \"#utility.yul\":2633:2639   */\n      dup3\n        /* \"#utility.yul\":2630:2644   */\n      lt\n        /* \"#utility.yul\":2610:2628   */\n      dup2\n        /* \"#utility.yul\":2607:2645   */\n      eq\n        /* \"#utility.yul\":2604:2688   */\n      iszero\n      tag_67\n      jumpi\n        /* \"#utility.yul\":2660:2678   */\n      tag_68\n      tag_69\n      jump\t// in\n    tag_68:\n        /* \"#utility.yul\":2604:2688   */\n    tag_67:\n        /* \"#utility.yul\":2425:2694   */\n      pop\n        /* \"#utility.yul\":2374:2694   */\n      swap2\n      swap1\n      pop\n      jump\t// out\n        /* \"#utility.yul\":2700:2880   */\n    tag_69:\n        /* \"#utility.yul\":2748:2825   */\n      0x4e487b7100000000000000000000000000000000000000000000000000000000\n        /* \"#utility.yul\":2745:2746   */\n      0x00\n        /* \"#utility.yul\":2738:2826   */\n      mstore\n        /* \"#utility.yul\":2845:2849   */\n      0x22\n        /* \"#utility.yul\":2842:2843   */\n      0x04\n        /* \"#utility.yul\":2835:2850   */\n      mstore\n        /* \"#utility.yul\":2869:2873   */\n      0x24\n        /* \"#utility.yul\":2866:2867   */\n      0x00\n        /* \"#utility.yul\":2859:2874   */\n      revert\n        /* \"#utility.yul\":2886:2988   */\n    tag_42:\n        /* \"#utility.yul\":2927:2933   */\n      0x00\n        /* \"#utility.yul\":2978:2980   */\n      0x1f\n        /* \"#utility.yul\":2974:2981   */\n      not\n        /* \"#utility.yul\":2969:2971   */\n      0x1f\n        /* \"#utility.yul\":2962:2967   */\n      dup4\n        /* \"#utility.yul\":2958:2972   */\n      add\n        /* \"#utility.yul\":2954:2982   */\n      and\n        /* \"#utility.yul\":2944:2982   */\n      swap1\n      pop\n        /* \"#utility.yul\":2886:2988   */\n      swap2\n      swap1\n      pop\n      jump\t// out\n\n    auxdata: 0xa2646970667358221220285dbfa965df3f9cbf26cc7e9dcd1b022fd01846a4a695d47cf6ea4010374be764736f6c63430008070033\n}\n",
				"bytecode": {
					"linkReferences": {},
					"object": "608060405234801561001057600080fd5b50610369806100206000396000f3fe608060405234801561001057600080fd5b506004361061004c5760003560e01c806348cd4cb1146100515780634ec4d5311461006f578063868375c41461008d5780638da5cb5b146100ab575b600080fd5b6100596100c9565b604051610066919061021b565b60405180910390f35b6100776100cf565b60405161008491906101f9565b60405180910390f35b61009561015d565b6040516100a2919061021b565b60405180910390f35b6100b3610163565b6040516100c091906101de565b60405180910390f35b60015481565b600380546100dc906102c1565b80601f0160208091040260200160405190810160405280929190818152602001828054610108906102c1565b80156101555780601f1061012a57610100808354040283529160200191610155565b820191906000526020600020905b81548152906001019060200180831161013857829003601f168201915b505050505081565b60025481565b60008054906101000a900473ffffffffffffffffffffffffffffffffffffffff1681565b61019081610252565b82525050565b60006101a182610236565b6101ab8185610241565b93506101bb81856020860161028e565b6101c481610322565b840191505092915050565b6101d881610284565b82525050565b60006020820190506101f36000830184610187565b92915050565b600060208201905081810360008301526102138184610196565b905092915050565b600060208201905061023060008301846101cf565b92915050565b600081519050919050565b600082825260208201905092915050565b600061025d82610264565b9050919050565b600073ffffffffffffffffffffffffffffffffffffffff82169050919050565b6000819050919050565b60005b838110156102ac578082015181840152602081019050610291565b838111156102bb576000848401525b50505050565b600060028204905060018216806102d957607f821691505b602082108114156102ed576102ec6102f3565b5b50919050565b7f4e487b7100000000000000000000000000000000000000000000000000000000600052602260045260246000fd5b6000601f19601f830116905091905056fea2646970667358221220285dbfa965df3f9cbf26cc7e9dcd1b022fd01846a4a695d47cf6ea4010374be764736f6c63430008070033",
					"opcodes": "PUSH1 0x80 PUSH1 0x40 MSTORE CALLVALUE DUP1 ISZERO PUSH2 0x10 JUMPI PUSH1 0x0 DUP1 REVERT JUMPDEST POP PUSH2 0x369 DUP1 PUSH2 0x20 PUSH1 0x0 CODECOPY PUSH1 0x0 RETURN INVALID PUSH1 0x80 PUSH1 0x40 MSTORE CALLVALUE DUP1 ISZERO PUSH2 0x10 JUMPI PUSH1 0x0 DUP1 REVERT JUMPDEST POP PUSH1 0x4 CALLDATASIZE LT PUSH2 0x4C JUMPI PUSH1 0x0 CALLDATALOAD PUSH1 0xE0 SHR DUP1 PUSH4 0x48CD4CB1 EQ PUSH2 0x51 JUMPI DUP1 PUSH4 0x4EC4D531 EQ PUSH2 0x6F JUMPI DUP1 PUSH4 0x868375C4 EQ PUSH2 0x8D JUMPI DUP1 PUSH4 0x8DA5CB5B EQ PUSH2 0xAB JUMPI JUMPDEST PUSH1 0x0 DUP1 REVERT JUMPDEST PUSH2 0x59 PUSH2 0xC9 JUMP JUMPDEST PUSH1 0x40 MLOAD PUSH2 0x66 SWAP2 SWAP1 PUSH2 0x21B JUMP JUMPDEST PUSH1 0x40 MLOAD DUP1 SWAP2 SUB SWAP1 RETURN JUMPDEST PUSH2 0x77 PUSH2 0xCF JUMP JUMPDEST PUSH1 0x40 MLOAD PUSH2 0x84 SWAP2 SWAP1 PUSH2 0x1F9 JUMP JUMPDEST PUSH1 0x40 MLOAD DUP1 SWAP2 SUB SWAP1 RETURN JUMPDEST PUSH2 0x95 PUSH2 0x15D JUMP JUMPDEST PUSH1 0x40 MLOAD PUSH2 0xA2 SWAP2 SWAP1 PUSH2 0x21B JUMP JUMPDEST PUSH1 0x40 MLOAD DUP1 SWAP2 SUB SWAP1 RETURN JUMPDEST PUSH2 0xB3 PUSH2 0x163 JUMP JUMPDEST PUSH1 0x40 MLOAD PUSH2 0xC0 SWAP2 SWAP1 PUSH2 0x1DE JUMP JUMPDEST PUSH1 0x40 MLOAD DUP1 SWAP2 SUB SWAP1 RETURN JUMPDEST PUSH1 0x1 SLOAD DUP2 JUMP JUMPDEST PUSH1 0x3 DUP1 SLOAD PUSH2 0xDC SWAP1 PUSH2 0x2C1 JUMP JUMPDEST DUP1 PUSH1 0x1F ADD PUSH1 0x20 DUP1 SWAP2 DIV MUL PUSH1 0x20 ADD PUSH1 0x40 MLOAD SWAP1 DUP2 ADD PUSH1 0x40 MSTORE DUP1 SWAP3 SWAP2 SWAP1 DUP2 DUP2 MSTORE PUSH1 0x20 ADD DUP3 DUP1 SLOAD PUSH2 0x108 SWAP1 PUSH2 0x2C1 JUMP JUMPDEST DUP1 ISZERO PUSH2 0x155 JUMPI DUP1 PUSH1 0x1F LT PUSH2 0x12A JUMPI PUSH2 0x100 DUP1 DUP4 SLOAD DIV MUL DUP4 MSTORE SWAP2 PUSH1 0x20 ADD SWAP2 PUSH2 0x155 JUMP JUMPDEST DUP3 ADD SWAP2 SWAP1 PUSH1 0x0 MSTORE PUSH1 0x20 PUSH1 0x0 KECCAK256 SWAP1 JUMPDEST DUP2 SLOAD DUP2 MSTORE SWAP1 PUSH1 0x1 ADD SWAP1 PUSH1 0x20 ADD DUP1 DUP4 GT PUSH2 0x138 JUMPI DUP3 SWAP1 SUB PUSH1 0x1F AND DUP3 ADD SWAP2 JUMPDEST POP POP POP POP POP DUP2 JUMP JUMPDEST PUSH1 0x2 SLOAD DUP2 JUMP JUMPDEST PUSH1 0x0 DUP1 SLOAD SWAP1 PUSH2 0x100 EXP SWAP1 DIV PUSH20 0xFFFFFFFFFFFFFFFFFFFFFFFFFFFFFFFFFFFFFFFF AND DUP2 JUMP JUMPDEST PUSH2 0x190 DUP2 PUSH2 0x252 JUMP JUMPDEST DUP3 MSTORE POP POP JUMP JUMPDEST PUSH1 0x0 PUSH2 0x1A1 DUP3 PUSH2 0x236 JUMP JUMPDEST PUSH2 0x1AB DUP2 DUP6 PUSH2 0x241 JUMP JUMPDEST SWAP4 POP PUSH2 0x1BB DUP2 DUP6 PUSH1 0x20 DUP7 ADD PUSH2 0x28E JUMP JUMPDEST PUSH2 0x1C4 DUP2 PUSH2 0x322 JUMP JUMPDEST DUP5 ADD SWAP2 POP POP SWAP3 SWAP2 POP POP JUMP JUMPDEST PUSH2 0x1D8 DUP2 PUSH2 0x284 JUMP JUMPDEST DUP3 MSTORE POP POP JUMP JUMPDEST PUSH1 0x0 PUSH1 0x20 DUP3 ADD SWAP1 POP PUSH2 0x1F3 PUSH1 0x0 DUP4 ADD DUP5 PUSH2 0x187 JUMP JUMPDEST SWAP3 SWAP2 POP POP JUMP JUMPDEST PUSH1 0x0 PUSH1 0x20 DUP3 ADD SWAP1 POP DUP2 DUP2 SUB PUSH1 0x0 DUP4 ADD MSTORE PUSH2 0x213 DUP2 DUP5 PUSH2 0x196 JUMP JUMPDEST SWAP1 POP SWAP3 SWAP2 POP POP JUMP JUMPDEST PUSH1 0x0 PUSH1 0x20 DUP3 ADD SWAP1 POP PUSH2 0x230 PUSH1 0x0 DUP4 ADD DUP5 PUSH2 0x1CF JUMP JUMPDEST SWAP3 SWAP2 POP POP JUMP JUMPDEST PUSH1 0x0 DUP2 MLOAD SWAP1 POP SWAP2 SWAP1 POP JUMP JUMPDEST PUSH1 0x0 DUP3 DUP3 MSTORE PUSH1 0x20 DUP3 ADD SWAP1 POP SWAP3 SWAP2 POP POP JUMP JUMPDEST PUSH1 0x0 PUSH2 0x25D DUP3 PUSH2 0x264 JUMP JUMPDEST SWAP1 POP SWAP2 SWAP1 POP JUMP JUMPDEST PUSH1 0x0 PUSH20 0xFFFFFFFFFFFFFFFFFFFFFFFFFFFFFFFFFFFFFFFF DUP3 AND SWAP1 POP SWAP2 SWAP1 POP JUMP JUMPDEST PUSH1 0x0 DUP2 SWAP1 POP SWAP2 SWAP1 POP JUMP JUMPDEST PUSH1 0x0 JUMPDEST DUP4 DUP2 LT ISZERO PUSH2 0x2AC JUMPI DUP1 DUP3 ADD MLOAD DUP2 DUP5 ADD MSTORE PUSH1 0x20 DUP2 ADD SWAP1 POP PUSH2 0x291 JUMP JUMPDEST DUP4 DUP2 GT ISZERO PUSH2 0x2BB JUMPI PUSH1 0x0 DUP5 DUP5 ADD MSTORE JUMPDEST POP POP POP POP JUMP JUMPDEST PUSH1 0x0 PUSH1 0x2 DUP3 DIV SWAP1 POP PUSH1 0x1 DUP3 AND DUP1 PUSH2 0x2D9 JUMPI PUSH1 0x7F DUP3 AND SWAP2 POP JUMPDEST PUSH1 0x20 DUP3 LT DUP2 EQ ISZERO PUSH2 0x2ED JUMPI PUSH2 0x2EC PUSH2 0x2F3 JUMP JUMPDEST JUMPDEST POP SWAP2 SWAP1 POP JUMP JUMPDEST PUSH32 0x4E487B7100000000000000000000000000000000000000000000000000000000 PUSH1 0x0 MSTORE PUSH1 0x22 PUSH1 0x4 MSTORE PUSH1 0x24 PUSH1 0x0 REVERT JUMPDEST PUSH1 0x0 PUSH1 0x1F NOT PUSH1 0x1F DUP4 ADD AND SWAP1 POP SWAP2 SWAP1 POP JUMP INVALID LOG2 PUSH5 0x6970667358 0x22 SLT KECCAK256 0x28 0x5D 0xBF 0xA9 PUSH6 0xDF3F9CBF26CC PUSH31 0x9DCD1B022FD01846A4A695D47CF6EA4010374BE764736F6C63430008070033 "
				},
				"gasEstimates": {
					"creation": {
						"codeDepositCost": "174600",
						"executionCost": "220",
						"totalCost": "174820"
					},
					"external": {
						"endblock()": "2451",
						"ipfhHash()": "infinite",
						"owner()": "2555",
						"startBlock()": "2407"
					}
				},
				"methodIdentifiers": {
					"endblock()": "868375c4",
					"ipfhHash()": "4ec4d531",
					"owner()": "8da5cb5b",
					"startBlock()": "48cd4cb1"
				}
			},
			"storageLayout": {
				"storage": [
					{
						"astId": 3,
						"contract": "contracts/Auction.sol:Auction",
						"label": "owner",
						"offset": 0,
						"slot": "0",
						"type": "t_address_payable"
					},
					{
						"astId": 5,
						"contract": "contracts/Auction.sol:Auction",
						"label": "startBlock",
						"offset": 0,
						"slot": "1",
						"type": "t_uint256"
					},
					{
						"astId": 7,
						"contract": "contracts/Auction.sol:Auction",
						"label": "endblock",
						"offset": 0,
						"slot": "2",
						"type": "t_uint256"
					},
					{
						"astId": 9,
						"contract": "contracts/Auction.sol:Auction",
						"label": "ipfhHash",
						"offset": 0,
						"slot": "3",
						"type": "t_string_storage"
					}
				],
				"types": {
					"t_address_payable": {
						"encoding": "inplace",
						"label": "address payable",
						"numberOfBytes": "20"
					},
					"t_string_storage": {
						"encoding": "bytes",
						"label": "string",
						"numberOfBytes": "32"
					},
					"t_uint256": {
						"encoding": "inplace",
						"label": "uint256",
						"numberOfBytes": "32"
					}
				}
			},
			"userdoc": {
				"kind": "user",
				"methods": {},
				"version": 1
			}
		}
	}
}