{
	"contracts/Auction.sol": {
		"Auction": {
			"abi": [
				{
					"inputs": [],
					"stateMutability": "nonpayable",
					"type": "constructor"
				},
				{
					"inputs": [],
					"name": "auctionState",
					"outputs": [
						{
							"internalType": "enum Auction.State",
							"name": "",
							"type": "uint8"
						}
					],
					"stateMutability": "view",
					"type": "function"
				},
				{
					"inputs": [
						{
							"internalType": "address",
							"name": "",
							"type": "address"
						}
					],
					"name": "bids",
					"outputs": [
						{
							"internalType": "uint256",
							"name": "",
							"type": "uint256"
						}
					],
					"stateMutability": "view",
					"type": "function"
				},
				{
					"inputs": [],
					"name": "endBlock",
					"outputs": [
						{
							"internalType": "uint256",
							"name": "",
							"type": "uint256"
						}
					],
					"stateMutability": "view",
					"type": "function"
				},
				{
					"inputs": [],
					"name": "highestBidder",
					"outputs": [
						{
							"internalType": "address payable",
							"name": "",
							"type": "address"
						}
					],
					"stateMutability": "view",
					"type": "function"
				},
				{
					"inputs": [],
					"name": "highestBindingBid",
					"outputs": [
						{
							"internalType": "uint256",
							"name": "",
							"type": "uint256"
						}
					],
					"stateMutability": "view",
					"type": "function"
				},
				{
					"inputs": [],
					"name": "ipfhHash",
					"outputs": [
						{
							"internalType": "string",
							"name": "",
							"type": "string"
						}
					],
					"stateMutability": "view",
					"type": "function"
				},
				{
					"inputs": [],
					"name": "owner",
					"outputs": [
						{
							"internalType": "address payable",
							"name": "",
							"type": "address"
						}
					],
					"stateMutability": "view",
					"type": "function"
				},
				{
					"inputs": [],
					"name": "placeBid",
					"outputs": [],
					"stateMutability": "payable",
					"type": "function"
				},
				{
					"inputs": [],
					"name": "startBlock",
					"outputs": [
						{
							"internalType": "uint256",
							"name": "",
							"type": "uint256"
						}
					],
					"stateMutability": "view",
					"type": "function"
				}
			],
			"devdoc": {
				"kind": "dev",
				"methods": {},
				"version": 1
			},
			"evm": {
				"assembly": "    /* \"contracts/Auction.sol\":70:2387  contract Auction{... */\n  mstore(0x40, 0x80)\n    /* \"contracts/Auction.sol\":585:884  constructor(){... */\n  callvalue\n  dup1\n  iszero\n  tag_1\n  jumpi\n  0x00\n  dup1\n  revert\ntag_1:\n  pop\n    /* \"contracts/Auction.sol\":624:634  msg.sender */\n  caller\n    /* \"contracts/Auction.sol\":608:613  owner */\n  0x00\n  dup1\n    /* \"contracts/Auction.sol\":608:635  owner = payable(msg.sender) */\n  0x0100\n  exp\n  dup2\n  sload\n  dup2\n  0xffffffffffffffffffffffffffffffffffffffff\n  mul\n  not\n  and\n  swap1\n  dup4\n  0xffffffffffffffffffffffffffffffffffffffff\n  and\n  mul\n  or\n  swap1\n  sstore\n  pop\n    /* \"contracts/Auction.sol\":660:673  State.Running */\n  0x01\n    /* \"contracts/Auction.sol\":645:657  auctionState */\n  0x04\n  0x00\n    /* \"contracts/Auction.sol\":645:673  auctionState = State.Running */\n  0x0100\n  exp\n  dup2\n  sload\n  dup2\n  0xff\n  mul\n  not\n  and\n  swap1\n  dup4\n  0x03\n  dup2\n  gt\n  iszero\n  tag_4\n  jumpi\n  tag_5\n  tag_6\n  jump\t// in\ntag_5:\ntag_4:\n  mul\n  or\n  swap1\n  sstore\n  pop\n    /* \"contracts/Auction.sol\":696:708  block.number */\n  number\n    /* \"contracts/Auction.sol\":683:693  startBlock */\n  0x01\n    /* \"contracts/Auction.sol\":683:708  startBlock = block.number */\n  dup2\n  swap1\n  sstore\n  pop\n    /* \"contracts/Auction.sol\":814:819  40320 */\n  0x9d80\n    /* \"contracts/Auction.sol\":801:811  startBlock */\n  sload(0x01)\n    /* \"contracts/Auction.sol\":801:819  startBlock + 40320 */\n  tag_7\n  swap2\n  swap1\n  tag_8\n  jump\t// in\ntag_7:\n    /* \"contracts/Auction.sol\":790:798  endBlock */\n  0x02\n    /* \"contracts/Auction.sol\":790:819  endBlock = startBlock + 40320 */\n  dup2\n  swap1\n  sstore\n  pop\n    /* \"contracts/Auction.sol\":829:842  ipfhHash = \"\" */\n  mload(0x40)\n  dup1\n  0x20\n  add\n  0x40\n  mstore\n  dup1\n  0x00\n  dup2\n  mstore\n  pop\n    /* \"contracts/Auction.sol\":829:837  ipfhHash */\n  0x03\n    /* \"contracts/Auction.sol\":829:842  ipfhHash = \"\" */\n  swap1\n  dup1\n  mload\n  swap1\n  0x20\n  add\n  swap1\n  tag_9\n  swap3\n  swap2\n  swap1\n  tag_10\n  jump\t// in\ntag_9:\n  pop\n    /* \"contracts/Auction.sol\":867:877  0.01 ether */\n  0x2386f26fc10000\n    /* \"contracts/Auction.sol\":852:864  bidIncrement */\n  0x08\n    /* \"contracts/Auction.sol\":852:877  bidIncrement = 0.01 ether */\n  dup2\n  swap1\n  sstore\n  pop\n    /* \"contracts/Auction.sol\":70:2387  contract Auction{... */\n  jump(tag_11)\ntag_10:\n  dup3\n  dup1\n  sload\n  tag_12\n  swap1\n  tag_13\n  jump\t// in\ntag_12:\n  swap1\n  0x00\n  mstore\n  keccak256(0x00, 0x20)\n  swap1\n  0x1f\n  add\n  0x20\n  swap1\n  div\n  dup2\n  add\n  swap3\n  dup3\n  tag_15\n  jumpi\n  0x00\n  dup6\n  sstore\n  jump(tag_14)\ntag_15:\n  dup3\n  0x1f\n  lt\n  tag_16\n  jumpi\n  dup1\n  mload\n  not(0xff)\n  and\n  dup4\n  dup1\n  add\n  or\n  dup6\n  sstore\n  jump(tag_14)\ntag_16:\n  dup3\n  dup1\n  add\n  0x01\n  add\n  dup6\n  sstore\n  dup3\n  iszero\n  tag_14\n  jumpi\n  swap2\n  dup3\n  add\ntag_17:\n  dup3\n  dup2\n  gt\n  iszero\n  tag_18\n  jumpi\n  dup3\n  mload\n  dup3\n  sstore\n  swap2\n  0x20\n  add\n  swap2\n  swap1\n  0x01\n  add\n  swap1\n  jump(tag_17)\ntag_18:\ntag_14:\n  pop\n  swap1\n  pop\n  tag_19\n  swap2\n  swap1\n  tag_20\n  jump\t// in\ntag_19:\n  pop\n  swap1\n  jump\t// out\ntag_20:\ntag_21:\n  dup1\n  dup3\n  gt\n  iszero\n  tag_22\n  jumpi\n  0x00\n  dup2\n  0x00\n  swap1\n  sstore\n  pop\n  0x01\n  add\n  jump(tag_21)\ntag_22:\n  pop\n  swap1\n  jump\t// out\n    /* \"#utility.yul\":7:312   */\ntag_8:\n    /* \"#utility.yul\":47:50   */\n  0x00\n    /* \"#utility.yul\":66:86   */\n  tag_25\n    /* \"#utility.yul\":84:85   */\n  dup3\n    /* \"#utility.yul\":66:86   */\n  tag_26\n  jump\t// in\ntag_25:\n    /* \"#utility.yul\":61:86   */\n  swap2\n  pop\n    /* \"#utility.yul\":100:120   */\n  tag_27\n    /* \"#utility.yul\":118:119   */\n  dup4\n    /* \"#utility.yul\":100:120   */\n  tag_26\n  jump\t// in\ntag_27:\n    /* \"#utility.yul\":95:120   */\n  swap3\n  pop\n    /* \"#utility.yul\":254:255   */\n  dup3\n    /* \"#utility.yul\":186:252   */\n  0xffffffffffffffffffffffffffffffffffffffffffffffffffffffffffffffff\n    /* \"#utility.yul\":182:256   */\n  sub\n    /* \"#utility.yul\":179:180   */\n  dup3\n    /* \"#utility.yul\":176:257   */\n  gt\n    /* \"#utility.yul\":173:280   */\n  iszero\n  tag_28\n  jumpi\n    /* \"#utility.yul\":260:278   */\n  tag_29\n  tag_30\n  jump\t// in\ntag_29:\n    /* \"#utility.yul\":173:280   */\ntag_28:\n    /* \"#utility.yul\":304:305   */\n  dup3\n    /* \"#utility.yul\":301:302   */\n  dup3\n    /* \"#utility.yul\":297:306   */\n  add\n    /* \"#utility.yul\":290:306   */\n  swap1\n  pop\n    /* \"#utility.yul\":7:312   */\n  swap3\n  swap2\n  pop\n  pop\n  jump\t// out\n    /* \"#utility.yul\":318:395   */\ntag_26:\n    /* \"#utility.yul\":355:362   */\n  0x00\n    /* \"#utility.yul\":384:389   */\n  dup2\n    /* \"#utility.yul\":373:389   */\n  swap1\n  pop\n    /* \"#utility.yul\":318:395   */\n  swap2\n  swap1\n  pop\n  jump\t// out\n    /* \"#utility.yul\":401:721   */\ntag_13:\n    /* \"#utility.yul\":445:451   */\n  0x00\n    /* \"#utility.yul\":482:483   */\n  0x02\n    /* \"#utility.yul\":476:480   */\n  dup3\n    /* \"#utility.yul\":472:484   */\n  div\n    /* \"#utility.yul\":462:484   */\n  swap1\n  pop\n    /* \"#utility.yul\":529:530   */\n  0x01\n    /* \"#utility.yul\":523:527   */\n  dup3\n    /* \"#utility.yul\":519:531   */\n  and\n    /* \"#utility.yul\":550:568   */\n  dup1\n    /* \"#utility.yul\":540:621   */\n  tag_33\n  jumpi\n    /* \"#utility.yul\":606:610   */\n  0x7f\n    /* \"#utility.yul\":598:604   */\n  dup3\n    /* \"#utility.yul\":594:611   */\n  and\n    /* \"#utility.yul\":584:611   */\n  swap2\n  pop\n    /* \"#utility.yul\":540:621   */\ntag_33:\n    /* \"#utility.yul\":668:670   */\n  0x20\n    /* \"#utility.yul\":660:666   */\n  dup3\n    /* \"#utility.yul\":657:671   */\n  lt\n    /* \"#utility.yul\":637:655   */\n  dup2\n    /* \"#utility.yul\":634:672   */\n  eq\n    /* \"#utility.yul\":631:715   */\n  iszero\n  tag_34\n  jumpi\n    /* \"#utility.yul\":687:705   */\n  tag_35\n  tag_36\n  jump\t// in\ntag_35:\n    /* \"#utility.yul\":631:715   */\ntag_34:\n    /* \"#utility.yul\":452:721   */\n  pop\n    /* \"#utility.yul\":401:721   */\n  swap2\n  swap1\n  pop\n  jump\t// out\n    /* \"#utility.yul\":727:907   */\ntag_30:\n    /* \"#utility.yul\":775:852   */\n  0x4e487b7100000000000000000000000000000000000000000000000000000000\n    /* \"#utility.yul\":772:773   */\n  0x00\n    /* \"#utility.yul\":765:853   */\n  mstore\n    /* \"#utility.yul\":872:876   */\n  0x11\n    /* \"#utility.yul\":869:870   */\n  0x04\n    /* \"#utility.yul\":862:877   */\n  mstore\n    /* \"#utility.yul\":896:900   */\n  0x24\n    /* \"#utility.yul\":893:894   */\n  0x00\n    /* \"#utility.yul\":886:901   */\n  revert\n    /* \"#utility.yul\":913:1093   */\ntag_6:\n    /* \"#utility.yul\":961:1038   */\n  0x4e487b7100000000000000000000000000000000000000000000000000000000\n    /* \"#utility.yul\":958:959   */\n  0x00\n    /* \"#utility.yul\":951:1039   */\n  mstore\n    /* \"#utility.yul\":1058:1062   */\n  0x21\n    /* \"#utility.yul\":1055:1056   */\n  0x04\n    /* \"#utility.yul\":1048:1063   */\n  mstore\n    /* \"#utility.yul\":1082:1086   */\n  0x24\n    /* \"#utility.yul\":1079:1080   */\n  0x00\n    /* \"#utility.yul\":1072:1087   */\n  revert\n    /* \"#utility.yul\":1099:1279   */\ntag_36:\n    /* \"#utility.yul\":1147:1224   */\n  0x4e487b7100000000000000000000000000000000000000000000000000000000\n    /* \"#utility.yul\":1144:1145   */\n  0x00\n    /* \"#utility.yul\":1137:1225   */\n  mstore\n    /* \"#utility.yul\":1244:1248   */\n  0x22\n    /* \"#utility.yul\":1241:1242   */\n  0x04\n    /* \"#utility.yul\":1234:1249   */\n  mstore\n    /* \"#utility.yul\":1268:1272   */\n  0x24\n    /* \"#utility.yul\":1265:1266   */\n  0x00\n    /* \"#utility.yul\":1258:1273   */\n  revert\n    /* \"contracts/Auction.sol\":70:2387  contract Auction{... */\ntag_11:\n  dataSize(sub_0)\n  dup1\n  dataOffset(sub_0)\n  0x00\n  codecopy\n  0x00\n  return\nstop\n\nsub_0: assembly {\n        /* \"contracts/Auction.sol\":70:2387  contract Auction{... */\n      mstore(0x40, 0x80)\n      jumpi(tag_1, lt(calldatasize, 0x04))\n      shr(0xe0, calldataload(0x00))\n      dup1\n      0x7fb45099\n      gt\n      tag_11\n      jumpi\n      dup1\n      0x7fb45099\n      eq\n      tag_6\n      jumpi\n      dup1\n      0x8da5cb5b\n      eq\n      tag_7\n      jumpi\n      dup1\n      0x91f90157\n      eq\n      tag_8\n      jumpi\n      dup1\n      0xecfc7ecc\n      eq\n      tag_9\n      jumpi\n      dup1\n      0xf5b56c56\n      eq\n      tag_10\n      jumpi\n      jump(tag_1)\n    tag_11:\n      dup1\n      0x083c6323\n      eq\n      tag_2\n      jumpi\n      dup1\n      0x48cd4cb1\n      eq\n      tag_3\n      jumpi\n      dup1\n      0x4ec4d531\n      eq\n      tag_4\n      jumpi\n      dup1\n      0x62ea82db\n      eq\n      tag_5\n      jumpi\n    tag_1:\n      0x00\n      dup1\n      revert\n        /* \"contracts/Auction.sol\":200:220  uint public endBlock */\n    tag_2:\n      callvalue\n      dup1\n      iszero\n      tag_12\n      jumpi\n      0x00\n      dup1\n      revert\n    tag_12:\n      pop\n      tag_13\n      tag_14\n      jump\t// in\n    tag_13:\n      mload(0x40)\n      tag_15\n      swap2\n      swap1\n      tag_16\n      jump\t// in\n    tag_15:\n      mload(0x40)\n      dup1\n      swap2\n      sub\n      swap1\n      return\n        /* \"contracts/Auction.sol\":172:194  uint public startBlock */\n    tag_3:\n      callvalue\n      dup1\n      iszero\n      tag_17\n      jumpi\n      0x00\n      dup1\n      revert\n    tag_17:\n      pop\n      tag_18\n      tag_19\n      jump\t// in\n    tag_18:\n      mload(0x40)\n      tag_20\n      swap2\n      swap1\n      tag_16\n      jump\t// in\n    tag_20:\n      mload(0x40)\n      dup1\n      swap2\n      sub\n      swap1\n      return\n        /* \"contracts/Auction.sol\":297:319  string public ipfhHash */\n    tag_4:\n      callvalue\n      dup1\n      iszero\n      tag_21\n      jumpi\n      0x00\n      dup1\n      revert\n    tag_21:\n      pop\n      tag_22\n      tag_23\n      jump\t// in\n    tag_22:\n      mload(0x40)\n      tag_24\n      swap2\n      swap1\n      tag_25\n      jump\t// in\n    tag_24:\n      mload(0x40)\n      dup1\n      swap2\n      sub\n      swap1\n      return\n        /* \"contracts/Auction.sol\":520:554  mapping(address=>uint) public bids */\n    tag_5:\n      callvalue\n      dup1\n      iszero\n      tag_26\n      jumpi\n      0x00\n      dup1\n      revert\n    tag_26:\n      pop\n      tag_27\n      0x04\n      dup1\n      calldatasize\n      sub\n      dup2\n      add\n      swap1\n      tag_28\n      swap2\n      swap1\n      tag_29\n      jump\t// in\n    tag_28:\n      tag_30\n      jump\t// in\n    tag_27:\n      mload(0x40)\n      tag_31\n      swap2\n      swap1\n      tag_16\n      jump\t// in\n    tag_31:\n      mload(0x40)\n      dup1\n      swap2\n      sub\n      swap1\n      return\n        /* \"contracts/Auction.sol\":410:435  State public auctionState */\n    tag_6:\n      callvalue\n      dup1\n      iszero\n      tag_32\n      jumpi\n      0x00\n      dup1\n      revert\n    tag_32:\n      pop\n      tag_33\n      tag_34\n      jump\t// in\n    tag_33:\n      mload(0x40)\n      tag_35\n      swap2\n      swap1\n      tag_36\n      jump\t// in\n    tag_35:\n      mload(0x40)\n      dup1\n      swap2\n      sub\n      swap1\n      return\n        /* \"contracts/Auction.sol\":92:120  address payable public owner */\n    tag_7:\n      callvalue\n      dup1\n      iszero\n      tag_37\n      jumpi\n      0x00\n      dup1\n      revert\n    tag_37:\n      pop\n      tag_38\n      tag_39\n      jump\t// in\n    tag_38:\n      mload(0x40)\n      tag_40\n      swap2\n      swap1\n      tag_41\n      jump\t// in\n    tag_40:\n      mload(0x40)\n      dup1\n      swap2\n      sub\n      swap1\n      return\n        /* \"contracts/Auction.sol\":477:513  address payable public highestBidder */\n    tag_8:\n      callvalue\n      dup1\n      iszero\n      tag_42\n      jumpi\n      0x00\n      dup1\n      revert\n    tag_42:\n      pop\n      tag_43\n      tag_44\n      jump\t// in\n    tag_43:\n      mload(0x40)\n      tag_45\n      swap2\n      swap1\n      tag_41\n      jump\t// in\n    tag_45:\n      mload(0x40)\n      dup1\n      swap2\n      sub\n      swap1\n      return\n        /* \"contracts/Auction.sol\":1392:2385  function placeBid() public payable notOwner afterStart beforeEnd {... */\n    tag_9:\n      tag_46\n      tag_47\n      jump\t// in\n    tag_46:\n      stop\n        /* \"contracts/Auction.sol\":442:471  uint public highestBindingBid */\n    tag_10:\n      callvalue\n      dup1\n      iszero\n      tag_48\n      jumpi\n      0x00\n      dup1\n      revert\n    tag_48:\n      pop\n      tag_49\n      tag_50\n      jump\t// in\n    tag_49:\n      mload(0x40)\n      tag_51\n      swap2\n      swap1\n      tag_16\n      jump\t// in\n    tag_51:\n      mload(0x40)\n      dup1\n      swap2\n      sub\n      swap1\n      return\n        /* \"contracts/Auction.sol\":200:220  uint public endBlock */\n    tag_14:\n      sload(0x02)\n      dup2\n      jump\t// out\n        /* \"contracts/Auction.sol\":172:194  uint public startBlock */\n    tag_19:\n      sload(0x01)\n      dup2\n      jump\t// out\n        /* \"contracts/Auction.sol\":297:319  string public ipfhHash */\n    tag_23:\n      0x03\n      dup1\n      sload\n      tag_52\n      swap1\n      tag_53\n      jump\t// in\n    tag_52:\n      dup1\n      0x1f\n      add\n      0x20\n      dup1\n      swap2\n      div\n      mul\n      0x20\n      add\n      mload(0x40)\n      swap1\n      dup2\n      add\n      0x40\n      mstore\n      dup1\n      swap3\n      swap2\n      swap1\n      dup2\n      dup2\n      mstore\n      0x20\n      add\n      dup3\n      dup1\n      sload\n      tag_54\n      swap1\n      tag_53\n      jump\t// in\n    tag_54:\n      dup1\n      iszero\n      tag_55\n      jumpi\n      dup1\n      0x1f\n      lt\n      tag_56\n      jumpi\n      0x0100\n      dup1\n      dup4\n      sload\n      div\n      mul\n      dup4\n      mstore\n      swap2\n      0x20\n      add\n      swap2\n      jump(tag_55)\n    tag_56:\n      dup3\n      add\n      swap2\n      swap1\n      0x00\n      mstore\n      keccak256(0x00, 0x20)\n      swap1\n    tag_57:\n      dup2\n      sload\n      dup2\n      mstore\n      swap1\n      0x01\n      add\n      swap1\n      0x20\n      add\n      dup1\n      dup4\n      gt\n      tag_57\n      jumpi\n      dup3\n      swap1\n      sub\n      0x1f\n      and\n      dup3\n      add\n      swap2\n    tag_55:\n      pop\n      pop\n      pop\n      pop\n      pop\n      dup2\n      jump\t// out\n        /* \"contracts/Auction.sol\":520:554  mapping(address=>uint) public bids */\n    tag_30:\n      mstore(0x20, 0x07)\n      dup1\n      0x00\n      mstore\n      keccak256(0x00, 0x40)\n      0x00\n      swap2\n      pop\n      swap1\n      pop\n      sload\n      dup2\n      jump\t// out\n        /* \"contracts/Auction.sol\":410:435  State public auctionState */\n    tag_34:\n      0x04\n      0x00\n      swap1\n      sload\n      swap1\n      0x0100\n      exp\n      swap1\n      div\n      0xff\n      and\n      dup2\n      jump\t// out\n        /* \"contracts/Auction.sol\":92:120  address payable public owner */\n    tag_39:\n      0x00\n      dup1\n      sload\n      swap1\n      0x0100\n      exp\n      swap1\n      div\n      0xffffffffffffffffffffffffffffffffffffffff\n      and\n      dup2\n      jump\t// out\n        /* \"contracts/Auction.sol\":477:513  address payable public highestBidder */\n    tag_44:\n      0x06\n      0x00\n      swap1\n      sload\n      swap1\n      0x0100\n      exp\n      swap1\n      div\n      0xffffffffffffffffffffffffffffffffffffffff\n      and\n      dup2\n      jump\t// out\n        /* \"contracts/Auction.sol\":1392:2385  function placeBid() public payable notOwner afterStart beforeEnd {... */\n    tag_47:\n        /* \"contracts/Auction.sol\":1023:1028  owner */\n      0x00\n      dup1\n      sload\n      swap1\n      0x0100\n      exp\n      swap1\n      div\n      0xffffffffffffffffffffffffffffffffffffffff\n      and\n        /* \"contracts/Auction.sol\":1009:1028  msg.sender != owner */\n      0xffffffffffffffffffffffffffffffffffffffff\n      and\n        /* \"contracts/Auction.sol\":1009:1019  msg.sender */\n      caller\n        /* \"contracts/Auction.sol\":1009:1028  msg.sender != owner */\n      0xffffffffffffffffffffffffffffffffffffffff\n      and\n      eq\n      iszero\n        /* \"contracts/Auction.sol\":1001:1029  require(msg.sender != owner) */\n      tag_59\n      jumpi\n      0x00\n      dup1\n      revert\n    tag_59:\n        /* \"contracts/Auction.sol\":1108:1118  startBlock */\n      sload(0x01)\n        /* \"contracts/Auction.sol\":1092:1104  block.number */\n      number\n        /* \"contracts/Auction.sol\":1092:1118  block.number >= startBlock */\n      lt\n      iszero\n        /* \"contracts/Auction.sol\":1084:1119  require(block.number >= startBlock) */\n      tag_61\n      jumpi\n      0x00\n      dup1\n      revert\n    tag_61:\n        /* \"contracts/Auction.sol\":1197:1205  endBlock */\n      sload(0x02)\n        /* \"contracts/Auction.sol\":1181:1193  block.number */\n      number\n        /* \"contracts/Auction.sol\":1181:1205  block.number <= endBlock */\n      gt\n      iszero\n        /* \"contracts/Auction.sol\":1173:1206  require(block.number <= endBlock) */\n      tag_63\n      jumpi\n      0x00\n      dup1\n      revert\n    tag_63:\n        /* \"contracts/Auction.sol\":1531:1544  State.Running */\n      0x01\n        /* \"contracts/Auction.sol\":1515:1544  auctionState == State.Running */\n      0x03\n      dup2\n      gt\n      iszero\n      tag_65\n      jumpi\n      tag_66\n      tag_67\n      jump\t// in\n    tag_66:\n    tag_65:\n        /* \"contracts/Auction.sol\":1515:1527  auctionState */\n      0x04\n      0x00\n      swap1\n      sload\n      swap1\n      0x0100\n      exp\n      swap1\n      div\n      0xff\n      and\n        /* \"contracts/Auction.sol\":1515:1544  auctionState == State.Running */\n      0x03\n      dup2\n      gt\n      iszero\n      tag_68\n      jumpi\n      tag_69\n      tag_67\n      jump\t// in\n    tag_69:\n    tag_68:\n      eq\n        /* \"contracts/Auction.sol\":1507:1545  require(auctionState == State.Running) */\n      tag_70\n      jumpi\n      0x00\n      dup1\n      revert\n    tag_70:\n        /* \"contracts/Auction.sol\":1639:1651  bidIncrement */\n      sload(0x08)\n        /* \"contracts/Auction.sol\":1626:1635  msg.value */\n      callvalue\n        /* \"contracts/Auction.sol\":1626:1651  msg.value >= bidIncrement */\n      lt\n      iszero\n        /* \"contracts/Auction.sol\":1618:1652  require(msg.value >= bidIncrement) */\n      tag_71\n      jumpi\n      0x00\n      dup1\n      revert\n    tag_71:\n        /* \"contracts/Auction.sol\":1716:1731  uint currentBid */\n      0x00\n        /* \"contracts/Auction.sol\":1762:1771  msg.value */\n      callvalue\n        /* \"contracts/Auction.sol\":1734:1738  bids */\n      0x07\n        /* \"contracts/Auction.sol\":1734:1759  bids[payable(msg.sender)] */\n      0x00\n        /* \"contracts/Auction.sol\":1747:1757  msg.sender */\n      caller\n        /* \"contracts/Auction.sol\":1734:1759  bids[payable(msg.sender)] */\n      0xffffffffffffffffffffffffffffffffffffffff\n      and\n      0xffffffffffffffffffffffffffffffffffffffff\n      and\n      dup2\n      mstore\n      0x20\n      add\n      swap1\n      dup2\n      mstore\n      0x20\n      add\n      0x00\n      keccak256\n      sload\n        /* \"contracts/Auction.sol\":1734:1771  bids[payable(msg.sender)] + msg.value */\n      tag_72\n      swap2\n      swap1\n      tag_73\n      jump\t// in\n    tag_72:\n        /* \"contracts/Auction.sol\":1716:1771  uint currentBid = bids[payable(msg.sender)] + msg.value */\n      swap1\n      pop\n        /* \"contracts/Auction.sol\":1870:1887  highestBindingBid */\n      sload(0x05)\n        /* \"contracts/Auction.sol\":1857:1867  currentBid */\n      dup2\n        /* \"contracts/Auction.sol\":1857:1887  currentBid > highestBindingBid */\n      gt\n        /* \"contracts/Auction.sol\":1849:1888  require(currentBid > highestBindingBid) */\n      tag_74\n      jumpi\n      0x00\n      dup1\n      revert\n    tag_74:\n        /* \"contracts/Auction.sol\":1976:1986  currentBid */\n      dup1\n        /* \"contracts/Auction.sol\":1948:1952  bids */\n      0x07\n        /* \"contracts/Auction.sol\":1948:1973  bids[payable(msg.sender)] */\n      0x00\n        /* \"contracts/Auction.sol\":1961:1971  msg.sender */\n      caller\n        /* \"contracts/Auction.sol\":1948:1973  bids[payable(msg.sender)] */\n      0xffffffffffffffffffffffffffffffffffffffff\n      and\n      0xffffffffffffffffffffffffffffffffffffffff\n      and\n      dup2\n      mstore\n      0x20\n      add\n      swap1\n      dup2\n      mstore\n      0x20\n      add\n      0x00\n      keccak256\n        /* \"contracts/Auction.sol\":1948:1986  bids[payable(msg.sender)] = currentBid */\n      dup2\n      swap1\n      sstore\n      pop\n        /* \"contracts/Auction.sol\":2163:2167  bids */\n      0x07\n        /* \"contracts/Auction.sol\":2163:2182  bids[highestBidder] */\n      0x00\n        /* \"contracts/Auction.sol\":2168:2181  highestBidder */\n      0x06\n      0x00\n      swap1\n      sload\n      swap1\n      0x0100\n      exp\n      swap1\n      div\n      0xffffffffffffffffffffffffffffffffffffffff\n      and\n        /* \"contracts/Auction.sol\":2163:2182  bids[highestBidder] */\n      0xffffffffffffffffffffffffffffffffffffffff\n      and\n      0xffffffffffffffffffffffffffffffffffffffff\n      and\n      dup2\n      mstore\n      0x20\n      add\n      swap1\n      dup2\n      mstore\n      0x20\n      add\n      0x00\n      keccak256\n      sload\n        /* \"contracts/Auction.sol\":2149:2159  currentBid */\n      dup2\n        /* \"contracts/Auction.sol\":2149:2182  currentBid <= bids[highestBidder] */\n      gt\n        /* \"contracts/Auction.sol\":2145:2379  if (currentBid <= bids[highestBidder]){... */\n      tag_75\n      jumpi\n        /* \"contracts/Auction.sol\":2217:2268  min(currentBid + bidIncrement, bids[highestBidder]) */\n      tag_76\n        /* \"contracts/Auction.sol\":2234:2246  bidIncrement */\n      sload(0x08)\n        /* \"contracts/Auction.sol\":2221:2231  currentBid */\n      dup3\n        /* \"contracts/Auction.sol\":2221:2246  currentBid + bidIncrement */\n      tag_77\n      swap2\n      swap1\n      tag_73\n      jump\t// in\n    tag_77:\n        /* \"contracts/Auction.sol\":2248:2252  bids */\n      0x07\n        /* \"contracts/Auction.sol\":2248:2267  bids[highestBidder] */\n      0x00\n        /* \"contracts/Auction.sol\":2253:2266  highestBidder */\n      0x06\n      0x00\n      swap1\n      sload\n      swap1\n      0x0100\n      exp\n      swap1\n      div\n      0xffffffffffffffffffffffffffffffffffffffff\n      and\n        /* \"contracts/Auction.sol\":2248:2267  bids[highestBidder] */\n      0xffffffffffffffffffffffffffffffffffffffff\n      and\n      0xffffffffffffffffffffffffffffffffffffffff\n      and\n      dup2\n      mstore\n      0x20\n      add\n      swap1\n      dup2\n      mstore\n      0x20\n      add\n      0x00\n      keccak256\n      sload\n        /* \"contracts/Auction.sol\":2217:2220  min */\n      tag_78\n        /* \"contracts/Auction.sol\":2217:2268  min(currentBid + bidIncrement, bids[highestBidder]) */\n      jump\t// in\n    tag_76:\n        /* \"contracts/Auction.sol\":2197:2214  highestBindingBid */\n      0x05\n        /* \"contracts/Auction.sol\":2197:2268  highestBindingBid = min(currentBid + bidIncrement, bids[highestBidder]) */\n      dup2\n      swap1\n      sstore\n      pop\n        /* \"contracts/Auction.sol\":2145:2379  if (currentBid <= bids[highestBidder]){... */\n      jump(tag_79)\n    tag_75:\n        /* \"contracts/Auction.sol\":2317:2368  min(bids[highestBidder] + bidIncrement, currentBid) */\n      tag_80\n        /* \"contracts/Auction.sol\":2343:2355  bidIncrement */\n      sload(0x08)\n        /* \"contracts/Auction.sol\":2321:2325  bids */\n      0x07\n        /* \"contracts/Auction.sol\":2321:2340  bids[highestBidder] */\n      0x00\n        /* \"contracts/Auction.sol\":2326:2339  highestBidder */\n      0x06\n      0x00\n      swap1\n      sload\n      swap1\n      0x0100\n      exp\n      swap1\n      div\n      0xffffffffffffffffffffffffffffffffffffffff\n      and\n        /* \"contracts/Auction.sol\":2321:2340  bids[highestBidder] */\n      0xffffffffffffffffffffffffffffffffffffffff\n      and\n      0xffffffffffffffffffffffffffffffffffffffff\n      and\n      dup2\n      mstore\n      0x20\n      add\n      swap1\n      dup2\n      mstore\n      0x20\n      add\n      0x00\n      keccak256\n      sload\n        /* \"contracts/Auction.sol\":2321:2355  bids[highestBidder] + bidIncrement */\n      tag_81\n      swap2\n      swap1\n      tag_73\n      jump\t// in\n    tag_81:\n        /* \"contracts/Auction.sol\":2357:2367  currentBid */\n      dup3\n        /* \"contracts/Auction.sol\":2317:2320  min */\n      tag_78\n        /* \"contracts/Auction.sol\":2317:2368  min(bids[highestBidder] + bidIncrement, currentBid) */\n      jump\t// in\n    tag_80:\n        /* \"contracts/Auction.sol\":2297:2314  highestBindingBid */\n      0x05\n        /* \"contracts/Auction.sol\":2297:2368  highestBindingBid = min(bids[highestBidder] + bidIncrement, currentBid) */\n      dup2\n      swap1\n      sstore\n      pop\n        /* \"contracts/Auction.sol\":2145:2379  if (currentBid <= bids[highestBidder]){... */\n    tag_79:\n        /* \"contracts/Auction.sol\":1457:2385  {... */\n      pop\n        /* \"contracts/Auction.sol\":1392:2385  function placeBid() public payable notOwner afterStart beforeEnd {... */\n      jump\t// out\n        /* \"contracts/Auction.sol\":442:471  uint public highestBindingBid */\n    tag_50:\n      sload(0x05)\n      dup2\n      jump\t// out\n        /* \"contracts/Auction.sol\":1230:1386  function min(uint a, uint b) internal returns(uint){... */\n    tag_78:\n        /* \"contracts/Auction.sol\":1276:1280  uint */\n      0x00\n        /* \"contracts/Auction.sol\":1299:1300  b */\n      dup2\n        /* \"contracts/Auction.sol\":1295:1296  a */\n      dup4\n        /* \"contracts/Auction.sol\":1295:1300  a<= b */\n      gt\n        /* \"contracts/Auction.sol\":1291:1380  if (a<= b){... */\n      tag_83\n      jumpi\n        /* \"contracts/Auction.sol\":1322:1323  a */\n      dup3\n        /* \"contracts/Auction.sol\":1315:1323  return a */\n      swap1\n      pop\n      jump(tag_82)\n        /* \"contracts/Auction.sol\":1291:1380  if (a<= b){... */\n    tag_83:\n        /* \"contracts/Auction.sol\":1368:1369  b */\n      dup2\n        /* \"contracts/Auction.sol\":1361:1369  return b */\n      swap1\n      pop\n        /* \"contracts/Auction.sol\":1230:1386  function min(uint a, uint b) internal returns(uint){... */\n    tag_82:\n      swap3\n      swap2\n      pop\n      pop\n      jump\t// out\n        /* \"#utility.yul\":7:146   */\n    tag_86:\n        /* \"#utility.yul\":53:58   */\n      0x00\n        /* \"#utility.yul\":91:97   */\n      dup2\n        /* \"#utility.yul\":78:98   */\n      calldataload\n        /* \"#utility.yul\":69:98   */\n      swap1\n      pop\n        /* \"#utility.yul\":107:140   */\n      tag_88\n        /* \"#utility.yul\":134:139   */\n      dup2\n        /* \"#utility.yul\":107:140   */\n      tag_89\n      jump\t// in\n    tag_88:\n        /* \"#utility.yul\":7:146   */\n      swap3\n      swap2\n      pop\n      pop\n      jump\t// out\n        /* \"#utility.yul\":152:481   */\n    tag_29:\n        /* \"#utility.yul\":211:217   */\n      0x00\n        /* \"#utility.yul\":260:262   */\n      0x20\n        /* \"#utility.yul\":248:257   */\n      dup3\n        /* \"#utility.yul\":239:246   */\n      dup5\n        /* \"#utility.yul\":235:258   */\n      sub\n        /* \"#utility.yul\":231:263   */\n      slt\n        /* \"#utility.yul\":228:347   */\n      iszero\n      tag_91\n      jumpi\n        /* \"#utility.yul\":266:345   */\n      tag_92\n      tag_93\n      jump\t// in\n    tag_92:\n        /* \"#utility.yul\":228:347   */\n    tag_91:\n        /* \"#utility.yul\":386:387   */\n      0x00\n        /* \"#utility.yul\":411:464   */\n      tag_94\n        /* \"#utility.yul\":456:463   */\n      dup5\n        /* \"#utility.yul\":447:453   */\n      dup3\n        /* \"#utility.yul\":436:445   */\n      dup6\n        /* \"#utility.yul\":432:454   */\n      add\n        /* \"#utility.yul\":411:464   */\n      tag_86\n      jump\t// in\n    tag_94:\n        /* \"#utility.yul\":401:464   */\n      swap2\n      pop\n        /* \"#utility.yul\":357:474   */\n      pop\n        /* \"#utility.yul\":152:481   */\n      swap3\n      swap2\n      pop\n      pop\n      jump\t// out\n        /* \"#utility.yul\":487:629   */\n    tag_95:\n        /* \"#utility.yul\":590:622   */\n      tag_97\n        /* \"#utility.yul\":616:621   */\n      dup2\n        /* \"#utility.yul\":590:622   */\n      tag_98\n      jump\t// in\n    tag_97:\n        /* \"#utility.yul\":585:588   */\n      dup3\n        /* \"#utility.yul\":578:623   */\n      mstore\n        /* \"#utility.yul\":487:629   */\n      pop\n      pop\n      jump\t// out\n        /* \"#utility.yul\":635:778   */\n    tag_99:\n        /* \"#utility.yul\":728:771   */\n      tag_101\n        /* \"#utility.yul\":765:770   */\n      dup2\n        /* \"#utility.yul\":728:771   */\n      tag_102\n      jump\t// in\n    tag_101:\n        /* \"#utility.yul\":723:726   */\n      dup3\n        /* \"#utility.yul\":716:772   */\n      mstore\n        /* \"#utility.yul\":635:778   */\n      pop\n      pop\n      jump\t// out\n        /* \"#utility.yul\":784:1148   */\n    tag_103:\n        /* \"#utility.yul\":872:875   */\n      0x00\n        /* \"#utility.yul\":900:939   */\n      tag_105\n        /* \"#utility.yul\":933:938   */\n      dup3\n        /* \"#utility.yul\":900:939   */\n      tag_106\n      jump\t// in\n    tag_105:\n        /* \"#utility.yul\":955:1026   */\n      tag_107\n        /* \"#utility.yul\":1019:1025   */\n      dup2\n        /* \"#utility.yul\":1014:1017   */\n      dup6\n        /* \"#utility.yul\":955:1026   */\n      tag_108\n      jump\t// in\n    tag_107:\n        /* \"#utility.yul\":948:1026   */\n      swap4\n      pop\n        /* \"#utility.yul\":1035:1087   */\n      tag_109\n        /* \"#utility.yul\":1080:1086   */\n      dup2\n        /* \"#utility.yul\":1075:1078   */\n      dup6\n        /* \"#utility.yul\":1068:1072   */\n      0x20\n        /* \"#utility.yul\":1061:1066   */\n      dup7\n        /* \"#utility.yul\":1057:1073   */\n      add\n        /* \"#utility.yul\":1035:1087   */\n      tag_110\n      jump\t// in\n    tag_109:\n        /* \"#utility.yul\":1112:1141   */\n      tag_111\n        /* \"#utility.yul\":1134:1140   */\n      dup2\n        /* \"#utility.yul\":1112:1141   */\n      tag_112\n      jump\t// in\n    tag_111:\n        /* \"#utility.yul\":1107:1110   */\n      dup5\n        /* \"#utility.yul\":1103:1142   */\n      add\n        /* \"#utility.yul\":1096:1142   */\n      swap2\n      pop\n        /* \"#utility.yul\":876:1148   */\n      pop\n        /* \"#utility.yul\":784:1148   */\n      swap3\n      swap2\n      pop\n      pop\n      jump\t// out\n        /* \"#utility.yul\":1154:1272   */\n    tag_113:\n        /* \"#utility.yul\":1241:1265   */\n      tag_115\n        /* \"#utility.yul\":1259:1264   */\n      dup2\n        /* \"#utility.yul\":1241:1265   */\n      tag_116\n      jump\t// in\n    tag_115:\n        /* \"#utility.yul\":1236:1239   */\n      dup3\n        /* \"#utility.yul\":1229:1266   */\n      mstore\n        /* \"#utility.yul\":1154:1272   */\n      pop\n      pop\n      jump\t// out\n        /* \"#utility.yul\":1278:1532   */\n    tag_41:\n        /* \"#utility.yul\":1387:1391   */\n      0x00\n        /* \"#utility.yul\":1425:1427   */\n      0x20\n        /* \"#utility.yul\":1414:1423   */\n      dup3\n        /* \"#utility.yul\":1410:1428   */\n      add\n        /* \"#utility.yul\":1402:1428   */\n      swap1\n      pop\n        /* \"#utility.yul\":1438:1525   */\n      tag_118\n        /* \"#utility.yul\":1522:1523   */\n      0x00\n        /* \"#utility.yul\":1511:1520   */\n      dup4\n        /* \"#utility.yul\":1507:1524   */\n      add\n        /* \"#utility.yul\":1498:1504   */\n      dup5\n        /* \"#utility.yul\":1438:1525   */\n      tag_95\n      jump\t// in\n    tag_118:\n        /* \"#utility.yul\":1278:1532   */\n      swap3\n      swap2\n      pop\n      pop\n      jump\t// out\n        /* \"#utility.yul\":1538:1772   */\n    tag_36:\n        /* \"#utility.yul\":1637:1641   */\n      0x00\n        /* \"#utility.yul\":1675:1677   */\n      0x20\n        /* \"#utility.yul\":1664:1673   */\n      dup3\n        /* \"#utility.yul\":1660:1678   */\n      add\n        /* \"#utility.yul\":1652:1678   */\n      swap1\n      pop\n        /* \"#utility.yul\":1688:1765   */\n      tag_120\n        /* \"#utility.yul\":1762:1763   */\n      0x00\n        /* \"#utility.yul\":1751:1760   */\n      dup4\n        /* \"#utility.yul\":1747:1764   */\n      add\n        /* \"#utility.yul\":1738:1744   */\n      dup5\n        /* \"#utility.yul\":1688:1765   */\n      tag_99\n      jump\t// in\n    tag_120:\n        /* \"#utility.yul\":1538:1772   */\n      swap3\n      swap2\n      pop\n      pop\n      jump\t// out\n        /* \"#utility.yul\":1778:2091   */\n    tag_25:\n        /* \"#utility.yul\":1891:1895   */\n      0x00\n        /* \"#utility.yul\":1929:1931   */\n      0x20\n        /* \"#utility.yul\":1918:1927   */\n      dup3\n        /* \"#utility.yul\":1914:1932   */\n      add\n        /* \"#utility.yul\":1906:1932   */\n      swap1\n      pop\n        /* \"#utility.yul\":1978:1987   */\n      dup2\n        /* \"#utility.yul\":1972:1976   */\n      dup2\n        /* \"#utility.yul\":1968:1988   */\n      sub\n        /* \"#utility.yul\":1964:1965   */\n      0x00\n        /* \"#utility.yul\":1953:1962   */\n      dup4\n        /* \"#utility.yul\":1949:1966   */\n      add\n        /* \"#utility.yul\":1942:1989   */\n      mstore\n        /* \"#utility.yul\":2006:2084   */\n      tag_122\n        /* \"#utility.yul\":2079:2083   */\n      dup2\n        /* \"#utility.yul\":2070:2076   */\n      dup5\n        /* \"#utility.yul\":2006:2084   */\n      tag_103\n      jump\t// in\n    tag_122:\n        /* \"#utility.yul\":1998:2084   */\n      swap1\n      pop\n        /* \"#utility.yul\":1778:2091   */\n      swap3\n      swap2\n      pop\n      pop\n      jump\t// out\n        /* \"#utility.yul\":2097:2319   */\n    tag_16:\n        /* \"#utility.yul\":2190:2194   */\n      0x00\n        /* \"#utility.yul\":2228:2230   */\n      0x20\n        /* \"#utility.yul\":2217:2226   */\n      dup3\n        /* \"#utility.yul\":2213:2231   */\n      add\n        /* \"#utility.yul\":2205:2231   */\n      swap1\n      pop\n        /* \"#utility.yul\":2241:2312   */\n      tag_124\n        /* \"#utility.yul\":2309:2310   */\n      0x00\n        /* \"#utility.yul\":2298:2307   */\n      dup4\n        /* \"#utility.yul\":2294:2311   */\n      add\n        /* \"#utility.yul\":2285:2291   */\n      dup5\n        /* \"#utility.yul\":2241:2312   */\n      tag_113\n      jump\t// in\n    tag_124:\n        /* \"#utility.yul\":2097:2319   */\n      swap3\n      swap2\n      pop\n      pop\n      jump\t// out\n        /* \"#utility.yul\":2406:2505   */\n    tag_106:\n        /* \"#utility.yul\":2458:2464   */\n      0x00\n        /* \"#utility.yul\":2492:2497   */\n      dup2\n        /* \"#utility.yul\":2486:2498   */\n      mload\n        /* \"#utility.yul\":2476:2498   */\n      swap1\n      pop\n        /* \"#utility.yul\":2406:2505   */\n      swap2\n      swap1\n      pop\n      jump\t// out\n        /* \"#utility.yul\":2511:2680   */\n    tag_108:\n        /* \"#utility.yul\":2595:2606   */\n      0x00\n        /* \"#utility.yul\":2629:2635   */\n      dup3\n        /* \"#utility.yul\":2624:2627   */\n      dup3\n        /* \"#utility.yul\":2617:2636   */\n      mstore\n        /* \"#utility.yul\":2669:2673   */\n      0x20\n        /* \"#utility.yul\":2664:2667   */\n      dup3\n        /* \"#utility.yul\":2660:2674   */\n      add\n        /* \"#utility.yul\":2645:2674   */\n      swap1\n      pop\n        /* \"#utility.yul\":2511:2680   */\n      swap3\n      swap2\n      pop\n      pop\n      jump\t// out\n        /* \"#utility.yul\":2686:2991   */\n    tag_73:\n        /* \"#utility.yul\":2726:2729   */\n      0x00\n        /* \"#utility.yul\":2745:2765   */\n      tag_130\n        /* \"#utility.yul\":2763:2764   */\n      dup3\n        /* \"#utility.yul\":2745:2765   */\n      tag_116\n      jump\t// in\n    tag_130:\n        /* \"#utility.yul\":2740:2765   */\n      swap2\n      pop\n        /* \"#utility.yul\":2779:2799   */\n      tag_131\n        /* \"#utility.yul\":2797:2798   */\n      dup4\n        /* \"#utility.yul\":2779:2799   */\n      tag_116\n      jump\t// in\n    tag_131:\n        /* \"#utility.yul\":2774:2799   */\n      swap3\n      pop\n        /* \"#utility.yul\":2933:2934   */\n      dup3\n        /* \"#utility.yul\":2865:2931   */\n      0xffffffffffffffffffffffffffffffffffffffffffffffffffffffffffffffff\n        /* \"#utility.yul\":2861:2935   */\n      sub\n        /* \"#utility.yul\":2858:2859   */\n      dup3\n        /* \"#utility.yul\":2855:2936   */\n      gt\n        /* \"#utility.yul\":2852:2959   */\n      iszero\n      tag_132\n      jumpi\n        /* \"#utility.yul\":2939:2957   */\n      tag_133\n      tag_134\n      jump\t// in\n    tag_133:\n        /* \"#utility.yul\":2852:2959   */\n    tag_132:\n        /* \"#utility.yul\":2983:2984   */\n      dup3\n        /* \"#utility.yul\":2980:2981   */\n      dup3\n        /* \"#utility.yul\":2976:2985   */\n      add\n        /* \"#utility.yul\":2969:2985   */\n      swap1\n      pop\n        /* \"#utility.yul\":2686:2991   */\n      swap3\n      swap2\n      pop\n      pop\n      jump\t// out\n        /* \"#utility.yul\":2997:3093   */\n    tag_135:\n        /* \"#utility.yul\":3034:3041   */\n      0x00\n        /* \"#utility.yul\":3063:3087   */\n      tag_137\n        /* \"#utility.yul\":3081:3086   */\n      dup3\n        /* \"#utility.yul\":3063:3087   */\n      tag_138\n      jump\t// in\n    tag_137:\n        /* \"#utility.yul\":3052:3087   */\n      swap1\n      pop\n        /* \"#utility.yul\":2997:3093   */\n      swap2\n      swap1\n      pop\n      jump\t// out\n        /* \"#utility.yul\":3099:3203   */\n    tag_98:\n        /* \"#utility.yul\":3144:3151   */\n      0x00\n        /* \"#utility.yul\":3173:3197   */\n      tag_140\n        /* \"#utility.yul\":3191:3196   */\n      dup3\n        /* \"#utility.yul\":3173:3197   */\n      tag_138\n      jump\t// in\n    tag_140:\n        /* \"#utility.yul\":3162:3197   */\n      swap1\n      pop\n        /* \"#utility.yul\":3099:3203   */\n      swap2\n      swap1\n      pop\n      jump\t// out\n        /* \"#utility.yul\":3209:3336   */\n    tag_141:\n        /* \"#utility.yul\":3254:3261   */\n      0x00\n        /* \"#utility.yul\":3283:3288   */\n      dup2\n        /* \"#utility.yul\":3272:3288   */\n      swap1\n      pop\n        /* \"#utility.yul\":3289:3330   */\n      tag_143\n        /* \"#utility.yul\":3324:3329   */\n      dup3\n        /* \"#utility.yul\":3289:3330   */\n      tag_144\n      jump\t// in\n    tag_143:\n        /* \"#utility.yul\":3209:3336   */\n      swap2\n      swap1\n      pop\n      jump\t// out\n        /* \"#utility.yul\":3342:3468   */\n    tag_138:\n        /* \"#utility.yul\":3379:3386   */\n      0x00\n        /* \"#utility.yul\":3419:3461   */\n      0xffffffffffffffffffffffffffffffffffffffff\n        /* \"#utility.yul\":3412:3417   */\n      dup3\n        /* \"#utility.yul\":3408:3462   */\n      and\n        /* \"#utility.yul\":3397:3462   */\n      swap1\n      pop\n        /* \"#utility.yul\":3342:3468   */\n      swap2\n      swap1\n      pop\n      jump\t// out\n        /* \"#utility.yul\":3474:3551   */\n    tag_116:\n        /* \"#utility.yul\":3511:3518   */\n      0x00\n        /* \"#utility.yul\":3540:3545   */\n      dup2\n        /* \"#utility.yul\":3529:3545   */\n      swap1\n      pop\n        /* \"#utility.yul\":3474:3551   */\n      swap2\n      swap1\n      pop\n      jump\t// out\n        /* \"#utility.yul\":3557:3684   */\n    tag_102:\n        /* \"#utility.yul\":3613:3622   */\n      0x00\n        /* \"#utility.yul\":3646:3678   */\n      tag_148\n        /* \"#utility.yul\":3672:3677   */\n      dup3\n        /* \"#utility.yul\":3646:3678   */\n      tag_141\n      jump\t// in\n    tag_148:\n        /* \"#utility.yul\":3633:3678   */\n      swap1\n      pop\n        /* \"#utility.yul\":3557:3684   */\n      swap2\n      swap1\n      pop\n      jump\t// out\n        /* \"#utility.yul\":3690:3997   */\n    tag_110:\n        /* \"#utility.yul\":3758:3759   */\n      0x00\n        /* \"#utility.yul\":3768:3881   */\n    tag_150:\n        /* \"#utility.yul\":3782:3788   */\n      dup4\n        /* \"#utility.yul\":3779:3780   */\n      dup2\n        /* \"#utility.yul\":3776:3789   */\n      lt\n        /* \"#utility.yul\":3768:3881   */\n      iszero\n      tag_152\n      jumpi\n        /* \"#utility.yul\":3867:3868   */\n      dup1\n        /* \"#utility.yul\":3862:3865   */\n      dup3\n        /* \"#utility.yul\":3858:3869   */\n      add\n        /* \"#utility.yul\":3852:3870   */\n      mload\n        /* \"#utility.yul\":3848:3849   */\n      dup2\n        /* \"#utility.yul\":3843:3846   */\n      dup5\n        /* \"#utility.yul\":3839:3850   */\n      add\n        /* \"#utility.yul\":3832:3871   */\n      mstore\n        /* \"#utility.yul\":3804:3806   */\n      0x20\n        /* \"#utility.yul\":3801:3802   */\n      dup2\n        /* \"#utility.yul\":3797:3807   */\n      add\n        /* \"#utility.yul\":3792:3807   */\n      swap1\n      pop\n        /* \"#utility.yul\":3768:3881   */\n      jump(tag_150)\n    tag_152:\n        /* \"#utility.yul\":3899:3905   */\n      dup4\n        /* \"#utility.yul\":3896:3897   */\n      dup2\n        /* \"#utility.yul\":3893:3906   */\n      gt\n        /* \"#utility.yul\":3890:3991   */\n      iszero\n      tag_153\n      jumpi\n        /* \"#utility.yul\":3979:3980   */\n      0x00\n        /* \"#utility.yul\":3970:3976   */\n      dup5\n        /* \"#utility.yul\":3965:3968   */\n      dup5\n        /* \"#utility.yul\":3961:3977   */\n      add\n        /* \"#utility.yul\":3954:3981   */\n      mstore\n        /* \"#utility.yul\":3890:3991   */\n    tag_153:\n        /* \"#utility.yul\":3739:3997   */\n      pop\n        /* \"#utility.yul\":3690:3997   */\n      pop\n      pop\n      pop\n      jump\t// out\n        /* \"#utility.yul\":4003:4323   */\n    tag_53:\n        /* \"#utility.yul\":4047:4053   */\n      0x00\n        /* \"#utility.yul\":4084:4085   */\n      0x02\n        /* \"#utility.yul\":4078:4082   */\n      dup3\n        /* \"#utility.yul\":4074:4086   */\n      div\n        /* \"#utility.yul\":4064:4086   */\n      swap1\n      pop\n        /* \"#utility.yul\":4131:4132   */\n      0x01\n        /* \"#utility.yul\":4125:4129   */\n      dup3\n        /* \"#utility.yul\":4121:4133   */\n      and\n        /* \"#utility.yul\":4152:4170   */\n      dup1\n        /* \"#utility.yul\":4142:4223   */\n      tag_155\n      jumpi\n        /* \"#utility.yul\":4208:4212   */\n      0x7f\n        /* \"#utility.yul\":4200:4206   */\n      dup3\n        /* \"#utility.yul\":4196:4213   */\n      and\n        /* \"#utility.yul\":4186:4213   */\n      swap2\n      pop\n        /* \"#utility.yul\":4142:4223   */\n    tag_155:\n        /* \"#utility.yul\":4270:4272   */\n      0x20\n        /* \"#utility.yul\":4262:4268   */\n      dup3\n        /* \"#utility.yul\":4259:4273   */\n      lt\n        /* \"#utility.yul\":4239:4257   */\n      dup2\n        /* \"#utility.yul\":4236:4274   */\n      eq\n        /* \"#utility.yul\":4233:4317   */\n      iszero\n      tag_156\n      jumpi\n        /* \"#utility.yul\":4289:4307   */\n      tag_157\n      tag_158\n      jump\t// in\n    tag_157:\n        /* \"#utility.yul\":4233:4317   */\n    tag_156:\n        /* \"#utility.yul\":4054:4323   */\n      pop\n        /* \"#utility.yul\":4003:4323   */\n      swap2\n      swap1\n      pop\n      jump\t// out\n        /* \"#utility.yul\":4329:4509   */\n    tag_134:\n        /* \"#utility.yul\":4377:4454   */\n      0x4e487b7100000000000000000000000000000000000000000000000000000000\n        /* \"#utility.yul\":4374:4375   */\n      0x00\n        /* \"#utility.yul\":4367:4455   */\n      mstore\n        /* \"#utility.yul\":4474:4478   */\n      0x11\n        /* \"#utility.yul\":4471:4472   */\n      0x04\n        /* \"#utility.yul\":4464:4479   */\n      mstore\n        /* \"#utility.yul\":4498:4502   */\n      0x24\n        /* \"#utility.yul\":4495:4496   */\n      0x00\n        /* \"#utility.yul\":4488:4503   */\n      revert\n        /* \"#utility.yul\":4515:4695   */\n    tag_67:\n        /* \"#utility.yul\":4563:4640   */\n      0x4e487b7100000000000000000000000000000000000000000000000000000000\n        /* \"#utility.yul\":4560:4561   */\n      0x00\n        /* \"#utility.yul\":4553:4641   */\n      mstore\n        /* \"#utility.yul\":4660:4664   */\n      0x21\n        /* \"#utility.yul\":4657:4658   */\n      0x04\n        /* \"#utility.yul\":4650:4665   */\n      mstore\n        /* \"#utility.yul\":4684:4688   */\n      0x24\n        /* \"#utility.yul\":4681:4682   */\n      0x00\n        /* \"#utility.yul\":4674:4689   */\n      revert\n        /* \"#utility.yul\":4701:4881   */\n    tag_158:\n        /* \"#utility.yul\":4749:4826   */\n      0x4e487b7100000000000000000000000000000000000000000000000000000000\n        /* \"#utility.yul\":4746:4747   */\n      0x00\n        /* \"#utility.yul\":4739:4827   */\n      mstore\n        /* \"#utility.yul\":4846:4850   */\n      0x22\n        /* \"#utility.yul\":4843:4844   */\n      0x04\n        /* \"#utility.yul\":4836:4851   */\n      mstore\n        /* \"#utility.yul\":4870:4874   */\n      0x24\n        /* \"#utility.yul\":4867:4868   */\n      0x00\n        /* \"#utility.yul\":4860:4875   */\n      revert\n        /* \"#utility.yul\":5010:5127   */\n    tag_93:\n        /* \"#utility.yul\":5119:5120   */\n      0x00\n        /* \"#utility.yul\":5116:5117   */\n      dup1\n        /* \"#utility.yul\":5109:5121   */\n      revert\n        /* \"#utility.yul\":5133:5235   */\n    tag_112:\n        /* \"#utility.yul\":5174:5180   */\n      0x00\n        /* \"#utility.yul\":5225:5227   */\n      0x1f\n        /* \"#utility.yul\":5221:5228   */\n      not\n        /* \"#utility.yul\":5216:5218   */\n      0x1f\n        /* \"#utility.yul\":5209:5214   */\n      dup4\n        /* \"#utility.yul\":5205:5219   */\n      add\n        /* \"#utility.yul\":5201:5229   */\n      and\n        /* \"#utility.yul\":5191:5229   */\n      swap1\n      pop\n        /* \"#utility.yul\":5133:5235   */\n      swap2\n      swap1\n      pop\n      jump\t// out\n        /* \"#utility.yul\":5241:5354   */\n    tag_144:\n        /* \"#utility.yul\":5322:5323   */\n      0x04\n        /* \"#utility.yul\":5315:5320   */\n      dup2\n        /* \"#utility.yul\":5312:5324   */\n      lt\n        /* \"#utility.yul\":5302:5348   */\n      tag_167\n      jumpi\n        /* \"#utility.yul\":5328:5346   */\n      tag_168\n      tag_67\n      jump\t// in\n    tag_168:\n        /* \"#utility.yul\":5302:5348   */\n    tag_167:\n        /* \"#utility.yul\":5241:5354   */\n      pop\n      jump\t// out\n        /* \"#utility.yul\":5360:5482   */\n    tag_89:\n        /* \"#utility.yul\":5433:5457   */\n      tag_170\n        /* \"#utility.yul\":5451:5456   */\n      dup2\n        /* \"#utility.yul\":5433:5457   */\n      tag_135\n      jump\t// in\n    tag_170:\n        /* \"#utility.yul\":5426:5431   */\n      dup2\n        /* \"#utility.yul\":5423:5458   */\n      eq\n        /* \"#utility.yul\":5413:5476   */\n      tag_171\n      jumpi\n        /* \"#utility.yul\":5472:5473   */\n      0x00\n        /* \"#utility.yul\":5469:5470   */\n      dup1\n        /* \"#utility.yul\":5462:5474   */\n      revert\n        /* \"#utility.yul\":5413:5476   */\n    tag_171:\n        /* \"#utility.yul\":5360:5482   */\n      pop\n      jump\t// out\n\n    auxdata: 0xa2646970667358221220d7061b0228f3934eb7a9e656a6fd7f5fbf4ff4021b9a9a33bd14721fd8c22ae664736f6c63430008070033\n}\n",
				"bytecode": {
					"linkReferences": {},
					"object": "60806040523480156200001157600080fd5b50336000806101000a81548173ffffffffffffffffffffffffffffffffffffffff021916908373ffffffffffffffffffffffffffffffffffffffff1602179055506001600460006101000a81548160ff021916908360038111156200007b576200007a62000257565b5b021790555043600181905550619d806001546200009991906200018b565b6002819055506040518060200160405280600081525060039080519060200190620000c6929190620000db565b50662386f26fc10000600881905550620002b5565b828054620000e990620001f2565b90600052602060002090601f0160209004810192826200010d576000855562000159565b82601f106200012857805160ff191683800117855562000159565b8280016001018555821562000159579182015b82811115620001585782518255916020019190600101906200013b565b5b5090506200016891906200016c565b5090565b5b80821115620001875760008160009055506001016200016d565b5090565b60006200019882620001e8565b9150620001a583620001e8565b9250827fffffffffffffffffffffffffffffffffffffffffffffffffffffffffffffffff03821115620001dd57620001dc62000228565b5b828201905092915050565b6000819050919050565b600060028204905060018216806200020b57607f821691505b6020821081141562000222576200022162000286565b5b50919050565b7f4e487b7100000000000000000000000000000000000000000000000000000000600052601160045260246000fd5b7f4e487b7100000000000000000000000000000000000000000000000000000000600052602160045260246000fd5b7f4e487b7100000000000000000000000000000000000000000000000000000000600052602260045260246000fd5b61096c80620002c56000396000f3fe6080604052600436106100865760003560e01c80637fb45099116100595780637fb45099146101495780638da5cb5b1461017457806391f901571461019f578063ecfc7ecc146101ca578063f5b56c56146101d457610086565b8063083c63231461008b57806348cd4cb1146100b65780634ec4d531146100e157806362ea82db1461010c575b600080fd5b34801561009757600080fd5b506100a06101ff565b6040516100ad9190610703565b60405180910390f35b3480156100c257600080fd5b506100cb610205565b6040516100d89190610703565b60405180910390f35b3480156100ed57600080fd5b506100f661020b565b60405161010391906106e1565b60405180910390f35b34801561011857600080fd5b50610133600480360381019061012e9190610618565b610299565b6040516101409190610703565b60405180910390f35b34801561015557600080fd5b5061015e6102b1565b60405161016b91906106c6565b60405180910390f35b34801561018057600080fd5b506101896102c4565b60405161019691906106ab565b60405180910390f35b3480156101ab57600080fd5b506101b46102e8565b6040516101c191906106ab565b60405180910390f35b6101d261030e565b005b3480156101e057600080fd5b506101e96105e2565b6040516101f69190610703565b60405180910390f35b60025481565b60015481565b6003805461021890610836565b80601f016020809104026020016040519081016040528092919081815260200182805461024490610836565b80156102915780601f1061026657610100808354040283529160200191610291565b820191906000526020600020905b81548152906001019060200180831161027457829003601f168201915b505050505081565b60076020528060005260406000206000915090505481565b600460009054906101000a900460ff1681565b60008054906101000a900473ffffffffffffffffffffffffffffffffffffffff1681565b600660009054906101000a900473ffffffffffffffffffffffffffffffffffffffff1681565b60008054906101000a900473ffffffffffffffffffffffffffffffffffffffff1673ffffffffffffffffffffffffffffffffffffffff163373ffffffffffffffffffffffffffffffffffffffff16141561036757600080fd5b60015443101561037657600080fd5b60025443111561038557600080fd5b6001600381111561039957610398610897565b5b600460009054906101000a900460ff1660038111156103bb576103ba610897565b5b146103c557600080fd5b6008543410156103d457600080fd5b600034600760003373ffffffffffffffffffffffffffffffffffffffff1673ffffffffffffffffffffffffffffffffffffffff16815260200190815260200160002054610421919061073a565b9050600554811161043157600080fd5b80600760003373ffffffffffffffffffffffffffffffffffffffff1673ffffffffffffffffffffffffffffffffffffffff1681526020019081526020016000208190555060076000600660009054906101000a900473ffffffffffffffffffffffffffffffffffffffff1673ffffffffffffffffffffffffffffffffffffffff1673ffffffffffffffffffffffffffffffffffffffff16815260200190815260200160002054811161056057610555600854826104ee919061073a565b60076000600660009054906101000a900473ffffffffffffffffffffffffffffffffffffffff1673ffffffffffffffffffffffffffffffffffffffff1673ffffffffffffffffffffffffffffffffffffffff168152602001908152602001600020546105e8565b6005819055506105df565b6105d860085460076000600660009054906101000a900473ffffffffffffffffffffffffffffffffffffffff1673ffffffffffffffffffffffffffffffffffffffff1673ffffffffffffffffffffffffffffffffffffffff168152602001908152602001600020546105d2919061073a565b826105e8565b6005819055505b50565b60055481565b60008183116105f9578290506105fd565b8190505b92915050565b6000813590506106128161091f565b92915050565b60006020828403121561062e5761062d6108f5565b5b600061063c84828501610603565b91505092915050565b61064e816107a2565b82525050565b61065d816107f1565b82525050565b600061066e8261071e565b6106788185610729565b9350610688818560208601610803565b610691816108fa565b840191505092915050565b6106a5816107e7565b82525050565b60006020820190506106c06000830184610645565b92915050565b60006020820190506106db6000830184610654565b92915050565b600060208201905081810360008301526106fb8184610663565b905092915050565b6000602082019050610718600083018461069c565b92915050565b600081519050919050565b600082825260208201905092915050565b6000610745826107e7565b9150610750836107e7565b9250827fffffffffffffffffffffffffffffffffffffffffffffffffffffffffffffffff0382111561078557610784610868565b5b828201905092915050565b600061079b826107c7565b9050919050565b60006107ad826107c7565b9050919050565b60008190506107c28261090b565b919050565b600073ffffffffffffffffffffffffffffffffffffffff82169050919050565b6000819050919050565b60006107fc826107b4565b9050919050565b60005b83811015610821578082015181840152602081019050610806565b83811115610830576000848401525b50505050565b6000600282049050600182168061084e57607f821691505b60208210811415610862576108616108c6565b5b50919050565b7f4e487b7100000000000000000000000000000000000000000000000000000000600052601160045260246000fd5b7f4e487b7100000000000000000000000000000000000000000000000000000000600052602160045260246000fd5b7f4e487b7100000000000000000000000000000000000000000000000000000000600052602260045260246000fd5b600080fd5b6000601f19601f8301169050919050565b6004811061091c5761091b610897565b5b50565b61092881610790565b811461093357600080fd5b5056fea2646970667358221220d7061b0228f3934eb7a9e656a6fd7f5fbf4ff4021b9a9a33bd14721fd8c22ae664736f6c63430008070033",
					"opcodes": "PUSH1 0x80 PUSH1 0x40 MSTORE CALLVALUE DUP1 ISZERO PUSH3 0x11 JUMPI PUSH1 0x0 DUP1 REVERT JUMPDEST POP CALLER PUSH1 0x0 DUP1 PUSH2 0x100 EXP DUP2 SLOAD DUP2 PUSH20 0xFFFFFFFFFFFFFFFFFFFFFFFFFFFFFFFFFFFFFFFF MUL NOT AND SWAP1 DUP4 PUSH20 0xFFFFFFFFFFFFFFFFFFFFFFFFFFFFFFFFFFFFFFFF AND MUL OR SWAP1 SSTORE POP PUSH1 0x1 PUSH1 0x4 PUSH1 0x0 PUSH2 0x100 EXP DUP2 SLOAD DUP2 PUSH1 0xFF MUL NOT AND SWAP1 DUP4 PUSH1 0x3 DUP2 GT ISZERO PUSH3 0x7B JUMPI PUSH3 0x7A PUSH3 0x257 JUMP JUMPDEST JUMPDEST MUL OR SWAP1 SSTORE POP NUMBER PUSH1 0x1 DUP2 SWAP1 SSTORE POP PUSH2 0x9D80 PUSH1 0x1 SLOAD PUSH3 0x99 SWAP2 SWAP1 PUSH3 0x18B JUMP JUMPDEST PUSH1 0x2 DUP2 SWAP1 SSTORE POP PUSH1 0x40 MLOAD DUP1 PUSH1 0x20 ADD PUSH1 0x40 MSTORE DUP1 PUSH1 0x0 DUP2 MSTORE POP PUSH1 0x3 SWAP1 DUP1 MLOAD SWAP1 PUSH1 0x20 ADD SWAP1 PUSH3 0xC6 SWAP3 SWAP2 SWAP1 PUSH3 0xDB JUMP JUMPDEST POP PUSH7 0x2386F26FC10000 PUSH1 0x8 DUP2 SWAP1 SSTORE POP PUSH3 0x2B5 JUMP JUMPDEST DUP3 DUP1 SLOAD PUSH3 0xE9 SWAP1 PUSH3 0x1F2 JUMP JUMPDEST SWAP1 PUSH1 0x0 MSTORE PUSH1 0x20 PUSH1 0x0 KECCAK256 SWAP1 PUSH1 0x1F ADD PUSH1 0x20 SWAP1 DIV DUP2 ADD SWAP3 DUP3 PUSH3 0x10D JUMPI PUSH1 0x0 DUP6 SSTORE PUSH3 0x159 JUMP JUMPDEST DUP3 PUSH1 0x1F LT PUSH3 0x128 JUMPI DUP1 MLOAD PUSH1 0xFF NOT AND DUP4 DUP1 ADD OR DUP6 SSTORE PUSH3 0x159 JUMP JUMPDEST DUP3 DUP1 ADD PUSH1 0x1 ADD DUP6 SSTORE DUP3 ISZERO PUSH3 0x159 JUMPI SWAP2 DUP3 ADD JUMPDEST DUP3 DUP2 GT ISZERO PUSH3 0x158 JUMPI DUP3 MLOAD DUP3 SSTORE SWAP2 PUSH1 0x20 ADD SWAP2 SWAP1 PUSH1 0x1 ADD SWAP1 PUSH3 0x13B JUMP JUMPDEST JUMPDEST POP SWAP1 POP PUSH3 0x168 SWAP2 SWAP1 PUSH3 0x16C JUMP JUMPDEST POP SWAP1 JUMP JUMPDEST JUMPDEST DUP1 DUP3 GT ISZERO PUSH3 0x187 JUMPI PUSH1 0x0 DUP2 PUSH1 0x0 SWAP1 SSTORE POP PUSH1 0x1 ADD PUSH3 0x16D JUMP JUMPDEST POP SWAP1 JUMP JUMPDEST PUSH1 0x0 PUSH3 0x198 DUP3 PUSH3 0x1E8 JUMP JUMPDEST SWAP2 POP PUSH3 0x1A5 DUP4 PUSH3 0x1E8 JUMP JUMPDEST SWAP3 POP DUP3 PUSH32 0xFFFFFFFFFFFFFFFFFFFFFFFFFFFFFFFFFFFFFFFFFFFFFFFFFFFFFFFFFFFFFFFF SUB DUP3 GT ISZERO PUSH3 0x1DD JUMPI PUSH3 0x1DC PUSH3 0x228 JUMP JUMPDEST JUMPDEST DUP3 DUP3 ADD SWAP1 POP SWAP3 SWAP2 POP POP JUMP JUMPDEST PUSH1 0x0 DUP2 SWAP1 POP SWAP2 SWAP1 POP JUMP JUMPDEST PUSH1 0x0 PUSH1 0x2 DUP3 DIV SWAP1 POP PUSH1 0x1 DUP3 AND DUP1 PUSH3 0x20B JUMPI PUSH1 0x7F DUP3 AND SWAP2 POP JUMPDEST PUSH1 0x20 DUP3 LT DUP2 EQ ISZERO PUSH3 0x222 JUMPI PUSH3 0x221 PUSH3 0x286 JUMP JUMPDEST JUMPDEST POP SWAP2 SWAP1 POP JUMP JUMPDEST PUSH32 0x4E487B7100000000000000000000000000000000000000000000000000000000 PUSH1 0x0 MSTORE PUSH1 0x11 PUSH1 0x4 MSTORE PUSH1 0x24 PUSH1 0x0 REVERT JUMPDEST PUSH32 0x4E487B7100000000000000000000000000000000000000000000000000000000 PUSH1 0x0 MSTORE PUSH1 0x21 PUSH1 0x4 MSTORE PUSH1 0x24 PUSH1 0x0 REVERT JUMPDEST PUSH32 0x4E487B7100000000000000000000000000000000000000000000000000000000 PUSH1 0x0 MSTORE PUSH1 0x22 PUSH1 0x4 MSTORE PUSH1 0x24 PUSH1 0x0 REVERT JUMPDEST PUSH2 0x96C DUP1 PUSH3 0x2C5 PUSH1 0x0 CODECOPY PUSH1 0x0 RETURN INVALID PUSH1 0x80 PUSH1 0x40 MSTORE PUSH1 0x4 CALLDATASIZE LT PUSH2 0x86 JUMPI PUSH1 0x0 CALLDATALOAD PUSH1 0xE0 SHR DUP1 PUSH4 0x7FB45099 GT PUSH2 0x59 JUMPI DUP1 PUSH4 0x7FB45099 EQ PUSH2 0x149 JUMPI DUP1 PUSH4 0x8DA5CB5B EQ PUSH2 0x174 JUMPI DUP1 PUSH4 0x91F90157 EQ PUSH2 0x19F JUMPI DUP1 PUSH4 0xECFC7ECC EQ PUSH2 0x1CA JUMPI DUP1 PUSH4 0xF5B56C56 EQ PUSH2 0x1D4 JUMPI PUSH2 0x86 JUMP JUMPDEST DUP1 PUSH4 0x83C6323 EQ PUSH2 0x8B JUMPI DUP1 PUSH4 0x48CD4CB1 EQ PUSH2 0xB6 JUMPI DUP1 PUSH4 0x4EC4D531 EQ PUSH2 0xE1 JUMPI DUP1 PUSH4 0x62EA82DB EQ PUSH2 0x10C JUMPI JUMPDEST PUSH1 0x0 DUP1 REVERT JUMPDEST CALLVALUE DUP1 ISZERO PUSH2 0x97 JUMPI PUSH1 0x0 DUP1 REVERT JUMPDEST POP PUSH2 0xA0 PUSH2 0x1FF JUMP JUMPDEST PUSH1 0x40 MLOAD PUSH2 0xAD SWAP2 SWAP1 PUSH2 0x703 JUMP JUMPDEST PUSH1 0x40 MLOAD DUP1 SWAP2 SUB SWAP1 RETURN JUMPDEST CALLVALUE DUP1 ISZERO PUSH2 0xC2 JUMPI PUSH1 0x0 DUP1 REVERT JUMPDEST POP PUSH2 0xCB PUSH2 0x205 JUMP JUMPDEST PUSH1 0x40 MLOAD PUSH2 0xD8 SWAP2 SWAP1 PUSH2 0x703 JUMP JUMPDEST PUSH1 0x40 MLOAD DUP1 SWAP2 SUB SWAP1 RETURN JUMPDEST CALLVALUE DUP1 ISZERO PUSH2 0xED JUMPI PUSH1 0x0 DUP1 REVERT JUMPDEST POP PUSH2 0xF6 PUSH2 0x20B JUMP JUMPDEST PUSH1 0x40 MLOAD PUSH2 0x103 SWAP2 SWAP1 PUSH2 0x6E1 JUMP JUMPDEST PUSH1 0x40 MLOAD DUP1 SWAP2 SUB SWAP1 RETURN JUMPDEST CALLVALUE DUP1 ISZERO PUSH2 0x118 JUMPI PUSH1 0x0 DUP1 REVERT JUMPDEST POP PUSH2 0x133 PUSH1 0x4 DUP1 CALLDATASIZE SUB DUP2 ADD SWAP1 PUSH2 0x12E SWAP2 SWAP1 PUSH2 0x618 JUMP JUMPDEST PUSH2 0x299 JUMP JUMPDEST PUSH1 0x40 MLOAD PUSH2 0x140 SWAP2 SWAP1 PUSH2 0x703 JUMP JUMPDEST PUSH1 0x40 MLOAD DUP1 SWAP2 SUB SWAP1 RETURN JUMPDEST CALLVALUE DUP1 ISZERO PUSH2 0x155 JUMPI PUSH1 0x0 DUP1 REVERT JUMPDEST POP PUSH2 0x15E PUSH2 0x2B1 JUMP JUMPDEST PUSH1 0x40 MLOAD PUSH2 0x16B SWAP2 SWAP1 PUSH2 0x6C6 JUMP JUMPDEST PUSH1 0x40 MLOAD DUP1 SWAP2 SUB SWAP1 RETURN JUMPDEST CALLVALUE DUP1 ISZERO PUSH2 0x180 JUMPI PUSH1 0x0 DUP1 REVERT JUMPDEST POP PUSH2 0x189 PUSH2 0x2C4 JUMP JUMPDEST PUSH1 0x40 MLOAD PUSH2 0x196 SWAP2 SWAP1 PUSH2 0x6AB JUMP JUMPDEST PUSH1 0x40 MLOAD DUP1 SWAP2 SUB SWAP1 RETURN JUMPDEST CALLVALUE DUP1 ISZERO PUSH2 0x1AB JUMPI PUSH1 0x0 DUP1 REVERT JUMPDEST POP PUSH2 0x1B4 PUSH2 0x2E8 JUMP JUMPDEST PUSH1 0x40 MLOAD PUSH2 0x1C1 SWAP2 SWAP1 PUSH2 0x6AB JUMP JUMPDEST PUSH1 0x40 MLOAD DUP1 SWAP2 SUB SWAP1 RETURN JUMPDEST PUSH2 0x1D2 PUSH2 0x30E JUMP JUMPDEST STOP JUMPDEST CALLVALUE DUP1 ISZERO PUSH2 0x1E0 JUMPI PUSH1 0x0 DUP1 REVERT JUMPDEST POP PUSH2 0x1E9 PUSH2 0x5E2 JUMP JUMPDEST PUSH1 0x40 MLOAD PUSH2 0x1F6 SWAP2 SWAP1 PUSH2 0x703 JUMP JUMPDEST PUSH1 0x40 MLOAD DUP1 SWAP2 SUB SWAP1 RETURN JUMPDEST PUSH1 0x2 SLOAD DUP2 JUMP JUMPDEST PUSH1 0x1 SLOAD DUP2 JUMP JUMPDEST PUSH1 0x3 DUP1 SLOAD PUSH2 0x218 SWAP1 PUSH2 0x836 JUMP JUMPDEST DUP1 PUSH1 0x1F ADD PUSH1 0x20 DUP1 SWAP2 DIV MUL PUSH1 0x20 ADD PUSH1 0x40 MLOAD SWAP1 DUP2 ADD PUSH1 0x40 MSTORE DUP1 SWAP3 SWAP2 SWAP1 DUP2 DUP2 MSTORE PUSH1 0x20 ADD DUP3 DUP1 SLOAD PUSH2 0x244 SWAP1 PUSH2 0x836 JUMP JUMPDEST DUP1 ISZERO PUSH2 0x291 JUMPI DUP1 PUSH1 0x1F LT PUSH2 0x266 JUMPI PUSH2 0x100 DUP1 DUP4 SLOAD DIV MUL DUP4 MSTORE SWAP2 PUSH1 0x20 ADD SWAP2 PUSH2 0x291 JUMP JUMPDEST DUP3 ADD SWAP2 SWAP1 PUSH1 0x0 MSTORE PUSH1 0x20 PUSH1 0x0 KECCAK256 SWAP1 JUMPDEST DUP2 SLOAD DUP2 MSTORE SWAP1 PUSH1 0x1 ADD SWAP1 PUSH1 0x20 ADD DUP1 DUP4 GT PUSH2 0x274 JUMPI DUP3 SWAP1 SUB PUSH1 0x1F AND DUP3 ADD SWAP2 JUMPDEST POP POP POP POP POP DUP2 JUMP JUMPDEST PUSH1 0x7 PUSH1 0x20 MSTORE DUP1 PUSH1 0x0 MSTORE PUSH1 0x40 PUSH1 0x0 KECCAK256 PUSH1 0x0 SWAP2 POP SWAP1 POP SLOAD DUP2 JUMP JUMPDEST PUSH1 0x4 PUSH1 0x0 SWAP1 SLOAD SWAP1 PUSH2 0x100 EXP SWAP1 DIV PUSH1 0xFF AND DUP2 JUMP JUMPDEST PUSH1 0x0 DUP1 SLOAD SWAP1 PUSH2 0x100 EXP SWAP1 DIV PUSH20 0xFFFFFFFFFFFFFFFFFFFFFFFFFFFFFFFFFFFFFFFF AND DUP2 JUMP JUMPDEST PUSH1 0x6 PUSH1 0x0 SWAP1 SLOAD SWAP1 PUSH2 0x100 EXP SWAP1 DIV PUSH20 0xFFFFFFFFFFFFFFFFFFFFFFFFFFFFFFFFFFFFFFFF AND DUP2 JUMP JUMPDEST PUSH1 0x0 DUP1 SLOAD SWAP1 PUSH2 0x100 EXP SWAP1 DIV PUSH20 0xFFFFFFFFFFFFFFFFFFFFFFFFFFFFFFFFFFFFFFFF AND PUSH20 0xFFFFFFFFFFFFFFFFFFFFFFFFFFFFFFFFFFFFFFFF AND CALLER PUSH20 0xFFFFFFFFFFFFFFFFFFFFFFFFFFFFFFFFFFFFFFFF AND EQ ISZERO PUSH2 0x367 JUMPI PUSH1 0x0 DUP1 REVERT JUMPDEST PUSH1 0x1 SLOAD NUMBER LT ISZERO PUSH2 0x376 JUMPI PUSH1 0x0 DUP1 REVERT JUMPDEST PUSH1 0x2 SLOAD NUMBER GT ISZERO PUSH2 0x385 JUMPI PUSH1 0x0 DUP1 REVERT JUMPDEST PUSH1 0x1 PUSH1 0x3 DUP2 GT ISZERO PUSH2 0x399 JUMPI PUSH2 0x398 PUSH2 0x897 JUMP JUMPDEST JUMPDEST PUSH1 0x4 PUSH1 0x0 SWAP1 SLOAD SWAP1 PUSH2 0x100 EXP SWAP1 DIV PUSH1 0xFF AND PUSH1 0x3 DUP2 GT ISZERO PUSH2 0x3BB JUMPI PUSH2 0x3BA PUSH2 0x897 JUMP JUMPDEST JUMPDEST EQ PUSH2 0x3C5 JUMPI PUSH1 0x0 DUP1 REVERT JUMPDEST PUSH1 0x8 SLOAD CALLVALUE LT ISZERO PUSH2 0x3D4 JUMPI PUSH1 0x0 DUP1 REVERT JUMPDEST PUSH1 0x0 CALLVALUE PUSH1 0x7 PUSH1 0x0 CALLER PUSH20 0xFFFFFFFFFFFFFFFFFFFFFFFFFFFFFFFFFFFFFFFF AND PUSH20 0xFFFFFFFFFFFFFFFFFFFFFFFFFFFFFFFFFFFFFFFF AND DUP2 MSTORE PUSH1 0x20 ADD SWAP1 DUP2 MSTORE PUSH1 0x20 ADD PUSH1 0x0 KECCAK256 SLOAD PUSH2 0x421 SWAP2 SWAP1 PUSH2 0x73A JUMP JUMPDEST SWAP1 POP PUSH1 0x5 SLOAD DUP2 GT PUSH2 0x431 JUMPI PUSH1 0x0 DUP1 REVERT JUMPDEST DUP1 PUSH1 0x7 PUSH1 0x0 CALLER PUSH20 0xFFFFFFFFFFFFFFFFFFFFFFFFFFFFFFFFFFFFFFFF AND PUSH20 0xFFFFFFFFFFFFFFFFFFFFFFFFFFFFFFFFFFFFFFFF AND DUP2 MSTORE PUSH1 0x20 ADD SWAP1 DUP2 MSTORE PUSH1 0x20 ADD PUSH1 0x0 KECCAK256 DUP2 SWAP1 SSTORE POP PUSH1 0x7 PUSH1 0x0 PUSH1 0x6 PUSH1 0x0 SWAP1 SLOAD SWAP1 PUSH2 0x100 EXP SWAP1 DIV PUSH20 0xFFFFFFFFFFFFFFFFFFFFFFFFFFFFFFFFFFFFFFFF AND PUSH20 0xFFFFFFFFFFFFFFFFFFFFFFFFFFFFFFFFFFFFFFFF AND PUSH20 0xFFFFFFFFFFFFFFFFFFFFFFFFFFFFFFFFFFFFFFFF AND DUP2 MSTORE PUSH1 0x20 ADD SWAP1 DUP2 MSTORE PUSH1 0x20 ADD PUSH1 0x0 KECCAK256 SLOAD DUP2 GT PUSH2 0x560 JUMPI PUSH2 0x555 PUSH1 0x8 SLOAD DUP3 PUSH2 0x4EE SWAP2 SWAP1 PUSH2 0x73A JUMP JUMPDEST PUSH1 0x7 PUSH1 0x0 PUSH1 0x6 PUSH1 0x0 SWAP1 SLOAD SWAP1 PUSH2 0x100 EXP SWAP1 DIV PUSH20 0xFFFFFFFFFFFFFFFFFFFFFFFFFFFFFFFFFFFFFFFF AND PUSH20 0xFFFFFFFFFFFFFFFFFFFFFFFFFFFFFFFFFFFFFFFF AND PUSH20 0xFFFFFFFFFFFFFFFFFFFFFFFFFFFFFFFFFFFFFFFF AND DUP2 MSTORE PUSH1 0x20 ADD SWAP1 DUP2 MSTORE PUSH1 0x20 ADD PUSH1 0x0 KECCAK256 SLOAD PUSH2 0x5E8 JUMP JUMPDEST PUSH1 0x5 DUP2 SWAP1 SSTORE POP PUSH2 0x5DF JUMP JUMPDEST PUSH2 0x5D8 PUSH1 0x8 SLOAD PUSH1 0x7 PUSH1 0x0 PUSH1 0x6 PUSH1 0x0 SWAP1 SLOAD SWAP1 PUSH2 0x100 EXP SWAP1 DIV PUSH20 0xFFFFFFFFFFFFFFFFFFFFFFFFFFFFFFFFFFFFFFFF AND PUSH20 0xFFFFFFFFFFFFFFFFFFFFFFFFFFFFFFFFFFFFFFFF AND PUSH20 0xFFFFFFFFFFFFFFFFFFFFFFFFFFFFFFFFFFFFFFFF AND DUP2 MSTORE PUSH1 0x20 ADD SWAP1 DUP2 MSTORE PUSH1 0x20 ADD PUSH1 0x0 KECCAK256 SLOAD PUSH2 0x5D2 SWAP2 SWAP1 PUSH2 0x73A JUMP JUMPDEST DUP3 PUSH2 0x5E8 JUMP JUMPDEST PUSH1 0x5 DUP2 SWAP1 SSTORE POP JUMPDEST POP JUMP JUMPDEST PUSH1 0x5 SLOAD DUP2 JUMP JUMPDEST PUSH1 0x0 DUP2 DUP4 GT PUSH2 0x5F9 JUMPI DUP3 SWAP1 POP PUSH2 0x5FD JUMP JUMPDEST DUP2 SWAP1 POP JUMPDEST SWAP3 SWAP2 POP POP JUMP JUMPDEST PUSH1 0x0 DUP2 CALLDATALOAD SWAP1 POP PUSH2 0x612 DUP2 PUSH2 0x91F JUMP JUMPDEST SWAP3 SWAP2 POP POP JUMP JUMPDEST PUSH1 0x0 PUSH1 0x20 DUP3 DUP5 SUB SLT ISZERO PUSH2 0x62E JUMPI PUSH2 0x62D PUSH2 0x8F5 JUMP JUMPDEST JUMPDEST PUSH1 0x0 PUSH2 0x63C DUP5 DUP3 DUP6 ADD PUSH2 0x603 JUMP JUMPDEST SWAP2 POP POP SWAP3 SWAP2 POP POP JUMP JUMPDEST PUSH2 0x64E DUP2 PUSH2 0x7A2 JUMP JUMPDEST DUP3 MSTORE POP POP JUMP JUMPDEST PUSH2 0x65D DUP2 PUSH2 0x7F1 JUMP JUMPDEST DUP3 MSTORE POP POP JUMP JUMPDEST PUSH1 0x0 PUSH2 0x66E DUP3 PUSH2 0x71E JUMP JUMPDEST PUSH2 0x678 DUP2 DUP6 PUSH2 0x729 JUMP JUMPDEST SWAP4 POP PUSH2 0x688 DUP2 DUP6 PUSH1 0x20 DUP7 ADD PUSH2 0x803 JUMP JUMPDEST PUSH2 0x691 DUP2 PUSH2 0x8FA JUMP JUMPDEST DUP5 ADD SWAP2 POP POP SWAP3 SWAP2 POP POP JUMP JUMPDEST PUSH2 0x6A5 DUP2 PUSH2 0x7E7 JUMP JUMPDEST DUP3 MSTORE POP POP JUMP JUMPDEST PUSH1 0x0 PUSH1 0x20 DUP3 ADD SWAP1 POP PUSH2 0x6C0 PUSH1 0x0 DUP4 ADD DUP5 PUSH2 0x645 JUMP JUMPDEST SWAP3 SWAP2 POP POP JUMP JUMPDEST PUSH1 0x0 PUSH1 0x20 DUP3 ADD SWAP1 POP PUSH2 0x6DB PUSH1 0x0 DUP4 ADD DUP5 PUSH2 0x654 JUMP JUMPDEST SWAP3 SWAP2 POP POP JUMP JUMPDEST PUSH1 0x0 PUSH1 0x20 DUP3 ADD SWAP1 POP DUP2 DUP2 SUB PUSH1 0x0 DUP4 ADD MSTORE PUSH2 0x6FB DUP2 DUP5 PUSH2 0x663 JUMP JUMPDEST SWAP1 POP SWAP3 SWAP2 POP POP JUMP JUMPDEST PUSH1 0x0 PUSH1 0x20 DUP3 ADD SWAP1 POP PUSH2 0x718 PUSH1 0x0 DUP4 ADD DUP5 PUSH2 0x69C JUMP JUMPDEST SWAP3 SWAP2 POP POP JUMP JUMPDEST PUSH1 0x0 DUP2 MLOAD SWAP1 POP SWAP2 SWAP1 POP JUMP JUMPDEST PUSH1 0x0 DUP3 DUP3 MSTORE PUSH1 0x20 DUP3 ADD SWAP1 POP SWAP3 SWAP2 POP POP JUMP JUMPDEST PUSH1 0x0 PUSH2 0x745 DUP3 PUSH2 0x7E7 JUMP JUMPDEST SWAP2 POP PUSH2 0x750 DUP4 PUSH2 0x7E7 JUMP JUMPDEST SWAP3 POP DUP3 PUSH32 0xFFFFFFFFFFFFFFFFFFFFFFFFFFFFFFFFFFFFFFFFFFFFFFFFFFFFFFFFFFFFFFFF SUB DUP3 GT ISZERO PUSH2 0x785 JUMPI PUSH2 0x784 PUSH2 0x868 JUMP JUMPDEST JUMPDEST DUP3 DUP3 ADD SWAP1 POP SWAP3 SWAP2 POP POP JUMP JUMPDEST PUSH1 0x0 PUSH2 0x79B DUP3 PUSH2 0x7C7 JUMP JUMPDEST SWAP1 POP SWAP2 SWAP1 POP JUMP JUMPDEST PUSH1 0x0 PUSH2 0x7AD DUP3 PUSH2 0x7C7 JUMP JUMPDEST SWAP1 POP SWAP2 SWAP1 POP JUMP JUMPDEST PUSH1 0x0 DUP2 SWAP1 POP PUSH2 0x7C2 DUP3 PUSH2 0x90B JUMP JUMPDEST SWAP2 SWAP1 POP JUMP JUMPDEST PUSH1 0x0 PUSH20 0xFFFFFFFFFFFFFFFFFFFFFFFFFFFFFFFFFFFFFFFF DUP3 AND SWAP1 POP SWAP2 SWAP1 POP JUMP JUMPDEST PUSH1 0x0 DUP2 SWAP1 POP SWAP2 SWAP1 POP JUMP JUMPDEST PUSH1 0x0 PUSH2 0x7FC DUP3 PUSH2 0x7B4 JUMP JUMPDEST SWAP1 POP SWAP2 SWAP1 POP JUMP JUMPDEST PUSH1 0x0 JUMPDEST DUP4 DUP2 LT ISZERO PUSH2 0x821 JUMPI DUP1 DUP3 ADD MLOAD DUP2 DUP5 ADD MSTORE PUSH1 0x20 DUP2 ADD SWAP1 POP PUSH2 0x806 JUMP JUMPDEST DUP4 DUP2 GT ISZERO PUSH2 0x830 JUMPI PUSH1 0x0 DUP5 DUP5 ADD MSTORE JUMPDEST POP POP POP POP JUMP JUMPDEST PUSH1 0x0 PUSH1 0x2 DUP3 DIV SWAP1 POP PUSH1 0x1 DUP3 AND DUP1 PUSH2 0x84E JUMPI PUSH1 0x7F DUP3 AND SWAP2 POP JUMPDEST PUSH1 0x20 DUP3 LT DUP2 EQ ISZERO PUSH2 0x862 JUMPI PUSH2 0x861 PUSH2 0x8C6 JUMP JUMPDEST JUMPDEST POP SWAP2 SWAP1 POP JUMP JUMPDEST PUSH32 0x4E487B7100000000000000000000000000000000000000000000000000000000 PUSH1 0x0 MSTORE PUSH1 0x11 PUSH1 0x4 MSTORE PUSH1 0x24 PUSH1 0x0 REVERT JUMPDEST PUSH32 0x4E487B7100000000000000000000000000000000000000000000000000000000 PUSH1 0x0 MSTORE PUSH1 0x21 PUSH1 0x4 MSTORE PUSH1 0x24 PUSH1 0x0 REVERT JUMPDEST PUSH32 0x4E487B7100000000000000000000000000000000000000000000000000000000 PUSH1 0x0 MSTORE PUSH1 0x22 PUSH1 0x4 MSTORE PUSH1 0x24 PUSH1 0x0 REVERT JUMPDEST PUSH1 0x0 DUP1 REVERT JUMPDEST PUSH1 0x0 PUSH1 0x1F NOT PUSH1 0x1F DUP4 ADD AND SWAP1 POP SWAP2 SWAP1 POP JUMP JUMPDEST PUSH1 0x4 DUP2 LT PUSH2 0x91C JUMPI PUSH2 0x91B PUSH2 0x897 JUMP JUMPDEST JUMPDEST POP JUMP JUMPDEST PUSH2 0x928 DUP2 PUSH2 0x790 JUMP JUMPDEST DUP2 EQ PUSH2 0x933 JUMPI PUSH1 0x0 DUP1 REVERT JUMPDEST POP JUMP INVALID LOG2 PUSH5 0x6970667358 0x22 SLT KECCAK256 0xD7 MOD SHL MUL 0x28 RETURN SWAP4 0x4E 0xB7 0xA9 0xE6 JUMP 0xA6 REVERT PUSH32 0x5FBF4FF4021B9A9A33BD14721FD8C22AE664736F6C6343000807003300000000 "
				},
				"gasEstimates": {
					"creation": {
						"codeDepositCost": "482400",
						"executionCost": "infinite",
						"totalCost": "infinite"
					},
					"external": {
						"auctionState()": "2560",
						"bids(address)": "2881",
						"endBlock()": "2430",
						"highestBidder()": "2558",
						"highestBindingBid()": "2517",
						"ipfhHash()": "infinite",
						"owner()": "2533",
						"placeBid()": "infinite",
						"startBlock()": "2452"
					},
					"internal": {
						"min(uint256,uint256)": "64"
					}
				},
				"methodIdentifiers": {
					"auctionState()": "7fb45099",
					"bids(address)": "62ea82db",
					"endBlock()": "083c6323",
					"highestBidder()": "91f90157",
					"highestBindingBid()": "f5b56c56",
					"ipfhHash()": "4ec4d531",
					"owner()": "8da5cb5b",
					"placeBid()": "ecfc7ecc",
					"startBlock()": "48cd4cb1"
				}
			},
			"storageLayout": {
				"storage": [
					{
						"astId": 3,
						"contract": "contracts/Auction.sol:Auction",
						"label": "owner",
						"offset": 0,
						"slot": "0",
						"type": "t_address_payable"
					},
					{
						"astId": 5,
						"contract": "contracts/Auction.sol:Auction",
						"label": "startBlock",
						"offset": 0,
						"slot": "1",
						"type": "t_uint256"
					},
					{
						"astId": 7,
						"contract": "contracts/Auction.sol:Auction",
						"label": "endBlock",
						"offset": 0,
						"slot": "2",
						"type": "t_uint256"
					},
					{
						"astId": 9,
						"contract": "contracts/Auction.sol:Auction",
						"label": "ipfhHash",
						"offset": 0,
						"slot": "3",
						"type": "t_string_storage"
					},
					{
						"astId": 17,
						"contract": "contracts/Auction.sol:Auction",
						"label": "auctionState",
						"offset": 0,
						"slot": "4",
						"type": "t_enum(State)14"
					},
					{
						"astId": 19,
						"contract": "contracts/Auction.sol:Auction",
						"label": "highestBindingBid",
						"offset": 0,
						"slot": "5",
						"type": "t_uint256"
					},
					{
						"astId": 21,
						"contract": "contracts/Auction.sol:Auction",
						"label": "highestBidder",
						"offset": 0,
						"slot": "6",
						"type": "t_address_payable"
					},
					{
						"astId": 25,
						"contract": "contracts/Auction.sol:Auction",
						"label": "bids",
						"offset": 0,
						"slot": "7",
						"type": "t_mapping(t_address,t_uint256)"
					},
					{
						"astId": 27,
						"contract": "contracts/Auction.sol:Auction",
						"label": "bidIncrement",
						"offset": 0,
						"slot": "8",
						"type": "t_uint256"
					}
				],
				"types": {
					"t_address": {
						"encoding": "inplace",
						"label": "address",
						"numberOfBytes": "20"
					},
					"t_address_payable": {
						"encoding": "inplace",
						"label": "address payable",
						"numberOfBytes": "20"
					},
					"t_enum(State)14": {
						"encoding": "inplace",
						"label": "enum Auction.State",
						"numberOfBytes": "1"
					},
					"t_mapping(t_address,t_uint256)": {
						"encoding": "mapping",
						"key": "t_address",
						"label": "mapping(address => uint256)",
						"numberOfBytes": "32",
						"value": "t_uint256"
					},
					"t_string_storage": {
						"encoding": "bytes",
						"label": "string",
						"numberOfBytes": "32"
					},
					"t_uint256": {
						"encoding": "inplace",
						"label": "uint256",
						"numberOfBytes": "32"
					}
				}
			},
			"userdoc": {
				"kind": "user",
				"methods": {},
				"version": 1
			}
		}
	}
}