{
	"contracts/Auction.sol": {
		"Auction": {
			"abi": [
				{
					"inputs": [],
					"stateMutability": "nonpayable",
					"type": "constructor"
				},
				{
					"inputs": [],
					"name": "auctionState",
					"outputs": [
						{
							"internalType": "enum Auction.State",
							"name": "",
							"type": "uint8"
						}
					],
					"stateMutability": "view",
					"type": "function"
				},
				{
					"inputs": [
						{
							"internalType": "address",
							"name": "",
							"type": "address"
						}
					],
					"name": "bids",
					"outputs": [
						{
							"internalType": "uint256",
							"name": "",
							"type": "uint256"
						}
					],
					"stateMutability": "view",
					"type": "function"
				},
				{
					"inputs": [],
					"name": "cancelAuction",
					"outputs": [],
					"stateMutability": "nonpayable",
					"type": "function"
				},
				{
					"inputs": [],
					"name": "endBlock",
					"outputs": [
						{
							"internalType": "uint256",
							"name": "",
							"type": "uint256"
						}
					],
					"stateMutability": "view",
					"type": "function"
				},
				{
					"inputs": [],
					"name": "finaliseAuction",
					"outputs": [],
					"stateMutability": "nonpayable",
					"type": "function"
				},
				{
					"inputs": [],
					"name": "highestBidder",
					"outputs": [
						{
							"internalType": "address payable",
							"name": "",
							"type": "address"
						}
					],
					"stateMutability": "view",
					"type": "function"
				},
				{
					"inputs": [],
					"name": "highestBindingBid",
					"outputs": [
						{
							"internalType": "uint256",
							"name": "",
							"type": "uint256"
						}
					],
					"stateMutability": "view",
					"type": "function"
				},
				{
					"inputs": [],
					"name": "ipfhHash",
					"outputs": [
						{
							"internalType": "string",
							"name": "",
							"type": "string"
						}
					],
					"stateMutability": "view",
					"type": "function"
				},
				{
					"inputs": [],
					"name": "owner",
					"outputs": [
						{
							"internalType": "address payable",
							"name": "",
							"type": "address"
						}
					],
					"stateMutability": "view",
					"type": "function"
				},
				{
					"inputs": [],
					"name": "placeBid",
					"outputs": [],
					"stateMutability": "payable",
					"type": "function"
				},
				{
					"inputs": [],
					"name": "startBlock",
					"outputs": [
						{
							"internalType": "uint256",
							"name": "",
							"type": "uint256"
						}
					],
					"stateMutability": "view",
					"type": "function"
				}
			],
			"devdoc": {
				"kind": "dev",
				"methods": {},
				"version": 1
			},
			"evm": {
				"assembly": "    /* \"contracts/Auction.sol\":70:4398  contract Auction{... */\n  mstore(0x40, 0x80)\n    /* \"contracts/Auction.sol\":585:884  constructor(){... */\n  callvalue\n  dup1\n  iszero\n  tag_1\n  jumpi\n  0x00\n  dup1\n  revert\ntag_1:\n  pop\n    /* \"contracts/Auction.sol\":624:634  msg.sender */\n  caller\n    /* \"contracts/Auction.sol\":608:613  owner */\n  0x00\n  dup1\n    /* \"contracts/Auction.sol\":608:635  owner = payable(msg.sender) */\n  0x0100\n  exp\n  dup2\n  sload\n  dup2\n  0xffffffffffffffffffffffffffffffffffffffff\n  mul\n  not\n  and\n  swap1\n  dup4\n  0xffffffffffffffffffffffffffffffffffffffff\n  and\n  mul\n  or\n  swap1\n  sstore\n  pop\n    /* \"contracts/Auction.sol\":660:673  State.Running */\n  0x01\n    /* \"contracts/Auction.sol\":645:657  auctionState */\n  0x04\n  0x00\n    /* \"contracts/Auction.sol\":645:673  auctionState = State.Running */\n  0x0100\n  exp\n  dup2\n  sload\n  dup2\n  0xff\n  mul\n  not\n  and\n  swap1\n  dup4\n  0x03\n  dup2\n  gt\n  iszero\n  tag_4\n  jumpi\n  tag_5\n  tag_6\n  jump\t// in\ntag_5:\ntag_4:\n  mul\n  or\n  swap1\n  sstore\n  pop\n    /* \"contracts/Auction.sol\":696:708  block.number */\n  number\n    /* \"contracts/Auction.sol\":683:693  startBlock */\n  0x01\n    /* \"contracts/Auction.sol\":683:708  startBlock = block.number */\n  dup2\n  swap1\n  sstore\n  pop\n    /* \"contracts/Auction.sol\":814:819  40320 */\n  0x9d80\n    /* \"contracts/Auction.sol\":801:811  startBlock */\n  sload(0x01)\n    /* \"contracts/Auction.sol\":801:819  startBlock + 40320 */\n  tag_7\n  swap2\n  swap1\n  tag_8\n  jump\t// in\ntag_7:\n    /* \"contracts/Auction.sol\":790:798  endBlock */\n  0x02\n    /* \"contracts/Auction.sol\":790:819  endBlock = startBlock + 40320 */\n  dup2\n  swap1\n  sstore\n  pop\n    /* \"contracts/Auction.sol\":829:842  ipfhHash = \"\" */\n  mload(0x40)\n  dup1\n  0x20\n  add\n  0x40\n  mstore\n  dup1\n  0x00\n  dup2\n  mstore\n  pop\n    /* \"contracts/Auction.sol\":829:837  ipfhHash */\n  0x03\n    /* \"contracts/Auction.sol\":829:842  ipfhHash = \"\" */\n  swap1\n  dup1\n  mload\n  swap1\n  0x20\n  add\n  swap1\n  tag_9\n  swap3\n  swap2\n  swap1\n  tag_10\n  jump\t// in\ntag_9:\n  pop\n    /* \"contracts/Auction.sol\":867:877  0.01 ether */\n  0x2386f26fc10000\n    /* \"contracts/Auction.sol\":852:864  bidIncrement */\n  0x08\n    /* \"contracts/Auction.sol\":852:877  bidIncrement = 0.01 ether */\n  dup2\n  swap1\n  sstore\n  pop\n    /* \"contracts/Auction.sol\":70:4398  contract Auction{... */\n  jump(tag_11)\ntag_10:\n  dup3\n  dup1\n  sload\n  tag_12\n  swap1\n  tag_13\n  jump\t// in\ntag_12:\n  swap1\n  0x00\n  mstore\n  keccak256(0x00, 0x20)\n  swap1\n  0x1f\n  add\n  0x20\n  swap1\n  div\n  dup2\n  add\n  swap3\n  dup3\n  tag_15\n  jumpi\n  0x00\n  dup6\n  sstore\n  jump(tag_14)\ntag_15:\n  dup3\n  0x1f\n  lt\n  tag_16\n  jumpi\n  dup1\n  mload\n  not(0xff)\n  and\n  dup4\n  dup1\n  add\n  or\n  dup6\n  sstore\n  jump(tag_14)\ntag_16:\n  dup3\n  dup1\n  add\n  0x01\n  add\n  dup6\n  sstore\n  dup3\n  iszero\n  tag_14\n  jumpi\n  swap2\n  dup3\n  add\ntag_17:\n  dup3\n  dup2\n  gt\n  iszero\n  tag_18\n  jumpi\n  dup3\n  mload\n  dup3\n  sstore\n  swap2\n  0x20\n  add\n  swap2\n  swap1\n  0x01\n  add\n  swap1\n  jump(tag_17)\ntag_18:\ntag_14:\n  pop\n  swap1\n  pop\n  tag_19\n  swap2\n  swap1\n  tag_20\n  jump\t// in\ntag_19:\n  pop\n  swap1\n  jump\t// out\ntag_20:\ntag_21:\n  dup1\n  dup3\n  gt\n  iszero\n  tag_22\n  jumpi\n  0x00\n  dup2\n  0x00\n  swap1\n  sstore\n  pop\n  0x01\n  add\n  jump(tag_21)\ntag_22:\n  pop\n  swap1\n  jump\t// out\n    /* \"#utility.yul\":7:312   */\ntag_8:\n    /* \"#utility.yul\":47:50   */\n  0x00\n    /* \"#utility.yul\":66:86   */\n  tag_25\n    /* \"#utility.yul\":84:85   */\n  dup3\n    /* \"#utility.yul\":66:86   */\n  tag_26\n  jump\t// in\ntag_25:\n    /* \"#utility.yul\":61:86   */\n  swap2\n  pop\n    /* \"#utility.yul\":100:120   */\n  tag_27\n    /* \"#utility.yul\":118:119   */\n  dup4\n    /* \"#utility.yul\":100:120   */\n  tag_26\n  jump\t// in\ntag_27:\n    /* \"#utility.yul\":95:120   */\n  swap3\n  pop\n    /* \"#utility.yul\":254:255   */\n  dup3\n    /* \"#utility.yul\":186:252   */\n  0xffffffffffffffffffffffffffffffffffffffffffffffffffffffffffffffff\n    /* \"#utility.yul\":182:256   */\n  sub\n    /* \"#utility.yul\":179:180   */\n  dup3\n    /* \"#utility.yul\":176:257   */\n  gt\n    /* \"#utility.yul\":173:280   */\n  iszero\n  tag_28\n  jumpi\n    /* \"#utility.yul\":260:278   */\n  tag_29\n  tag_30\n  jump\t// in\ntag_29:\n    /* \"#utility.yul\":173:280   */\ntag_28:\n    /* \"#utility.yul\":304:305   */\n  dup3\n    /* \"#utility.yul\":301:302   */\n  dup3\n    /* \"#utility.yul\":297:306   */\n  add\n    /* \"#utility.yul\":290:306   */\n  swap1\n  pop\n    /* \"#utility.yul\":7:312   */\n  swap3\n  swap2\n  pop\n  pop\n  jump\t// out\n    /* \"#utility.yul\":318:395   */\ntag_26:\n    /* \"#utility.yul\":355:362   */\n  0x00\n    /* \"#utility.yul\":384:389   */\n  dup2\n    /* \"#utility.yul\":373:389   */\n  swap1\n  pop\n    /* \"#utility.yul\":318:395   */\n  swap2\n  swap1\n  pop\n  jump\t// out\n    /* \"#utility.yul\":401:721   */\ntag_13:\n    /* \"#utility.yul\":445:451   */\n  0x00\n    /* \"#utility.yul\":482:483   */\n  0x02\n    /* \"#utility.yul\":476:480   */\n  dup3\n    /* \"#utility.yul\":472:484   */\n  div\n    /* \"#utility.yul\":462:484   */\n  swap1\n  pop\n    /* \"#utility.yul\":529:530   */\n  0x01\n    /* \"#utility.yul\":523:527   */\n  dup3\n    /* \"#utility.yul\":519:531   */\n  and\n    /* \"#utility.yul\":550:568   */\n  dup1\n    /* \"#utility.yul\":540:621   */\n  tag_33\n  jumpi\n    /* \"#utility.yul\":606:610   */\n  0x7f\n    /* \"#utility.yul\":598:604   */\n  dup3\n    /* \"#utility.yul\":594:611   */\n  and\n    /* \"#utility.yul\":584:611   */\n  swap2\n  pop\n    /* \"#utility.yul\":540:621   */\ntag_33:\n    /* \"#utility.yul\":668:670   */\n  0x20\n    /* \"#utility.yul\":660:666   */\n  dup3\n    /* \"#utility.yul\":657:671   */\n  lt\n    /* \"#utility.yul\":637:655   */\n  dup2\n    /* \"#utility.yul\":634:672   */\n  eq\n    /* \"#utility.yul\":631:715   */\n  iszero\n  tag_34\n  jumpi\n    /* \"#utility.yul\":687:705   */\n  tag_35\n  tag_36\n  jump\t// in\ntag_35:\n    /* \"#utility.yul\":631:715   */\ntag_34:\n    /* \"#utility.yul\":452:721   */\n  pop\n    /* \"#utility.yul\":401:721   */\n  swap2\n  swap1\n  pop\n  jump\t// out\n    /* \"#utility.yul\":727:907   */\ntag_30:\n    /* \"#utility.yul\":775:852   */\n  0x4e487b7100000000000000000000000000000000000000000000000000000000\n    /* \"#utility.yul\":772:773   */\n  0x00\n    /* \"#utility.yul\":765:853   */\n  mstore\n    /* \"#utility.yul\":872:876   */\n  0x11\n    /* \"#utility.yul\":869:870   */\n  0x04\n    /* \"#utility.yul\":862:877   */\n  mstore\n    /* \"#utility.yul\":896:900   */\n  0x24\n    /* \"#utility.yul\":893:894   */\n  0x00\n    /* \"#utility.yul\":886:901   */\n  revert\n    /* \"#utility.yul\":913:1093   */\ntag_6:\n    /* \"#utility.yul\":961:1038   */\n  0x4e487b7100000000000000000000000000000000000000000000000000000000\n    /* \"#utility.yul\":958:959   */\n  0x00\n    /* \"#utility.yul\":951:1039   */\n  mstore\n    /* \"#utility.yul\":1058:1062   */\n  0x21\n    /* \"#utility.yul\":1055:1056   */\n  0x04\n    /* \"#utility.yul\":1048:1063   */\n  mstore\n    /* \"#utility.yul\":1082:1086   */\n  0x24\n    /* \"#utility.yul\":1079:1080   */\n  0x00\n    /* \"#utility.yul\":1072:1087   */\n  revert\n    /* \"#utility.yul\":1099:1279   */\ntag_36:\n    /* \"#utility.yul\":1147:1224   */\n  0x4e487b7100000000000000000000000000000000000000000000000000000000\n    /* \"#utility.yul\":1144:1145   */\n  0x00\n    /* \"#utility.yul\":1137:1225   */\n  mstore\n    /* \"#utility.yul\":1244:1248   */\n  0x22\n    /* \"#utility.yul\":1241:1242   */\n  0x04\n    /* \"#utility.yul\":1234:1249   */\n  mstore\n    /* \"#utility.yul\":1268:1272   */\n  0x24\n    /* \"#utility.yul\":1265:1266   */\n  0x00\n    /* \"#utility.yul\":1258:1273   */\n  revert\n    /* \"contracts/Auction.sol\":70:4398  contract Auction{... */\ntag_11:\n  dataSize(sub_0)\n  dup1\n  dataOffset(sub_0)\n  0x00\n  codecopy\n  0x00\n  return\nstop\n\nsub_0: assembly {\n        /* \"contracts/Auction.sol\":70:4398  contract Auction{... */\n      mstore(0x40, 0x80)\n      jumpi(tag_1, lt(calldatasize, 0x04))\n      shr(0xe0, calldataload(0x00))\n      dup1\n      0x7fb45099\n      gt\n      tag_13\n      jumpi\n      dup1\n      0x7fb45099\n      eq\n      tag_7\n      jumpi\n      dup1\n      0x8da5cb5b\n      eq\n      tag_8\n      jumpi\n      dup1\n      0x8fa8b790\n      eq\n      tag_9\n      jumpi\n      dup1\n      0x91f90157\n      eq\n      tag_10\n      jumpi\n      dup1\n      0xecfc7ecc\n      eq\n      tag_11\n      jumpi\n      dup1\n      0xf5b56c56\n      eq\n      tag_12\n      jumpi\n      jump(tag_1)\n    tag_13:\n      dup1\n      0x083c6323\n      eq\n      tag_2\n      jumpi\n      dup1\n      0x48cd4cb1\n      eq\n      tag_3\n      jumpi\n      dup1\n      0x4ec4d531\n      eq\n      tag_4\n      jumpi\n      dup1\n      0x5228733f\n      eq\n      tag_5\n      jumpi\n      dup1\n      0x62ea82db\n      eq\n      tag_6\n      jumpi\n    tag_1:\n      0x00\n      dup1\n      revert\n        /* \"contracts/Auction.sol\":200:220  uint public endBlock */\n    tag_2:\n      callvalue\n      dup1\n      iszero\n      tag_14\n      jumpi\n      0x00\n      dup1\n      revert\n    tag_14:\n      pop\n      tag_15\n      tag_16\n      jump\t// in\n    tag_15:\n      mload(0x40)\n      tag_17\n      swap2\n      swap1\n      tag_18\n      jump\t// in\n    tag_17:\n      mload(0x40)\n      dup1\n      swap2\n      sub\n      swap1\n      return\n        /* \"contracts/Auction.sol\":172:194  uint public startBlock */\n    tag_3:\n      callvalue\n      dup1\n      iszero\n      tag_19\n      jumpi\n      0x00\n      dup1\n      revert\n    tag_19:\n      pop\n      tag_20\n      tag_21\n      jump\t// in\n    tag_20:\n      mload(0x40)\n      tag_22\n      swap2\n      swap1\n      tag_18\n      jump\t// in\n    tag_22:\n      mload(0x40)\n      dup1\n      swap2\n      sub\n      swap1\n      return\n        /* \"contracts/Auction.sol\":297:319  string public ipfhHash */\n    tag_4:\n      callvalue\n      dup1\n      iszero\n      tag_23\n      jumpi\n      0x00\n      dup1\n      revert\n    tag_23:\n      pop\n      tag_24\n      tag_25\n      jump\t// in\n    tag_24:\n      mload(0x40)\n      tag_26\n      swap2\n      swap1\n      tag_27\n      jump\t// in\n    tag_26:\n      mload(0x40)\n      dup1\n      swap2\n      sub\n      swap1\n      return\n        /* \"contracts/Auction.sol\":2667:4396  function finaliseAuction() public {... */\n    tag_5:\n      callvalue\n      dup1\n      iszero\n      tag_28\n      jumpi\n      0x00\n      dup1\n      revert\n    tag_28:\n      pop\n      tag_29\n      tag_30\n      jump\t// in\n    tag_29:\n      stop\n        /* \"contracts/Auction.sol\":520:554  mapping(address=>uint) public bids */\n    tag_6:\n      callvalue\n      dup1\n      iszero\n      tag_31\n      jumpi\n      0x00\n      dup1\n      revert\n    tag_31:\n      pop\n      tag_32\n      0x04\n      dup1\n      calldatasize\n      sub\n      dup2\n      add\n      swap1\n      tag_33\n      swap2\n      swap1\n      tag_34\n      jump\t// in\n    tag_33:\n      tag_35\n      jump\t// in\n    tag_32:\n      mload(0x40)\n      tag_36\n      swap2\n      swap1\n      tag_18\n      jump\t// in\n    tag_36:\n      mload(0x40)\n      dup1\n      swap2\n      sub\n      swap1\n      return\n        /* \"contracts/Auction.sol\":410:435  State public auctionState */\n    tag_7:\n      callvalue\n      dup1\n      iszero\n      tag_37\n      jumpi\n      0x00\n      dup1\n      revert\n    tag_37:\n      pop\n      tag_38\n      tag_39\n      jump\t// in\n    tag_38:\n      mload(0x40)\n      tag_40\n      swap2\n      swap1\n      tag_41\n      jump\t// in\n    tag_40:\n      mload(0x40)\n      dup1\n      swap2\n      sub\n      swap1\n      return\n        /* \"contracts/Auction.sol\":92:120  address payable public owner */\n    tag_8:\n      callvalue\n      dup1\n      iszero\n      tag_42\n      jumpi\n      0x00\n      dup1\n      revert\n    tag_42:\n      pop\n      tag_43\n      tag_44\n      jump\t// in\n    tag_43:\n      mload(0x40)\n      tag_45\n      swap2\n      swap1\n      tag_46\n      jump\t// in\n    tag_45:\n      mload(0x40)\n      dup1\n      swap2\n      sub\n      swap1\n      return\n        /* \"contracts/Auction.sol\":2573:2661  function cancelAuction() public onlyOwner{... */\n    tag_9:\n      callvalue\n      dup1\n      iszero\n      tag_47\n      jumpi\n      0x00\n      dup1\n      revert\n    tag_47:\n      pop\n      tag_48\n      tag_49\n      jump\t// in\n    tag_48:\n      stop\n        /* \"contracts/Auction.sol\":477:513  address payable public highestBidder */\n    tag_10:\n      callvalue\n      dup1\n      iszero\n      tag_50\n      jumpi\n      0x00\n      dup1\n      revert\n    tag_50:\n      pop\n      tag_51\n      tag_52\n      jump\t// in\n    tag_51:\n      mload(0x40)\n      tag_53\n      swap2\n      swap1\n      tag_46\n      jump\t// in\n    tag_53:\n      mload(0x40)\n      dup1\n      swap2\n      sub\n      swap1\n      return\n        /* \"contracts/Auction.sol\":1392:2567  function placeBid() public payable notOwner afterStart beforeEnd {... */\n    tag_11:\n      tag_54\n      tag_55\n      jump\t// in\n    tag_54:\n      stop\n        /* \"contracts/Auction.sol\":442:471  uint public highestBindingBid */\n    tag_12:\n      callvalue\n      dup1\n      iszero\n      tag_56\n      jumpi\n      0x00\n      dup1\n      revert\n    tag_56:\n      pop\n      tag_57\n      tag_58\n      jump\t// in\n    tag_57:\n      mload(0x40)\n      tag_59\n      swap2\n      swap1\n      tag_18\n      jump\t// in\n    tag_59:\n      mload(0x40)\n      dup1\n      swap2\n      sub\n      swap1\n      return\n        /* \"contracts/Auction.sol\":200:220  uint public endBlock */\n    tag_16:\n      sload(0x02)\n      dup2\n      jump\t// out\n        /* \"contracts/Auction.sol\":172:194  uint public startBlock */\n    tag_21:\n      sload(0x01)\n      dup2\n      jump\t// out\n        /* \"contracts/Auction.sol\":297:319  string public ipfhHash */\n    tag_25:\n      0x03\n      dup1\n      sload\n      tag_60\n      swap1\n      tag_61\n      jump\t// in\n    tag_60:\n      dup1\n      0x1f\n      add\n      0x20\n      dup1\n      swap2\n      div\n      mul\n      0x20\n      add\n      mload(0x40)\n      swap1\n      dup2\n      add\n      0x40\n      mstore\n      dup1\n      swap3\n      swap2\n      swap1\n      dup2\n      dup2\n      mstore\n      0x20\n      add\n      dup3\n      dup1\n      sload\n      tag_62\n      swap1\n      tag_61\n      jump\t// in\n    tag_62:\n      dup1\n      iszero\n      tag_63\n      jumpi\n      dup1\n      0x1f\n      lt\n      tag_64\n      jumpi\n      0x0100\n      dup1\n      dup4\n      sload\n      div\n      mul\n      dup4\n      mstore\n      swap2\n      0x20\n      add\n      swap2\n      jump(tag_63)\n    tag_64:\n      dup3\n      add\n      swap2\n      swap1\n      0x00\n      mstore\n      keccak256(0x00, 0x20)\n      swap1\n    tag_65:\n      dup2\n      sload\n      dup2\n      mstore\n      swap1\n      0x01\n      add\n      swap1\n      0x20\n      add\n      dup1\n      dup4\n      gt\n      tag_65\n      jumpi\n      dup3\n      swap1\n      sub\n      0x1f\n      and\n      dup3\n      add\n      swap2\n    tag_63:\n      pop\n      pop\n      pop\n      pop\n      pop\n      dup2\n      jump\t// out\n        /* \"contracts/Auction.sol\":2667:4396  function finaliseAuction() public {... */\n    tag_30:\n        /* \"contracts/Auction.sol\":2736:2751  State.Cancelled */\n      0x03\n        /* \"contracts/Auction.sol\":2720:2751  auctionState == State.Cancelled */\n      dup1\n      dup2\n      gt\n      iszero\n      tag_67\n      jumpi\n      tag_68\n      tag_69\n      jump\t// in\n    tag_68:\n    tag_67:\n        /* \"contracts/Auction.sol\":2720:2732  auctionState */\n      0x04\n      0x00\n      swap1\n      sload\n      swap1\n      0x0100\n      exp\n      swap1\n      div\n      0xff\n      and\n        /* \"contracts/Auction.sol\":2720:2751  auctionState == State.Cancelled */\n      0x03\n      dup2\n      gt\n      iszero\n      tag_70\n      jumpi\n      tag_71\n      tag_69\n      jump\t// in\n    tag_71:\n    tag_70:\n      eq\n        /* \"contracts/Auction.sol\":2720:2782  auctionState == State.Cancelled || auctionState == State.Ended */\n      dup1\n      tag_72\n      jumpi\n      pop\n        /* \"contracts/Auction.sol\":2771:2782  State.Ended */\n      0x02\n        /* \"contracts/Auction.sol\":2755:2782  auctionState == State.Ended */\n      0x03\n      dup2\n      gt\n      iszero\n      tag_73\n      jumpi\n      tag_74\n      tag_69\n      jump\t// in\n    tag_74:\n    tag_73:\n        /* \"contracts/Auction.sol\":2755:2767  auctionState */\n      0x04\n      0x00\n      swap1\n      sload\n      swap1\n      0x0100\n      exp\n      swap1\n      div\n      0xff\n      and\n        /* \"contracts/Auction.sol\":2755:2782  auctionState == State.Ended */\n      0x03\n      dup2\n      gt\n      iszero\n      tag_75\n      jumpi\n      tag_76\n      tag_69\n      jump\t// in\n    tag_76:\n    tag_75:\n      eq\n        /* \"contracts/Auction.sol\":2720:2782  auctionState == State.Cancelled || auctionState == State.Ended */\n    tag_72:\n        /* \"contracts/Auction.sol\":2711:2783  require (auctionState == State.Cancelled || auctionState == State.Ended) */\n      tag_77\n      jumpi\n      0x00\n      dup1\n      revert\n    tag_77:\n        /* \"contracts/Auction.sol\":2816:2821  owner */\n      0x00\n      dup1\n      sload\n      swap1\n      0x0100\n      exp\n      swap1\n      div\n      0xffffffffffffffffffffffffffffffffffffffff\n      and\n        /* \"contracts/Auction.sol\":2802:2821  msg.sender == owner */\n      0xffffffffffffffffffffffffffffffffffffffff\n      and\n        /* \"contracts/Auction.sol\":2802:2812  msg.sender */\n      caller\n        /* \"contracts/Auction.sol\":2802:2821  msg.sender == owner */\n      0xffffffffffffffffffffffffffffffffffffffff\n      and\n      eq\n        /* \"contracts/Auction.sol\":2802:2846  msg.sender == owner && highestBindingBid > 0 */\n      dup1\n      iszero\n      tag_78\n      jumpi\n      pop\n        /* \"contracts/Auction.sol\":2845:2846  0 */\n      0x00\n        /* \"contracts/Auction.sol\":2825:2842  highestBindingBid */\n      sload(0x05)\n        /* \"contracts/Auction.sol\":2825:2846  highestBindingBid > 0 */\n      gt\n        /* \"contracts/Auction.sol\":2802:2846  msg.sender == owner && highestBindingBid > 0 */\n    tag_78:\n        /* \"contracts/Auction.sol\":2802:2870  msg.sender == owner && highestBindingBid > 0 || bids[msg.sender] > 0 */\n      dup1\n      tag_79\n      jumpi\n      pop\n        /* \"contracts/Auction.sol\":2869:2870  0 */\n      0x00\n        /* \"contracts/Auction.sol\":2850:2854  bids */\n      0x07\n        /* \"contracts/Auction.sol\":2850:2866  bids[msg.sender] */\n      0x00\n        /* \"contracts/Auction.sol\":2855:2865  msg.sender */\n      caller\n        /* \"contracts/Auction.sol\":2850:2866  bids[msg.sender] */\n      0xffffffffffffffffffffffffffffffffffffffff\n      and\n      0xffffffffffffffffffffffffffffffffffffffff\n      and\n      dup2\n      mstore\n      0x20\n      add\n      swap1\n      dup2\n      mstore\n      0x20\n      add\n      0x00\n      keccak256\n      sload\n        /* \"contracts/Auction.sol\":2850:2870  bids[msg.sender] > 0 */\n      gt\n        /* \"contracts/Auction.sol\":2802:2870  msg.sender == owner && highestBindingBid > 0 || bids[msg.sender] > 0 */\n    tag_79:\n        /* \"contracts/Auction.sol\":2793:2871  require (msg.sender == owner && highestBindingBid > 0 || bids[msg.sender] > 0) */\n      tag_80\n      jumpi\n      0x00\n      dup1\n      revert\n    tag_80:\n        /* \"contracts/Auction.sol\":2882:2907  address payable recipient */\n      0x00\n        /* \"contracts/Auction.sol\":2918:2928  msg.sender */\n      caller\n        /* \"contracts/Auction.sol\":2882:2929  address payable recipient = payable(msg.sender) */\n      swap1\n      pop\n        /* \"contracts/Auction.sol\":2939:2949  uint value */\n      0x00\n        /* \"contracts/Auction.sol\":3071:3086  State.Cancelled */\n      0x03\n        /* \"contracts/Auction.sol\":3055:3086  auctionState == State.Cancelled */\n      dup1\n      dup2\n      gt\n      iszero\n      tag_81\n      jumpi\n      tag_82\n      tag_69\n      jump\t// in\n    tag_82:\n    tag_81:\n        /* \"contracts/Auction.sol\":3055:3067  auctionState */\n      0x04\n      0x00\n      swap1\n      sload\n      swap1\n      0x0100\n      exp\n      swap1\n      div\n      0xff\n      and\n        /* \"contracts/Auction.sol\":3055:3086  auctionState == State.Cancelled */\n      0x03\n      dup2\n      gt\n      iszero\n      tag_83\n      jumpi\n      tag_84\n      tag_69\n      jump\t// in\n    tag_84:\n    tag_83:\n      eq\n        /* \"contracts/Auction.sol\":3051:4231  if (auctionState == State.Cancelled){... */\n      iszero\n      tag_85\n      jumpi\n        /* \"contracts/Auction.sol\":3109:3113  bids */\n      0x07\n        /* \"contracts/Auction.sol\":3109:3125  bids[msg.sender] */\n      0x00\n        /* \"contracts/Auction.sol\":3114:3124  msg.sender */\n      caller\n        /* \"contracts/Auction.sol\":3109:3125  bids[msg.sender] */\n      0xffffffffffffffffffffffffffffffffffffffff\n      and\n      0xffffffffffffffffffffffffffffffffffffffff\n      and\n      dup2\n      mstore\n      0x20\n      add\n      swap1\n      dup2\n      mstore\n      0x20\n      add\n      0x00\n      keccak256\n      sload\n        /* \"contracts/Auction.sol\":3101:3125  value = bids[msg.sender] */\n      swap1\n      pop\n        /* \"contracts/Auction.sol\":3051:4231  if (auctionState == State.Cancelled){... */\n      jump(tag_86)\n    tag_85:\n        /* \"contracts/Auction.sol\":3249:3254  owner */\n      0x00\n      dup1\n      sload\n      swap1\n      0x0100\n      exp\n      swap1\n      div\n      0xffffffffffffffffffffffffffffffffffffffff\n      and\n        /* \"contracts/Auction.sol\":3235:3254  msg.sender == owner */\n      0xffffffffffffffffffffffffffffffffffffffff\n      and\n        /* \"contracts/Auction.sol\":3235:3245  msg.sender */\n      caller\n        /* \"contracts/Auction.sol\":3235:3254  msg.sender == owner */\n      0xffffffffffffffffffffffffffffffffffffffff\n      and\n      eq\n        /* \"contracts/Auction.sol\":3231:4221  if (msg.sender == owner){... */\n      iszero\n      tag_87\n      jumpi\n        /* \"contracts/Auction.sol\":3281:3298  highestBindingBid */\n      sload(0x05)\n        /* \"contracts/Auction.sol\":3273:3298  value = highestBindingBid */\n      swap1\n      pop\n        /* \"contracts/Auction.sol\":3532:3545  uint newValue */\n      0x00\n        /* \"contracts/Auction.sol\":3570:3587  highestBindingBid */\n      sload(0x05)\n        /* \"contracts/Auction.sol\":3548:3552  bids */\n      0x07\n        /* \"contracts/Auction.sol\":3548:3567  bids[highestBidder] */\n      0x00\n        /* \"contracts/Auction.sol\":3553:3566  highestBidder */\n      0x06\n      0x00\n      swap1\n      sload\n      swap1\n      0x0100\n      exp\n      swap1\n      div\n      0xffffffffffffffffffffffffffffffffffffffff\n      and\n        /* \"contracts/Auction.sol\":3548:3567  bids[highestBidder] */\n      0xffffffffffffffffffffffffffffffffffffffff\n      and\n      0xffffffffffffffffffffffffffffffffffffffff\n      and\n      dup2\n      mstore\n      0x20\n      add\n      swap1\n      dup2\n      mstore\n      0x20\n      add\n      0x00\n      keccak256\n      sload\n        /* \"contracts/Auction.sol\":3548:3587  bids[highestBidder] - highestBindingBid */\n      tag_88\n      swap2\n      swap1\n      tag_89\n      jump\t// in\n    tag_88:\n        /* \"contracts/Auction.sol\":3532:3587  uint newValue = bids[highestBidder] - highestBindingBid */\n      swap1\n      pop\n        /* \"contracts/Auction.sol\":3627:3635  newValue */\n      dup1\n        /* \"contracts/Auction.sol\":3605:3609  bids */\n      0x07\n        /* \"contracts/Auction.sol\":3605:3624  bids[highestBidder] */\n      0x00\n        /* \"contracts/Auction.sol\":3610:3623  highestBidder */\n      0x06\n      0x00\n      swap1\n      sload\n      swap1\n      0x0100\n      exp\n      swap1\n      div\n      0xffffffffffffffffffffffffffffffffffffffff\n      and\n        /* \"contracts/Auction.sol\":3605:3624  bids[highestBidder] */\n      0xffffffffffffffffffffffffffffffffffffffff\n      and\n      0xffffffffffffffffffffffffffffffffffffffff\n      and\n      dup2\n      mstore\n      0x20\n      add\n      swap1\n      dup2\n      mstore\n      0x20\n      add\n      0x00\n      keccak256\n        /* \"contracts/Auction.sol\":3605:3635  bids[highestBidder] = newValue */\n      dup2\n      swap1\n      sstore\n      pop\n        /* \"contracts/Auction.sol\":3673:3674  0 */\n      0x00\n        /* \"contracts/Auction.sol\":3653:3670  highestBindingBid */\n      0x05\n        /* \"contracts/Auction.sol\":3653:3674  highestBindingBid = 0 */\n      dup2\n      swap1\n      sstore\n      pop\n        /* \"contracts/Auction.sol\":3255:3689  {... */\n      pop\n        /* \"contracts/Auction.sol\":3231:4221  if (msg.sender == owner){... */\n      jump(tag_90)\n    tag_87:\n        /* \"contracts/Auction.sol\":3806:3819  highestBidder */\n      0x06\n      0x00\n      swap1\n      sload\n      swap1\n      0x0100\n      exp\n      swap1\n      div\n      0xffffffffffffffffffffffffffffffffffffffff\n      and\n        /* \"contracts/Auction.sol\":3792:3819  msg.sender == highestBidder */\n      0xffffffffffffffffffffffffffffffffffffffff\n      and\n        /* \"contracts/Auction.sol\":3792:3802  msg.sender */\n      caller\n        /* \"contracts/Auction.sol\":3792:3819  msg.sender == highestBidder */\n      0xffffffffffffffffffffffffffffffffffffffff\n      and\n      eq\n        /* \"contracts/Auction.sol\":3788:4221  if (msg.sender == highestBidder){ // is the auction winner... */\n      iszero\n      tag_91\n      jumpi\n        /* \"contracts/Auction.sol\":4026:4043  highestBindingBid */\n      sload(0x05)\n        /* \"contracts/Auction.sol\":4007:4011  bids */\n      0x07\n        /* \"contracts/Auction.sol\":4007:4023  bids[msg.sender] */\n      0x00\n        /* \"contracts/Auction.sol\":4012:4022  msg.sender */\n      caller\n        /* \"contracts/Auction.sol\":4007:4023  bids[msg.sender] */\n      0xffffffffffffffffffffffffffffffffffffffff\n      and\n      0xffffffffffffffffffffffffffffffffffffffff\n      and\n      dup2\n      mstore\n      0x20\n      add\n      swap1\n      dup2\n      mstore\n      0x20\n      add\n      0x00\n      keccak256\n      sload\n        /* \"contracts/Auction.sol\":4007:4043  bids[msg.sender] - highestBindingBid */\n      tag_92\n      swap2\n      swap1\n      tag_89\n      jump\t// in\n    tag_92:\n        /* \"contracts/Auction.sol\":3999:4043  value = bids[msg.sender] - highestBindingBid */\n      swap1\n      pop\n        /* \"contracts/Auction.sol\":3788:4221  if (msg.sender == highestBidder){ // is the auction winner... */\n      jump(tag_93)\n    tag_91:\n        /* \"contracts/Auction.sol\":4190:4194  bids */\n      0x07\n        /* \"contracts/Auction.sol\":4190:4206  bids[msg.sender] */\n      0x00\n        /* \"contracts/Auction.sol\":4195:4205  msg.sender */\n      caller\n        /* \"contracts/Auction.sol\":4190:4206  bids[msg.sender] */\n      0xffffffffffffffffffffffffffffffffffffffff\n      and\n      0xffffffffffffffffffffffffffffffffffffffff\n      and\n      dup2\n      mstore\n      0x20\n      add\n      swap1\n      dup2\n      mstore\n      0x20\n      add\n      0x00\n      keccak256\n      sload\n        /* \"contracts/Auction.sol\":4182:4206  value = bids[msg.sender] */\n      swap1\n      pop\n        /* \"contracts/Auction.sol\":3788:4221  if (msg.sender == highestBidder){ // is the auction winner... */\n    tag_93:\n        /* \"contracts/Auction.sol\":3231:4221  if (msg.sender == owner){... */\n    tag_90:\n        /* \"contracts/Auction.sol\":3051:4231  if (auctionState == State.Cancelled){... */\n    tag_86:\n        /* \"contracts/Auction.sol\":4264:4273  recipient */\n      dup2\n        /* \"contracts/Auction.sol\":4264:4282  recipient.transfer */\n      0xffffffffffffffffffffffffffffffffffffffff\n      and\n        /* \"contracts/Auction.sol\":4264:4289  recipient.transfer(value) */\n      0x08fc\n        /* \"contracts/Auction.sol\":4283:4288  value */\n      dup3\n        /* \"contracts/Auction.sol\":4264:4289  recipient.transfer(value) */\n      swap1\n      dup2\n      iszero\n      mul\n      swap1\n      mload(0x40)\n      0x00\n      mload(0x40)\n      dup1\n      dup4\n      sub\n      dup2\n      dup6\n      dup9\n      dup9\n      call\n      swap4\n      pop\n      pop\n      pop\n      pop\n      iszero\n      dup1\n      iszero\n      tag_95\n      jumpi\n      returndatasize\n      0x00\n      dup1\n      returndatacopy\n      revert(0x00, returndatasize)\n    tag_95:\n      pop\n        /* \"contracts/Auction.sol\":4388:4389  0 */\n      0x00\n        /* \"contracts/Auction.sol\":4369:4373  bids */\n      0x07\n        /* \"contracts/Auction.sol\":4369:4385  bids[msg.sender] */\n      0x00\n        /* \"contracts/Auction.sol\":4374:4384  msg.sender */\n      caller\n        /* \"contracts/Auction.sol\":4369:4385  bids[msg.sender] */\n      0xffffffffffffffffffffffffffffffffffffffff\n      and\n      0xffffffffffffffffffffffffffffffffffffffff\n      and\n      dup2\n      mstore\n      0x20\n      add\n      swap1\n      dup2\n      mstore\n      0x20\n      add\n      0x00\n      keccak256\n        /* \"contracts/Auction.sol\":4369:4389  bids[msg.sender] = 0 */\n      dup2\n      swap1\n      sstore\n      pop\n        /* \"contracts/Auction.sol\":2701:4396  {... */\n      pop\n      pop\n        /* \"contracts/Auction.sol\":2667:4396  function finaliseAuction() public {... */\n      jump\t// out\n        /* \"contracts/Auction.sol\":520:554  mapping(address=>uint) public bids */\n    tag_35:\n      mstore(0x20, 0x07)\n      dup1\n      0x00\n      mstore\n      keccak256(0x00, 0x40)\n      0x00\n      swap2\n      pop\n      swap1\n      pop\n      sload\n      dup2\n      jump\t// out\n        /* \"contracts/Auction.sol\":410:435  State public auctionState */\n    tag_39:\n      0x04\n      0x00\n      swap1\n      sload\n      swap1\n      0x0100\n      exp\n      swap1\n      div\n      0xff\n      and\n      dup2\n      jump\t// out\n        /* \"contracts/Auction.sol\":92:120  address payable public owner */\n    tag_44:\n      0x00\n      dup1\n      sload\n      swap1\n      0x0100\n      exp\n      swap1\n      div\n      0xffffffffffffffffffffffffffffffffffffffff\n      and\n      dup2\n      jump\t// out\n        /* \"contracts/Auction.sol\":2573:2661  function cancelAuction() public onlyOwner{... */\n    tag_49:\n        /* \"contracts/Auction.sol\":942:947  owner */\n      0x00\n      dup1\n      sload\n      swap1\n      0x0100\n      exp\n      swap1\n      div\n      0xffffffffffffffffffffffffffffffffffffffff\n      and\n        /* \"contracts/Auction.sol\":928:947  msg.sender == owner */\n      0xffffffffffffffffffffffffffffffffffffffff\n      and\n        /* \"contracts/Auction.sol\":928:938  msg.sender */\n      caller\n        /* \"contracts/Auction.sol\":928:947  msg.sender == owner */\n      0xffffffffffffffffffffffffffffffffffffffff\n      and\n      eq\n        /* \"contracts/Auction.sol\":920:948  require(msg.sender == owner) */\n      tag_97\n      jumpi\n      0x00\n      dup1\n      revert\n    tag_97:\n        /* \"contracts/Auction.sol\":2639:2654  State.Cancelled */\n      0x03\n        /* \"contracts/Auction.sol\":2624:2636  auctionState */\n      0x04\n      0x00\n        /* \"contracts/Auction.sol\":2624:2654  auctionState = State.Cancelled */\n      0x0100\n      exp\n      dup2\n      sload\n      dup2\n      0xff\n      mul\n      not\n      and\n      swap1\n      dup4\n      0x03\n      dup2\n      gt\n      iszero\n      tag_99\n      jumpi\n      tag_100\n      tag_69\n      jump\t// in\n    tag_100:\n    tag_99:\n      mul\n      or\n      swap1\n      sstore\n      pop\n        /* \"contracts/Auction.sol\":2573:2661  function cancelAuction() public onlyOwner{... */\n      jump\t// out\n        /* \"contracts/Auction.sol\":477:513  address payable public highestBidder */\n    tag_52:\n      0x06\n      0x00\n      swap1\n      sload\n      swap1\n      0x0100\n      exp\n      swap1\n      div\n      0xffffffffffffffffffffffffffffffffffffffff\n      and\n      dup2\n      jump\t// out\n        /* \"contracts/Auction.sol\":1392:2567  function placeBid() public payable notOwner afterStart beforeEnd {... */\n    tag_55:\n        /* \"contracts/Auction.sol\":1023:1028  owner */\n      0x00\n      dup1\n      sload\n      swap1\n      0x0100\n      exp\n      swap1\n      div\n      0xffffffffffffffffffffffffffffffffffffffff\n      and\n        /* \"contracts/Auction.sol\":1009:1028  msg.sender != owner */\n      0xffffffffffffffffffffffffffffffffffffffff\n      and\n        /* \"contracts/Auction.sol\":1009:1019  msg.sender */\n      caller\n        /* \"contracts/Auction.sol\":1009:1028  msg.sender != owner */\n      0xffffffffffffffffffffffffffffffffffffffff\n      and\n      eq\n      iszero\n        /* \"contracts/Auction.sol\":1001:1029  require(msg.sender != owner) */\n      tag_102\n      jumpi\n      0x00\n      dup1\n      revert\n    tag_102:\n        /* \"contracts/Auction.sol\":1108:1118  startBlock */\n      sload(0x01)\n        /* \"contracts/Auction.sol\":1092:1104  block.number */\n      number\n        /* \"contracts/Auction.sol\":1092:1118  block.number >= startBlock */\n      lt\n      iszero\n        /* \"contracts/Auction.sol\":1084:1119  require(block.number >= startBlock) */\n      tag_104\n      jumpi\n      0x00\n      dup1\n      revert\n    tag_104:\n        /* \"contracts/Auction.sol\":1197:1205  endBlock */\n      sload(0x02)\n        /* \"contracts/Auction.sol\":1181:1193  block.number */\n      number\n        /* \"contracts/Auction.sol\":1181:1205  block.number <= endBlock */\n      gt\n      iszero\n        /* \"contracts/Auction.sol\":1173:1206  require(block.number <= endBlock) */\n      tag_106\n      jumpi\n      0x00\n      dup1\n      revert\n    tag_106:\n        /* \"contracts/Auction.sol\":1531:1544  State.Running */\n      0x01\n        /* \"contracts/Auction.sol\":1515:1544  auctionState == State.Running */\n      0x03\n      dup2\n      gt\n      iszero\n      tag_108\n      jumpi\n      tag_109\n      tag_69\n      jump\t// in\n    tag_109:\n    tag_108:\n        /* \"contracts/Auction.sol\":1515:1527  auctionState */\n      0x04\n      0x00\n      swap1\n      sload\n      swap1\n      0x0100\n      exp\n      swap1\n      div\n      0xff\n      and\n        /* \"contracts/Auction.sol\":1515:1544  auctionState == State.Running */\n      0x03\n      dup2\n      gt\n      iszero\n      tag_110\n      jumpi\n      tag_111\n      tag_69\n      jump\t// in\n    tag_111:\n    tag_110:\n      eq\n        /* \"contracts/Auction.sol\":1507:1545  require(auctionState == State.Running) */\n      tag_112\n      jumpi\n      0x00\n      dup1\n      revert\n    tag_112:\n        /* \"contracts/Auction.sol\":1639:1651  bidIncrement */\n      sload(0x08)\n        /* \"contracts/Auction.sol\":1626:1635  msg.value */\n      callvalue\n        /* \"contracts/Auction.sol\":1626:1651  msg.value >= bidIncrement */\n      lt\n      iszero\n        /* \"contracts/Auction.sol\":1618:1652  require(msg.value >= bidIncrement) */\n      tag_113\n      jumpi\n      0x00\n      dup1\n      revert\n    tag_113:\n        /* \"contracts/Auction.sol\":1716:1731  uint currentBid */\n      0x00\n        /* \"contracts/Auction.sol\":1762:1771  msg.value */\n      callvalue\n        /* \"contracts/Auction.sol\":1734:1738  bids */\n      0x07\n        /* \"contracts/Auction.sol\":1734:1759  bids[payable(msg.sender)] */\n      0x00\n        /* \"contracts/Auction.sol\":1747:1757  msg.sender */\n      caller\n        /* \"contracts/Auction.sol\":1734:1759  bids[payable(msg.sender)] */\n      0xffffffffffffffffffffffffffffffffffffffff\n      and\n      0xffffffffffffffffffffffffffffffffffffffff\n      and\n      dup2\n      mstore\n      0x20\n      add\n      swap1\n      dup2\n      mstore\n      0x20\n      add\n      0x00\n      keccak256\n      sload\n        /* \"contracts/Auction.sol\":1734:1771  bids[payable(msg.sender)] + msg.value */\n      tag_114\n      swap2\n      swap1\n      tag_115\n      jump\t// in\n    tag_114:\n        /* \"contracts/Auction.sol\":1716:1771  uint currentBid = bids[payable(msg.sender)] + msg.value */\n      swap1\n      pop\n        /* \"contracts/Auction.sol\":1870:1887  highestBindingBid */\n      sload(0x05)\n        /* \"contracts/Auction.sol\":1857:1867  currentBid */\n      dup2\n        /* \"contracts/Auction.sol\":1857:1887  currentBid > highestBindingBid */\n      gt\n        /* \"contracts/Auction.sol\":1849:1888  require(currentBid > highestBindingBid) */\n      tag_116\n      jumpi\n      0x00\n      dup1\n      revert\n    tag_116:\n        /* \"contracts/Auction.sol\":1976:1986  currentBid */\n      dup1\n        /* \"contracts/Auction.sol\":1948:1952  bids */\n      0x07\n        /* \"contracts/Auction.sol\":1948:1973  bids[payable(msg.sender)] */\n      0x00\n        /* \"contracts/Auction.sol\":1961:1971  msg.sender */\n      caller\n        /* \"contracts/Auction.sol\":1948:1973  bids[payable(msg.sender)] */\n      0xffffffffffffffffffffffffffffffffffffffff\n      and\n      0xffffffffffffffffffffffffffffffffffffffff\n      and\n      dup2\n      mstore\n      0x20\n      add\n      swap1\n      dup2\n      mstore\n      0x20\n      add\n      0x00\n      keccak256\n        /* \"contracts/Auction.sol\":1948:1986  bids[payable(msg.sender)] = currentBid */\n      dup2\n      swap1\n      sstore\n      pop\n        /* \"contracts/Auction.sol\":2163:2167  bids */\n      0x07\n        /* \"contracts/Auction.sol\":2163:2182  bids[highestBidder] */\n      0x00\n        /* \"contracts/Auction.sol\":2168:2181  highestBidder */\n      0x06\n      0x00\n      swap1\n      sload\n      swap1\n      0x0100\n      exp\n      swap1\n      div\n      0xffffffffffffffffffffffffffffffffffffffff\n      and\n        /* \"contracts/Auction.sol\":2163:2182  bids[highestBidder] */\n      0xffffffffffffffffffffffffffffffffffffffff\n      and\n      0xffffffffffffffffffffffffffffffffffffffff\n      and\n      dup2\n      mstore\n      0x20\n      add\n      swap1\n      dup2\n      mstore\n      0x20\n      add\n      0x00\n      keccak256\n      sload\n        /* \"contracts/Auction.sol\":2149:2159  currentBid */\n      dup2\n        /* \"contracts/Auction.sol\":2149:2182  currentBid <= bids[highestBidder] */\n      gt\n        /* \"contracts/Auction.sol\":2145:2561  if (currentBid <= bids[highestBidder]){... */\n      tag_117\n      jumpi\n        /* \"contracts/Auction.sol\":2217:2268  min(currentBid + bidIncrement, bids[highestBidder]) */\n      tag_118\n        /* \"contracts/Auction.sol\":2234:2246  bidIncrement */\n      sload(0x08)\n        /* \"contracts/Auction.sol\":2221:2231  currentBid */\n      dup3\n        /* \"contracts/Auction.sol\":2221:2246  currentBid + bidIncrement */\n      tag_119\n      swap2\n      swap1\n      tag_115\n      jump\t// in\n    tag_119:\n        /* \"contracts/Auction.sol\":2248:2252  bids */\n      0x07\n        /* \"contracts/Auction.sol\":2248:2267  bids[highestBidder] */\n      0x00\n        /* \"contracts/Auction.sol\":2253:2266  highestBidder */\n      0x06\n      0x00\n      swap1\n      sload\n      swap1\n      0x0100\n      exp\n      swap1\n      div\n      0xffffffffffffffffffffffffffffffffffffffff\n      and\n        /* \"contracts/Auction.sol\":2248:2267  bids[highestBidder] */\n      0xffffffffffffffffffffffffffffffffffffffff\n      and\n      0xffffffffffffffffffffffffffffffffffffffff\n      and\n      dup2\n      mstore\n      0x20\n      add\n      swap1\n      dup2\n      mstore\n      0x20\n      add\n      0x00\n      keccak256\n      sload\n        /* \"contracts/Auction.sol\":2217:2220  min */\n      tag_120\n        /* \"contracts/Auction.sol\":2217:2268  min(currentBid + bidIncrement, bids[highestBidder]) */\n      jump\t// in\n    tag_118:\n        /* \"contracts/Auction.sol\":2197:2214  highestBindingBid */\n      0x05\n        /* \"contracts/Auction.sol\":2197:2268  highestBindingBid = min(currentBid + bidIncrement, bids[highestBidder]) */\n      dup2\n      swap1\n      sstore\n      pop\n        /* \"contracts/Auction.sol\":2145:2561  if (currentBid <= bids[highestBidder]){... */\n      jump(tag_121)\n    tag_117:\n        /* \"contracts/Auction.sol\":2396:2447  min(bids[highestBidder] + bidIncrement, currentBid) */\n      tag_122\n        /* \"contracts/Auction.sol\":2422:2434  bidIncrement */\n      sload(0x08)\n        /* \"contracts/Auction.sol\":2400:2404  bids */\n      0x07\n        /* \"contracts/Auction.sol\":2400:2419  bids[highestBidder] */\n      0x00\n        /* \"contracts/Auction.sol\":2405:2418  highestBidder */\n      0x06\n      0x00\n      swap1\n      sload\n      swap1\n      0x0100\n      exp\n      swap1\n      div\n      0xffffffffffffffffffffffffffffffffffffffff\n      and\n        /* \"contracts/Auction.sol\":2400:2419  bids[highestBidder] */\n      0xffffffffffffffffffffffffffffffffffffffff\n      and\n      0xffffffffffffffffffffffffffffffffffffffff\n      and\n      dup2\n      mstore\n      0x20\n      add\n      swap1\n      dup2\n      mstore\n      0x20\n      add\n      0x00\n      keccak256\n      sload\n        /* \"contracts/Auction.sol\":2400:2434  bids[highestBidder] + bidIncrement */\n      tag_123\n      swap2\n      swap1\n      tag_115\n      jump\t// in\n    tag_123:\n        /* \"contracts/Auction.sol\":2436:2446  currentBid */\n      dup3\n        /* \"contracts/Auction.sol\":2396:2399  min */\n      tag_120\n        /* \"contracts/Auction.sol\":2396:2447  min(bids[highestBidder] + bidIncrement, currentBid) */\n      jump\t// in\n    tag_122:\n        /* \"contracts/Auction.sol\":2376:2393  highestBindingBid */\n      0x05\n        /* \"contracts/Auction.sol\":2376:2447  highestBindingBid = min(bids[highestBidder] + bidIncrement, currentBid) */\n      dup2\n      swap1\n      sstore\n      pop\n        /* \"contracts/Auction.sol\":2539:2549  msg.sender */\n      caller\n        /* \"contracts/Auction.sol\":2515:2528  highestBidder */\n      0x06\n      0x00\n        /* \"contracts/Auction.sol\":2515:2550  highestBidder = payable(msg.sender) */\n      0x0100\n      exp\n      dup2\n      sload\n      dup2\n      0xffffffffffffffffffffffffffffffffffffffff\n      mul\n      not\n      and\n      swap1\n      dup4\n      0xffffffffffffffffffffffffffffffffffffffff\n      and\n      mul\n      or\n      swap1\n      sstore\n      pop\n        /* \"contracts/Auction.sol\":2145:2561  if (currentBid <= bids[highestBidder]){... */\n    tag_121:\n        /* \"contracts/Auction.sol\":1457:2567  {... */\n      pop\n        /* \"contracts/Auction.sol\":1392:2567  function placeBid() public payable notOwner afterStart beforeEnd {... */\n      jump\t// out\n        /* \"contracts/Auction.sol\":442:471  uint public highestBindingBid */\n    tag_58:\n      sload(0x05)\n      dup2\n      jump\t// out\n        /* \"contracts/Auction.sol\":1230:1386  function min(uint a, uint b) internal returns(uint){... */\n    tag_120:\n        /* \"contracts/Auction.sol\":1276:1280  uint */\n      0x00\n        /* \"contracts/Auction.sol\":1299:1300  b */\n      dup2\n        /* \"contracts/Auction.sol\":1295:1296  a */\n      dup4\n        /* \"contracts/Auction.sol\":1295:1300  a<= b */\n      gt\n        /* \"contracts/Auction.sol\":1291:1380  if (a<= b){... */\n      tag_125\n      jumpi\n        /* \"contracts/Auction.sol\":1322:1323  a */\n      dup3\n        /* \"contracts/Auction.sol\":1315:1323  return a */\n      swap1\n      pop\n      jump(tag_124)\n        /* \"contracts/Auction.sol\":1291:1380  if (a<= b){... */\n    tag_125:\n        /* \"contracts/Auction.sol\":1368:1369  b */\n      dup2\n        /* \"contracts/Auction.sol\":1361:1369  return b */\n      swap1\n      pop\n        /* \"contracts/Auction.sol\":1230:1386  function min(uint a, uint b) internal returns(uint){... */\n    tag_124:\n      swap3\n      swap2\n      pop\n      pop\n      jump\t// out\n        /* \"#utility.yul\":7:146   */\n    tag_128:\n        /* \"#utility.yul\":53:58   */\n      0x00\n        /* \"#utility.yul\":91:97   */\n      dup2\n        /* \"#utility.yul\":78:98   */\n      calldataload\n        /* \"#utility.yul\":69:98   */\n      swap1\n      pop\n        /* \"#utility.yul\":107:140   */\n      tag_130\n        /* \"#utility.yul\":134:139   */\n      dup2\n        /* \"#utility.yul\":107:140   */\n      tag_131\n      jump\t// in\n    tag_130:\n        /* \"#utility.yul\":7:146   */\n      swap3\n      swap2\n      pop\n      pop\n      jump\t// out\n        /* \"#utility.yul\":152:481   */\n    tag_34:\n        /* \"#utility.yul\":211:217   */\n      0x00\n        /* \"#utility.yul\":260:262   */\n      0x20\n        /* \"#utility.yul\":248:257   */\n      dup3\n        /* \"#utility.yul\":239:246   */\n      dup5\n        /* \"#utility.yul\":235:258   */\n      sub\n        /* \"#utility.yul\":231:263   */\n      slt\n        /* \"#utility.yul\":228:347   */\n      iszero\n      tag_133\n      jumpi\n        /* \"#utility.yul\":266:345   */\n      tag_134\n      tag_135\n      jump\t// in\n    tag_134:\n        /* \"#utility.yul\":228:347   */\n    tag_133:\n        /* \"#utility.yul\":386:387   */\n      0x00\n        /* \"#utility.yul\":411:464   */\n      tag_136\n        /* \"#utility.yul\":456:463   */\n      dup5\n        /* \"#utility.yul\":447:453   */\n      dup3\n        /* \"#utility.yul\":436:445   */\n      dup6\n        /* \"#utility.yul\":432:454   */\n      add\n        /* \"#utility.yul\":411:464   */\n      tag_128\n      jump\t// in\n    tag_136:\n        /* \"#utility.yul\":401:464   */\n      swap2\n      pop\n        /* \"#utility.yul\":357:474   */\n      pop\n        /* \"#utility.yul\":152:481   */\n      swap3\n      swap2\n      pop\n      pop\n      jump\t// out\n        /* \"#utility.yul\":487:629   */\n    tag_137:\n        /* \"#utility.yul\":590:622   */\n      tag_139\n        /* \"#utility.yul\":616:621   */\n      dup2\n        /* \"#utility.yul\":590:622   */\n      tag_140\n      jump\t// in\n    tag_139:\n        /* \"#utility.yul\":585:588   */\n      dup3\n        /* \"#utility.yul\":578:623   */\n      mstore\n        /* \"#utility.yul\":487:629   */\n      pop\n      pop\n      jump\t// out\n        /* \"#utility.yul\":635:778   */\n    tag_141:\n        /* \"#utility.yul\":728:771   */\n      tag_143\n        /* \"#utility.yul\":765:770   */\n      dup2\n        /* \"#utility.yul\":728:771   */\n      tag_144\n      jump\t// in\n    tag_143:\n        /* \"#utility.yul\":723:726   */\n      dup3\n        /* \"#utility.yul\":716:772   */\n      mstore\n        /* \"#utility.yul\":635:778   */\n      pop\n      pop\n      jump\t// out\n        /* \"#utility.yul\":784:1148   */\n    tag_145:\n        /* \"#utility.yul\":872:875   */\n      0x00\n        /* \"#utility.yul\":900:939   */\n      tag_147\n        /* \"#utility.yul\":933:938   */\n      dup3\n        /* \"#utility.yul\":900:939   */\n      tag_148\n      jump\t// in\n    tag_147:\n        /* \"#utility.yul\":955:1026   */\n      tag_149\n        /* \"#utility.yul\":1019:1025   */\n      dup2\n        /* \"#utility.yul\":1014:1017   */\n      dup6\n        /* \"#utility.yul\":955:1026   */\n      tag_150\n      jump\t// in\n    tag_149:\n        /* \"#utility.yul\":948:1026   */\n      swap4\n      pop\n        /* \"#utility.yul\":1035:1087   */\n      tag_151\n        /* \"#utility.yul\":1080:1086   */\n      dup2\n        /* \"#utility.yul\":1075:1078   */\n      dup6\n        /* \"#utility.yul\":1068:1072   */\n      0x20\n        /* \"#utility.yul\":1061:1066   */\n      dup7\n        /* \"#utility.yul\":1057:1073   */\n      add\n        /* \"#utility.yul\":1035:1087   */\n      tag_152\n      jump\t// in\n    tag_151:\n        /* \"#utility.yul\":1112:1141   */\n      tag_153\n        /* \"#utility.yul\":1134:1140   */\n      dup2\n        /* \"#utility.yul\":1112:1141   */\n      tag_154\n      jump\t// in\n    tag_153:\n        /* \"#utility.yul\":1107:1110   */\n      dup5\n        /* \"#utility.yul\":1103:1142   */\n      add\n        /* \"#utility.yul\":1096:1142   */\n      swap2\n      pop\n        /* \"#utility.yul\":876:1148   */\n      pop\n        /* \"#utility.yul\":784:1148   */\n      swap3\n      swap2\n      pop\n      pop\n      jump\t// out\n        /* \"#utility.yul\":1154:1272   */\n    tag_155:\n        /* \"#utility.yul\":1241:1265   */\n      tag_157\n        /* \"#utility.yul\":1259:1264   */\n      dup2\n        /* \"#utility.yul\":1241:1265   */\n      tag_158\n      jump\t// in\n    tag_157:\n        /* \"#utility.yul\":1236:1239   */\n      dup3\n        /* \"#utility.yul\":1229:1266   */\n      mstore\n        /* \"#utility.yul\":1154:1272   */\n      pop\n      pop\n      jump\t// out\n        /* \"#utility.yul\":1278:1532   */\n    tag_46:\n        /* \"#utility.yul\":1387:1391   */\n      0x00\n        /* \"#utility.yul\":1425:1427   */\n      0x20\n        /* \"#utility.yul\":1414:1423   */\n      dup3\n        /* \"#utility.yul\":1410:1428   */\n      add\n        /* \"#utility.yul\":1402:1428   */\n      swap1\n      pop\n        /* \"#utility.yul\":1438:1525   */\n      tag_160\n        /* \"#utility.yul\":1522:1523   */\n      0x00\n        /* \"#utility.yul\":1511:1520   */\n      dup4\n        /* \"#utility.yul\":1507:1524   */\n      add\n        /* \"#utility.yul\":1498:1504   */\n      dup5\n        /* \"#utility.yul\":1438:1525   */\n      tag_137\n      jump\t// in\n    tag_160:\n        /* \"#utility.yul\":1278:1532   */\n      swap3\n      swap2\n      pop\n      pop\n      jump\t// out\n        /* \"#utility.yul\":1538:1772   */\n    tag_41:\n        /* \"#utility.yul\":1637:1641   */\n      0x00\n        /* \"#utility.yul\":1675:1677   */\n      0x20\n        /* \"#utility.yul\":1664:1673   */\n      dup3\n        /* \"#utility.yul\":1660:1678   */\n      add\n        /* \"#utility.yul\":1652:1678   */\n      swap1\n      pop\n        /* \"#utility.yul\":1688:1765   */\n      tag_162\n        /* \"#utility.yul\":1762:1763   */\n      0x00\n        /* \"#utility.yul\":1751:1760   */\n      dup4\n        /* \"#utility.yul\":1747:1764   */\n      add\n        /* \"#utility.yul\":1738:1744   */\n      dup5\n        /* \"#utility.yul\":1688:1765   */\n      tag_141\n      jump\t// in\n    tag_162:\n        /* \"#utility.yul\":1538:1772   */\n      swap3\n      swap2\n      pop\n      pop\n      jump\t// out\n        /* \"#utility.yul\":1778:2091   */\n    tag_27:\n        /* \"#utility.yul\":1891:1895   */\n      0x00\n        /* \"#utility.yul\":1929:1931   */\n      0x20\n        /* \"#utility.yul\":1918:1927   */\n      dup3\n        /* \"#utility.yul\":1914:1932   */\n      add\n        /* \"#utility.yul\":1906:1932   */\n      swap1\n      pop\n        /* \"#utility.yul\":1978:1987   */\n      dup2\n        /* \"#utility.yul\":1972:1976   */\n      dup2\n        /* \"#utility.yul\":1968:1988   */\n      sub\n        /* \"#utility.yul\":1964:1965   */\n      0x00\n        /* \"#utility.yul\":1953:1962   */\n      dup4\n        /* \"#utility.yul\":1949:1966   */\n      add\n        /* \"#utility.yul\":1942:1989   */\n      mstore\n        /* \"#utility.yul\":2006:2084   */\n      tag_164\n        /* \"#utility.yul\":2079:2083   */\n      dup2\n        /* \"#utility.yul\":2070:2076   */\n      dup5\n        /* \"#utility.yul\":2006:2084   */\n      tag_145\n      jump\t// in\n    tag_164:\n        /* \"#utility.yul\":1998:2084   */\n      swap1\n      pop\n        /* \"#utility.yul\":1778:2091   */\n      swap3\n      swap2\n      pop\n      pop\n      jump\t// out\n        /* \"#utility.yul\":2097:2319   */\n    tag_18:\n        /* \"#utility.yul\":2190:2194   */\n      0x00\n        /* \"#utility.yul\":2228:2230   */\n      0x20\n        /* \"#utility.yul\":2217:2226   */\n      dup3\n        /* \"#utility.yul\":2213:2231   */\n      add\n        /* \"#utility.yul\":2205:2231   */\n      swap1\n      pop\n        /* \"#utility.yul\":2241:2312   */\n      tag_166\n        /* \"#utility.yul\":2309:2310   */\n      0x00\n        /* \"#utility.yul\":2298:2307   */\n      dup4\n        /* \"#utility.yul\":2294:2311   */\n      add\n        /* \"#utility.yul\":2285:2291   */\n      dup5\n        /* \"#utility.yul\":2241:2312   */\n      tag_155\n      jump\t// in\n    tag_166:\n        /* \"#utility.yul\":2097:2319   */\n      swap3\n      swap2\n      pop\n      pop\n      jump\t// out\n        /* \"#utility.yul\":2406:2505   */\n    tag_148:\n        /* \"#utility.yul\":2458:2464   */\n      0x00\n        /* \"#utility.yul\":2492:2497   */\n      dup2\n        /* \"#utility.yul\":2486:2498   */\n      mload\n        /* \"#utility.yul\":2476:2498   */\n      swap1\n      pop\n        /* \"#utility.yul\":2406:2505   */\n      swap2\n      swap1\n      pop\n      jump\t// out\n        /* \"#utility.yul\":2511:2680   */\n    tag_150:\n        /* \"#utility.yul\":2595:2606   */\n      0x00\n        /* \"#utility.yul\":2629:2635   */\n      dup3\n        /* \"#utility.yul\":2624:2627   */\n      dup3\n        /* \"#utility.yul\":2617:2636   */\n      mstore\n        /* \"#utility.yul\":2669:2673   */\n      0x20\n        /* \"#utility.yul\":2664:2667   */\n      dup3\n        /* \"#utility.yul\":2660:2674   */\n      add\n        /* \"#utility.yul\":2645:2674   */\n      swap1\n      pop\n        /* \"#utility.yul\":2511:2680   */\n      swap3\n      swap2\n      pop\n      pop\n      jump\t// out\n        /* \"#utility.yul\":2686:2991   */\n    tag_115:\n        /* \"#utility.yul\":2726:2729   */\n      0x00\n        /* \"#utility.yul\":2745:2765   */\n      tag_172\n        /* \"#utility.yul\":2763:2764   */\n      dup3\n        /* \"#utility.yul\":2745:2765   */\n      tag_158\n      jump\t// in\n    tag_172:\n        /* \"#utility.yul\":2740:2765   */\n      swap2\n      pop\n        /* \"#utility.yul\":2779:2799   */\n      tag_173\n        /* \"#utility.yul\":2797:2798   */\n      dup4\n        /* \"#utility.yul\":2779:2799   */\n      tag_158\n      jump\t// in\n    tag_173:\n        /* \"#utility.yul\":2774:2799   */\n      swap3\n      pop\n        /* \"#utility.yul\":2933:2934   */\n      dup3\n        /* \"#utility.yul\":2865:2931   */\n      0xffffffffffffffffffffffffffffffffffffffffffffffffffffffffffffffff\n        /* \"#utility.yul\":2861:2935   */\n      sub\n        /* \"#utility.yul\":2858:2859   */\n      dup3\n        /* \"#utility.yul\":2855:2936   */\n      gt\n        /* \"#utility.yul\":2852:2959   */\n      iszero\n      tag_174\n      jumpi\n        /* \"#utility.yul\":2939:2957   */\n      tag_175\n      tag_176\n      jump\t// in\n    tag_175:\n        /* \"#utility.yul\":2852:2959   */\n    tag_174:\n        /* \"#utility.yul\":2983:2984   */\n      dup3\n        /* \"#utility.yul\":2980:2981   */\n      dup3\n        /* \"#utility.yul\":2976:2985   */\n      add\n        /* \"#utility.yul\":2969:2985   */\n      swap1\n      pop\n        /* \"#utility.yul\":2686:2991   */\n      swap3\n      swap2\n      pop\n      pop\n      jump\t// out\n        /* \"#utility.yul\":2997:3188   */\n    tag_89:\n        /* \"#utility.yul\":3037:3041   */\n      0x00\n        /* \"#utility.yul\":3057:3077   */\n      tag_178\n        /* \"#utility.yul\":3075:3076   */\n      dup3\n        /* \"#utility.yul\":3057:3077   */\n      tag_158\n      jump\t// in\n    tag_178:\n        /* \"#utility.yul\":3052:3077   */\n      swap2\n      pop\n        /* \"#utility.yul\":3091:3111   */\n      tag_179\n        /* \"#utility.yul\":3109:3110   */\n      dup4\n        /* \"#utility.yul\":3091:3111   */\n      tag_158\n      jump\t// in\n    tag_179:\n        /* \"#utility.yul\":3086:3111   */\n      swap3\n      pop\n        /* \"#utility.yul\":3130:3131   */\n      dup3\n        /* \"#utility.yul\":3127:3128   */\n      dup3\n        /* \"#utility.yul\":3124:3132   */\n      lt\n        /* \"#utility.yul\":3121:3155   */\n      iszero\n      tag_180\n      jumpi\n        /* \"#utility.yul\":3135:3153   */\n      tag_181\n      tag_176\n      jump\t// in\n    tag_181:\n        /* \"#utility.yul\":3121:3155   */\n    tag_180:\n        /* \"#utility.yul\":3180:3181   */\n      dup3\n        /* \"#utility.yul\":3177:3178   */\n      dup3\n        /* \"#utility.yul\":3173:3182   */\n      sub\n        /* \"#utility.yul\":3165:3182   */\n      swap1\n      pop\n        /* \"#utility.yul\":2997:3188   */\n      swap3\n      swap2\n      pop\n      pop\n      jump\t// out\n        /* \"#utility.yul\":3194:3290   */\n    tag_182:\n        /* \"#utility.yul\":3231:3238   */\n      0x00\n        /* \"#utility.yul\":3260:3284   */\n      tag_184\n        /* \"#utility.yul\":3278:3283   */\n      dup3\n        /* \"#utility.yul\":3260:3284   */\n      tag_185\n      jump\t// in\n    tag_184:\n        /* \"#utility.yul\":3249:3284   */\n      swap1\n      pop\n        /* \"#utility.yul\":3194:3290   */\n      swap2\n      swap1\n      pop\n      jump\t// out\n        /* \"#utility.yul\":3296:3400   */\n    tag_140:\n        /* \"#utility.yul\":3341:3348   */\n      0x00\n        /* \"#utility.yul\":3370:3394   */\n      tag_187\n        /* \"#utility.yul\":3388:3393   */\n      dup3\n        /* \"#utility.yul\":3370:3394   */\n      tag_185\n      jump\t// in\n    tag_187:\n        /* \"#utility.yul\":3359:3394   */\n      swap1\n      pop\n        /* \"#utility.yul\":3296:3400   */\n      swap2\n      swap1\n      pop\n      jump\t// out\n        /* \"#utility.yul\":3406:3533   */\n    tag_188:\n        /* \"#utility.yul\":3451:3458   */\n      0x00\n        /* \"#utility.yul\":3480:3485   */\n      dup2\n        /* \"#utility.yul\":3469:3485   */\n      swap1\n      pop\n        /* \"#utility.yul\":3486:3527   */\n      tag_190\n        /* \"#utility.yul\":3521:3526   */\n      dup3\n        /* \"#utility.yul\":3486:3527   */\n      tag_191\n      jump\t// in\n    tag_190:\n        /* \"#utility.yul\":3406:3533   */\n      swap2\n      swap1\n      pop\n      jump\t// out\n        /* \"#utility.yul\":3539:3665   */\n    tag_185:\n        /* \"#utility.yul\":3576:3583   */\n      0x00\n        /* \"#utility.yul\":3616:3658   */\n      0xffffffffffffffffffffffffffffffffffffffff\n        /* \"#utility.yul\":3609:3614   */\n      dup3\n        /* \"#utility.yul\":3605:3659   */\n      and\n        /* \"#utility.yul\":3594:3659   */\n      swap1\n      pop\n        /* \"#utility.yul\":3539:3665   */\n      swap2\n      swap1\n      pop\n      jump\t// out\n        /* \"#utility.yul\":3671:3748   */\n    tag_158:\n        /* \"#utility.yul\":3708:3715   */\n      0x00\n        /* \"#utility.yul\":3737:3742   */\n      dup2\n        /* \"#utility.yul\":3726:3742   */\n      swap1\n      pop\n        /* \"#utility.yul\":3671:3748   */\n      swap2\n      swap1\n      pop\n      jump\t// out\n        /* \"#utility.yul\":3754:3881   */\n    tag_144:\n        /* \"#utility.yul\":3810:3819   */\n      0x00\n        /* \"#utility.yul\":3843:3875   */\n      tag_195\n        /* \"#utility.yul\":3869:3874   */\n      dup3\n        /* \"#utility.yul\":3843:3875   */\n      tag_188\n      jump\t// in\n    tag_195:\n        /* \"#utility.yul\":3830:3875   */\n      swap1\n      pop\n        /* \"#utility.yul\":3754:3881   */\n      swap2\n      swap1\n      pop\n      jump\t// out\n        /* \"#utility.yul\":3887:4194   */\n    tag_152:\n        /* \"#utility.yul\":3955:3956   */\n      0x00\n        /* \"#utility.yul\":3965:4078   */\n    tag_197:\n        /* \"#utility.yul\":3979:3985   */\n      dup4\n        /* \"#utility.yul\":3976:3977   */\n      dup2\n        /* \"#utility.yul\":3973:3986   */\n      lt\n        /* \"#utility.yul\":3965:4078   */\n      iszero\n      tag_199\n      jumpi\n        /* \"#utility.yul\":4064:4065   */\n      dup1\n        /* \"#utility.yul\":4059:4062   */\n      dup3\n        /* \"#utility.yul\":4055:4066   */\n      add\n        /* \"#utility.yul\":4049:4067   */\n      mload\n        /* \"#utility.yul\":4045:4046   */\n      dup2\n        /* \"#utility.yul\":4040:4043   */\n      dup5\n        /* \"#utility.yul\":4036:4047   */\n      add\n        /* \"#utility.yul\":4029:4068   */\n      mstore\n        /* \"#utility.yul\":4001:4003   */\n      0x20\n        /* \"#utility.yul\":3998:3999   */\n      dup2\n        /* \"#utility.yul\":3994:4004   */\n      add\n        /* \"#utility.yul\":3989:4004   */\n      swap1\n      pop\n        /* \"#utility.yul\":3965:4078   */\n      jump(tag_197)\n    tag_199:\n        /* \"#utility.yul\":4096:4102   */\n      dup4\n        /* \"#utility.yul\":4093:4094   */\n      dup2\n        /* \"#utility.yul\":4090:4103   */\n      gt\n        /* \"#utility.yul\":4087:4188   */\n      iszero\n      tag_200\n      jumpi\n        /* \"#utility.yul\":4176:4177   */\n      0x00\n        /* \"#utility.yul\":4167:4173   */\n      dup5\n        /* \"#utility.yul\":4162:4165   */\n      dup5\n        /* \"#utility.yul\":4158:4174   */\n      add\n        /* \"#utility.yul\":4151:4178   */\n      mstore\n        /* \"#utility.yul\":4087:4188   */\n    tag_200:\n        /* \"#utility.yul\":3936:4194   */\n      pop\n        /* \"#utility.yul\":3887:4194   */\n      pop\n      pop\n      pop\n      jump\t// out\n        /* \"#utility.yul\":4200:4520   */\n    tag_61:\n        /* \"#utility.yul\":4244:4250   */\n      0x00\n        /* \"#utility.yul\":4281:4282   */\n      0x02\n        /* \"#utility.yul\":4275:4279   */\n      dup3\n        /* \"#utility.yul\":4271:4283   */\n      div\n        /* \"#utility.yul\":4261:4283   */\n      swap1\n      pop\n        /* \"#utility.yul\":4328:4329   */\n      0x01\n        /* \"#utility.yul\":4322:4326   */\n      dup3\n        /* \"#utility.yul\":4318:4330   */\n      and\n        /* \"#utility.yul\":4349:4367   */\n      dup1\n        /* \"#utility.yul\":4339:4420   */\n      tag_202\n      jumpi\n        /* \"#utility.yul\":4405:4409   */\n      0x7f\n        /* \"#utility.yul\":4397:4403   */\n      dup3\n        /* \"#utility.yul\":4393:4410   */\n      and\n        /* \"#utility.yul\":4383:4410   */\n      swap2\n      pop\n        /* \"#utility.yul\":4339:4420   */\n    tag_202:\n        /* \"#utility.yul\":4467:4469   */\n      0x20\n        /* \"#utility.yul\":4459:4465   */\n      dup3\n        /* \"#utility.yul\":4456:4470   */\n      lt\n        /* \"#utility.yul\":4436:4454   */\n      dup2\n        /* \"#utility.yul\":4433:4471   */\n      eq\n        /* \"#utility.yul\":4430:4514   */\n      iszero\n      tag_203\n      jumpi\n        /* \"#utility.yul\":4486:4504   */\n      tag_204\n      tag_205\n      jump\t// in\n    tag_204:\n        /* \"#utility.yul\":4430:4514   */\n    tag_203:\n        /* \"#utility.yul\":4251:4520   */\n      pop\n        /* \"#utility.yul\":4200:4520   */\n      swap2\n      swap1\n      pop\n      jump\t// out\n        /* \"#utility.yul\":4526:4706   */\n    tag_176:\n        /* \"#utility.yul\":4574:4651   */\n      0x4e487b7100000000000000000000000000000000000000000000000000000000\n        /* \"#utility.yul\":4571:4572   */\n      0x00\n        /* \"#utility.yul\":4564:4652   */\n      mstore\n        /* \"#utility.yul\":4671:4675   */\n      0x11\n        /* \"#utility.yul\":4668:4669   */\n      0x04\n        /* \"#utility.yul\":4661:4676   */\n      mstore\n        /* \"#utility.yul\":4695:4699   */\n      0x24\n        /* \"#utility.yul\":4692:4693   */\n      0x00\n        /* \"#utility.yul\":4685:4700   */\n      revert\n        /* \"#utility.yul\":4712:4892   */\n    tag_69:\n        /* \"#utility.yul\":4760:4837   */\n      0x4e487b7100000000000000000000000000000000000000000000000000000000\n        /* \"#utility.yul\":4757:4758   */\n      0x00\n        /* \"#utility.yul\":4750:4838   */\n      mstore\n        /* \"#utility.yul\":4857:4861   */\n      0x21\n        /* \"#utility.yul\":4854:4855   */\n      0x04\n        /* \"#utility.yul\":4847:4862   */\n      mstore\n        /* \"#utility.yul\":4881:4885   */\n      0x24\n        /* \"#utility.yul\":4878:4879   */\n      0x00\n        /* \"#utility.yul\":4871:4886   */\n      revert\n        /* \"#utility.yul\":4898:5078   */\n    tag_205:\n        /* \"#utility.yul\":4946:5023   */\n      0x4e487b7100000000000000000000000000000000000000000000000000000000\n        /* \"#utility.yul\":4943:4944   */\n      0x00\n        /* \"#utility.yul\":4936:5024   */\n      mstore\n        /* \"#utility.yul\":5043:5047   */\n      0x22\n        /* \"#utility.yul\":5040:5041   */\n      0x04\n        /* \"#utility.yul\":5033:5048   */\n      mstore\n        /* \"#utility.yul\":5067:5071   */\n      0x24\n        /* \"#utility.yul\":5064:5065   */\n      0x00\n        /* \"#utility.yul\":5057:5072   */\n      revert\n        /* \"#utility.yul\":5207:5324   */\n    tag_135:\n        /* \"#utility.yul\":5316:5317   */\n      0x00\n        /* \"#utility.yul\":5313:5314   */\n      dup1\n        /* \"#utility.yul\":5306:5318   */\n      revert\n        /* \"#utility.yul\":5330:5432   */\n    tag_154:\n        /* \"#utility.yul\":5371:5377   */\n      0x00\n        /* \"#utility.yul\":5422:5424   */\n      0x1f\n        /* \"#utility.yul\":5418:5425   */\n      not\n        /* \"#utility.yul\":5413:5415   */\n      0x1f\n        /* \"#utility.yul\":5406:5411   */\n      dup4\n        /* \"#utility.yul\":5402:5416   */\n      add\n        /* \"#utility.yul\":5398:5426   */\n      and\n        /* \"#utility.yul\":5388:5426   */\n      swap1\n      pop\n        /* \"#utility.yul\":5330:5432   */\n      swap2\n      swap1\n      pop\n      jump\t// out\n        /* \"#utility.yul\":5438:5551   */\n    tag_191:\n        /* \"#utility.yul\":5519:5520   */\n      0x04\n        /* \"#utility.yul\":5512:5517   */\n      dup2\n        /* \"#utility.yul\":5509:5521   */\n      lt\n        /* \"#utility.yul\":5499:5545   */\n      tag_214\n      jumpi\n        /* \"#utility.yul\":5525:5543   */\n      tag_215\n      tag_69\n      jump\t// in\n    tag_215:\n        /* \"#utility.yul\":5499:5545   */\n    tag_214:\n        /* \"#utility.yul\":5438:5551   */\n      pop\n      jump\t// out\n        /* \"#utility.yul\":5557:5679   */\n    tag_131:\n        /* \"#utility.yul\":5630:5654   */\n      tag_217\n        /* \"#utility.yul\":5648:5653   */\n      dup2\n        /* \"#utility.yul\":5630:5654   */\n      tag_182\n      jump\t// in\n    tag_217:\n        /* \"#utility.yul\":5623:5628   */\n      dup2\n        /* \"#utility.yul\":5620:5655   */\n      eq\n        /* \"#utility.yul\":5610:5673   */\n      tag_218\n      jumpi\n        /* \"#utility.yul\":5669:5670   */\n      0x00\n        /* \"#utility.yul\":5666:5667   */\n      dup1\n        /* \"#utility.yul\":5659:5671   */\n      revert\n        /* \"#utility.yul\":5610:5673   */\n    tag_218:\n        /* \"#utility.yul\":5557:5679   */\n      pop\n      jump\t// out\n\n    auxdata: 0xa26469706673582212206943e9533df88dfd4ac4d761e86e01575e8e175ef3eb8c965c959b1f162c5a3464736f6c63430008070033\n}\n",
				"bytecode": {
					"linkReferences": {},
					"object": "60806040523480156200001157600080fd5b50336000806101000a81548173ffffffffffffffffffffffffffffffffffffffff021916908373ffffffffffffffffffffffffffffffffffffffff1602179055506001600460006101000a81548160ff021916908360038111156200007b576200007a62000257565b5b021790555043600181905550619d806001546200009991906200018b565b6002819055506040518060200160405280600081525060039080519060200190620000c6929190620000db565b50662386f26fc10000600881905550620002b5565b828054620000e990620001f2565b90600052602060002090601f0160209004810192826200010d576000855562000159565b82601f106200012857805160ff191683800117855562000159565b8280016001018555821562000159579182015b82811115620001585782518255916020019190600101906200013b565b5b5090506200016891906200016c565b5090565b5b80821115620001875760008160009055506001016200016d565b5090565b60006200019882620001e8565b9150620001a583620001e8565b9250827fffffffffffffffffffffffffffffffffffffffffffffffffffffffffffffffff03821115620001dd57620001dc62000228565b5b828201905092915050565b6000819050919050565b600060028204905060018216806200020b57607f821691505b6020821081141562000222576200022162000286565b5b50919050565b7f4e487b7100000000000000000000000000000000000000000000000000000000600052601160045260246000fd5b7f4e487b7100000000000000000000000000000000000000000000000000000000600052602160045260246000fd5b7f4e487b7100000000000000000000000000000000000000000000000000000000600052602260045260246000fd5b610f1f80620002c56000396000f3fe60806040526004361061009c5760003560e01c80637fb45099116100645780637fb45099146101765780638da5cb5b146101a15780638fa8b790146101cc57806391f90157146101e3578063ecfc7ecc1461020e578063f5b56c56146102185761009c565b8063083c6323146100a157806348cd4cb1146100cc5780634ec4d531146100f75780635228733f1461012257806362ea82db14610139575b600080fd5b3480156100ad57600080fd5b506100b6610243565b6040516100c39190610c82565b60405180910390f35b3480156100d857600080fd5b506100e1610249565b6040516100ee9190610c82565b60405180910390f35b34801561010357600080fd5b5061010c61024f565b6040516101199190610c60565b60405180910390f35b34801561012e57600080fd5b506101376102dd565b005b34801561014557600080fd5b50610160600480360381019061015b9190610b97565b610752565b60405161016d9190610c82565b60405180910390f35b34801561018257600080fd5b5061018b61076a565b6040516101989190610c45565b60405180910390f35b3480156101ad57600080fd5b506101b661077d565b6040516101c39190610c2a565b60405180910390f35b3480156101d857600080fd5b506101e16107a1565b005b3480156101ef57600080fd5b506101f8610826565b6040516102059190610c2a565b60405180910390f35b61021661084c565b005b34801561022457600080fd5b5061022d610b61565b60405161023a9190610c82565b60405180910390f35b60025481565b60015481565b6003805461025c90610de9565b80601f016020809104026020016040519081016040528092919081815260200182805461028890610de9565b80156102d55780601f106102aa576101008083540402835291602001916102d5565b820191906000526020600020905b8154815290600101906020018083116102b857829003601f168201915b505050505081565b6003808111156102f0576102ef610e4a565b5b600460009054906101000a900460ff16600381111561031257610311610e4a565b5b148061035157506002600381111561032d5761032c610e4a565b5b600460009054906101000a900460ff16600381111561034f5761034e610e4a565b5b145b61035a57600080fd5b60008054906101000a900473ffffffffffffffffffffffffffffffffffffffff1673ffffffffffffffffffffffffffffffffffffffff163373ffffffffffffffffffffffffffffffffffffffff161480156103b757506000600554115b8061040157506000600760003373ffffffffffffffffffffffffffffffffffffffff1673ffffffffffffffffffffffffffffffffffffffff16815260200190815260200160002054115b61040a57600080fd5b6000339050600060038081111561042457610423610e4a565b5b600460009054906101000a900460ff16600381111561044657610445610e4a565b5b141561049357600760003373ffffffffffffffffffffffffffffffffffffffff1673ffffffffffffffffffffffffffffffffffffffff1681526020019081526020016000205490506106c2565b60008054906101000a900473ffffffffffffffffffffffffffffffffffffffff1673ffffffffffffffffffffffffffffffffffffffff163373ffffffffffffffffffffffffffffffffffffffff1614156105d3576005549050600060055460076000600660009054906101000a900473ffffffffffffffffffffffffffffffffffffffff1673ffffffffffffffffffffffffffffffffffffffff1673ffffffffffffffffffffffffffffffffffffffff1681526020019081526020016000205461055d9190610d0f565b90508060076000600660009054906101000a900473ffffffffffffffffffffffffffffffffffffffff1673ffffffffffffffffffffffffffffffffffffffff1673ffffffffffffffffffffffffffffffffffffffff168152602001908152602001600020819055506000600581905550506106c1565b600660009054906101000a900473ffffffffffffffffffffffffffffffffffffffff1673ffffffffffffffffffffffffffffffffffffffff163373ffffffffffffffffffffffffffffffffffffffff16141561067d57600554600760003373ffffffffffffffffffffffffffffffffffffffff1673ffffffffffffffffffffffffffffffffffffffff168152602001908152602001600020546106769190610d0f565b90506106c0565b600760003373ffffffffffffffffffffffffffffffffffffffff1673ffffffffffffffffffffffffffffffffffffffff1681526020019081526020016000205490505b5b5b8173ffffffffffffffffffffffffffffffffffffffff166108fc829081150290604051600060405180830381858888f19350505050158015610708573d6000803e3d6000fd5b506000600760003373ffffffffffffffffffffffffffffffffffffffff1673ffffffffffffffffffffffffffffffffffffffff168152602001908152602001600020819055505050565b60076020528060005260406000206000915090505481565b600460009054906101000a900460ff1681565b60008054906101000a900473ffffffffffffffffffffffffffffffffffffffff1681565b60008054906101000a900473ffffffffffffffffffffffffffffffffffffffff1673ffffffffffffffffffffffffffffffffffffffff163373ffffffffffffffffffffffffffffffffffffffff16146107f957600080fd5b6003600460006101000a81548160ff0219169083600381111561081f5761081e610e4a565b5b0217905550565b600660009054906101000a900473ffffffffffffffffffffffffffffffffffffffff1681565b60008054906101000a900473ffffffffffffffffffffffffffffffffffffffff1673ffffffffffffffffffffffffffffffffffffffff163373ffffffffffffffffffffffffffffffffffffffff1614156108a557600080fd5b6001544310156108b457600080fd5b6002544311156108c357600080fd5b600160038111156108d7576108d6610e4a565b5b600460009054906101000a900460ff1660038111156108f9576108f8610e4a565b5b1461090357600080fd5b60085434101561091257600080fd5b600034600760003373ffffffffffffffffffffffffffffffffffffffff1673ffffffffffffffffffffffffffffffffffffffff1681526020019081526020016000205461095f9190610cb9565b9050600554811161096f57600080fd5b80600760003373ffffffffffffffffffffffffffffffffffffffff1673ffffffffffffffffffffffffffffffffffffffff1681526020019081526020016000208190555060076000600660009054906101000a900473ffffffffffffffffffffffffffffffffffffffff1673ffffffffffffffffffffffffffffffffffffffff1673ffffffffffffffffffffffffffffffffffffffff168152602001908152602001600020548111610a9e57610a9360085482610a2c9190610cb9565b60076000600660009054906101000a900473ffffffffffffffffffffffffffffffffffffffff1673ffffffffffffffffffffffffffffffffffffffff1673ffffffffffffffffffffffffffffffffffffffff16815260200190815260200160002054610b67565b600581905550610b5e565b610b1660085460076000600660009054906101000a900473ffffffffffffffffffffffffffffffffffffffff1673ffffffffffffffffffffffffffffffffffffffff1673ffffffffffffffffffffffffffffffffffffffff16815260200190815260200160002054610b109190610cb9565b82610b67565b60058190555033600660006101000a81548173ffffffffffffffffffffffffffffffffffffffff021916908373ffffffffffffffffffffffffffffffffffffffff1602179055505b50565b60055481565b6000818311610b7857829050610b7c565b8190505b92915050565b600081359050610b9181610ed2565b92915050565b600060208284031215610bad57610bac610ea8565b5b6000610bbb84828501610b82565b91505092915050565b610bcd81610d55565b82525050565b610bdc81610da4565b82525050565b6000610bed82610c9d565b610bf78185610ca8565b9350610c07818560208601610db6565b610c1081610ead565b840191505092915050565b610c2481610d9a565b82525050565b6000602082019050610c3f6000830184610bc4565b92915050565b6000602082019050610c5a6000830184610bd3565b92915050565b60006020820190508181036000830152610c7a8184610be2565b905092915050565b6000602082019050610c976000830184610c1b565b92915050565b600081519050919050565b600082825260208201905092915050565b6000610cc482610d9a565b9150610ccf83610d9a565b9250827fffffffffffffffffffffffffffffffffffffffffffffffffffffffffffffffff03821115610d0457610d03610e1b565b5b828201905092915050565b6000610d1a82610d9a565b9150610d2583610d9a565b925082821015610d3857610d37610e1b565b5b828203905092915050565b6000610d4e82610d7a565b9050919050565b6000610d6082610d7a565b9050919050565b6000819050610d7582610ebe565b919050565b600073ffffffffffffffffffffffffffffffffffffffff82169050919050565b6000819050919050565b6000610daf82610d67565b9050919050565b60005b83811015610dd4578082015181840152602081019050610db9565b83811115610de3576000848401525b50505050565b60006002820490506001821680610e0157607f821691505b60208210811415610e1557610e14610e79565b5b50919050565b7f4e487b7100000000000000000000000000000000000000000000000000000000600052601160045260246000fd5b7f4e487b7100000000000000000000000000000000000000000000000000000000600052602160045260246000fd5b7f4e487b7100000000000000000000000000000000000000000000000000000000600052602260045260246000fd5b600080fd5b6000601f19601f8301169050919050565b60048110610ecf57610ece610e4a565b5b50565b610edb81610d43565b8114610ee657600080fd5b5056fea26469706673582212206943e9533df88dfd4ac4d761e86e01575e8e175ef3eb8c965c959b1f162c5a3464736f6c63430008070033",
					"opcodes": "PUSH1 0x80 PUSH1 0x40 MSTORE CALLVALUE DUP1 ISZERO PUSH3 0x11 JUMPI PUSH1 0x0 DUP1 REVERT JUMPDEST POP CALLER PUSH1 0x0 DUP1 PUSH2 0x100 EXP DUP2 SLOAD DUP2 PUSH20 0xFFFFFFFFFFFFFFFFFFFFFFFFFFFFFFFFFFFFFFFF MUL NOT AND SWAP1 DUP4 PUSH20 0xFFFFFFFFFFFFFFFFFFFFFFFFFFFFFFFFFFFFFFFF AND MUL OR SWAP1 SSTORE POP PUSH1 0x1 PUSH1 0x4 PUSH1 0x0 PUSH2 0x100 EXP DUP2 SLOAD DUP2 PUSH1 0xFF MUL NOT AND SWAP1 DUP4 PUSH1 0x3 DUP2 GT ISZERO PUSH3 0x7B JUMPI PUSH3 0x7A PUSH3 0x257 JUMP JUMPDEST JUMPDEST MUL OR SWAP1 SSTORE POP NUMBER PUSH1 0x1 DUP2 SWAP1 SSTORE POP PUSH2 0x9D80 PUSH1 0x1 SLOAD PUSH3 0x99 SWAP2 SWAP1 PUSH3 0x18B JUMP JUMPDEST PUSH1 0x2 DUP2 SWAP1 SSTORE POP PUSH1 0x40 MLOAD DUP1 PUSH1 0x20 ADD PUSH1 0x40 MSTORE DUP1 PUSH1 0x0 DUP2 MSTORE POP PUSH1 0x3 SWAP1 DUP1 MLOAD SWAP1 PUSH1 0x20 ADD SWAP1 PUSH3 0xC6 SWAP3 SWAP2 SWAP1 PUSH3 0xDB JUMP JUMPDEST POP PUSH7 0x2386F26FC10000 PUSH1 0x8 DUP2 SWAP1 SSTORE POP PUSH3 0x2B5 JUMP JUMPDEST DUP3 DUP1 SLOAD PUSH3 0xE9 SWAP1 PUSH3 0x1F2 JUMP JUMPDEST SWAP1 PUSH1 0x0 MSTORE PUSH1 0x20 PUSH1 0x0 KECCAK256 SWAP1 PUSH1 0x1F ADD PUSH1 0x20 SWAP1 DIV DUP2 ADD SWAP3 DUP3 PUSH3 0x10D JUMPI PUSH1 0x0 DUP6 SSTORE PUSH3 0x159 JUMP JUMPDEST DUP3 PUSH1 0x1F LT PUSH3 0x128 JUMPI DUP1 MLOAD PUSH1 0xFF NOT AND DUP4 DUP1 ADD OR DUP6 SSTORE PUSH3 0x159 JUMP JUMPDEST DUP3 DUP1 ADD PUSH1 0x1 ADD DUP6 SSTORE DUP3 ISZERO PUSH3 0x159 JUMPI SWAP2 DUP3 ADD JUMPDEST DUP3 DUP2 GT ISZERO PUSH3 0x158 JUMPI DUP3 MLOAD DUP3 SSTORE SWAP2 PUSH1 0x20 ADD SWAP2 SWAP1 PUSH1 0x1 ADD SWAP1 PUSH3 0x13B JUMP JUMPDEST JUMPDEST POP SWAP1 POP PUSH3 0x168 SWAP2 SWAP1 PUSH3 0x16C JUMP JUMPDEST POP SWAP1 JUMP JUMPDEST JUMPDEST DUP1 DUP3 GT ISZERO PUSH3 0x187 JUMPI PUSH1 0x0 DUP2 PUSH1 0x0 SWAP1 SSTORE POP PUSH1 0x1 ADD PUSH3 0x16D JUMP JUMPDEST POP SWAP1 JUMP JUMPDEST PUSH1 0x0 PUSH3 0x198 DUP3 PUSH3 0x1E8 JUMP JUMPDEST SWAP2 POP PUSH3 0x1A5 DUP4 PUSH3 0x1E8 JUMP JUMPDEST SWAP3 POP DUP3 PUSH32 0xFFFFFFFFFFFFFFFFFFFFFFFFFFFFFFFFFFFFFFFFFFFFFFFFFFFFFFFFFFFFFFFF SUB DUP3 GT ISZERO PUSH3 0x1DD JUMPI PUSH3 0x1DC PUSH3 0x228 JUMP JUMPDEST JUMPDEST DUP3 DUP3 ADD SWAP1 POP SWAP3 SWAP2 POP POP JUMP JUMPDEST PUSH1 0x0 DUP2 SWAP1 POP SWAP2 SWAP1 POP JUMP JUMPDEST PUSH1 0x0 PUSH1 0x2 DUP3 DIV SWAP1 POP PUSH1 0x1 DUP3 AND DUP1 PUSH3 0x20B JUMPI PUSH1 0x7F DUP3 AND SWAP2 POP JUMPDEST PUSH1 0x20 DUP3 LT DUP2 EQ ISZERO PUSH3 0x222 JUMPI PUSH3 0x221 PUSH3 0x286 JUMP JUMPDEST JUMPDEST POP SWAP2 SWAP1 POP JUMP JUMPDEST PUSH32 0x4E487B7100000000000000000000000000000000000000000000000000000000 PUSH1 0x0 MSTORE PUSH1 0x11 PUSH1 0x4 MSTORE PUSH1 0x24 PUSH1 0x0 REVERT JUMPDEST PUSH32 0x4E487B7100000000000000000000000000000000000000000000000000000000 PUSH1 0x0 MSTORE PUSH1 0x21 PUSH1 0x4 MSTORE PUSH1 0x24 PUSH1 0x0 REVERT JUMPDEST PUSH32 0x4E487B7100000000000000000000000000000000000000000000000000000000 PUSH1 0x0 MSTORE PUSH1 0x22 PUSH1 0x4 MSTORE PUSH1 0x24 PUSH1 0x0 REVERT JUMPDEST PUSH2 0xF1F DUP1 PUSH3 0x2C5 PUSH1 0x0 CODECOPY PUSH1 0x0 RETURN INVALID PUSH1 0x80 PUSH1 0x40 MSTORE PUSH1 0x4 CALLDATASIZE LT PUSH2 0x9C JUMPI PUSH1 0x0 CALLDATALOAD PUSH1 0xE0 SHR DUP1 PUSH4 0x7FB45099 GT PUSH2 0x64 JUMPI DUP1 PUSH4 0x7FB45099 EQ PUSH2 0x176 JUMPI DUP1 PUSH4 0x8DA5CB5B EQ PUSH2 0x1A1 JUMPI DUP1 PUSH4 0x8FA8B790 EQ PUSH2 0x1CC JUMPI DUP1 PUSH4 0x91F90157 EQ PUSH2 0x1E3 JUMPI DUP1 PUSH4 0xECFC7ECC EQ PUSH2 0x20E JUMPI DUP1 PUSH4 0xF5B56C56 EQ PUSH2 0x218 JUMPI PUSH2 0x9C JUMP JUMPDEST DUP1 PUSH4 0x83C6323 EQ PUSH2 0xA1 JUMPI DUP1 PUSH4 0x48CD4CB1 EQ PUSH2 0xCC JUMPI DUP1 PUSH4 0x4EC4D531 EQ PUSH2 0xF7 JUMPI DUP1 PUSH4 0x5228733F EQ PUSH2 0x122 JUMPI DUP1 PUSH4 0x62EA82DB EQ PUSH2 0x139 JUMPI JUMPDEST PUSH1 0x0 DUP1 REVERT JUMPDEST CALLVALUE DUP1 ISZERO PUSH2 0xAD JUMPI PUSH1 0x0 DUP1 REVERT JUMPDEST POP PUSH2 0xB6 PUSH2 0x243 JUMP JUMPDEST PUSH1 0x40 MLOAD PUSH2 0xC3 SWAP2 SWAP1 PUSH2 0xC82 JUMP JUMPDEST PUSH1 0x40 MLOAD DUP1 SWAP2 SUB SWAP1 RETURN JUMPDEST CALLVALUE DUP1 ISZERO PUSH2 0xD8 JUMPI PUSH1 0x0 DUP1 REVERT JUMPDEST POP PUSH2 0xE1 PUSH2 0x249 JUMP JUMPDEST PUSH1 0x40 MLOAD PUSH2 0xEE SWAP2 SWAP1 PUSH2 0xC82 JUMP JUMPDEST PUSH1 0x40 MLOAD DUP1 SWAP2 SUB SWAP1 RETURN JUMPDEST CALLVALUE DUP1 ISZERO PUSH2 0x103 JUMPI PUSH1 0x0 DUP1 REVERT JUMPDEST POP PUSH2 0x10C PUSH2 0x24F JUMP JUMPDEST PUSH1 0x40 MLOAD PUSH2 0x119 SWAP2 SWAP1 PUSH2 0xC60 JUMP JUMPDEST PUSH1 0x40 MLOAD DUP1 SWAP2 SUB SWAP1 RETURN JUMPDEST CALLVALUE DUP1 ISZERO PUSH2 0x12E JUMPI PUSH1 0x0 DUP1 REVERT JUMPDEST POP PUSH2 0x137 PUSH2 0x2DD JUMP JUMPDEST STOP JUMPDEST CALLVALUE DUP1 ISZERO PUSH2 0x145 JUMPI PUSH1 0x0 DUP1 REVERT JUMPDEST POP PUSH2 0x160 PUSH1 0x4 DUP1 CALLDATASIZE SUB DUP2 ADD SWAP1 PUSH2 0x15B SWAP2 SWAP1 PUSH2 0xB97 JUMP JUMPDEST PUSH2 0x752 JUMP JUMPDEST PUSH1 0x40 MLOAD PUSH2 0x16D SWAP2 SWAP1 PUSH2 0xC82 JUMP JUMPDEST PUSH1 0x40 MLOAD DUP1 SWAP2 SUB SWAP1 RETURN JUMPDEST CALLVALUE DUP1 ISZERO PUSH2 0x182 JUMPI PUSH1 0x0 DUP1 REVERT JUMPDEST POP PUSH2 0x18B PUSH2 0x76A JUMP JUMPDEST PUSH1 0x40 MLOAD PUSH2 0x198 SWAP2 SWAP1 PUSH2 0xC45 JUMP JUMPDEST PUSH1 0x40 MLOAD DUP1 SWAP2 SUB SWAP1 RETURN JUMPDEST CALLVALUE DUP1 ISZERO PUSH2 0x1AD JUMPI PUSH1 0x0 DUP1 REVERT JUMPDEST POP PUSH2 0x1B6 PUSH2 0x77D JUMP JUMPDEST PUSH1 0x40 MLOAD PUSH2 0x1C3 SWAP2 SWAP1 PUSH2 0xC2A JUMP JUMPDEST PUSH1 0x40 MLOAD DUP1 SWAP2 SUB SWAP1 RETURN JUMPDEST CALLVALUE DUP1 ISZERO PUSH2 0x1D8 JUMPI PUSH1 0x0 DUP1 REVERT JUMPDEST POP PUSH2 0x1E1 PUSH2 0x7A1 JUMP JUMPDEST STOP JUMPDEST CALLVALUE DUP1 ISZERO PUSH2 0x1EF JUMPI PUSH1 0x0 DUP1 REVERT JUMPDEST POP PUSH2 0x1F8 PUSH2 0x826 JUMP JUMPDEST PUSH1 0x40 MLOAD PUSH2 0x205 SWAP2 SWAP1 PUSH2 0xC2A JUMP JUMPDEST PUSH1 0x40 MLOAD DUP1 SWAP2 SUB SWAP1 RETURN JUMPDEST PUSH2 0x216 PUSH2 0x84C JUMP JUMPDEST STOP JUMPDEST CALLVALUE DUP1 ISZERO PUSH2 0x224 JUMPI PUSH1 0x0 DUP1 REVERT JUMPDEST POP PUSH2 0x22D PUSH2 0xB61 JUMP JUMPDEST PUSH1 0x40 MLOAD PUSH2 0x23A SWAP2 SWAP1 PUSH2 0xC82 JUMP JUMPDEST PUSH1 0x40 MLOAD DUP1 SWAP2 SUB SWAP1 RETURN JUMPDEST PUSH1 0x2 SLOAD DUP2 JUMP JUMPDEST PUSH1 0x1 SLOAD DUP2 JUMP JUMPDEST PUSH1 0x3 DUP1 SLOAD PUSH2 0x25C SWAP1 PUSH2 0xDE9 JUMP JUMPDEST DUP1 PUSH1 0x1F ADD PUSH1 0x20 DUP1 SWAP2 DIV MUL PUSH1 0x20 ADD PUSH1 0x40 MLOAD SWAP1 DUP2 ADD PUSH1 0x40 MSTORE DUP1 SWAP3 SWAP2 SWAP1 DUP2 DUP2 MSTORE PUSH1 0x20 ADD DUP3 DUP1 SLOAD PUSH2 0x288 SWAP1 PUSH2 0xDE9 JUMP JUMPDEST DUP1 ISZERO PUSH2 0x2D5 JUMPI DUP1 PUSH1 0x1F LT PUSH2 0x2AA JUMPI PUSH2 0x100 DUP1 DUP4 SLOAD DIV MUL DUP4 MSTORE SWAP2 PUSH1 0x20 ADD SWAP2 PUSH2 0x2D5 JUMP JUMPDEST DUP3 ADD SWAP2 SWAP1 PUSH1 0x0 MSTORE PUSH1 0x20 PUSH1 0x0 KECCAK256 SWAP1 JUMPDEST DUP2 SLOAD DUP2 MSTORE SWAP1 PUSH1 0x1 ADD SWAP1 PUSH1 0x20 ADD DUP1 DUP4 GT PUSH2 0x2B8 JUMPI DUP3 SWAP1 SUB PUSH1 0x1F AND DUP3 ADD SWAP2 JUMPDEST POP POP POP POP POP DUP2 JUMP JUMPDEST PUSH1 0x3 DUP1 DUP2 GT ISZERO PUSH2 0x2F0 JUMPI PUSH2 0x2EF PUSH2 0xE4A JUMP JUMPDEST JUMPDEST PUSH1 0x4 PUSH1 0x0 SWAP1 SLOAD SWAP1 PUSH2 0x100 EXP SWAP1 DIV PUSH1 0xFF AND PUSH1 0x3 DUP2 GT ISZERO PUSH2 0x312 JUMPI PUSH2 0x311 PUSH2 0xE4A JUMP JUMPDEST JUMPDEST EQ DUP1 PUSH2 0x351 JUMPI POP PUSH1 0x2 PUSH1 0x3 DUP2 GT ISZERO PUSH2 0x32D JUMPI PUSH2 0x32C PUSH2 0xE4A JUMP JUMPDEST JUMPDEST PUSH1 0x4 PUSH1 0x0 SWAP1 SLOAD SWAP1 PUSH2 0x100 EXP SWAP1 DIV PUSH1 0xFF AND PUSH1 0x3 DUP2 GT ISZERO PUSH2 0x34F JUMPI PUSH2 0x34E PUSH2 0xE4A JUMP JUMPDEST JUMPDEST EQ JUMPDEST PUSH2 0x35A JUMPI PUSH1 0x0 DUP1 REVERT JUMPDEST PUSH1 0x0 DUP1 SLOAD SWAP1 PUSH2 0x100 EXP SWAP1 DIV PUSH20 0xFFFFFFFFFFFFFFFFFFFFFFFFFFFFFFFFFFFFFFFF AND PUSH20 0xFFFFFFFFFFFFFFFFFFFFFFFFFFFFFFFFFFFFFFFF AND CALLER PUSH20 0xFFFFFFFFFFFFFFFFFFFFFFFFFFFFFFFFFFFFFFFF AND EQ DUP1 ISZERO PUSH2 0x3B7 JUMPI POP PUSH1 0x0 PUSH1 0x5 SLOAD GT JUMPDEST DUP1 PUSH2 0x401 JUMPI POP PUSH1 0x0 PUSH1 0x7 PUSH1 0x0 CALLER PUSH20 0xFFFFFFFFFFFFFFFFFFFFFFFFFFFFFFFFFFFFFFFF AND PUSH20 0xFFFFFFFFFFFFFFFFFFFFFFFFFFFFFFFFFFFFFFFF AND DUP2 MSTORE PUSH1 0x20 ADD SWAP1 DUP2 MSTORE PUSH1 0x20 ADD PUSH1 0x0 KECCAK256 SLOAD GT JUMPDEST PUSH2 0x40A JUMPI PUSH1 0x0 DUP1 REVERT JUMPDEST PUSH1 0x0 CALLER SWAP1 POP PUSH1 0x0 PUSH1 0x3 DUP1 DUP2 GT ISZERO PUSH2 0x424 JUMPI PUSH2 0x423 PUSH2 0xE4A JUMP JUMPDEST JUMPDEST PUSH1 0x4 PUSH1 0x0 SWAP1 SLOAD SWAP1 PUSH2 0x100 EXP SWAP1 DIV PUSH1 0xFF AND PUSH1 0x3 DUP2 GT ISZERO PUSH2 0x446 JUMPI PUSH2 0x445 PUSH2 0xE4A JUMP JUMPDEST JUMPDEST EQ ISZERO PUSH2 0x493 JUMPI PUSH1 0x7 PUSH1 0x0 CALLER PUSH20 0xFFFFFFFFFFFFFFFFFFFFFFFFFFFFFFFFFFFFFFFF AND PUSH20 0xFFFFFFFFFFFFFFFFFFFFFFFFFFFFFFFFFFFFFFFF AND DUP2 MSTORE PUSH1 0x20 ADD SWAP1 DUP2 MSTORE PUSH1 0x20 ADD PUSH1 0x0 KECCAK256 SLOAD SWAP1 POP PUSH2 0x6C2 JUMP JUMPDEST PUSH1 0x0 DUP1 SLOAD SWAP1 PUSH2 0x100 EXP SWAP1 DIV PUSH20 0xFFFFFFFFFFFFFFFFFFFFFFFFFFFFFFFFFFFFFFFF AND PUSH20 0xFFFFFFFFFFFFFFFFFFFFFFFFFFFFFFFFFFFFFFFF AND CALLER PUSH20 0xFFFFFFFFFFFFFFFFFFFFFFFFFFFFFFFFFFFFFFFF AND EQ ISZERO PUSH2 0x5D3 JUMPI PUSH1 0x5 SLOAD SWAP1 POP PUSH1 0x0 PUSH1 0x5 SLOAD PUSH1 0x7 PUSH1 0x0 PUSH1 0x6 PUSH1 0x0 SWAP1 SLOAD SWAP1 PUSH2 0x100 EXP SWAP1 DIV PUSH20 0xFFFFFFFFFFFFFFFFFFFFFFFFFFFFFFFFFFFFFFFF AND PUSH20 0xFFFFFFFFFFFFFFFFFFFFFFFFFFFFFFFFFFFFFFFF AND PUSH20 0xFFFFFFFFFFFFFFFFFFFFFFFFFFFFFFFFFFFFFFFF AND DUP2 MSTORE PUSH1 0x20 ADD SWAP1 DUP2 MSTORE PUSH1 0x20 ADD PUSH1 0x0 KECCAK256 SLOAD PUSH2 0x55D SWAP2 SWAP1 PUSH2 0xD0F JUMP JUMPDEST SWAP1 POP DUP1 PUSH1 0x7 PUSH1 0x0 PUSH1 0x6 PUSH1 0x0 SWAP1 SLOAD SWAP1 PUSH2 0x100 EXP SWAP1 DIV PUSH20 0xFFFFFFFFFFFFFFFFFFFFFFFFFFFFFFFFFFFFFFFF AND PUSH20 0xFFFFFFFFFFFFFFFFFFFFFFFFFFFFFFFFFFFFFFFF AND PUSH20 0xFFFFFFFFFFFFFFFFFFFFFFFFFFFFFFFFFFFFFFFF AND DUP2 MSTORE PUSH1 0x20 ADD SWAP1 DUP2 MSTORE PUSH1 0x20 ADD PUSH1 0x0 KECCAK256 DUP2 SWAP1 SSTORE POP PUSH1 0x0 PUSH1 0x5 DUP2 SWAP1 SSTORE POP POP PUSH2 0x6C1 JUMP JUMPDEST PUSH1 0x6 PUSH1 0x0 SWAP1 SLOAD SWAP1 PUSH2 0x100 EXP SWAP1 DIV PUSH20 0xFFFFFFFFFFFFFFFFFFFFFFFFFFFFFFFFFFFFFFFF AND PUSH20 0xFFFFFFFFFFFFFFFFFFFFFFFFFFFFFFFFFFFFFFFF AND CALLER PUSH20 0xFFFFFFFFFFFFFFFFFFFFFFFFFFFFFFFFFFFFFFFF AND EQ ISZERO PUSH2 0x67D JUMPI PUSH1 0x5 SLOAD PUSH1 0x7 PUSH1 0x0 CALLER PUSH20 0xFFFFFFFFFFFFFFFFFFFFFFFFFFFFFFFFFFFFFFFF AND PUSH20 0xFFFFFFFFFFFFFFFFFFFFFFFFFFFFFFFFFFFFFFFF AND DUP2 MSTORE PUSH1 0x20 ADD SWAP1 DUP2 MSTORE PUSH1 0x20 ADD PUSH1 0x0 KECCAK256 SLOAD PUSH2 0x676 SWAP2 SWAP1 PUSH2 0xD0F JUMP JUMPDEST SWAP1 POP PUSH2 0x6C0 JUMP JUMPDEST PUSH1 0x7 PUSH1 0x0 CALLER PUSH20 0xFFFFFFFFFFFFFFFFFFFFFFFFFFFFFFFFFFFFFFFF AND PUSH20 0xFFFFFFFFFFFFFFFFFFFFFFFFFFFFFFFFFFFFFFFF AND DUP2 MSTORE PUSH1 0x20 ADD SWAP1 DUP2 MSTORE PUSH1 0x20 ADD PUSH1 0x0 KECCAK256 SLOAD SWAP1 POP JUMPDEST JUMPDEST JUMPDEST DUP2 PUSH20 0xFFFFFFFFFFFFFFFFFFFFFFFFFFFFFFFFFFFFFFFF AND PUSH2 0x8FC DUP3 SWAP1 DUP2 ISZERO MUL SWAP1 PUSH1 0x40 MLOAD PUSH1 0x0 PUSH1 0x40 MLOAD DUP1 DUP4 SUB DUP2 DUP6 DUP9 DUP9 CALL SWAP4 POP POP POP POP ISZERO DUP1 ISZERO PUSH2 0x708 JUMPI RETURNDATASIZE PUSH1 0x0 DUP1 RETURNDATACOPY RETURNDATASIZE PUSH1 0x0 REVERT JUMPDEST POP PUSH1 0x0 PUSH1 0x7 PUSH1 0x0 CALLER PUSH20 0xFFFFFFFFFFFFFFFFFFFFFFFFFFFFFFFFFFFFFFFF AND PUSH20 0xFFFFFFFFFFFFFFFFFFFFFFFFFFFFFFFFFFFFFFFF AND DUP2 MSTORE PUSH1 0x20 ADD SWAP1 DUP2 MSTORE PUSH1 0x20 ADD PUSH1 0x0 KECCAK256 DUP2 SWAP1 SSTORE POP POP POP JUMP JUMPDEST PUSH1 0x7 PUSH1 0x20 MSTORE DUP1 PUSH1 0x0 MSTORE PUSH1 0x40 PUSH1 0x0 KECCAK256 PUSH1 0x0 SWAP2 POP SWAP1 POP SLOAD DUP2 JUMP JUMPDEST PUSH1 0x4 PUSH1 0x0 SWAP1 SLOAD SWAP1 PUSH2 0x100 EXP SWAP1 DIV PUSH1 0xFF AND DUP2 JUMP JUMPDEST PUSH1 0x0 DUP1 SLOAD SWAP1 PUSH2 0x100 EXP SWAP1 DIV PUSH20 0xFFFFFFFFFFFFFFFFFFFFFFFFFFFFFFFFFFFFFFFF AND DUP2 JUMP JUMPDEST PUSH1 0x0 DUP1 SLOAD SWAP1 PUSH2 0x100 EXP SWAP1 DIV PUSH20 0xFFFFFFFFFFFFFFFFFFFFFFFFFFFFFFFFFFFFFFFF AND PUSH20 0xFFFFFFFFFFFFFFFFFFFFFFFFFFFFFFFFFFFFFFFF AND CALLER PUSH20 0xFFFFFFFFFFFFFFFFFFFFFFFFFFFFFFFFFFFFFFFF AND EQ PUSH2 0x7F9 JUMPI PUSH1 0x0 DUP1 REVERT JUMPDEST PUSH1 0x3 PUSH1 0x4 PUSH1 0x0 PUSH2 0x100 EXP DUP2 SLOAD DUP2 PUSH1 0xFF MUL NOT AND SWAP1 DUP4 PUSH1 0x3 DUP2 GT ISZERO PUSH2 0x81F JUMPI PUSH2 0x81E PUSH2 0xE4A JUMP JUMPDEST JUMPDEST MUL OR SWAP1 SSTORE POP JUMP JUMPDEST PUSH1 0x6 PUSH1 0x0 SWAP1 SLOAD SWAP1 PUSH2 0x100 EXP SWAP1 DIV PUSH20 0xFFFFFFFFFFFFFFFFFFFFFFFFFFFFFFFFFFFFFFFF AND DUP2 JUMP JUMPDEST PUSH1 0x0 DUP1 SLOAD SWAP1 PUSH2 0x100 EXP SWAP1 DIV PUSH20 0xFFFFFFFFFFFFFFFFFFFFFFFFFFFFFFFFFFFFFFFF AND PUSH20 0xFFFFFFFFFFFFFFFFFFFFFFFFFFFFFFFFFFFFFFFF AND CALLER PUSH20 0xFFFFFFFFFFFFFFFFFFFFFFFFFFFFFFFFFFFFFFFF AND EQ ISZERO PUSH2 0x8A5 JUMPI PUSH1 0x0 DUP1 REVERT JUMPDEST PUSH1 0x1 SLOAD NUMBER LT ISZERO PUSH2 0x8B4 JUMPI PUSH1 0x0 DUP1 REVERT JUMPDEST PUSH1 0x2 SLOAD NUMBER GT ISZERO PUSH2 0x8C3 JUMPI PUSH1 0x0 DUP1 REVERT JUMPDEST PUSH1 0x1 PUSH1 0x3 DUP2 GT ISZERO PUSH2 0x8D7 JUMPI PUSH2 0x8D6 PUSH2 0xE4A JUMP JUMPDEST JUMPDEST PUSH1 0x4 PUSH1 0x0 SWAP1 SLOAD SWAP1 PUSH2 0x100 EXP SWAP1 DIV PUSH1 0xFF AND PUSH1 0x3 DUP2 GT ISZERO PUSH2 0x8F9 JUMPI PUSH2 0x8F8 PUSH2 0xE4A JUMP JUMPDEST JUMPDEST EQ PUSH2 0x903 JUMPI PUSH1 0x0 DUP1 REVERT JUMPDEST PUSH1 0x8 SLOAD CALLVALUE LT ISZERO PUSH2 0x912 JUMPI PUSH1 0x0 DUP1 REVERT JUMPDEST PUSH1 0x0 CALLVALUE PUSH1 0x7 PUSH1 0x0 CALLER PUSH20 0xFFFFFFFFFFFFFFFFFFFFFFFFFFFFFFFFFFFFFFFF AND PUSH20 0xFFFFFFFFFFFFFFFFFFFFFFFFFFFFFFFFFFFFFFFF AND DUP2 MSTORE PUSH1 0x20 ADD SWAP1 DUP2 MSTORE PUSH1 0x20 ADD PUSH1 0x0 KECCAK256 SLOAD PUSH2 0x95F SWAP2 SWAP1 PUSH2 0xCB9 JUMP JUMPDEST SWAP1 POP PUSH1 0x5 SLOAD DUP2 GT PUSH2 0x96F JUMPI PUSH1 0x0 DUP1 REVERT JUMPDEST DUP1 PUSH1 0x7 PUSH1 0x0 CALLER PUSH20 0xFFFFFFFFFFFFFFFFFFFFFFFFFFFFFFFFFFFFFFFF AND PUSH20 0xFFFFFFFFFFFFFFFFFFFFFFFFFFFFFFFFFFFFFFFF AND DUP2 MSTORE PUSH1 0x20 ADD SWAP1 DUP2 MSTORE PUSH1 0x20 ADD PUSH1 0x0 KECCAK256 DUP2 SWAP1 SSTORE POP PUSH1 0x7 PUSH1 0x0 PUSH1 0x6 PUSH1 0x0 SWAP1 SLOAD SWAP1 PUSH2 0x100 EXP SWAP1 DIV PUSH20 0xFFFFFFFFFFFFFFFFFFFFFFFFFFFFFFFFFFFFFFFF AND PUSH20 0xFFFFFFFFFFFFFFFFFFFFFFFFFFFFFFFFFFFFFFFF AND PUSH20 0xFFFFFFFFFFFFFFFFFFFFFFFFFFFFFFFFFFFFFFFF AND DUP2 MSTORE PUSH1 0x20 ADD SWAP1 DUP2 MSTORE PUSH1 0x20 ADD PUSH1 0x0 KECCAK256 SLOAD DUP2 GT PUSH2 0xA9E JUMPI PUSH2 0xA93 PUSH1 0x8 SLOAD DUP3 PUSH2 0xA2C SWAP2 SWAP1 PUSH2 0xCB9 JUMP JUMPDEST PUSH1 0x7 PUSH1 0x0 PUSH1 0x6 PUSH1 0x0 SWAP1 SLOAD SWAP1 PUSH2 0x100 EXP SWAP1 DIV PUSH20 0xFFFFFFFFFFFFFFFFFFFFFFFFFFFFFFFFFFFFFFFF AND PUSH20 0xFFFFFFFFFFFFFFFFFFFFFFFFFFFFFFFFFFFFFFFF AND PUSH20 0xFFFFFFFFFFFFFFFFFFFFFFFFFFFFFFFFFFFFFFFF AND DUP2 MSTORE PUSH1 0x20 ADD SWAP1 DUP2 MSTORE PUSH1 0x20 ADD PUSH1 0x0 KECCAK256 SLOAD PUSH2 0xB67 JUMP JUMPDEST PUSH1 0x5 DUP2 SWAP1 SSTORE POP PUSH2 0xB5E JUMP JUMPDEST PUSH2 0xB16 PUSH1 0x8 SLOAD PUSH1 0x7 PUSH1 0x0 PUSH1 0x6 PUSH1 0x0 SWAP1 SLOAD SWAP1 PUSH2 0x100 EXP SWAP1 DIV PUSH20 0xFFFFFFFFFFFFFFFFFFFFFFFFFFFFFFFFFFFFFFFF AND PUSH20 0xFFFFFFFFFFFFFFFFFFFFFFFFFFFFFFFFFFFFFFFF AND PUSH20 0xFFFFFFFFFFFFFFFFFFFFFFFFFFFFFFFFFFFFFFFF AND DUP2 MSTORE PUSH1 0x20 ADD SWAP1 DUP2 MSTORE PUSH1 0x20 ADD PUSH1 0x0 KECCAK256 SLOAD PUSH2 0xB10 SWAP2 SWAP1 PUSH2 0xCB9 JUMP JUMPDEST DUP3 PUSH2 0xB67 JUMP JUMPDEST PUSH1 0x5 DUP2 SWAP1 SSTORE POP CALLER PUSH1 0x6 PUSH1 0x0 PUSH2 0x100 EXP DUP2 SLOAD DUP2 PUSH20 0xFFFFFFFFFFFFFFFFFFFFFFFFFFFFFFFFFFFFFFFF MUL NOT AND SWAP1 DUP4 PUSH20 0xFFFFFFFFFFFFFFFFFFFFFFFFFFFFFFFFFFFFFFFF AND MUL OR SWAP1 SSTORE POP JUMPDEST POP JUMP JUMPDEST PUSH1 0x5 SLOAD DUP2 JUMP JUMPDEST PUSH1 0x0 DUP2 DUP4 GT PUSH2 0xB78 JUMPI DUP3 SWAP1 POP PUSH2 0xB7C JUMP JUMPDEST DUP2 SWAP1 POP JUMPDEST SWAP3 SWAP2 POP POP JUMP JUMPDEST PUSH1 0x0 DUP2 CALLDATALOAD SWAP1 POP PUSH2 0xB91 DUP2 PUSH2 0xED2 JUMP JUMPDEST SWAP3 SWAP2 POP POP JUMP JUMPDEST PUSH1 0x0 PUSH1 0x20 DUP3 DUP5 SUB SLT ISZERO PUSH2 0xBAD JUMPI PUSH2 0xBAC PUSH2 0xEA8 JUMP JUMPDEST JUMPDEST PUSH1 0x0 PUSH2 0xBBB DUP5 DUP3 DUP6 ADD PUSH2 0xB82 JUMP JUMPDEST SWAP2 POP POP SWAP3 SWAP2 POP POP JUMP JUMPDEST PUSH2 0xBCD DUP2 PUSH2 0xD55 JUMP JUMPDEST DUP3 MSTORE POP POP JUMP JUMPDEST PUSH2 0xBDC DUP2 PUSH2 0xDA4 JUMP JUMPDEST DUP3 MSTORE POP POP JUMP JUMPDEST PUSH1 0x0 PUSH2 0xBED DUP3 PUSH2 0xC9D JUMP JUMPDEST PUSH2 0xBF7 DUP2 DUP6 PUSH2 0xCA8 JUMP JUMPDEST SWAP4 POP PUSH2 0xC07 DUP2 DUP6 PUSH1 0x20 DUP7 ADD PUSH2 0xDB6 JUMP JUMPDEST PUSH2 0xC10 DUP2 PUSH2 0xEAD JUMP JUMPDEST DUP5 ADD SWAP2 POP POP SWAP3 SWAP2 POP POP JUMP JUMPDEST PUSH2 0xC24 DUP2 PUSH2 0xD9A JUMP JUMPDEST DUP3 MSTORE POP POP JUMP JUMPDEST PUSH1 0x0 PUSH1 0x20 DUP3 ADD SWAP1 POP PUSH2 0xC3F PUSH1 0x0 DUP4 ADD DUP5 PUSH2 0xBC4 JUMP JUMPDEST SWAP3 SWAP2 POP POP JUMP JUMPDEST PUSH1 0x0 PUSH1 0x20 DUP3 ADD SWAP1 POP PUSH2 0xC5A PUSH1 0x0 DUP4 ADD DUP5 PUSH2 0xBD3 JUMP JUMPDEST SWAP3 SWAP2 POP POP JUMP JUMPDEST PUSH1 0x0 PUSH1 0x20 DUP3 ADD SWAP1 POP DUP2 DUP2 SUB PUSH1 0x0 DUP4 ADD MSTORE PUSH2 0xC7A DUP2 DUP5 PUSH2 0xBE2 JUMP JUMPDEST SWAP1 POP SWAP3 SWAP2 POP POP JUMP JUMPDEST PUSH1 0x0 PUSH1 0x20 DUP3 ADD SWAP1 POP PUSH2 0xC97 PUSH1 0x0 DUP4 ADD DUP5 PUSH2 0xC1B JUMP JUMPDEST SWAP3 SWAP2 POP POP JUMP JUMPDEST PUSH1 0x0 DUP2 MLOAD SWAP1 POP SWAP2 SWAP1 POP JUMP JUMPDEST PUSH1 0x0 DUP3 DUP3 MSTORE PUSH1 0x20 DUP3 ADD SWAP1 POP SWAP3 SWAP2 POP POP JUMP JUMPDEST PUSH1 0x0 PUSH2 0xCC4 DUP3 PUSH2 0xD9A JUMP JUMPDEST SWAP2 POP PUSH2 0xCCF DUP4 PUSH2 0xD9A JUMP JUMPDEST SWAP3 POP DUP3 PUSH32 0xFFFFFFFFFFFFFFFFFFFFFFFFFFFFFFFFFFFFFFFFFFFFFFFFFFFFFFFFFFFFFFFF SUB DUP3 GT ISZERO PUSH2 0xD04 JUMPI PUSH2 0xD03 PUSH2 0xE1B JUMP JUMPDEST JUMPDEST DUP3 DUP3 ADD SWAP1 POP SWAP3 SWAP2 POP POP JUMP JUMPDEST PUSH1 0x0 PUSH2 0xD1A DUP3 PUSH2 0xD9A JUMP JUMPDEST SWAP2 POP PUSH2 0xD25 DUP4 PUSH2 0xD9A JUMP JUMPDEST SWAP3 POP DUP3 DUP3 LT ISZERO PUSH2 0xD38 JUMPI PUSH2 0xD37 PUSH2 0xE1B JUMP JUMPDEST JUMPDEST DUP3 DUP3 SUB SWAP1 POP SWAP3 SWAP2 POP POP JUMP JUMPDEST PUSH1 0x0 PUSH2 0xD4E DUP3 PUSH2 0xD7A JUMP JUMPDEST SWAP1 POP SWAP2 SWAP1 POP JUMP JUMPDEST PUSH1 0x0 PUSH2 0xD60 DUP3 PUSH2 0xD7A JUMP JUMPDEST SWAP1 POP SWAP2 SWAP1 POP JUMP JUMPDEST PUSH1 0x0 DUP2 SWAP1 POP PUSH2 0xD75 DUP3 PUSH2 0xEBE JUMP JUMPDEST SWAP2 SWAP1 POP JUMP JUMPDEST PUSH1 0x0 PUSH20 0xFFFFFFFFFFFFFFFFFFFFFFFFFFFFFFFFFFFFFFFF DUP3 AND SWAP1 POP SWAP2 SWAP1 POP JUMP JUMPDEST PUSH1 0x0 DUP2 SWAP1 POP SWAP2 SWAP1 POP JUMP JUMPDEST PUSH1 0x0 PUSH2 0xDAF DUP3 PUSH2 0xD67 JUMP JUMPDEST SWAP1 POP SWAP2 SWAP1 POP JUMP JUMPDEST PUSH1 0x0 JUMPDEST DUP4 DUP2 LT ISZERO PUSH2 0xDD4 JUMPI DUP1 DUP3 ADD MLOAD DUP2 DUP5 ADD MSTORE PUSH1 0x20 DUP2 ADD SWAP1 POP PUSH2 0xDB9 JUMP JUMPDEST DUP4 DUP2 GT ISZERO PUSH2 0xDE3 JUMPI PUSH1 0x0 DUP5 DUP5 ADD MSTORE JUMPDEST POP POP POP POP JUMP JUMPDEST PUSH1 0x0 PUSH1 0x2 DUP3 DIV SWAP1 POP PUSH1 0x1 DUP3 AND DUP1 PUSH2 0xE01 JUMPI PUSH1 0x7F DUP3 AND SWAP2 POP JUMPDEST PUSH1 0x20 DUP3 LT DUP2 EQ ISZERO PUSH2 0xE15 JUMPI PUSH2 0xE14 PUSH2 0xE79 JUMP JUMPDEST JUMPDEST POP SWAP2 SWAP1 POP JUMP JUMPDEST PUSH32 0x4E487B7100000000000000000000000000000000000000000000000000000000 PUSH1 0x0 MSTORE PUSH1 0x11 PUSH1 0x4 MSTORE PUSH1 0x24 PUSH1 0x0 REVERT JUMPDEST PUSH32 0x4E487B7100000000000000000000000000000000000000000000000000000000 PUSH1 0x0 MSTORE PUSH1 0x21 PUSH1 0x4 MSTORE PUSH1 0x24 PUSH1 0x0 REVERT JUMPDEST PUSH32 0x4E487B7100000000000000000000000000000000000000000000000000000000 PUSH1 0x0 MSTORE PUSH1 0x22 PUSH1 0x4 MSTORE PUSH1 0x24 PUSH1 0x0 REVERT JUMPDEST PUSH1 0x0 DUP1 REVERT JUMPDEST PUSH1 0x0 PUSH1 0x1F NOT PUSH1 0x1F DUP4 ADD AND SWAP1 POP SWAP2 SWAP1 POP JUMP JUMPDEST PUSH1 0x4 DUP2 LT PUSH2 0xECF JUMPI PUSH2 0xECE PUSH2 0xE4A JUMP JUMPDEST JUMPDEST POP JUMP JUMPDEST PUSH2 0xEDB DUP2 PUSH2 0xD43 JUMP JUMPDEST DUP2 EQ PUSH2 0xEE6 JUMPI PUSH1 0x0 DUP1 REVERT JUMPDEST POP JUMP INVALID LOG2 PUSH5 0x6970667358 0x22 SLT KECCAK256 PUSH10 0x43E9533DF88DFD4AC4D7 PUSH2 0xE86E ADD JUMPI 0x5E DUP15 OR 0x5E RETURN 0xEB DUP13 SWAP7 0x5C SWAP6 SWAP12 0x1F AND 0x2C GAS CALLVALUE PUSH5 0x736F6C6343 STOP ADDMOD SMOD STOP CALLER "
				},
				"gasEstimates": {
					"creation": {
						"codeDepositCost": "774200",
						"executionCost": "infinite",
						"totalCost": "infinite"
					},
					"external": {
						"auctionState()": "2560",
						"bids(address)": "2903",
						"cancelAuction()": "26642",
						"endBlock()": "2430",
						"finaliseAuction()": "infinite",
						"highestBidder()": "2580",
						"highestBindingBid()": "2539",
						"ipfhHash()": "infinite",
						"owner()": "2533",
						"placeBid()": "infinite",
						"startBlock()": "2452"
					},
					"internal": {
						"min(uint256,uint256)": "64"
					}
				},
				"methodIdentifiers": {
					"auctionState()": "7fb45099",
					"bids(address)": "62ea82db",
					"cancelAuction()": "8fa8b790",
					"endBlock()": "083c6323",
					"finaliseAuction()": "5228733f",
					"highestBidder()": "91f90157",
					"highestBindingBid()": "f5b56c56",
					"ipfhHash()": "4ec4d531",
					"owner()": "8da5cb5b",
					"placeBid()": "ecfc7ecc",
					"startBlock()": "48cd4cb1"
				}
			},
			"storageLayout": {
				"storage": [
					{
						"astId": 3,
						"contract": "contracts/Auction.sol:Auction",
						"label": "owner",
						"offset": 0,
						"slot": "0",
						"type": "t_address_payable"
					},
					{
						"astId": 5,
						"contract": "contracts/Auction.sol:Auction",
						"label": "startBlock",
						"offset": 0,
						"slot": "1",
						"type": "t_uint256"
					},
					{
						"astId": 7,
						"contract": "contracts/Auction.sol:Auction",
						"label": "endBlock",
						"offset": 0,
						"slot": "2",
						"type": "t_uint256"
					},
					{
						"astId": 9,
						"contract": "contracts/Auction.sol:Auction",
						"label": "ipfhHash",
						"offset": 0,
						"slot": "3",
						"type": "t_string_storage"
					},
					{
						"astId": 17,
						"contract": "contracts/Auction.sol:Auction",
						"label": "auctionState",
						"offset": 0,
						"slot": "4",
						"type": "t_enum(State)14"
					},
					{
						"astId": 19,
						"contract": "contracts/Auction.sol:Auction",
						"label": "highestBindingBid",
						"offset": 0,
						"slot": "5",
						"type": "t_uint256"
					},
					{
						"astId": 21,
						"contract": "contracts/Auction.sol:Auction",
						"label": "highestBidder",
						"offset": 0,
						"slot": "6",
						"type": "t_address_payable"
					},
					{
						"astId": 25,
						"contract": "contracts/Auction.sol:Auction",
						"label": "bids",
						"offset": 0,
						"slot": "7",
						"type": "t_mapping(t_address,t_uint256)"
					},
					{
						"astId": 27,
						"contract": "contracts/Auction.sol:Auction",
						"label": "bidIncrement",
						"offset": 0,
						"slot": "8",
						"type": "t_uint256"
					}
				],
				"types": {
					"t_address": {
						"encoding": "inplace",
						"label": "address",
						"numberOfBytes": "20"
					},
					"t_address_payable": {
						"encoding": "inplace",
						"label": "address payable",
						"numberOfBytes": "20"
					},
					"t_enum(State)14": {
						"encoding": "inplace",
						"label": "enum Auction.State",
						"numberOfBytes": "1"
					},
					"t_mapping(t_address,t_uint256)": {
						"encoding": "mapping",
						"key": "t_address",
						"label": "mapping(address => uint256)",
						"numberOfBytes": "32",
						"value": "t_uint256"
					},
					"t_string_storage": {
						"encoding": "bytes",
						"label": "string",
						"numberOfBytes": "32"
					},
					"t_uint256": {
						"encoding": "inplace",
						"label": "uint256",
						"numberOfBytes": "32"
					}
				}
			},
			"userdoc": {
				"kind": "user",
				"methods": {},
				"version": 1
			}
		}
	}
}